{
  "_format": "hh-sol-artifact-1",
  "contractName": "InfectedApePlanet",
  "sourceName": "src/backend/contracts/InfectedApePlanet.sol",
  "abi": [
    {
      "inputs": [
        {
          "internalType": "address",
          "name": "_openseaProxyRegistryAddress",
          "type": "address"
        }
      ],
      "stateMutability": "nonpayable",
      "type": "constructor"
    },
    {
      "anonymous": false,
      "inputs": [
        {
          "indexed": true,
          "internalType": "address",
          "name": "owner",
          "type": "address"
        },
        {
          "indexed": true,
          "internalType": "address",
          "name": "approved",
          "type": "address"
        },
        {
          "indexed": true,
          "internalType": "uint256",
          "name": "tokenId",
          "type": "uint256"
        }
      ],
      "name": "Approval",
      "type": "event"
    },
    {
      "anonymous": false,
      "inputs": [
        {
          "indexed": true,
          "internalType": "address",
          "name": "owner",
          "type": "address"
        },
        {
          "indexed": true,
          "internalType": "address",
          "name": "operator",
          "type": "address"
        },
        {
          "indexed": false,
          "internalType": "bool",
          "name": "approved",
          "type": "bool"
        }
      ],
      "name": "ApprovalForAll",
      "type": "event"
    },
    {
      "anonymous": false,
      "inputs": [
        {
          "indexed": true,
          "internalType": "address",
          "name": "previousOwner",
          "type": "address"
        },
        {
          "indexed": true,
          "internalType": "address",
          "name": "newOwner",
          "type": "address"
        }
      ],
      "name": "OwnershipTransferred",
      "type": "event"
    },
    {
      "anonymous": false,
      "inputs": [
        {
          "indexed": true,
          "internalType": "address",
          "name": "sender",
          "type": "address"
        },
        {
          "indexed": true,
          "internalType": "uint256",
          "name": "amount",
          "type": "uint256"
        }
      ],
      "name": "ReceivedEther",
      "type": "event"
    },
    {
      "anonymous": false,
      "inputs": [
        {
          "indexed": true,
          "internalType": "address",
          "name": "from",
          "type": "address"
        },
        {
          "indexed": true,
          "internalType": "address",
          "name": "to",
          "type": "address"
        },
        {
          "indexed": true,
          "internalType": "uint256",
          "name": "tokenId",
          "type": "uint256"
        }
      ],
      "name": "Transfer",
      "type": "event"
    },
    {
      "anonymous": false,
      "inputs": [
        {
          "indexed": true,
          "internalType": "string",
          "name": "baseURI",
          "type": "string"
        }
      ],
      "name": "setBaseURIEvent",
      "type": "event"
    },
    {
      "inputs": [
        {
          "internalType": "address",
          "name": "to",
          "type": "address"
        },
        {
          "internalType": "uint256",
          "name": "tokenId",
          "type": "uint256"
        }
      ],
      "name": "approve",
      "outputs": [],
      "stateMutability": "nonpayable",
      "type": "function"
    },
    {
      "inputs": [
        {
          "internalType": "address",
          "name": "owner",
          "type": "address"
        }
      ],
      "name": "balanceOf",
      "outputs": [
        {
          "internalType": "uint256",
          "name": "",
          "type": "uint256"
        }
      ],
      "stateMutability": "view",
      "type": "function"
    },
    {
      "inputs": [],
      "name": "baseURIString",
      "outputs": [
        {
          "internalType": "string",
          "name": "",
          "type": "string"
        }
      ],
      "stateMutability": "view",
      "type": "function"
    },
    {
      "inputs": [
        {
          "internalType": "uint256",
          "name": "tokenId",
          "type": "uint256"
        }
      ],
      "name": "exists",
      "outputs": [
        {
          "internalType": "bool",
          "name": "",
          "type": "bool"
        }
      ],
      "stateMutability": "view",
      "type": "function"
    },
    {
      "inputs": [
        {
          "internalType": "uint256",
          "name": "tokenId",
          "type": "uint256"
        }
      ],
      "name": "getApproved",
      "outputs": [
        {
          "internalType": "address",
          "name": "",
          "type": "address"
        }
      ],
      "stateMutability": "view",
      "type": "function"
    },
    {
      "inputs": [],
      "name": "infectContract",
      "outputs": [
        {
          "internalType": "address",
          "name": "",
          "type": "address"
        }
      ],
      "stateMutability": "view",
      "type": "function"
    },
    {
      "inputs": [
        {
          "internalType": "address",
          "name": "owner",
          "type": "address"
        },
        {
          "internalType": "address",
          "name": "operator",
          "type": "address"
        }
      ],
      "name": "isApprovedForAll",
      "outputs": [
        {
          "internalType": "bool",
          "name": "",
          "type": "bool"
        }
      ],
      "stateMutability": "view",
      "type": "function"
    },
    {
      "inputs": [
        {
          "internalType": "uint256",
          "name": "tokenId",
          "type": "uint256"
        },
        {
          "internalType": "address",
          "name": "_to",
          "type": "address"
        }
      ],
      "name": "mintTo",
      "outputs": [],
      "stateMutability": "nonpayable",
      "type": "function"
    },
    {
      "inputs": [],
      "name": "name",
      "outputs": [
        {
          "internalType": "string",
          "name": "",
          "type": "string"
        }
      ],
      "stateMutability": "view",
      "type": "function"
    },
    {
      "inputs": [],
      "name": "openseaProxyRegistryAddress",
      "outputs": [
        {
          "internalType": "address",
          "name": "",
          "type": "address"
        }
      ],
      "stateMutability": "view",
      "type": "function"
    },
    {
      "inputs": [],
      "name": "owner",
      "outputs": [
        {
          "internalType": "address",
          "name": "",
          "type": "address"
        }
      ],
      "stateMutability": "view",
      "type": "function"
    },
    {
      "inputs": [
        {
          "internalType": "uint256",
          "name": "tokenId",
          "type": "uint256"
        }
      ],
      "name": "ownerOf",
      "outputs": [
        {
          "internalType": "address",
          "name": "",
          "type": "address"
        }
      ],
      "stateMutability": "view",
      "type": "function"
    },
    {
      "inputs": [],
      "name": "renounceOwnership",
      "outputs": [],
      "stateMutability": "nonpayable",
      "type": "function"
    },
    {
      "inputs": [
        {
          "internalType": "address",
          "name": "from",
          "type": "address"
        },
        {
          "internalType": "address",
          "name": "to",
          "type": "address"
        },
        {
          "internalType": "uint256",
          "name": "tokenId",
          "type": "uint256"
        }
      ],
      "name": "safeTransferFrom",
      "outputs": [],
      "stateMutability": "nonpayable",
      "type": "function"
    },
    {
      "inputs": [
        {
          "internalType": "address",
          "name": "from",
          "type": "address"
        },
        {
          "internalType": "address",
          "name": "to",
          "type": "address"
        },
        {
          "internalType": "uint256",
          "name": "tokenId",
          "type": "uint256"
        },
        {
          "internalType": "bytes",
          "name": "data",
          "type": "bytes"
        }
      ],
      "name": "safeTransferFrom",
      "outputs": [],
      "stateMutability": "nonpayable",
      "type": "function"
    },
    {
      "inputs": [
        {
          "internalType": "address",
          "name": "operator",
          "type": "address"
        },
        {
          "internalType": "bool",
          "name": "approved",
          "type": "bool"
        }
      ],
      "name": "setApprovalForAll",
      "outputs": [],
      "stateMutability": "nonpayable",
      "type": "function"
    },
    {
      "inputs": [
        {
          "internalType": "string",
          "name": "_newBaseURI",
          "type": "string"
        }
      ],
      "name": "setBaseURI",
      "outputs": [],
      "stateMutability": "nonpayable",
      "type": "function"
    },
    {
      "inputs": [
        {
          "internalType": "address",
          "name": "newInfectContract",
          "type": "address"
        }
      ],
      "name": "setInfectContract",
      "outputs": [],
      "stateMutability": "nonpayable",
      "type": "function"
    },
    {
      "inputs": [
        {
          "internalType": "bytes4",
          "name": "interfaceId",
          "type": "bytes4"
        }
      ],
      "name": "supportsInterface",
      "outputs": [
        {
          "internalType": "bool",
          "name": "",
          "type": "bool"
        }
      ],
      "stateMutability": "view",
      "type": "function"
    },
    {
      "inputs": [],
      "name": "symbol",
      "outputs": [
        {
          "internalType": "string",
          "name": "",
          "type": "string"
        }
      ],
      "stateMutability": "view",
      "type": "function"
    },
    {
      "inputs": [
        {
          "internalType": "uint256",
          "name": "index",
          "type": "uint256"
        }
      ],
      "name": "tokenByIndex",
      "outputs": [
        {
          "internalType": "uint256",
          "name": "",
          "type": "uint256"
        }
      ],
      "stateMutability": "view",
      "type": "function"
    },
    {
      "inputs": [
        {
          "internalType": "address",
          "name": "owner",
          "type": "address"
        },
        {
          "internalType": "uint256",
          "name": "index",
          "type": "uint256"
        }
      ],
      "name": "tokenOfOwnerByIndex",
      "outputs": [
        {
          "internalType": "uint256",
          "name": "",
          "type": "uint256"
        }
      ],
      "stateMutability": "view",
      "type": "function"
    },
    {
      "inputs": [
        {
          "internalType": "uint256",
          "name": "tokenId",
          "type": "uint256"
        }
      ],
      "name": "tokenURI",
      "outputs": [
        {
          "internalType": "string",
          "name": "",
          "type": "string"
        }
      ],
      "stateMutability": "view",
      "type": "function"
    },
    {
      "inputs": [],
      "name": "totalSupply",
      "outputs": [
        {
          "internalType": "uint256",
          "name": "",
          "type": "uint256"
        }
      ],
      "stateMutability": "view",
      "type": "function"
    },
    {
      "inputs": [
        {
          "internalType": "address",
          "name": "from",
          "type": "address"
        },
        {
          "internalType": "address",
          "name": "to",
          "type": "address"
        },
        {
          "internalType": "uint256",
          "name": "tokenId",
          "type": "uint256"
        }
      ],
      "name": "transferFrom",
      "outputs": [],
      "stateMutability": "nonpayable",
      "type": "function"
    },
    {
      "inputs": [
        {
          "internalType": "address",
          "name": "newOwner",
          "type": "address"
        }
      ],
      "name": "transferOwnership",
      "outputs": [],
      "stateMutability": "nonpayable",
      "type": "function"
    },
    {
      "stateMutability": "payable",
      "type": "receive"
    }
  ],
  "bytecode": "0x60806040526040518060600160405280602c815260200162003def602c9139600d9080519060200190620000359291906200023f565b503480156200004357600080fd5b5060405162003e1b38038062003e1b833981810160405281019062000069919062000359565b6040518060400160405280601381526020017f496e6665637465642041706520506c616e6574000000000000000000000000008152506040518060400160405280600381526020017f49415000000000000000000000000000000000000000000000000000000000008152508160009080519060200190620000ed9291906200023f565b508060019080519060200190620001069291906200023f565b505050620001296200011d6200017160201b60201c565b6200017960201b60201c565b80600b60006101000a81548173ffffffffffffffffffffffffffffffffffffffff021916908373ffffffffffffffffffffffffffffffffffffffff16021790555050620003ef565b600033905090565b6000600a60009054906101000a900473ffffffffffffffffffffffffffffffffffffffff16905081600a60006101000a81548173ffffffffffffffffffffffffffffffffffffffff021916908373ffffffffffffffffffffffffffffffffffffffff1602179055508173ffffffffffffffffffffffffffffffffffffffff168173ffffffffffffffffffffffffffffffffffffffff167f8be0079c531659141344cd1fd0a4f28419497f9722a3daafe3b4186f6b6457e060405160405180910390a35050565b8280546200024d90620003ba565b90600052602060002090601f016020900481019282620002715760008555620002bd565b82601f106200028c57805160ff1916838001178555620002bd565b82800160010185558215620002bd579182015b82811115620002bc5782518255916020019190600101906200029f565b5b509050620002cc9190620002d0565b5090565b5b80821115620002eb576000816000905550600101620002d1565b5090565b600080fd5b600073ffffffffffffffffffffffffffffffffffffffff82169050919050565b60006200032182620002f4565b9050919050565b620003338162000314565b81146200033f57600080fd5b50565b600081519050620003538162000328565b92915050565b600060208284031215620003725762000371620002ef565b5b6000620003828482850162000342565b91505092915050565b7f4e487b7100000000000000000000000000000000000000000000000000000000600052602260045260246000fd5b60006002820490506001821680620003d357607f821691505b602082108103620003e957620003e86200038b565b5b50919050565b6139f080620003ff6000396000f3fe6080604052600436106101855760003560e01c80636352211e116100d1578063a22cb4651161008a578063c87b56dd11610064578063c87b56dd146105e1578063cf76a1531461061e578063e985e9c514610649578063f2fde38b14610686576101d0565b8063a22cb46514610566578063b723b34e1461058f578063b88d4fde146105b8576101d0565b80636352211e1461045457806370a0823114610491578063715018a6146104ce578063791b3616146104e55780638da5cb5b1461051057806395d89b411461053b576101d0565b806318160ddd1161013e57806342842e0e1161011857806342842e0e146103885780634f558e79146103b15780634f6ccce7146103ee57806355f804b31461042b576101d0565b806318160ddd146102f757806323b872dd146103225780632f745c591461034b576101d0565b806301ffc9a7146101d557806306fdde0314610212578063081812fc1461023d578063095ea7b31461027a5780630bea05e7146102a357806312af8372146102cc576101d0565b366101d057343373ffffffffffffffffffffffffffffffffffffffff167fa419615bc8fda4c87663805ee2a3597a6d71c1d476911d9892f340d965bc7bf160405160405180910390a3005b600080fd5b3480156101e157600080fd5b506101fc60048036038101906101f791906126c1565b6106af565b6040516102099190612709565b60405180910390f35b34801561021e57600080fd5b50610227610729565b60405161023491906127bd565b60405180910390f35b34801561024957600080fd5b50610264600480360381019061025f9190612815565b6107bb565b6040516102719190612883565b60405180910390f35b34801561028657600080fd5b506102a1600480360381019061029c91906128ca565b610801565b005b3480156102af57600080fd5b506102ca60048036038101906102c5919061290a565b610918565b005b3480156102d857600080fd5b506102e1610964565b6040516102ee9190612883565b60405180910390f35b34801561030357600080fd5b5061030c61098a565b6040516103199190612946565b60405180910390f35b34801561032e57600080fd5b5061034960048036038101906103449190612961565b610997565b005b34801561035757600080fd5b50610372600480360381019061036d91906128ca565b6109f7565b60405161037f9190612946565b60405180910390f35b34801561039457600080fd5b506103af60048036038101906103aa9190612961565b610a9c565b005b3480156103bd57600080fd5b506103d860048036038101906103d39190612815565b610abc565b6040516103e59190612709565b60405180910390f35b3480156103fa57600080fd5b5061041560048036038101906104109190612815565b610ace565b6040516104229190612946565b60405180910390f35b34801561043757600080fd5b50610452600480360381019061044d9190612ae9565b610b3f565b005b34801561046057600080fd5b5061047b60048036038101906104769190612815565b610ba3565b6040516104889190612883565b60405180910390f35b34801561049d57600080fd5b506104b860048036038101906104b3919061290a565b610c29565b6040516104c59190612946565b60405180910390f35b3480156104da57600080fd5b506104e3610ce0565b005b3480156104f157600080fd5b506104fa610cf4565b6040516105079190612883565b60405180910390f35b34801561051c57600080fd5b50610525610d1a565b6040516105329190612883565b60405180910390f35b34801561054757600080fd5b50610550610d44565b60405161055d91906127bd565b60405180910390f35b34801561057257600080fd5b5061058d60048036038101906105889190612b5e565b610dd6565b005b34801561059b57600080fd5b506105b660048036038101906105b19190612b9e565b610dec565b005b3480156105c457600080fd5b506105df60048036038101906105da9190612c7f565b610f36565b005b3480156105ed57600080fd5b5061060860048036038101906106039190612815565b610f98565b60405161061591906127bd565b60405180910390f35b34801561062a57600080fd5b50610633610fcc565b60405161064091906127bd565b60405180910390f35b34801561065557600080fd5b50610670600480360381019061066b9190612d02565b61105a565b60405161067d9190612709565b60405180910390f35b34801561069257600080fd5b506106ad60048036038101906106a8919061290a565b6110ee565b005b60007f780e9d63000000000000000000000000000000000000000000000000000000007bffffffffffffffffffffffffffffffffffffffffffffffffffffffff1916827bffffffffffffffffffffffffffffffffffffffffffffffffffffffff19161480610722575061072182611171565b5b9050919050565b60606000805461073890612d71565b80601f016020809104026020016040519081016040528092919081815260200182805461076490612d71565b80156107b15780601f10610786576101008083540402835291602001916107b1565b820191906000526020600020905b81548152906001019060200180831161079457829003601f168201915b5050505050905090565b60006107c682611253565b6004600083815260200190815260200160002060009054906101000a900473ffffffffffffffffffffffffffffffffffffffff169050919050565b600061080c82610ba3565b90508073ffffffffffffffffffffffffffffffffffffffff168373ffffffffffffffffffffffffffffffffffffffff160361087c576040517f08c379a000000000000000000000000000000000000000000000000000000000815260040161087390612e14565b60405180910390fd5b8073ffffffffffffffffffffffffffffffffffffffff1661089b61129e565b73ffffffffffffffffffffffffffffffffffffffff1614806108ca57506108c9816108c461129e565b61105a565b5b610909576040517f08c379a000000000000000000000000000000000000000000000000000000000815260040161090090612ea6565b60405180910390fd5b61091383836112a6565b505050565b61092061135f565b80600c60006101000a81548173ffffffffffffffffffffffffffffffffffffffff021916908373ffffffffffffffffffffffffffffffffffffffff16021790555050565b600c60009054906101000a900473ffffffffffffffffffffffffffffffffffffffff1681565b6000600880549050905090565b6109a86109a261129e565b826113dd565b6109e7576040517f08c379a00000000000000000000000000000000000000000000000000000000081526004016109de90612f38565b60405180910390fd5b6109f2838383611472565b505050565b6000610a0283610c29565b8210610a43576040517f08c379a0000000000000000000000000000000000000000000000000000000008152600401610a3a90612fca565b60405180910390fd5b600660008473ffffffffffffffffffffffffffffffffffffffff1673ffffffffffffffffffffffffffffffffffffffff168152602001908152602001600020600083815260200190815260200160002054905092915050565b610ab783838360405180602001604052806000815250610f36565b505050565b6000610ac78261176b565b9050919050565b6000610ad861098a565b8210610b19576040517f08c379a0000000000000000000000000000000000000000000000000000000008152600401610b109061305c565b60405180910390fd5b60088281548110610b2d57610b2c61307c565b5b90600052602060002001549050919050565b610b4761135f565b80600d9080519060200190610b5d9291906125b2565b5080604051610b6c91906130e7565b60405180910390207fc9e8f610c54c2b76116d5166ae3d1bd8f7227fd57dce593bc86525d58991963d60405160405180910390a250565b600080610baf836117ac565b9050600073ffffffffffffffffffffffffffffffffffffffff168173ffffffffffffffffffffffffffffffffffffffff1603610c20576040517f08c379a0000000000000000000000000000000000000000000000000000000008152600401610c179061314a565b60405180910390fd5b80915050919050565b60008073ffffffffffffffffffffffffffffffffffffffff168273ffffffffffffffffffffffffffffffffffffffff1603610c99576040517f08c379a0000000000000000000000000000000000000000000000000000000008152600401610c90906131dc565b60405180910390fd5b600360008373ffffffffffffffffffffffffffffffffffffffff1673ffffffffffffffffffffffffffffffffffffffff168152602001908152602001600020549050919050565b610ce861135f565b610cf260006117e9565b565b600b60009054906101000a900473ffffffffffffffffffffffffffffffffffffffff1681565b6000600a60009054906101000a900473ffffffffffffffffffffffffffffffffffffffff16905090565b606060018054610d5390612d71565b80601f0160208091040260200160405190810160405280929190818152602001828054610d7f90612d71565b8015610dcc5780601f10610da157610100808354040283529160200191610dcc565b820191906000526020600020905b815481529060010190602001808311610daf57829003601f168201915b5050505050905090565b610de8610de161129e565b83836118af565b5050565b600073ffffffffffffffffffffffffffffffffffffffff163373ffffffffffffffffffffffffffffffffffffffff1603610e5b576040517f08c379a0000000000000000000000000000000000000000000000000000000008152600401610e5290613248565b60405180910390fd5b600c60009054906101000a900473ffffffffffffffffffffffffffffffffffffffff1673ffffffffffffffffffffffffffffffffffffffff163373ffffffffffffffffffffffffffffffffffffffff161480610ee95750610eba610d1a565b73ffffffffffffffffffffffffffffffffffffffff163373ffffffffffffffffffffffffffffffffffffffff16145b610f28576040517f08c379a0000000000000000000000000000000000000000000000000000000008152600401610f1f906132b4565b60405180910390fd5b610f328183611a1b565b5050565b610f47610f4161129e565b836113dd565b610f86576040517f08c379a0000000000000000000000000000000000000000000000000000000008152600401610f7d90612f38565b60405180910390fd5b610f9284848484611a39565b50505050565b6060600d610fa583611a95565b604051602001610fb6929190613368565b6040516020818303038152906040529050919050565b600d8054610fd990612d71565b80601f016020809104026020016040519081016040528092919081815260200182805461100590612d71565b80156110525780601f1061102757610100808354040283529160200191611052565b820191906000526020600020905b81548152906001019060200180831161103557829003601f168201915b505050505081565b6000600560008473ffffffffffffffffffffffffffffffffffffffff1673ffffffffffffffffffffffffffffffffffffffff16815260200190815260200160002060008373ffffffffffffffffffffffffffffffffffffffff1673ffffffffffffffffffffffffffffffffffffffff16815260200190815260200160002060009054906101000a900460ff16905092915050565b6110f661135f565b600073ffffffffffffffffffffffffffffffffffffffff168173ffffffffffffffffffffffffffffffffffffffff1603611165576040517f08c379a000000000000000000000000000000000000000000000000000000000815260040161115c906133fe565b60405180910390fd5b61116e816117e9565b50565b60007f80ac58cd000000000000000000000000000000000000000000000000000000007bffffffffffffffffffffffffffffffffffffffffffffffffffffffff1916827bffffffffffffffffffffffffffffffffffffffffffffffffffffffff1916148061123c57507f5b5e139f000000000000000000000000000000000000000000000000000000007bffffffffffffffffffffffffffffffffffffffffffffffffffffffff1916827bffffffffffffffffffffffffffffffffffffffffffffffffffffffff1916145b8061124c575061124b82611b63565b5b9050919050565b61125c8161176b565b61129b576040517f08c379a00000000000000000000000000000000000000000000000000000000081526004016112929061314a565b60405180910390fd5b50565b600033905090565b816004600083815260200190815260200160002060006101000a81548173ffffffffffffffffffffffffffffffffffffffff021916908373ffffffffffffffffffffffffffffffffffffffff160217905550808273ffffffffffffffffffffffffffffffffffffffff1661131983610ba3565b73ffffffffffffffffffffffffffffffffffffffff167f8c5be1e5ebec7d5bd14f71427d1e84f3dd0314c0f7b2291e5b200ac8c7c3b92560405160405180910390a45050565b61136761129e565b73ffffffffffffffffffffffffffffffffffffffff16611385610d1a565b73ffffffffffffffffffffffffffffffffffffffff16146113db576040517f08c379a00000000000000000000000000000000000000000000000000000000081526004016113d29061346a565b60405180910390fd5b565b6000806113e983610ba3565b90508073ffffffffffffffffffffffffffffffffffffffff168473ffffffffffffffffffffffffffffffffffffffff16148061142b575061142a818561105a565b5b8061146957508373ffffffffffffffffffffffffffffffffffffffff16611451846107bb565b73ffffffffffffffffffffffffffffffffffffffff16145b91505092915050565b8273ffffffffffffffffffffffffffffffffffffffff1661149282610ba3565b73ffffffffffffffffffffffffffffffffffffffff16146114e8576040517f08c379a00000000000000000000000000000000000000000000000000000000081526004016114df906134fc565b60405180910390fd5b600073ffffffffffffffffffffffffffffffffffffffff168273ffffffffffffffffffffffffffffffffffffffff1603611557576040517f08c379a000000000000000000000000000000000000000000000000000000000815260040161154e9061358e565b60405180910390fd5b6115648383836001611bcd565b8273ffffffffffffffffffffffffffffffffffffffff1661158482610ba3565b73ffffffffffffffffffffffffffffffffffffffff16146115da576040517f08c379a00000000000000000000000000000000000000000000000000000000081526004016115d1906134fc565b60405180910390fd5b6004600082815260200190815260200160002060006101000a81549073ffffffffffffffffffffffffffffffffffffffff02191690556001600360008573ffffffffffffffffffffffffffffffffffffffff1673ffffffffffffffffffffffffffffffffffffffff168152602001908152602001600020600082825403925050819055506001600360008473ffffffffffffffffffffffffffffffffffffffff1673ffffffffffffffffffffffffffffffffffffffff16815260200190815260200160002060008282540192505081905550816002600083815260200190815260200160002060006101000a81548173ffffffffffffffffffffffffffffffffffffffff021916908373ffffffffffffffffffffffffffffffffffffffff160217905550808273ffffffffffffffffffffffffffffffffffffffff168473ffffffffffffffffffffffffffffffffffffffff167fddf252ad1be2c89b69c2b068fc378daa952ba7f163c4a11628f55a4df523b3ef60405160405180910390a46117668383836001611d2b565b505050565b60008073ffffffffffffffffffffffffffffffffffffffff1661178d836117ac565b73ffffffffffffffffffffffffffffffffffffffff1614159050919050565b60006002600083815260200190815260200160002060009054906101000a900473ffffffffffffffffffffffffffffffffffffffff169050919050565b6000600a60009054906101000a900473ffffffffffffffffffffffffffffffffffffffff16905081600a60006101000a81548173ffffffffffffffffffffffffffffffffffffffff021916908373ffffffffffffffffffffffffffffffffffffffff1602179055508173ffffffffffffffffffffffffffffffffffffffff168173ffffffffffffffffffffffffffffffffffffffff167f8be0079c531659141344cd1fd0a4f28419497f9722a3daafe3b4186f6b6457e060405160405180910390a35050565b8173ffffffffffffffffffffffffffffffffffffffff168373ffffffffffffffffffffffffffffffffffffffff160361191d576040517f08c379a0000000000000000000000000000000000000000000000000000000008152600401611914906135fa565b60405180910390fd5b80600560008573ffffffffffffffffffffffffffffffffffffffff1673ffffffffffffffffffffffffffffffffffffffff16815260200190815260200160002060008473ffffffffffffffffffffffffffffffffffffffff1673ffffffffffffffffffffffffffffffffffffffff16815260200190815260200160002060006101000a81548160ff0219169083151502179055508173ffffffffffffffffffffffffffffffffffffffff168373ffffffffffffffffffffffffffffffffffffffff167f17307eab39ab6107e8899845ad3d59bd9653f200f220920489ca2b5937696c3183604051611a0e9190612709565b60405180910390a3505050565b611a35828260405180602001604052806000815250611d31565b5050565b611a44848484611472565b611a5084848484611d8c565b611a8f576040517f08c379a0000000000000000000000000000000000000000000000000000000008152600401611a869061368c565b60405180910390fd5b50505050565b606060006001611aa484611f13565b01905060008167ffffffffffffffff811115611ac357611ac26129be565b5b6040519080825280601f01601f191660200182016040528015611af55781602001600182028036833780820191505090505b509050600082602001820190505b600115611b58578080600190039150507f3031323334353637383961626364656600000000000000000000000000000000600a86061a8153600a8581611b4c57611b4b6136ac565b5b04945060008503611b03575b819350505050919050565b60007f01ffc9a7000000000000000000000000000000000000000000000000000000007bffffffffffffffffffffffffffffffffffffffffffffffffffffffff1916827bffffffffffffffffffffffffffffffffffffffffffffffffffffffff1916149050919050565b611bd984848484612066565b6001811115611c1d576040517f08c379a0000000000000000000000000000000000000000000000000000000008152600401611c149061374d565b60405180910390fd5b6000829050600073ffffffffffffffffffffffffffffffffffffffff168573ffffffffffffffffffffffffffffffffffffffff1603611c6457611c5f8161206c565b611ca3565b8373ffffffffffffffffffffffffffffffffffffffff168573ffffffffffffffffffffffffffffffffffffffff1614611ca257611ca185826120b5565b5b5b600073ffffffffffffffffffffffffffffffffffffffff168473ffffffffffffffffffffffffffffffffffffffff1603611ce557611ce081612222565b611d24565b8473ffffffffffffffffffffffffffffffffffffffff168473ffffffffffffffffffffffffffffffffffffffff1614611d2357611d2284826122f3565b5b5b5050505050565b50505050565b611d3b8383612372565b611d486000848484611d8c565b611d87576040517f08c379a0000000000000000000000000000000000000000000000000000000008152600401611d7e9061368c565b60405180910390fd5b505050565b6000611dad8473ffffffffffffffffffffffffffffffffffffffff1661258f565b15611f06578373ffffffffffffffffffffffffffffffffffffffff1663150b7a02611dd661129e565b8786866040518563ffffffff1660e01b8152600401611df894939291906137c2565b6020604051808303816000875af1925050508015611e3457506040513d601f19601f82011682018060405250810190611e319190613823565b60015b611eb6573d8060008114611e64576040519150601f19603f3d011682016040523d82523d6000602084013e611e69565b606091505b506000815103611eae576040517f08c379a0000000000000000000000000000000000000000000000000000000008152600401611ea59061368c565b60405180910390fd5b805181602001fd5b63150b7a0260e01b7bffffffffffffffffffffffffffffffffffffffffffffffffffffffff1916817bffffffffffffffffffffffffffffffffffffffffffffffffffffffff191614915050611f0b565b600190505b949350505050565b600080600090507a184f03e93ff9f4daa797ed6e38ed64bf6a1f0100000000000000008310611f71577a184f03e93ff9f4daa797ed6e38ed64bf6a1f0100000000000000008381611f6757611f666136ac565b5b0492506040810190505b6d04ee2d6d415b85acef81000000008310611fae576d04ee2d6d415b85acef81000000008381611fa457611fa36136ac565b5b0492506020810190505b662386f26fc100008310611fdd57662386f26fc100008381611fd357611fd26136ac565b5b0492506010810190505b6305f5e1008310612006576305f5e1008381611ffc57611ffb6136ac565b5b0492506008810190505b612710831061202b576127108381612021576120206136ac565b5b0492506004810190505b6064831061204e5760648381612044576120436136ac565b5b0492506002810190505b600a831061205d576001810190505b80915050919050565b50505050565b6008805490506009600083815260200190815260200160002081905550600881908060018154018082558091505060019003906000526020600020016000909190919091505550565b600060016120c284610c29565b6120cc919061387f565b90506000600760008481526020019081526020016000205490508181146121b1576000600660008673ffffffffffffffffffffffffffffffffffffffff1673ffffffffffffffffffffffffffffffffffffffff168152602001908152602001600020600084815260200190815260200160002054905080600660008773ffffffffffffffffffffffffffffffffffffffff1673ffffffffffffffffffffffffffffffffffffffff168152602001908152602001600020600084815260200190815260200160002081905550816007600083815260200190815260200160002081905550505b6007600084815260200190815260200160002060009055600660008573ffffffffffffffffffffffffffffffffffffffff1673ffffffffffffffffffffffffffffffffffffffff16815260200190815260200160002060008381526020019081526020016000206000905550505050565b60006001600880549050612236919061387f565b90506000600960008481526020019081526020016000205490506000600883815481106122665761226561307c565b5b9060005260206000200154905080600883815481106122885761228761307c565b5b9060005260206000200181905550816009600083815260200190815260200160002081905550600960008581526020019081526020016000206000905560088054806122d7576122d66138b3565b5b6001900381819060005260206000200160009055905550505050565b60006122fe83610c29565b905081600660008573ffffffffffffffffffffffffffffffffffffffff1673ffffffffffffffffffffffffffffffffffffffff168152602001908152602001600020600083815260200190815260200160002081905550806007600084815260200190815260200160002081905550505050565b600073ffffffffffffffffffffffffffffffffffffffff168273ffffffffffffffffffffffffffffffffffffffff16036123e1576040517f08c379a00000000000000000000000000000000000000000000000000000000081526004016123d89061392e565b60405180910390fd5b6123ea8161176b565b1561242a576040517f08c379a00000000000000000000000000000000000000000000000000000000081526004016124219061399a565b60405180910390fd5b612438600083836001611bcd565b6124418161176b565b15612481576040517f08c379a00000000000000000000000000000000000000000000000000000000081526004016124789061399a565b60405180910390fd5b6001600360008473ffffffffffffffffffffffffffffffffffffffff1673ffffffffffffffffffffffffffffffffffffffff16815260200190815260200160002060008282540192505081905550816002600083815260200190815260200160002060006101000a81548173ffffffffffffffffffffffffffffffffffffffff021916908373ffffffffffffffffffffffffffffffffffffffff160217905550808273ffffffffffffffffffffffffffffffffffffffff16600073ffffffffffffffffffffffffffffffffffffffff167fddf252ad1be2c89b69c2b068fc378daa952ba7f163c4a11628f55a4df523b3ef60405160405180910390a461258b600083836001611d2b565b5050565b6000808273ffffffffffffffffffffffffffffffffffffffff163b119050919050565b8280546125be90612d71565b90600052602060002090601f0160209004810192826125e05760008555612627565b82601f106125f957805160ff1916838001178555612627565b82800160010185558215612627579182015b8281111561262657825182559160200191906001019061260b565b5b5090506126349190612638565b5090565b5b80821115612651576000816000905550600101612639565b5090565b6000604051905090565b600080fd5b600080fd5b60007fffffffff0000000000000000000000000000000000000000000000000000000082169050919050565b61269e81612669565b81146126a957600080fd5b50565b6000813590506126bb81612695565b92915050565b6000602082840312156126d7576126d661265f565b5b60006126e5848285016126ac565b91505092915050565b60008115159050919050565b612703816126ee565b82525050565b600060208201905061271e60008301846126fa565b92915050565b600081519050919050565b600082825260208201905092915050565b60005b8381101561275e578082015181840152602081019050612743565b8381111561276d576000848401525b50505050565b6000601f19601f8301169050919050565b600061278f82612724565b612799818561272f565b93506127a9818560208601612740565b6127b281612773565b840191505092915050565b600060208201905081810360008301526127d78184612784565b905092915050565b6000819050919050565b6127f2816127df565b81146127fd57600080fd5b50565b60008135905061280f816127e9565b92915050565b60006020828403121561282b5761282a61265f565b5b600061283984828501612800565b91505092915050565b600073ffffffffffffffffffffffffffffffffffffffff82169050919050565b600061286d82612842565b9050919050565b61287d81612862565b82525050565b60006020820190506128986000830184612874565b92915050565b6128a781612862565b81146128b257600080fd5b50565b6000813590506128c48161289e565b92915050565b600080604083850312156128e1576128e061265f565b5b60006128ef858286016128b5565b925050602061290085828601612800565b9150509250929050565b6000602082840312156129205761291f61265f565b5b600061292e848285016128b5565b91505092915050565b612940816127df565b82525050565b600060208201905061295b6000830184612937565b92915050565b60008060006060848603121561297a5761297961265f565b5b6000612988868287016128b5565b9350506020612999868287016128b5565b92505060406129aa86828701612800565b9150509250925092565b600080fd5b600080fd5b7f4e487b7100000000000000000000000000000000000000000000000000000000600052604160045260246000fd5b6129f682612773565b810181811067ffffffffffffffff82111715612a1557612a146129be565b5b80604052505050565b6000612a28612655565b9050612a3482826129ed565b919050565b600067ffffffffffffffff821115612a5457612a536129be565b5b612a5d82612773565b9050602081019050919050565b82818337600083830152505050565b6000612a8c612a8784612a39565b612a1e565b905082815260208101848484011115612aa857612aa76129b9565b5b612ab3848285612a6a565b509392505050565b600082601f830112612ad057612acf6129b4565b5b8135612ae0848260208601612a79565b91505092915050565b600060208284031215612aff57612afe61265f565b5b600082013567ffffffffffffffff811115612b1d57612b1c612664565b5b612b2984828501612abb565b91505092915050565b612b3b816126ee565b8114612b4657600080fd5b50565b600081359050612b5881612b32565b92915050565b60008060408385031215612b7557612b7461265f565b5b6000612b83858286016128b5565b9250506020612b9485828601612b49565b9150509250929050565b60008060408385031215612bb557612bb461265f565b5b6000612bc385828601612800565b9250506020612bd4858286016128b5565b9150509250929050565b600067ffffffffffffffff821115612bf957612bf86129be565b5b612c0282612773565b9050602081019050919050565b6000612c22612c1d84612bde565b612a1e565b905082815260208101848484011115612c3e57612c3d6129b9565b5b612c49848285612a6a565b509392505050565b600082601f830112612c6657612c656129b4565b5b8135612c76848260208601612c0f565b91505092915050565b60008060008060808587031215612c9957612c9861265f565b5b6000612ca7878288016128b5565b9450506020612cb8878288016128b5565b9350506040612cc987828801612800565b925050606085013567ffffffffffffffff811115612cea57612ce9612664565b5b612cf687828801612c51565b91505092959194509250565b60008060408385031215612d1957612d1861265f565b5b6000612d27858286016128b5565b9250506020612d38858286016128b5565b9150509250929050565b7f4e487b7100000000000000000000000000000000000000000000000000000000600052602260045260246000fd5b60006002820490506001821680612d8957607f821691505b602082108103612d9c57612d9b612d42565b5b50919050565b7f4552433732313a20617070726f76616c20746f2063757272656e74206f776e6560008201527f7200000000000000000000000000000000000000000000000000000000000000602082015250565b6000612dfe60218361272f565b9150612e0982612da2565b604082019050919050565b60006020820190508181036000830152612e2d81612df1565b9050919050565b7f4552433732313a20617070726f76652063616c6c6572206973206e6f7420746f60008201527f6b656e206f776e6572206f7220617070726f76656420666f7220616c6c000000602082015250565b6000612e90603d8361272f565b9150612e9b82612e34565b604082019050919050565b60006020820190508181036000830152612ebf81612e83565b9050919050565b7f4552433732313a2063616c6c6572206973206e6f7420746f6b656e206f776e6560008201527f72206f7220617070726f76656400000000000000000000000000000000000000602082015250565b6000612f22602d8361272f565b9150612f2d82612ec6565b604082019050919050565b60006020820190508181036000830152612f5181612f15565b9050919050565b7f455243373231456e756d657261626c653a206f776e657220696e646578206f7560008201527f74206f6620626f756e6473000000000000000000000000000000000000000000602082015250565b6000612fb4602b8361272f565b9150612fbf82612f58565b604082019050919050565b60006020820190508181036000830152612fe381612fa7565b9050919050565b7f455243373231456e756d657261626c653a20676c6f62616c20696e646578206f60008201527f7574206f6620626f756e64730000000000000000000000000000000000000000602082015250565b6000613046602c8361272f565b915061305182612fea565b604082019050919050565b6000602082019050818103600083015261307581613039565b9050919050565b7f4e487b7100000000000000000000000000000000000000000000000000000000600052603260045260246000fd5b600081905092915050565b60006130c182612724565b6130cb81856130ab565b93506130db818560208601612740565b80840191505092915050565b60006130f382846130b6565b915081905092915050565b7f4552433732313a20696e76616c696420746f6b656e2049440000000000000000600082015250565b600061313460188361272f565b915061313f826130fe565b602082019050919050565b6000602082019050818103600083015261316381613127565b9050919050565b7f4552433732313a2061646472657373207a65726f206973206e6f74206120766160008201527f6c6964206f776e65720000000000000000000000000000000000000000000000602082015250565b60006131c660298361272f565b91506131d18261316a565b604082019050919050565b600060208201905081810360008301526131f5816131b9565b9050919050565b7f5a65726f20616464726573730000000000000000000000000000000000000000600082015250565b6000613232600c8361272f565b915061323d826131fc565b602082019050919050565b6000602082019050818103600083015261326181613225565b9050919050565b7f53656e646572206e6f7420696e666563746f7200000000000000000000000000600082015250565b600061329e60138361272f565b91506132a982613268565b602082019050919050565b600060208201905081810360008301526132cd81613291565b9050919050565b60008190508160005260206000209050919050565b600081546132f681612d71565b61330081866130ab565b9450600182166000811461331b576001811461332c5761335f565b60ff1983168652818601935061335f565b613335856132d4565b60005b8381101561335757815481890152600182019150602081019050613338565b838801955050505b50505092915050565b600061337482856132e9565b915061338082846130b6565b91508190509392505050565b7f4f776e61626c653a206e6577206f776e657220697320746865207a65726f206160008201527f6464726573730000000000000000000000000000000000000000000000000000602082015250565b60006133e860268361272f565b91506133f38261338c565b604082019050919050565b60006020820190508181036000830152613417816133db565b9050919050565b7f4f776e61626c653a2063616c6c6572206973206e6f7420746865206f776e6572600082015250565b600061345460208361272f565b915061345f8261341e565b602082019050919050565b6000602082019050818103600083015261348381613447565b9050919050565b7f4552433732313a207472616e736665722066726f6d20696e636f72726563742060008201527f6f776e6572000000000000000000000000000000000000000000000000000000602082015250565b60006134e660258361272f565b91506134f18261348a565b604082019050919050565b60006020820190508181036000830152613515816134d9565b9050919050565b7f4552433732313a207472616e7366657220746f20746865207a65726f2061646460008201527f7265737300000000000000000000000000000000000000000000000000000000602082015250565b600061357860248361272f565b91506135838261351c565b604082019050919050565b600060208201905081810360008301526135a78161356b565b9050919050565b7f4552433732313a20617070726f766520746f2063616c6c657200000000000000600082015250565b60006135e460198361272f565b91506135ef826135ae565b602082019050919050565b60006020820190508181036000830152613613816135d7565b9050919050565b7f4552433732313a207472616e7366657220746f206e6f6e20455243373231526560008201527f63656976657220696d706c656d656e7465720000000000000000000000000000602082015250565b600061367660328361272f565b91506136818261361a565b604082019050919050565b600060208201905081810360008301526136a581613669565b9050919050565b7f4e487b7100000000000000000000000000000000000000000000000000000000600052601260045260246000fd5b7f455243373231456e756d657261626c653a20636f6e736563757469766520747260008201527f616e7366657273206e6f7420737570706f727465640000000000000000000000602082015250565b600061373760358361272f565b9150613742826136db565b604082019050919050565b600060208201905081810360008301526137668161372a565b9050919050565b600081519050919050565b600082825260208201905092915050565b60006137948261376d565b61379e8185613778565b93506137ae818560208601612740565b6137b781612773565b840191505092915050565b60006080820190506137d76000830187612874565b6137e46020830186612874565b6137f16040830185612937565b81810360608301526138038184613789565b905095945050505050565b60008151905061381d81612695565b92915050565b6000602082840312156138395761383861265f565b5b60006138478482850161380e565b91505092915050565b7f4e487b7100000000000000000000000000000000000000000000000000000000600052601160045260246000fd5b600061388a826127df565b9150613895836127df565b9250828210156138a8576138a7613850565b5b828203905092915050565b7f4e487b7100000000000000000000000000000000000000000000000000000000600052603160045260246000fd5b7f4552433732313a206d696e7420746f20746865207a65726f2061646472657373600082015250565b600061391860208361272f565b9150613923826138e2565b602082019050919050565b600060208201905081810360008301526139478161390b565b9050919050565b7f4552433732313a20746f6b656e20616c7265616479206d696e74656400000000600082015250565b6000613984601c8361272f565b915061398f8261394e565b602082019050919050565b600060208201905081810360008301526139b381613977565b905091905056fea26469706673582212209a1161bcf4bea4d2f6d29903448f8a7beb6a1397ff2497c44d91dc27ada674c864736f6c634300080d003368747470733a2f2f7072696d65617065706c616e65742e636f6d2f696e6665637465646d657461646174612f",
  "linkReferences": {},
  "deployedLinkReferences": {}
}