{
  "_format": "hh-sol-artifact-1",
  "contractName": "PoolMaster",
  "sourceName": "src/backend/contracts/PoolMaster.sol",
  "abi": [
    {
      "inputs": [],
      "stateMutability": "nonpayable",
      "type": "constructor"
    },
    {
      "anonymous": false,
      "inputs": [
        {
          "indexed": false,
          "internalType": "address",
          "name": "user",
          "type": "address"
        },
        {
          "indexed": false,
          "internalType": "uint256",
          "name": "tokenId",
          "type": "uint256"
        },
        {
          "indexed": false,
          "internalType": "bool",
          "name": "isAlpha",
          "type": "bool"
        }
      ],
      "name": "MintSuccessful",
      "type": "event"
    },
    {
      "anonymous": false,
      "inputs": [
        {
          "indexed": true,
          "internalType": "address",
          "name": "previousOwner",
          "type": "address"
        },
        {
          "indexed": true,
          "internalType": "address",
          "name": "newOwner",
          "type": "address"
        }
      ],
      "name": "OwnershipTransferred",
      "type": "event"
    },
    {
      "inputs": [],
      "name": "battlingPhaseDuration",
      "outputs": [
        {
          "internalType": "uint256",
          "name": "",
          "type": "uint256"
        }
      ],
      "stateMutability": "view",
      "type": "function"
    },
    {
      "inputs": [],
      "name": "bettingPhaseDuration",
      "outputs": [
        {
          "internalType": "uint256",
          "name": "",
          "type": "uint256"
        }
      ],
      "stateMutability": "view",
      "type": "function"
    },
    {
      "inputs": [],
      "name": "burnedTokensPercent",
      "outputs": [
        {
          "internalType": "uint256",
          "name": "",
          "type": "uint256"
        }
      ],
      "stateMutability": "view",
      "type": "function"
    },
    {
      "inputs": [
        {
          "internalType": "uint256",
          "name": "_poolWinnerId",
          "type": "uint256"
        }
      ],
      "name": "endEpoch",
      "outputs": [],
      "stateMutability": "nonpayable",
      "type": "function"
    },
    {
      "inputs": [],
      "name": "epochEnded",
      "outputs": [
        {
          "internalType": "bool",
          "name": "",
          "type": "bool"
        }
      ],
      "stateMutability": "view",
      "type": "function"
    },
    {
      "inputs": [
        {
          "internalType": "address",
          "name": "_user",
          "type": "address"
        }
      ],
      "name": "getIsUsdcForAddress",
      "outputs": [
        {
          "internalType": "bool",
          "name": "",
          "type": "bool"
        }
      ],
      "stateMutability": "view",
      "type": "function"
    },
    {
      "inputs": [
        {
          "internalType": "address",
          "name": "_user",
          "type": "address"
        }
      ],
      "name": "getPoolIdForAddress",
      "outputs": [
        {
          "internalType": "uint256",
          "name": "",
          "type": "uint256"
        }
      ],
      "stateMutability": "view",
      "type": "function"
    },
    {
      "inputs": [
        {
          "internalType": "uint256",
          "name": "_poolId",
          "type": "uint256"
        },
        {
          "internalType": "bool",
          "name": "_isUsdc",
          "type": "bool"
        }
      ],
      "name": "getStakedTokens",
      "outputs": [
        {
          "internalType": "uint256",
          "name": "",
          "type": "uint256"
        }
      ],
      "stateMutability": "view",
      "type": "function"
    },
    {
      "inputs": [
        {
          "internalType": "address",
          "name": "_user",
          "type": "address"
        }
      ],
      "name": "getStakedTokensForAddress",
      "outputs": [
        {
          "internalType": "uint256",
          "name": "",
          "type": "uint256"
        }
      ],
      "stateMutability": "view",
      "type": "function"
    },
    {
      "inputs": [
        {
          "internalType": "uint256",
          "name": "_poolId",
          "type": "uint256"
        }
      ],
      "name": "getTimestampStartEpoch",
      "outputs": [
        {
          "internalType": "uint256",
          "name": "",
          "type": "uint256"
        }
      ],
      "stateMutability": "view",
      "type": "function"
    },
    {
      "inputs": [],
      "name": "loserTokensPercent",
      "outputs": [
        {
          "internalType": "uint256",
          "name": "",
          "type": "uint256"
        }
      ],
      "stateMutability": "view",
      "type": "function"
    },
    {
      "inputs": [],
      "name": "owner",
      "outputs": [
        {
          "internalType": "address",
          "name": "",
          "type": "address"
        }
      ],
      "stateMutability": "view",
      "type": "function"
    },
    {
      "inputs": [],
      "name": "pool3TokensPercent",
      "outputs": [
        {
          "internalType": "uint256",
          "name": "",
          "type": "uint256"
        }
      ],
      "stateMutability": "view",
      "type": "function"
    },
    {
      "inputs": [],
      "name": "renounceOwnership",
      "outputs": [],
      "stateMutability": "nonpayable",
      "type": "function"
    },
    {
      "inputs": [
        {
          "internalType": "uint256",
          "name": "_battlingPhaseDuration",
          "type": "uint256"
        }
      ],
      "name": "setBattlingPhaseDuration",
      "outputs": [],
      "stateMutability": "nonpayable",
      "type": "function"
    },
    {
      "inputs": [
        {
          "internalType": "uint256",
          "name": "_bettingPhaseDuration",
          "type": "uint256"
        }
      ],
      "name": "setBettingPhaseDuration",
      "outputs": [],
      "stateMutability": "nonpayable",
      "type": "function"
    },
    {
      "inputs": [
        {
          "internalType": "uint256",
          "name": "_burnedTokensPercent",
          "type": "uint256"
        }
      ],
      "name": "setBurnedTokensPercent",
      "outputs": [],
      "stateMutability": "nonpayable",
      "type": "function"
    },
    {
      "inputs": [
        {
          "internalType": "uint256",
          "name": "_loserTokensPercent",
          "type": "uint256"
        }
      ],
      "name": "setLoserTokensPercent",
      "outputs": [],
      "stateMutability": "nonpayable",
      "type": "function"
    },
    {
      "inputs": [
        {
          "internalType": "uint256",
          "name": "_pool3TokensPercent",
          "type": "uint256"
        }
      ],
      "name": "setPool3TokensPercent",
      "outputs": [],
      "stateMutability": "nonpayable",
      "type": "function"
    },
    {
      "inputs": [
        {
          "internalType": "address",
          "name": "_tokenAddress",
          "type": "address"
        }
      ],
      "name": "setTokenAddress",
      "outputs": [],
      "stateMutability": "nonpayable",
      "type": "function"
    },
    {
      "inputs": [
        {
          "internalType": "uint256",
          "name": "_unstakeFee",
          "type": "uint256"
        }
      ],
      "name": "setUnstakeFee",
      "outputs": [],
      "stateMutability": "nonpayable",
      "type": "function"
    },
    {
      "inputs": [
        {
          "internalType": "address",
          "name": "_usdcAddress",
          "type": "address"
        }
      ],
      "name": "setUsdcAddress",
      "outputs": [],
      "stateMutability": "nonpayable",
      "type": "function"
    },
    {
      "inputs": [
        {
          "internalType": "uint256",
          "name": "_usdcStakeFee",
          "type": "uint256"
        }
      ],
      "name": "setUsdcStakeFee",
      "outputs": [],
      "stateMutability": "nonpayable",
      "type": "function"
    },
    {
      "inputs": [
        {
          "internalType": "uint256",
          "name": "_winnerTokensPercent",
          "type": "uint256"
        }
      ],
      "name": "setWinnerTokensPercent",
      "outputs": [],
      "stateMutability": "nonpayable",
      "type": "function"
    },
    {
      "inputs": [
        {
          "internalType": "uint256",
          "name": "_poolId",
          "type": "uint256"
        },
        {
          "internalType": "uint256",
          "name": "_amount",
          "type": "uint256"
        },
        {
          "internalType": "bool",
          "name": "_isUsdc",
          "type": "bool"
        }
      ],
      "name": "stake",
      "outputs": [],
      "stateMutability": "payable",
      "type": "function"
    },
    {
      "inputs": [
        {
          "internalType": "address",
          "name": "_token1",
          "type": "address"
        },
        {
          "internalType": "address",
          "name": "_token2",
          "type": "address"
        }
      ],
      "name": "startEpoch",
      "outputs": [],
      "stateMutability": "nonpayable",
      "type": "function"
    },
    {
      "inputs": [],
      "name": "token",
      "outputs": [
        {
          "internalType": "contract IERC20",
          "name": "",
          "type": "address"
        }
      ],
      "stateMutability": "view",
      "type": "function"
    },
    {
      "inputs": [
        {
          "internalType": "address",
          "name": "newOwner",
          "type": "address"
        }
      ],
      "name": "transferOwnership",
      "outputs": [],
      "stateMutability": "nonpayable",
      "type": "function"
    },
    {
      "inputs": [],
      "name": "unstakeFee",
      "outputs": [
        {
          "internalType": "uint256",
          "name": "",
          "type": "uint256"
        }
      ],
      "stateMutability": "view",
      "type": "function"
    },
    {
      "inputs": [],
      "name": "usdc",
      "outputs": [
        {
          "internalType": "contract IERC20",
          "name": "",
          "type": "address"
        }
      ],
      "stateMutability": "view",
      "type": "function"
    },
    {
      "inputs": [],
      "name": "usdcStakeFee",
      "outputs": [
        {
          "internalType": "uint256",
          "name": "",
          "type": "uint256"
        }
      ],
      "stateMutability": "view",
      "type": "function"
    },
    {
      "inputs": [],
      "name": "winnerTokensPercent",
      "outputs": [
        {
          "internalType": "uint256",
          "name": "",
          "type": "uint256"
        }
      ],
      "stateMutability": "view",
      "type": "function"
    },
    {
      "inputs": [],
      "name": "withdrawEth",
      "outputs": [],
      "stateMutability": "nonpayable",
      "type": "function"
    },
    {
      "inputs": [],
      "name": "withdrawToken",
      "outputs": [],
      "stateMutability": "nonpayable",
      "type": "function"
    },
    {
      "inputs": [],
      "name": "withdrawUsdc",
      "outputs": [],
      "stateMutability": "nonpayable",
      "type": "function"
    }
  ],
  "bytecode": "0x6080604052617080600355620151806004556104e2600555611f4060065561019060075561064060085560c86009556064600a55600b805460ff1916600117905534801561004c57600080fd5b5061005633610304565b600c6040518060a0016040528060006001600160a01b031681526020016000815260200160006001600160a01b03168152602001600081526020016000815250908060018154018082558091505060019003906000526020600020906005020160009091909190915060008201518160000160006101000a8154816001600160a01b0302191690836001600160a01b031602179055506020820151816001015560408201518160020160006101000a8154816001600160a01b0302191690836001600160a01b0316021790555060608201518160030155608082015181600401555050600c6040518060a0016040528060006001600160a01b031681526020016000815260200160006001600160a01b03168152602001600081526020016000815250908060018154018082558091505060019003906000526020600020906005020160009091909190915060008201518160000160006101000a8154816001600160a01b0302191690836001600160a01b031602179055506020820151816001015560408201518160020160006101000a8154816001600160a01b0302191690836001600160a01b0316021790555060608201518160030155608082015181600401555050600c6040518060a0016040528060006001600160a01b031681526020016000815260200160006001600160a01b03168152602001600081526020016000815250908060018154018082558091505060019003906000526020600020906005020160009091909190915060008201518160000160006101000a8154816001600160a01b0302191690836001600160a01b031602179055506020820151816001015560408201518160020160006101000a8154816001600160a01b0302191690836001600160a01b0316021790555060608201518160030155608082015181600401555050610354565b600080546001600160a01b038381166001600160a01b0319831681178455604051919092169283917f8be0079c531659141344cd1fd0a4f28419497f9722a3daafe3b4186f6b6457e09190a35050565b6124fe806103636000396000f3fe6080604052600436106102035760003560e01c80638da5cb5b11610118578063bc770d06116100a0578063d8e660ed1161006f578063d8e660ed146105b1578063e838969e146105ea578063f2fde38b1461060a578063fc0c546a1461062a578063fee84d4e1461064a57600080fd5b8063bc770d0614610546578063ca628c7814610566578063d38bcdee1461057b578063d459a4181461059b57600080fd5b806398c44b7d116100e757806398c44b7d146104af5780639ee664b6146104e5578063a0ef91df146104fb578063ae3e04b114610510578063ba2f303b1461053057600080fd5b80638da5cb5b146104455780638ea97d2614610463578063949240d414610479578063989e92991461049957600080fd5b806352916f251161019b5780636164e45d1161016a5780636164e45d146103b057806364cc37fb146103d0578063715018a6146103f05780638301151c146104055780638bbbbbde1461042557600080fd5b806352916f251461032b578063561b24631461034b5780635a8b95991461035e5780635cdef57d1461039a57600080fd5b806325b511bd116101d757806325b511bd1461029d57806326a4e8d2146102b35780633e413bee146102d35780634bffc64c1461030b57600080fd5b806218a1161461020857806307ed92d01461022a578063175db3c41461024a5780631f5c735b14610279575b600080fd5b34801561021457600080fd5b50610228610223366004612293565b61065f565b005b34801561023657600080fd5b50610228610245366004612293565b61066c565b34801561025657600080fd5b50600b546102649060ff1681565b60405190151581526020015b60405180910390f35b34801561028557600080fd5b5061028f60055481565b604051908152602001610270565b3480156102a957600080fd5b5061028f60045481565b3480156102bf57600080fd5b506102286102ce3660046122c8565b610679565b3480156102df57600080fd5b506002546102f3906001600160a01b031681565b6040516001600160a01b039091168152602001610270565b34801561031757600080fd5b506102286103263660046122e3565b6106a3565b34801561033757600080fd5b50610228610346366004612293565b610925565b610228610359366004612324565b610932565b34801561036a57600080fd5b506102646103793660046122c8565b6001600160a01b03166000908152600d602052604090206002015460ff1690565b3480156103a657600080fd5b5061028f60085481565b3480156103bc57600080fd5b506102286103cb366004612293565b610ec8565b3480156103dc57600080fd5b506102286103eb366004612293565b611b3e565b3480156103fc57600080fd5b50610228611b4b565b34801561041157600080fd5b50610228610420366004612293565b611b5f565b34801561043157600080fd5b50610228610440366004612293565b611b6c565b34801561045157600080fd5b506000546001600160a01b03166102f3565b34801561046f57600080fd5b5061028f60095481565b34801561048557600080fd5b5061028f61049436600461235d565b611b79565b3480156104a557600080fd5b5061028f60035481565b3480156104bb57600080fd5b5061028f6104ca3660046122c8565b6001600160a01b03166000908152600d602052604090205490565b3480156104f157600080fd5b5061028f60065481565b34801561050757600080fd5b50610228611bd9565b34801561051c57600080fd5b5061022861052b366004612293565b611c10565b34801561053c57600080fd5b5061028f60075481565b34801561055257600080fd5b50610228610561366004612293565b611c1d565b34801561057257600080fd5b50610228611c2a565b34801561058757600080fd5b506102286105963660046122c8565b611d1c565b3480156105a757600080fd5b5061028f600a5481565b3480156105bd57600080fd5b5061028f6105cc3660046122c8565b6001600160a01b03166000908152600d602052604090206001015490565b3480156105f657600080fd5b5061028f610605366004612293565b611d46565b34801561061657600080fd5b506102286106253660046122c8565b611d74565b34801561063657600080fd5b506001546102f3906001600160a01b031681565b34801561065657600080fd5b50610228611dea565b610667611e2c565b600955565b610674611e2c565b600455565b610681611e2c565b600180546001600160a01b0319166001600160a01b0392909216919091179055565b6106ab611e2c565b600b5460ff166107025760405162461bcd60e51b815260206004820152601b60248201527f43757272656e742065706f636820686173206e6f7420656e646564000000000060448201526064015b60405180910390fd5b600b805460ff19169055600c80548391906000906107225761072261238d565b906000526020600020906005020160000160006101000a8154816001600160a01b0302191690836001600160a01b0316021790555080600c60018154811061076c5761076c61238d565b906000526020600020906005020160000160006101000a8154816001600160a01b0302191690836001600160a01b0316021790555042600c6000815481106107b6576107b661238d565b90600052602060002090600502016001018190555042600c6001815481106107e0576107e061238d565b90600052602060002090600502016001018190555042600c60028154811061080a5761080a61238d565b9060005260206000209060050201600101819055506000600c6000815481106108355761083561238d565b9060005260206000209060050201600301819055506000600c6001815481106108605761086061238d565b9060005260206000209060050201600301819055506000600c60028154811061088b5761088b61238d565b9060005260206000209060050201600301819055506000600c6000815481106108b6576108b661238d565b9060005260206000209060050201600401819055506000600c6001815481106108e1576108e161238d565b9060005260206000209060050201600401819055506000600c60028154811061090c5761090c61238d565b9060005260206000209060050201600401819055505050565b61092d611e2c565b600a55565b600b5460ff161561097d5760405162461bcd60e51b8152602060048201526015602482015274115c1bd8da081b9bdd081cdd185c9d1959081e595d605a1b60448201526064016106f9565b60028311156109c05760405162461bcd60e51b815260206004820152600f60248201526e125b9d985b1a59081c1bdbdb081259608a1b60448201526064016106f9565b336000908152600d602052604090206002015461010090046001600160a01b031615610a395760405162461bcd60e51b815260206004820152602260248201527f5573657220616c7265616479207374616b656420666f7220746869732065706f6044820152610c6d60f31b60648201526084016106f9565b818115610aca576001841115610a835760405162461bcd60e51b815260206004820152600f60248201526e125b9d985b1a59081c1bdbdb081259608a1b60448201526064016106f9565b612710600a54612710610a9691906123b9565b610aa090856123cc565b610aaa91906123e3565b600254909150610ac5906001600160a01b0316333086611e86565b610ae2565b600154610ae2906001600160a01b0316333086611e86565b60008111610b325760405162461bcd60e51b815260206004820152601d60248201527f4d757374207374616b65206d6f7265207468616e203020746f6b656e7300000060448201526064016106f9565b60408051608081018252858152602080820184815285151583850190815233606085018181526000918252600d90945294909420835181559051600182015592516002909301805491516001600160a81b0319909216931515610100600160a81b031916939093176101006001600160a01b03909216919091021790915582610bbc576001610bbf565b60005b60ff16600c8681548110610bd557610bd561238d565b90600052602060002090600502016003016000828254610bf59190612405565b90915550839050610c07576000610c0a565b60015b60ff16600c8681548110610c2057610c2061238d565b90600052602060002090600502016004016000828254610c409190612405565b90915550506000859003610d1b57600e8054600181018255600091909152815160039091027fbb7b4a454dc3493923482f07822329ed19e8244eff582cc204f8554c3620c3fd81019190915560208201517fbb7b4a454dc3493923482f07822329ed19e8244eff582cc204f8554c3620c3fe82015560408201517fbb7b4a454dc3493923482f07822329ed19e8244eff582cc204f8554c3620c3ff909101805460608401516001600160a01b031661010002610100600160a81b0319931515939093166001600160a81b031990911617919091179055610ec1565b84600103610df057600f8054600181018255600091909152815160039091027f8d1108e10bcb7c27dddfc02ed9d693a074039d026cf4ea4240b40f7d581ac80281019190915560208201517f8d1108e10bcb7c27dddfc02ed9d693a074039d026cf4ea4240b40f7d581ac80382015560408201517f8d1108e10bcb7c27dddfc02ed9d693a074039d026cf4ea4240b40f7d581ac804909101805460608401516001600160a01b031661010002610100600160a81b0319931515939093166001600160a81b031990911617919091179055610ec1565b84600203610ec15760108054600181018255600091909152815160039091027f1b6847dc741a1b0cd08d278845f9d819d87b734759afb55fe2de5cb82a9ae67281019190915560208201517f1b6847dc741a1b0cd08d278845f9d819d87b734759afb55fe2de5cb82a9ae67382015560408201517f1b6847dc741a1b0cd08d278845f9d819d87b734759afb55fe2de5cb82a9ae674909101805460608401516001600160a01b031661010002610100600160a81b0319931515939093166001600160a81b0319909116179190911790555b5050505050565b610ed0611e2c565b600b5460ff1615610f235760405162461bcd60e51b815260206004820152601b60248201527f43757272656e742065706f636820616c726561647920656e646564000000000060448201526064016106f9565b600b805460ff19166001908117909155600090610f419083906123b9565b905060008115610f5357600f54610f57565b600e545b905060008315610f6957600f54610f6d565b600e545b90506000600c8481548110610f8457610f8461238d565b906000526020600020906005020160020160006101000a8154816001600160a01b0302191690836001600160a01b03160217905550600c8481548110610fcc57610fcc61238d565b6000918252602090912060059091020154600c80546001600160a01b039092169186908110610ffd57610ffd61238d565b906000526020600020906005020160020160006101000a8154816001600160a01b0302191690836001600160a01b0316021790555060008060005b84811015611325576000861561106e57600f828154811061105b5761105b61238d565b9060005260206000209060030201611090565b600e82815481106110815761108161238d565b90600052602060002090600302015b604080516080810182528254815260018301546020820181905260029093015460ff81161515928201929092526101009091046001600160a01b03166060820152600554909250600091612710916110e7916123cc565b6110f191906123e3565b9050600081836020015161110591906123b9565b90506111376040518060400160405280600f81526020016e17dd5cd95c931bdcd9505b5bdd5b9d608a1b815250611ee6565b61114082611f29565b6111706040518060400160405280600f81526020016e17dd5cd95c92d9595c105b5bdd5b9d608a1b815250611ee6565b61117981611f29565b82604001511561121057600254606084015160405163a9059cbb60e01b81526001600160a01b0391821660048201526024810184905291169063a9059cbb906044016020604051808303816000875af11580156111da573d6000803e3d6000fd5b505050506040513d601f19601f820116820180604052508101906111fe9190612418565b506112098286612405565b9450611299565b600154606084015160405163a9059cbb60e01b81526001600160a01b0391821660048201526024810184905291169063a9059cbb906044016020604051808303816000875af1158015611267573d6000803e3d6000fd5b505050506040513d601f19601f8201168201806040525081019061128b9190612418565b506112968287612405565b95505b5050604080516080810182526000808252602080830182815283850183815260608086018581529701516001600160a01b039081168552600d90935294909220925183559051600183810191909155925160029092018054945190911661010002610100600160a81b0319921515929092166001600160a81b0319909416939093171790915501611038565b5060006127106006548461133991906123cc565b61134391906123e3565b905060006127106006548461135891906123cc565b61136291906123e3565b90506000806000600c8b8154811061137c5761137c61238d565b90600052602060002090600502016003015411156113c757600c8a815481106113a7576113a761238d565b906000526020600020906005020160030154846113c491906123e3565b91505b6000600c8b815481106113dc576113dc61238d565b906000526020600020906005020160040154111561142757600c8a815481106114075761140761238d565b9060005260206000209060050201600401548361142491906123e3565b90505b60005b8781101561168e5760008b1561146057600f828154811061144d5761144d61238d565b9060005260206000209060030201611482565b600e82815481106114735761147361238d565b90600052602060002090600302015b60408051608081018252825481526001830154602082015260029092015460ff81161580159284019290925261010090046001600160a01b0316606083015290915061156857600254606082015160208301516001600160a01b039092169163a9059cbb91906114f3908790612405565b6040516001600160e01b031960e085901b1681526001600160a01b03909216600483015260248201526044016020604051808303816000875af115801561153e573d6000803e3d6000fd5b505050506040513d601f19601f820116820180604052508101906115629190612418565b50611604565b600154606082015160208301516001600160a01b039092169163a9059cbb9190611593908890612405565b6040516001600160e01b031960e085901b1681526001600160a01b03909216600483015260248201526044016020604051808303816000875af11580156115de573d6000803e3d6000fd5b505050506040513d601f19601f820116820180604052508101906116029190612418565b505b604080516080810182526000808252602080830182815283850183815260608086018581529701516001600160a01b039081168552600d90935294909220925183559051600183810191909155925160029092018054945190911661010002610100600160a81b0319921515929092166001600160a81b031990941693909317179091550161142a565b506000612710600754886116a291906123cc565b6116ac91906123e3565b90506000612710600754886116c191906123cc565b6116cb91906123e3565b60025460405163a9059cbb60e01b815261dead6004820152602481018390529192506001600160a01b03169063a9059cbb906044016020604051808303816000875af115801561171f573d6000803e3d6000fd5b505050506040513d601f19601f820116820180604052508101906117439190612418565b5060015460405163a9059cbb60e01b815261dead6004820152602481018490526001600160a01b039091169063a9059cbb906044016020604051808303816000875af1158015611797573d6000803e3d6000fd5b505050506040513d601f19601f820116820180604052508101906117bb9190612418565b50601054600854600090612710906117d3908c6123cc565b6117dd91906123e3565b905060006127106008548b6117f291906123cc565b6117fc91906123e3565b90506000806000600c6002815481106118175761181761238d565b906000526020600020906005020160030154111561186357600c6002815481106118435761184361238d565b9060005260206000209060050201600301548461186091906123e3565b91505b6000600c6002815481106118795761187961238d565b90600052602060002090600502016004015411156118c557600c6002815481106118a5576118a561238d565b906000526020600020906005020160040154836118c291906123e3565b90505b60005b85811015611b06576000601082815481106118e5576118e561238d565b60009182526020918290206040805160808101825260039093029091018054835260018101549383019390935260029092015460ff8116158015938301939093526001600160a01b0361010090910416606082015291506119e057600254606082015160208301516001600160a01b039092169163a9059cbb919061196b908790612405565b6040516001600160e01b031960e085901b1681526001600160a01b03909216600483015260248201526044016020604051808303816000875af11580156119b6573d6000803e3d6000fd5b505050506040513d601f19601f820116820180604052508101906119da9190612418565b50611a7c565b600154606082015160208301516001600160a01b039092169163a9059cbb9190611a0b908890612405565b6040516001600160e01b031960e085901b1681526001600160a01b03909216600483015260248201526044016020604051808303816000875af1158015611a56573d6000803e3d6000fd5b505050506040513d601f19601f82011682018060405250810190611a7a9190612418565b505b604080516080810182526000808252602080830182815283850183815260608086018581529701516001600160a01b039081168552600d90935294909220925183559051600183810191909155925160029092018054945190911661010002610100600160a81b0319921515929092166001600160a81b03199094169390931717909155016118c8565b50611b13600e6000612246565b611b1f600f6000612246565b611b2b60106000612246565b5050505050505050505050505050505050565b611b46611e2c565b600855565b611b53611e2c565b611b5d6000611f6e565b565b611b67611e2c565b600355565b611b74611e2c565b600655565b600081611baa57600c8381548110611b9357611b9361238d565b906000526020600020906005020160030154611bd0565b600c8381548110611bbd57611bbd61238d565b9060005260206000209060050201600401545b90505b92915050565b611be1611e2c565b60405133904780156108fc02916000818181858888f19350505050158015611c0d573d6000803e3d6000fd5b50565b611c18611e2c565b600555565b611c25611e2c565b600755565b611c32611e2c565b6001546002546040516370a0823160e01b81523060048201526001600160a01b039283169263a9059cbb9233929116906370a08231906024015b602060405180830381865afa158015611c89573d6000803e3d6000fd5b505050506040513d601f19601f82011682018060405250810190611cad919061243c565b6040516001600160e01b031960e085901b1681526001600160a01b03909216600483015260248201526044016020604051808303816000875af1158015611cf8573d6000803e3d6000fd5b505050506040513d601f19601f82011682018060405250810190611c0d9190612418565b611d24611e2c565b600280546001600160a01b0319166001600160a01b0392909216919091179055565b6000600c8281548110611d5b57611d5b61238d565b9060005260206000209060050201600101549050919050565b611d7c611e2c565b6001600160a01b038116611de15760405162461bcd60e51b815260206004820152602660248201527f4f776e61626c653a206e6577206f776e657220697320746865207a65726f206160448201526564647265737360d01b60648201526084016106f9565b611c0d81611f6e565b611df2611e2c565b6002546040516370a0823160e01b81523060048201526001600160a01b039091169063a9059cbb90339083906370a0823190602401611c6c565b6000546001600160a01b03163314611b5d5760405162461bcd60e51b815260206004820181905260248201527f4f776e61626c653a2063616c6c6572206973206e6f7420746865206f776e657260448201526064016106f9565b604080516001600160a01b0385811660248301528416604482015260648082018490528251808303909101815260849091019091526020810180516001600160e01b03166323b872dd60e01b179052611ee0908590611fbe565b50505050565b611c0d81604051602401611efa9190612479565b60408051601f198184030181529190526020810180516001600160e01b031663104c13eb60e21b179052612095565b611c0d81604051602401611f3f91815260200190565b60408051601f198184030181529190526020810180516001600160e01b031663f82c50f160e01b179052612095565b600080546001600160a01b038381166001600160a01b0319831681178455604051919092169283917f8be0079c531659141344cd1fd0a4f28419497f9722a3daafe3b4186f6b6457e09190a35050565b6000612013826040518060400160405280602081526020017f5361666545524332303a206c6f772d6c6576656c2063616c6c206661696c6564815250856001600160a01b03166120b69092919063ffffffff16565b80519091501561209057808060200190518101906120319190612418565b6120905760405162461bcd60e51b815260206004820152602a60248201527f5361666545524332303a204552433230206f7065726174696f6e20646964206e6044820152691bdd081cdd58d8d9595960b21b60648201526084016106f9565b505050565b80516a636f6e736f6c652e6c6f67602083016000808483855afa5050505050565b60606120c584846000856120cd565b949350505050565b60608247101561212e5760405162461bcd60e51b815260206004820152602660248201527f416464726573733a20696e73756666696369656e742062616c616e636520666f6044820152651c8818d85b1b60d21b60648201526084016106f9565b600080866001600160a01b0316858760405161214a91906124ac565b60006040518083038185875af1925050503d8060008114612187576040519150601f19603f3d011682016040523d82523d6000602084013e61218c565b606091505b509150915061219d878383876121a8565b979650505050505050565b60608315612217578251600003612210576001600160a01b0385163b6122105760405162461bcd60e51b815260206004820152601d60248201527f416464726573733a2063616c6c20746f206e6f6e2d636f6e747261637400000060448201526064016106f9565b50816120c5565b6120c5838381511561222c5781518083602001fd5b8060405162461bcd60e51b81526004016106f99190612479565b5080546000825560030290600052602060002090810190611c0d91905b8082111561228f57600080825560018201556002810180546001600160a81b0319169055600301612263565b5090565b6000602082840312156122a557600080fd5b5035919050565b80356001600160a01b03811681146122c357600080fd5b919050565b6000602082840312156122da57600080fd5b611bd0826122ac565b600080604083850312156122f657600080fd5b6122ff836122ac565b915061230d602084016122ac565b90509250929050565b8015158114611c0d57600080fd5b60008060006060848603121561233957600080fd5b8335925060208401359150604084013561235281612316565b809150509250925092565b6000806040838503121561237057600080fd5b82359150602083013561238281612316565b809150509250929050565b634e487b7160e01b600052603260045260246000fd5b634e487b7160e01b600052601160045260246000fd5b81810381811115611bd357611bd36123a3565b8082028115828204841417611bd357611bd36123a3565b60008261240057634e487b7160e01b600052601260045260246000fd5b500490565b80820180821115611bd357611bd36123a3565b60006020828403121561242a57600080fd5b815161243581612316565b9392505050565b60006020828403121561244e57600080fd5b5051919050565b60005b83811015612470578181015183820152602001612458565b50506000910152565b6020815260008251806020840152612498816040850160208701612455565b601f01601f19169190910160400192915050565b600082516124be818460208701612455565b919091019291505056fea264697066735822122049631c94c458edc03cd6f42099870eaff5b6e12430696f641abc7c496173f92a64736f6c63430008110033",
  "linkReferences": {},
  "deployedLinkReferences": {}
}