{
  "_format": "hh-sol-artifact-1",
  "contractName": "PoolMaster",
  "sourceName": "src/backend/contracts/PoolMaster.sol",
  "abi": [
    {
      "inputs": [],
      "stateMutability": "nonpayable",
      "type": "constructor"
    },
    {
      "anonymous": false,
      "inputs": [
        {
          "indexed": false,
          "internalType": "address",
          "name": "user",
          "type": "address"
        },
        {
          "indexed": false,
          "internalType": "uint256",
          "name": "tokenId",
          "type": "uint256"
        },
        {
          "indexed": false,
          "internalType": "bool",
          "name": "isAlpha",
          "type": "bool"
        }
      ],
      "name": "MintSuccessful",
      "type": "event"
    },
    {
      "anonymous": false,
      "inputs": [
        {
          "indexed": true,
          "internalType": "address",
          "name": "previousOwner",
          "type": "address"
        },
        {
          "indexed": true,
          "internalType": "address",
          "name": "newOwner",
          "type": "address"
        }
      ],
      "name": "OwnershipTransferred",
      "type": "event"
    },
    {
      "inputs": [],
      "name": "battlingPhaseDuration",
      "outputs": [
        {
          "internalType": "uint256",
          "name": "",
          "type": "uint256"
        }
      ],
      "stateMutability": "view",
      "type": "function"
    },
    {
      "inputs": [],
      "name": "bettingPhaseDuration",
      "outputs": [
        {
          "internalType": "uint256",
          "name": "",
          "type": "uint256"
        }
      ],
      "stateMutability": "view",
      "type": "function"
    },
    {
      "inputs": [],
      "name": "burnedTokensPercent",
      "outputs": [
        {
          "internalType": "uint256",
          "name": "",
          "type": "uint256"
        }
      ],
      "stateMutability": "view",
      "type": "function"
    },
    {
      "inputs": [
        {
          "internalType": "uint256",
          "name": "_poolWinnerId",
          "type": "uint256"
        }
      ],
      "name": "endEpoch",
      "outputs": [],
      "stateMutability": "nonpayable",
      "type": "function"
    },
    {
      "inputs": [],
      "name": "epochEnded",
      "outputs": [
        {
          "internalType": "bool",
          "name": "",
          "type": "bool"
        }
      ],
      "stateMutability": "view",
      "type": "function"
    },
    {
      "inputs": [
        {
          "internalType": "address",
          "name": "_user",
          "type": "address"
        }
      ],
      "name": "getIsUsdcForAddress",
      "outputs": [
        {
          "internalType": "bool",
          "name": "",
          "type": "bool"
        }
      ],
      "stateMutability": "view",
      "type": "function"
    },
    {
      "inputs": [
        {
          "internalType": "uint256",
          "name": "_poolId",
          "type": "uint256"
        }
      ],
      "name": "getLastWinner",
      "outputs": [
        {
          "internalType": "address",
          "name": "",
          "type": "address"
        }
      ],
      "stateMutability": "view",
      "type": "function"
    },
    {
      "inputs": [],
      "name": "getPhase",
      "outputs": [
        {
          "internalType": "uint256",
          "name": "",
          "type": "uint256"
        }
      ],
      "stateMutability": "view",
      "type": "function"
    },
    {
      "inputs": [
        {
          "internalType": "address",
          "name": "_user",
          "type": "address"
        }
      ],
      "name": "getPoolIdForAddress",
      "outputs": [
        {
          "internalType": "uint256",
          "name": "",
          "type": "uint256"
        }
      ],
      "stateMutability": "view",
      "type": "function"
    },
    {
      "inputs": [
        {
          "internalType": "uint256",
          "name": "_poolId",
          "type": "uint256"
        },
        {
          "internalType": "bool",
          "name": "_isUsdc",
          "type": "bool"
        }
      ],
      "name": "getStakedTokens",
      "outputs": [
        {
          "internalType": "uint256",
          "name": "",
          "type": "uint256"
        }
      ],
      "stateMutability": "view",
      "type": "function"
    },
    {
      "inputs": [
        {
          "internalType": "address",
          "name": "_user",
          "type": "address"
        }
      ],
      "name": "getStakedTokensForAddress",
      "outputs": [
        {
          "internalType": "uint256",
          "name": "",
          "type": "uint256"
        }
      ],
      "stateMutability": "view",
      "type": "function"
    },
    {
      "inputs": [
        {
          "internalType": "uint256",
          "name": "_poolId",
          "type": "uint256"
        }
      ],
      "name": "getSymbol",
      "outputs": [
        {
          "internalType": "string",
          "name": "",
          "type": "string"
        }
      ],
      "stateMutability": "view",
      "type": "function"
    },
    {
      "inputs": [
        {
          "internalType": "uint256",
          "name": "_poolId",
          "type": "uint256"
        }
      ],
      "name": "getToken",
      "outputs": [
        {
          "internalType": "address",
          "name": "",
          "type": "address"
        }
      ],
      "stateMutability": "view",
      "type": "function"
    },
    {
      "inputs": [],
      "name": "loserTokensPercent",
      "outputs": [
        {
          "internalType": "uint256",
          "name": "",
          "type": "uint256"
        }
      ],
      "stateMutability": "view",
      "type": "function"
    },
    {
      "inputs": [],
      "name": "owner",
      "outputs": [
        {
          "internalType": "address",
          "name": "",
          "type": "address"
        }
      ],
      "stateMutability": "view",
      "type": "function"
    },
    {
      "inputs": [],
      "name": "pool3TokensPercent",
      "outputs": [
        {
          "internalType": "uint256",
          "name": "",
          "type": "uint256"
        }
      ],
      "stateMutability": "view",
      "type": "function"
    },
    {
      "inputs": [],
      "name": "renounceOwnership",
      "outputs": [],
      "stateMutability": "nonpayable",
      "type": "function"
    },
    {
      "inputs": [
        {
          "internalType": "uint256",
          "name": "_battlingPhaseDuration",
          "type": "uint256"
        }
      ],
      "name": "setBattlingPhaseDuration",
      "outputs": [],
      "stateMutability": "nonpayable",
      "type": "function"
    },
    {
      "inputs": [
        {
          "internalType": "uint256",
          "name": "_bettingPhaseDuration",
          "type": "uint256"
        }
      ],
      "name": "setBettingPhaseDuration",
      "outputs": [],
      "stateMutability": "nonpayable",
      "type": "function"
    },
    {
      "inputs": [
        {
          "internalType": "uint256",
          "name": "_burnedTokensPercent",
          "type": "uint256"
        }
      ],
      "name": "setBurnedTokensPercent",
      "outputs": [],
      "stateMutability": "nonpayable",
      "type": "function"
    },
    {
      "inputs": [
        {
          "internalType": "uint256",
          "name": "_loserTokensPercent",
          "type": "uint256"
        }
      ],
      "name": "setLoserTokensPercent",
      "outputs": [],
      "stateMutability": "nonpayable",
      "type": "function"
    },
    {
      "inputs": [
        {
          "internalType": "uint256",
          "name": "_pool3TokensPercent",
          "type": "uint256"
        }
      ],
      "name": "setPool3TokensPercent",
      "outputs": [],
      "stateMutability": "nonpayable",
      "type": "function"
    },
    {
      "inputs": [
        {
          "internalType": "address",
          "name": "_tokenAddress",
          "type": "address"
        }
      ],
      "name": "setTokenAddress",
      "outputs": [],
      "stateMutability": "nonpayable",
      "type": "function"
    },
    {
      "inputs": [
        {
          "internalType": "uint256",
          "name": "_unstakeFee",
          "type": "uint256"
        }
      ],
      "name": "setUnstakeFee",
      "outputs": [],
      "stateMutability": "nonpayable",
      "type": "function"
    },
    {
      "inputs": [
        {
          "internalType": "address",
          "name": "_usdcAddress",
          "type": "address"
        }
      ],
      "name": "setUsdcAddress",
      "outputs": [],
      "stateMutability": "nonpayable",
      "type": "function"
    },
    {
      "inputs": [
        {
          "internalType": "uint256",
          "name": "_usdcStakeFee",
          "type": "uint256"
        }
      ],
      "name": "setUsdcStakeFee",
      "outputs": [],
      "stateMutability": "nonpayable",
      "type": "function"
    },
    {
      "inputs": [
        {
          "internalType": "uint256",
          "name": "_winnerTokensPercent",
          "type": "uint256"
        }
      ],
      "name": "setWinnerTokensPercent",
      "outputs": [],
      "stateMutability": "nonpayable",
      "type": "function"
    },
    {
      "inputs": [
        {
          "internalType": "uint256",
          "name": "_poolId",
          "type": "uint256"
        },
        {
          "internalType": "uint256",
          "name": "_amount",
          "type": "uint256"
        },
        {
          "internalType": "bool",
          "name": "_isUsdc",
          "type": "bool"
        }
      ],
      "name": "stake",
      "outputs": [],
      "stateMutability": "payable",
      "type": "function"
    },
    {
      "inputs": [
        {
          "internalType": "address",
          "name": "_token1",
          "type": "address"
        },
        {
          "internalType": "address",
          "name": "_token2",
          "type": "address"
        },
        {
          "internalType": "string",
          "name": "_symbol1",
          "type": "string"
        },
        {
          "internalType": "string",
          "name": "_symbol2",
          "type": "string"
        }
      ],
      "name": "startEpoch",
      "outputs": [],
      "stateMutability": "nonpayable",
      "type": "function"
    },
    {
      "inputs": [],
      "name": "timestampStartEpoch",
      "outputs": [
        {
          "internalType": "uint256",
          "name": "",
          "type": "uint256"
        }
      ],
      "stateMutability": "view",
      "type": "function"
    },
    {
      "inputs": [],
      "name": "token",
      "outputs": [
        {
          "internalType": "contract IERC20",
          "name": "",
          "type": "address"
        }
      ],
      "stateMutability": "view",
      "type": "function"
    },
    {
      "inputs": [
        {
          "internalType": "address",
          "name": "newOwner",
          "type": "address"
        }
      ],
      "name": "transferOwnership",
      "outputs": [],
      "stateMutability": "nonpayable",
      "type": "function"
    },
    {
      "inputs": [],
      "name": "unstakeFee",
      "outputs": [
        {
          "internalType": "uint256",
          "name": "",
          "type": "uint256"
        }
      ],
      "stateMutability": "view",
      "type": "function"
    },
    {
      "inputs": [],
      "name": "usdc",
      "outputs": [
        {
          "internalType": "contract IERC20",
          "name": "",
          "type": "address"
        }
      ],
      "stateMutability": "view",
      "type": "function"
    },
    {
      "inputs": [],
      "name": "usdcStakeFee",
      "outputs": [
        {
          "internalType": "uint256",
          "name": "",
          "type": "uint256"
        }
      ],
      "stateMutability": "view",
      "type": "function"
    },
    {
      "inputs": [],
      "name": "winnerTokensPercent",
      "outputs": [
        {
          "internalType": "uint256",
          "name": "",
          "type": "uint256"
        }
      ],
      "stateMutability": "view",
      "type": "function"
    },
    {
      "inputs": [],
      "name": "withdrawEth",
      "outputs": [],
      "stateMutability": "nonpayable",
      "type": "function"
    },
    {
      "inputs": [],
      "name": "withdrawToken",
      "outputs": [],
      "stateMutability": "nonpayable",
      "type": "function"
    },
    {
      "inputs": [],
      "name": "withdrawUsdc",
      "outputs": [],
      "stateMutability": "nonpayable",
      "type": "function"
    }
  ],
  "bytecode": "0x6080604052617080600355620151806004556104e2600555611f4060065561019060075561064060085560c86009556064600a55600b805460ff191660011790553480156200004d57600080fd5b506200005933620002c6565b6040805160a081018252600080825282516020808201855282825283019081529282018190526060820181905260808201819052600d80546001810182559152815160008051602062002dc7833981519152600590920291820180546001600160a01b0319166001600160a01b03909216919091178155925191929160008051602062002de783398151915290910190620000f59082620003bb565b506040828101516002830180546001600160a01b03199081166001600160a01b03938416179091556060808601516003860155608095860151600490950194909455825160a08101845260008082528451602081810187528282528301908152948201819052948101859052948501849052600d80546001810182559452845160008051602062002dc78339815191526005909502948501805490921692169190911781559051909160008051602062002de78339815191520190620001bc9082620003bb565b506040828101516002830180546001600160a01b03199081166001600160a01b03938416179091556060808601516003860155608095860151600490950194909455825160a08101845260008082528451602081810187528282528301908152948201819052948101859052948501849052600d80546001810182559452845160008051602062002dc78339815191526005909502948501805490921692169190911781559051909160008051602062002de78339815191520190620002839082620003bb565b5060408201516002820180546001600160a01b0319166001600160a01b039092169190911790556060820151600382015560809091015160049091015562000487565b600080546001600160a01b038381166001600160a01b0319831681178455604051919092169283917f8be0079c531659141344cd1fd0a4f28419497f9722a3daafe3b4186f6b6457e09190a35050565b634e487b7160e01b600052604160045260246000fd5b600181811c908216806200034157607f821691505b6020821081036200036257634e487b7160e01b600052602260045260246000fd5b50919050565b601f821115620003b657600081815260208120601f850160051c81016020861015620003915750805b601f850160051c820191505b81811015620003b2578281556001016200039d565b5050505b505050565b81516001600160401b03811115620003d757620003d762000316565b620003ef81620003e884546200032c565b8462000368565b602080601f8311600181146200042757600084156200040e5750858301515b600019600386901b1c1916600185901b178555620003b2565b600085815260208120601f198616915b82811015620004585788860151825594840194600190910190840162000437565b5085821015620004775787850151600019600388901b60f8161c191681555b5050505050600190811b01905550565b61293080620004976000396000f3fe60806040526004361061022f5760003560e01c80638da5cb5b1161012e578063bc770d06116100ab578063e4b50cb81161006f578063e4b50cb814610679578063eced028014610699578063f2fde38b146106ae578063fc0c546a146106ce578063fee84d4e146106ee57600080fd5b8063bc770d06146105d5578063ca628c78146105f5578063d38bcdee1461060a578063d459a4181461062a578063d8e660ed1461064057600080fd5b80639a1dee2b116100f25780639a1dee2b1461055e5780639ee664b614610574578063a0ef91df1461058a578063ae3e04b11461059f578063ba2f303b146105bf57600080fd5b80638da5cb5b146104be5780638ea97d26146104dc578063949240d4146104f2578063989e92991461051257806398c44b7d1461052857600080fd5b806352916f25116101bc5780636418413c116101805780636418413c1461041c57806364cc37fb14610449578063715018a6146104695780638301151c1461047e5780638bbbbbde1461049e57600080fd5b806352916f2514610377578063561b2463146103975780635a8b9599146103aa5780635cdef57d146103e65780636164e45d146103fc57600080fd5b80631f5c735b116102035780631f5c735b146102dd57806325b511bd1461030157806326a4e8d2146103175780632f53ffe1146103375780633e413bee1461035757600080fd5b806218a1161461023457806307ed92d01461025657806316ea2c5714610276578063175db3c4146102b3575b600080fd5b34801561024057600080fd5b5061025461024f3660046124c0565b610703565b005b34801561026257600080fd5b506102546102713660046124c0565b610710565b34801561028257600080fd5b506102966102913660046124c0565b61071d565b6040516001600160a01b0390911681526020015b60405180910390f35b3480156102bf57600080fd5b50600b546102cd9060ff1681565b60405190151581526020016102aa565b3480156102e957600080fd5b506102f360055481565b6040519081526020016102aa565b34801561030d57600080fd5b506102f360045481565b34801561032357600080fd5b506102546103323660046124f5565b610755565b34801561034357600080fd5b50610254610352366004612559565b61077f565b34801561036357600080fd5b50600254610296906001600160a01b031681565b34801561038357600080fd5b506102546103923660046124c0565b6109f4565b6102546103a53660046125f8565b610a01565b3480156103b657600080fd5b506102cd6103c53660046124f5565b6001600160a01b03166000908152600e602052604090206002015460ff1690565b3480156103f257600080fd5b506102f360085481565b34801561040857600080fd5b506102546104173660046124c0565b610fec565b34801561042857600080fd5b5061043c6104373660046124c0565b611c62565b6040516102aa9190612655565b34801561045557600080fd5b506102546104643660046124c0565b611d18565b34801561047557600080fd5b50610254611d25565b34801561048a57600080fd5b506102546104993660046124c0565b611d39565b3480156104aa57600080fd5b506102546104b93660046124c0565b611d46565b3480156104ca57600080fd5b506000546001600160a01b0316610296565b3480156104e857600080fd5b506102f360095481565b3480156104fe57600080fd5b506102f361050d366004612688565b611d53565b34801561051e57600080fd5b506102f360035481565b34801561053457600080fd5b506102f36105433660046124f5565b6001600160a01b03166000908152600e602052604090205490565b34801561056a57600080fd5b506102f3600c5481565b34801561058057600080fd5b506102f360065481565b34801561059657600080fd5b50610254611db3565b3480156105ab57600080fd5b506102546105ba3660046124c0565b611dea565b3480156105cb57600080fd5b506102f360075481565b3480156105e157600080fd5b506102546105f03660046124c0565b611df7565b34801561060157600080fd5b50610254611e04565b34801561061657600080fd5b506102546106253660046124f5565b611ef6565b34801561063657600080fd5b506102f3600a5481565b34801561064c57600080fd5b506102f361065b3660046124f5565b6001600160a01b03166000908152600e602052604090206001015490565b34801561068557600080fd5b506102966106943660046124c0565b611f20565b3480156106a557600080fd5b506102f3611f55565b3480156106ba57600080fd5b506102546106c93660046124f5565b611fa1565b3480156106da57600080fd5b50600154610296906001600160a01b031681565b3480156106fa57600080fd5b50610254612017565b61070b612059565b600955565b610718612059565b600455565b6000600d8281548110610732576107326126b8565b60009182526020909120600260059092020101546001600160a01b031692915050565b61075d612059565b600180546001600160a01b0319166001600160a01b0392909216919091179055565b610787612059565b600b5460ff166107de5760405162461bcd60e51b815260206004820152601b60248201527f43757272656e742065706f636820686173206e6f7420656e646564000000000060448201526064015b60405180910390fd5b600b805460ff19169055600d80548791906000906107fe576107fe6126b8565b906000526020600020906005020160000160006101000a8154816001600160a01b0302191690836001600160a01b0316021790555084600d600181548110610848576108486126b8565b906000526020600020906005020160000160006101000a8154816001600160a01b0302191690836001600160a01b031602179055508383600d600081548110610893576108936126b8565b906000526020600020906005020160010191826108b192919061276c565b508181600d6001815481106108c8576108c86126b8565b906000526020600020906005020160010191826108e692919061276c565b506000600d6000815481106108fd576108fd6126b8565b9060005260206000209060050201600301819055506000600d600181548110610928576109286126b8565b9060005260206000209060050201600301819055506000600d600281548110610953576109536126b8565b9060005260206000209060050201600301819055506000600d60008154811061097e5761097e6126b8565b9060005260206000209060050201600401819055506000600d6001815481106109a9576109a96126b8565b9060005260206000209060050201600401819055506000600d6002815481106109d4576109d46126b8565b6000918252602090912060046005909202010155505042600c5550505050565b6109fc612059565b600a55565b600b5460ff1615610a4c5760405162461bcd60e51b8152602060048201526015602482015274115c1bd8da081b9bdd081cdd185c9d1959081e595d605a1b60448201526064016107d5565b610a54611f55565b15610aa15760405162461bcd60e51b815260206004820152601860248201527f42657474696e672070686173652068617320656e6465642e000000000000000060448201526064016107d5565b6002831115610ae45760405162461bcd60e51b815260206004820152600f60248201526e125b9d985b1a59081c1bdbdb081259608a1b60448201526064016107d5565b336000908152600e602052604090206002015461010090046001600160a01b031615610b5d5760405162461bcd60e51b815260206004820152602260248201527f5573657220616c7265616479207374616b656420666f7220746869732065706f6044820152610c6d60f31b60648201526084016107d5565b818115610bee576001841115610ba75760405162461bcd60e51b815260206004820152600f60248201526e125b9d985b1a59081c1bdbdb081259608a1b60448201526064016107d5565b612710600a54612710610bba9190612842565b610bc49085612855565b610bce919061286c565b600254909150610be9906001600160a01b03163330866120b3565b610c06565b600154610c06906001600160a01b03163330866120b3565b60008111610c565760405162461bcd60e51b815260206004820152601d60248201527f4d757374207374616b65206d6f7265207468616e203020746f6b656e7300000060448201526064016107d5565b60408051608081018252858152602080820184815285151583850190815233606085018181526000918252600e90945294909420835181559051600182015592516002909301805491516001600160a81b0319909216931515610100600160a81b031916939093176101006001600160a01b03909216919091021790915582610ce0576001610ce3565b60005b60ff16600d8681548110610cf957610cf96126b8565b90600052602060002090600502016003016000828254610d19919061288e565b90915550839050610d2b576000610d2e565b60015b60ff16600d8681548110610d4457610d446126b8565b90600052602060002090600502016004016000828254610d64919061288e565b90915550506000859003610e3f57600f8054600181018255600091909152815160039091027f8d1108e10bcb7c27dddfc02ed9d693a074039d026cf4ea4240b40f7d581ac80281019190915560208201517f8d1108e10bcb7c27dddfc02ed9d693a074039d026cf4ea4240b40f7d581ac80382015560408201517f8d1108e10bcb7c27dddfc02ed9d693a074039d026cf4ea4240b40f7d581ac804909101805460608401516001600160a01b031661010002610100600160a81b0319931515939093166001600160a81b031990911617919091179055610fe5565b84600103610f145760108054600181018255600091909152815160039091027f1b6847dc741a1b0cd08d278845f9d819d87b734759afb55fe2de5cb82a9ae67281019190915560208201517f1b6847dc741a1b0cd08d278845f9d819d87b734759afb55fe2de5cb82a9ae67382015560408201517f1b6847dc741a1b0cd08d278845f9d819d87b734759afb55fe2de5cb82a9ae674909101805460608401516001600160a01b031661010002610100600160a81b0319931515939093166001600160a81b031990911617919091179055610fe5565b84600203610fe55760118054600181018255600091909152815160039091027f31ecc21a745e3968a04e9570e4425bc18fa8019c68028196b546d1669c200c6881019190915560208201517f31ecc21a745e3968a04e9570e4425bc18fa8019c68028196b546d1669c200c6982015560408201517f31ecc21a745e3968a04e9570e4425bc18fa8019c68028196b546d1669c200c6a909101805460608401516001600160a01b031661010002610100600160a81b0319931515939093166001600160a81b0319909116179190911790555b5050505050565b610ff4612059565b600b5460ff16156110475760405162461bcd60e51b815260206004820152601b60248201527f43757272656e742065706f636820616c726561647920656e646564000000000060448201526064016107d5565b600b805460ff19166001908117909155600090611065908390612842565b9050600081156110775760105461107b565b600f545b90506000831561108d57601054611091565b600f545b90506000600d84815481106110a8576110a86126b8565b906000526020600020906005020160020160006101000a8154816001600160a01b0302191690836001600160a01b03160217905550600d84815481106110f0576110f06126b8565b6000918252602090912060059091020154600d80546001600160a01b039092169186908110611121576111216126b8565b906000526020600020906005020160020160006101000a8154816001600160a01b0302191690836001600160a01b0316021790555060008060005b848110156114495760008615611192576010828154811061117f5761117f6126b8565b90600052602060002090600302016111b4565b600f82815481106111a5576111a56126b8565b90600052602060002090600302015b604080516080810182528254815260018301546020820181905260029093015460ff81161515928201929092526101009091046001600160a01b031660608201526005549092506000916127109161120b91612855565b611215919061286c565b905060008183602001516112299190612842565b905061125b6040518060400160405280600f81526020016e17dd5cd95c931bdcd9505b5bdd5b9d608a1b815250612113565b61126482612156565b6112946040518060400160405280600f81526020016e17dd5cd95c92d9595c105b5bdd5b9d608a1b815250612113565b61129d81612156565b82604001511561133457600254606084015160405163a9059cbb60e01b81526001600160a01b0391821660048201526024810184905291169063a9059cbb906044016020604051808303816000875af11580156112fe573d6000803e3d6000fd5b505050506040513d601f19601f8201168201806040525081019061132291906128a1565b5061132d828661288e565b94506113bd565b600154606084015160405163a9059cbb60e01b81526001600160a01b0391821660048201526024810184905291169063a9059cbb906044016020604051808303816000875af115801561138b573d6000803e3d6000fd5b505050506040513d601f19601f820116820180604052508101906113af91906128a1565b506113ba828761288e565b95505b5050604080516080810182526000808252602080830182815283850183815260608086018581529701516001600160a01b039081168552600e90935294909220925183559051600183810191909155925160029092018054945190911661010002610100600160a81b0319921515929092166001600160a81b031990941693909317179091550161115c565b5060006127106006548461145d9190612855565b611467919061286c565b905060006127106006548461147c9190612855565b611486919061286c565b90506000806000600d8b815481106114a0576114a06126b8565b90600052602060002090600502016003015411156114eb57600d8a815481106114cb576114cb6126b8565b906000526020600020906005020160030154846114e8919061286c565b91505b6000600d8b81548110611500576115006126b8565b906000526020600020906005020160040154111561154b57600d8a8154811061152b5761152b6126b8565b90600052602060002090600502016004015483611548919061286c565b90505b60005b878110156117b25760008b156115845760108281548110611571576115716126b8565b90600052602060002090600302016115a6565b600f8281548110611597576115976126b8565b90600052602060002090600302015b60408051608081018252825481526001830154602082015260029092015460ff81161580159284019290925261010090046001600160a01b0316606083015290915061168c57600254606082015160208301516001600160a01b039092169163a9059cbb919061161790879061288e565b6040516001600160e01b031960e085901b1681526001600160a01b03909216600483015260248201526044016020604051808303816000875af1158015611662573d6000803e3d6000fd5b505050506040513d601f19601f8201168201806040525081019061168691906128a1565b50611728565b600154606082015160208301516001600160a01b039092169163a9059cbb91906116b790889061288e565b6040516001600160e01b031960e085901b1681526001600160a01b03909216600483015260248201526044016020604051808303816000875af1158015611702573d6000803e3d6000fd5b505050506040513d601f19601f8201168201806040525081019061172691906128a1565b505b604080516080810182526000808252602080830182815283850183815260608086018581529701516001600160a01b039081168552600e90935294909220925183559051600183810191909155925160029092018054945190911661010002610100600160a81b0319921515929092166001600160a81b031990941693909317179091550161154e565b506000612710600754886117c69190612855565b6117d0919061286c565b90506000612710600754886117e59190612855565b6117ef919061286c565b60025460405163a9059cbb60e01b815261dead6004820152602481018390529192506001600160a01b03169063a9059cbb906044016020604051808303816000875af1158015611843573d6000803e3d6000fd5b505050506040513d601f19601f8201168201806040525081019061186791906128a1565b5060015460405163a9059cbb60e01b815261dead6004820152602481018490526001600160a01b039091169063a9059cbb906044016020604051808303816000875af11580156118bb573d6000803e3d6000fd5b505050506040513d601f19601f820116820180604052508101906118df91906128a1565b50601154600854600090612710906118f7908c612855565b611901919061286c565b905060006127106008548b6119169190612855565b611920919061286c565b90506000806000600d60028154811061193b5761193b6126b8565b906000526020600020906005020160030154111561198757600d600281548110611967576119676126b8565b90600052602060002090600502016003015484611984919061286c565b91505b6000600d60028154811061199d5761199d6126b8565b90600052602060002090600502016004015411156119e957600d6002815481106119c9576119c96126b8565b906000526020600020906005020160040154836119e6919061286c565b90505b60005b85811015611c2a57600060118281548110611a0957611a096126b8565b60009182526020918290206040805160808101825260039093029091018054835260018101549383019390935260029092015460ff8116158015938301939093526001600160a01b036101009091041660608201529150611b0457600254606082015160208301516001600160a01b039092169163a9059cbb9190611a8f90879061288e565b6040516001600160e01b031960e085901b1681526001600160a01b03909216600483015260248201526044016020604051808303816000875af1158015611ada573d6000803e3d6000fd5b505050506040513d601f19601f82011682018060405250810190611afe91906128a1565b50611ba0565b600154606082015160208301516001600160a01b039092169163a9059cbb9190611b2f90889061288e565b6040516001600160e01b031960e085901b1681526001600160a01b03909216600483015260248201526044016020604051808303816000875af1158015611b7a573d6000803e3d6000fd5b505050506040513d601f19601f82011682018060405250810190611b9e91906128a1565b505b604080516080810182526000808252602080830182815283850183815260608086018581529701516001600160a01b039081168552600e90935294909220925183559051600183810191909155925160029092018054945190911661010002610100600160a81b0319921515929092166001600160a81b03199094169390931717909155016119ec565b50611c37600f6000612473565b611c4360106000612473565b611c4f60116000612473565b5050505050505050505050505050505050565b6060600d8281548110611c7757611c776126b8565b90600052602060002090600502016001018054611c93906126e4565b80601f0160208091040260200160405190810160405280929190818152602001828054611cbf906126e4565b8015611d0c5780601f10611ce157610100808354040283529160200191611d0c565b820191906000526020600020905b815481529060010190602001808311611cef57829003601f168201915b50505050509050919050565b611d20612059565b600855565b611d2d612059565b611d37600061219b565b565b611d41612059565b600355565b611d4e612059565b600655565b600081611d8457600d8381548110611d6d57611d6d6126b8565b906000526020600020906005020160030154611daa565b600d8381548110611d9757611d976126b8565b9060005260206000209060050201600401545b90505b92915050565b611dbb612059565b60405133904780156108fc02916000818181858888f19350505050158015611de7573d6000803e3d6000fd5b50565b611df2612059565b600555565b611dff612059565b600755565b611e0c612059565b6001546002546040516370a0823160e01b81523060048201526001600160a01b039283169263a9059cbb9233929116906370a08231906024015b602060405180830381865afa158015611e63573d6000803e3d6000fd5b505050506040513d601f19601f82011682018060405250810190611e8791906128c5565b6040516001600160e01b031960e085901b1681526001600160a01b03909216600483015260248201526044016020604051808303816000875af1158015611ed2573d6000803e3d6000fd5b505050506040513d601f19601f82011682018060405250810190611de791906128a1565b611efe612059565b600280546001600160a01b0319166001600160a01b0392909216919091179055565b6000600d8281548110611f3557611f356126b8565b60009182526020909120600590910201546001600160a01b031692915050565b600080600c5442611f669190612842565b9050600454811180611f7a5750600b5460ff165b15611f8757600291505090565b600354811115611f9957600191505090565b600091505090565b611fa9612059565b6001600160a01b03811661200e5760405162461bcd60e51b815260206004820152602660248201527f4f776e61626c653a206e6577206f776e657220697320746865207a65726f206160448201526564647265737360d01b60648201526084016107d5565b611de78161219b565b61201f612059565b6002546040516370a0823160e01b81523060048201526001600160a01b039091169063a9059cbb90339083906370a0823190602401611e46565b6000546001600160a01b03163314611d375760405162461bcd60e51b815260206004820181905260248201527f4f776e61626c653a2063616c6c6572206973206e6f7420746865206f776e657260448201526064016107d5565b604080516001600160a01b0385811660248301528416604482015260648082018490528251808303909101815260849091019091526020810180516001600160e01b03166323b872dd60e01b17905261210d9085906121eb565b50505050565b611de7816040516024016121279190612655565b60408051601f198184030181529190526020810180516001600160e01b031663104c13eb60e21b1790526122c2565b611de78160405160240161216c91815260200190565b60408051601f198184030181529190526020810180516001600160e01b031663f82c50f160e01b1790526122c2565b600080546001600160a01b038381166001600160a01b0319831681178455604051919092169283917f8be0079c531659141344cd1fd0a4f28419497f9722a3daafe3b4186f6b6457e09190a35050565b6000612240826040518060400160405280602081526020017f5361666545524332303a206c6f772d6c6576656c2063616c6c206661696c6564815250856001600160a01b03166122e39092919063ffffffff16565b8051909150156122bd578080602001905181019061225e91906128a1565b6122bd5760405162461bcd60e51b815260206004820152602a60248201527f5361666545524332303a204552433230206f7065726174696f6e20646964206e6044820152691bdd081cdd58d8d9595960b21b60648201526084016107d5565b505050565b80516a636f6e736f6c652e6c6f67602083016000808483855afa5050505050565b60606122f284846000856122fa565b949350505050565b60608247101561235b5760405162461bcd60e51b815260206004820152602660248201527f416464726573733a20696e73756666696369656e742062616c616e636520666f6044820152651c8818d85b1b60d21b60648201526084016107d5565b600080866001600160a01b0316858760405161237791906128de565b60006040518083038185875af1925050503d80600081146123b4576040519150601f19603f3d011682016040523d82523d6000602084013e6123b9565b606091505b50915091506123ca878383876123d5565b979650505050505050565b6060831561244457825160000361243d576001600160a01b0385163b61243d5760405162461bcd60e51b815260206004820152601d60248201527f416464726573733a2063616c6c20746f206e6f6e2d636f6e747261637400000060448201526064016107d5565b50816122f2565b6122f283838151156124595781518083602001fd5b8060405162461bcd60e51b81526004016107d59190612655565b5080546000825560030290600052602060002090810190611de791905b808211156124bc57600080825560018201556002810180546001600160a81b0319169055600301612490565b5090565b6000602082840312156124d257600080fd5b5035919050565b80356001600160a01b03811681146124f057600080fd5b919050565b60006020828403121561250757600080fd5b611daa826124d9565b60008083601f84011261252257600080fd5b50813567ffffffffffffffff81111561253a57600080fd5b60208301915083602082850101111561255257600080fd5b9250929050565b6000806000806000806080878903121561257257600080fd5b61257b876124d9565b9550612589602088016124d9565b9450604087013567ffffffffffffffff808211156125a657600080fd5b6125b28a838b01612510565b909650945060608901359150808211156125cb57600080fd5b506125d889828a01612510565b979a9699509497509295939492505050565b8015158114611de757600080fd5b60008060006060848603121561260d57600080fd5b83359250602084013591506040840135612626816125ea565b809150509250925092565b60005b8381101561264c578181015183820152602001612634565b50506000910152565b6020815260008251806020840152612674816040850160208701612631565b601f01601f19169190910160400192915050565b6000806040838503121561269b57600080fd5b8235915060208301356126ad816125ea565b809150509250929050565b634e487b7160e01b600052603260045260246000fd5b634e487b7160e01b600052604160045260246000fd5b600181811c908216806126f857607f821691505b60208210810361271857634e487b7160e01b600052602260045260246000fd5b50919050565b601f8211156122bd57600081815260208120601f850160051c810160208610156127455750805b601f850160051c820191505b8181101561276457828155600101612751565b505050505050565b67ffffffffffffffff831115612784576127846126ce565b6127988361279283546126e4565b8361271e565b6000601f8411600181146127cc57600085156127b45750838201355b600019600387901b1c1916600186901b178355610fe5565b600083815260209020601f19861690835b828110156127fd57868501358255602094850194600190920191016127dd565b508682101561281a5760001960f88860031b161c19848701351681555b505060018560011b0183555050505050565b634e487b7160e01b600052601160045260246000fd5b81810381811115611dad57611dad61282c565b8082028115828204841417611dad57611dad61282c565b60008261288957634e487b7160e01b600052601260045260246000fd5b500490565b80820180821115611dad57611dad61282c565b6000602082840312156128b357600080fd5b81516128be816125ea565b9392505050565b6000602082840312156128d757600080fd5b5051919050565b600082516128f0818460208701612631565b919091019291505056fea2646970667358221220a742d921b5726e92f24c1ce53e0f056ead088091002378ca884ee86ca4b149cd64736f6c63430008110033d7b6990105719101dabeb77144f2a3385c8033acd3af97e9423a695e81ad1eb5d7b6990105719101dabeb77144f2a3385c8033acd3af97e9423a695e81ad1eb6",
  "linkReferences": {},
  "deployedLinkReferences": {}
}