{
  "_format": "hh-sol-artifact-1",
  "contractName": "PoolMaster",
  "sourceName": "src/backend/contracts/PoolMaster.sol",
  "abi": [
    {
      "inputs": [],
      "stateMutability": "nonpayable",
      "type": "constructor"
    },
    {
      "anonymous": false,
      "inputs": [
        {
          "indexed": false,
          "internalType": "address",
          "name": "user",
          "type": "address"
        },
        {
          "indexed": false,
          "internalType": "uint256",
          "name": "tokenId",
          "type": "uint256"
        },
        {
          "indexed": false,
          "internalType": "bool",
          "name": "isAlpha",
          "type": "bool"
        }
      ],
      "name": "MintSuccessful",
      "type": "event"
    },
    {
      "anonymous": false,
      "inputs": [
        {
          "indexed": true,
          "internalType": "address",
          "name": "previousOwner",
          "type": "address"
        },
        {
          "indexed": true,
          "internalType": "address",
          "name": "newOwner",
          "type": "address"
        }
      ],
      "name": "OwnershipTransferred",
      "type": "event"
    },
    {
      "inputs": [],
      "name": "battlingPhaseDuration",
      "outputs": [
        {
          "internalType": "uint256",
          "name": "",
          "type": "uint256"
        }
      ],
      "stateMutability": "view",
      "type": "function"
    },
    {
      "inputs": [],
      "name": "bettingPhaseDuration",
      "outputs": [
        {
          "internalType": "uint256",
          "name": "",
          "type": "uint256"
        }
      ],
      "stateMutability": "view",
      "type": "function"
    },
    {
      "inputs": [],
      "name": "burnedTokensPercent",
      "outputs": [
        {
          "internalType": "uint256",
          "name": "",
          "type": "uint256"
        }
      ],
      "stateMutability": "view",
      "type": "function"
    },
    {
      "inputs": [
        {
          "internalType": "uint256",
          "name": "_poolWinnerId",
          "type": "uint256"
        }
      ],
      "name": "endEpoch",
      "outputs": [],
      "stateMutability": "nonpayable",
      "type": "function"
    },
    {
      "inputs": [],
      "name": "epochEnded",
      "outputs": [
        {
          "internalType": "bool",
          "name": "",
          "type": "bool"
        }
      ],
      "stateMutability": "view",
      "type": "function"
    },
    {
      "inputs": [
        {
          "internalType": "address",
          "name": "_user",
          "type": "address"
        }
      ],
      "name": "getIsUsdcForAddress",
      "outputs": [
        {
          "internalType": "bool",
          "name": "",
          "type": "bool"
        }
      ],
      "stateMutability": "view",
      "type": "function"
    },
    {
      "inputs": [],
      "name": "getPhase",
      "outputs": [
        {
          "internalType": "uint256",
          "name": "",
          "type": "uint256"
        }
      ],
      "stateMutability": "view",
      "type": "function"
    },
    {
      "inputs": [
        {
          "internalType": "address",
          "name": "_user",
          "type": "address"
        }
      ],
      "name": "getPoolIdForAddress",
      "outputs": [
        {
          "internalType": "uint256",
          "name": "",
          "type": "uint256"
        }
      ],
      "stateMutability": "view",
      "type": "function"
    },
    {
      "inputs": [
        {
          "internalType": "uint256",
          "name": "_poolId",
          "type": "uint256"
        },
        {
          "internalType": "bool",
          "name": "_isUsdc",
          "type": "bool"
        }
      ],
      "name": "getStakedTokens",
      "outputs": [
        {
          "internalType": "uint256",
          "name": "",
          "type": "uint256"
        }
      ],
      "stateMutability": "view",
      "type": "function"
    },
    {
      "inputs": [
        {
          "internalType": "address",
          "name": "_user",
          "type": "address"
        }
      ],
      "name": "getStakedTokensForAddress",
      "outputs": [
        {
          "internalType": "uint256",
          "name": "",
          "type": "uint256"
        }
      ],
      "stateMutability": "view",
      "type": "function"
    },
    {
      "inputs": [],
      "name": "loserTokensPercent",
      "outputs": [
        {
          "internalType": "uint256",
          "name": "",
          "type": "uint256"
        }
      ],
      "stateMutability": "view",
      "type": "function"
    },
    {
      "inputs": [],
      "name": "owner",
      "outputs": [
        {
          "internalType": "address",
          "name": "",
          "type": "address"
        }
      ],
      "stateMutability": "view",
      "type": "function"
    },
    {
      "inputs": [],
      "name": "pool3TokensPercent",
      "outputs": [
        {
          "internalType": "uint256",
          "name": "",
          "type": "uint256"
        }
      ],
      "stateMutability": "view",
      "type": "function"
    },
    {
      "inputs": [],
      "name": "renounceOwnership",
      "outputs": [],
      "stateMutability": "nonpayable",
      "type": "function"
    },
    {
      "inputs": [
        {
          "internalType": "uint256",
          "name": "_battlingPhaseDuration",
          "type": "uint256"
        }
      ],
      "name": "setBattlingPhaseDuration",
      "outputs": [],
      "stateMutability": "nonpayable",
      "type": "function"
    },
    {
      "inputs": [
        {
          "internalType": "uint256",
          "name": "_bettingPhaseDuration",
          "type": "uint256"
        }
      ],
      "name": "setBettingPhaseDuration",
      "outputs": [],
      "stateMutability": "nonpayable",
      "type": "function"
    },
    {
      "inputs": [
        {
          "internalType": "uint256",
          "name": "_burnedTokensPercent",
          "type": "uint256"
        }
      ],
      "name": "setBurnedTokensPercent",
      "outputs": [],
      "stateMutability": "nonpayable",
      "type": "function"
    },
    {
      "inputs": [
        {
          "internalType": "uint256",
          "name": "_loserTokensPercent",
          "type": "uint256"
        }
      ],
      "name": "setLoserTokensPercent",
      "outputs": [],
      "stateMutability": "nonpayable",
      "type": "function"
    },
    {
      "inputs": [
        {
          "internalType": "uint256",
          "name": "_pool3TokensPercent",
          "type": "uint256"
        }
      ],
      "name": "setPool3TokensPercent",
      "outputs": [],
      "stateMutability": "nonpayable",
      "type": "function"
    },
    {
      "inputs": [
        {
          "internalType": "address",
          "name": "_tokenAddress",
          "type": "address"
        }
      ],
      "name": "setTokenAddress",
      "outputs": [],
      "stateMutability": "nonpayable",
      "type": "function"
    },
    {
      "inputs": [
        {
          "internalType": "uint256",
          "name": "_unstakeFee",
          "type": "uint256"
        }
      ],
      "name": "setUnstakeFee",
      "outputs": [],
      "stateMutability": "nonpayable",
      "type": "function"
    },
    {
      "inputs": [
        {
          "internalType": "address",
          "name": "_usdcAddress",
          "type": "address"
        }
      ],
      "name": "setUsdcAddress",
      "outputs": [],
      "stateMutability": "nonpayable",
      "type": "function"
    },
    {
      "inputs": [
        {
          "internalType": "uint256",
          "name": "_usdcStakeFee",
          "type": "uint256"
        }
      ],
      "name": "setUsdcStakeFee",
      "outputs": [],
      "stateMutability": "nonpayable",
      "type": "function"
    },
    {
      "inputs": [
        {
          "internalType": "uint256",
          "name": "_winnerTokensPercent",
          "type": "uint256"
        }
      ],
      "name": "setWinnerTokensPercent",
      "outputs": [],
      "stateMutability": "nonpayable",
      "type": "function"
    },
    {
      "inputs": [
        {
          "internalType": "uint256",
          "name": "_poolId",
          "type": "uint256"
        },
        {
          "internalType": "uint256",
          "name": "_amount",
          "type": "uint256"
        },
        {
          "internalType": "bool",
          "name": "_isUsdc",
          "type": "bool"
        }
      ],
      "name": "stake",
      "outputs": [],
      "stateMutability": "payable",
      "type": "function"
    },
    {
      "inputs": [
        {
          "internalType": "address",
          "name": "_token1",
          "type": "address"
        },
        {
          "internalType": "address",
          "name": "_token2",
          "type": "address"
        }
      ],
      "name": "startEpoch",
      "outputs": [],
      "stateMutability": "nonpayable",
      "type": "function"
    },
    {
      "inputs": [],
      "name": "timestampStartEpoch",
      "outputs": [
        {
          "internalType": "uint256",
          "name": "",
          "type": "uint256"
        }
      ],
      "stateMutability": "view",
      "type": "function"
    },
    {
      "inputs": [],
      "name": "token",
      "outputs": [
        {
          "internalType": "contract IERC20",
          "name": "",
          "type": "address"
        }
      ],
      "stateMutability": "view",
      "type": "function"
    },
    {
      "inputs": [
        {
          "internalType": "address",
          "name": "newOwner",
          "type": "address"
        }
      ],
      "name": "transferOwnership",
      "outputs": [],
      "stateMutability": "nonpayable",
      "type": "function"
    },
    {
      "inputs": [],
      "name": "unstakeFee",
      "outputs": [
        {
          "internalType": "uint256",
          "name": "",
          "type": "uint256"
        }
      ],
      "stateMutability": "view",
      "type": "function"
    },
    {
      "inputs": [],
      "name": "usdc",
      "outputs": [
        {
          "internalType": "contract IERC20",
          "name": "",
          "type": "address"
        }
      ],
      "stateMutability": "view",
      "type": "function"
    },
    {
      "inputs": [],
      "name": "usdcStakeFee",
      "outputs": [
        {
          "internalType": "uint256",
          "name": "",
          "type": "uint256"
        }
      ],
      "stateMutability": "view",
      "type": "function"
    },
    {
      "inputs": [],
      "name": "winnerTokensPercent",
      "outputs": [
        {
          "internalType": "uint256",
          "name": "",
          "type": "uint256"
        }
      ],
      "stateMutability": "view",
      "type": "function"
    },
    {
      "inputs": [],
      "name": "withdrawEth",
      "outputs": [],
      "stateMutability": "nonpayable",
      "type": "function"
    },
    {
      "inputs": [],
      "name": "withdrawToken",
      "outputs": [],
      "stateMutability": "nonpayable",
      "type": "function"
    },
    {
      "inputs": [],
      "name": "withdrawUsdc",
      "outputs": [],
      "stateMutability": "nonpayable",
      "type": "function"
    }
  ],
  "bytecode": "0x6080604052617080600355620151806004556104e2600555611f4060065561019060075561064060085560c86009556064600a55600b805460ff1916600117905534801561004c57600080fd5b50610056336102d1565b600d604051806080016040528060006001600160a01b0316815260200160006001600160a01b03168152602001600081526020016000815250908060018154018082558091505060019003906000526020600020906004020160009091909190915060008201518160000160006101000a8154816001600160a01b0302191690836001600160a01b0316021790555060208201518160010160006101000a8154816001600160a01b0302191690836001600160a01b0316021790555060408201518160020155606082015181600301555050600d604051806080016040528060006001600160a01b0316815260200160006001600160a01b03168152602001600081526020016000815250908060018154018082558091505060019003906000526020600020906004020160009091909190915060008201518160000160006101000a8154816001600160a01b0302191690836001600160a01b0316021790555060208201518160010160006101000a8154816001600160a01b0302191690836001600160a01b0316021790555060408201518160020155606082015181600301555050600d604051806080016040528060006001600160a01b0316815260200160006001600160a01b03168152602001600081526020016000815250908060018154018082558091505060019003906000526020600020906004020160009091909190915060008201518160000160006101000a8154816001600160a01b0302191690836001600160a01b0316021790555060208201518160010160006101000a8154816001600160a01b0302191690836001600160a01b0316021790555060408201518160020155606082015181600301555050610321565b600080546001600160a01b038381166001600160a01b0319831681178455604051919092169283917f8be0079c531659141344cd1fd0a4f28419497f9722a3daafe3b4186f6b6457e09190a35050565b612502806103306000396000f3fe60806040526004361061020e5760003560e01c80638ea97d2611610118578063bc770d06116100a0578063d8e660ed1161006f578063d8e660ed146105d2578063eced02801461060b578063f2fde38b14610620578063fc0c546a14610640578063fee84d4e1461066057600080fd5b8063bc770d0614610567578063ca628c7814610587578063d38bcdee1461059c578063d459a418146105bc57600080fd5b80639a1dee2b116100e75780639a1dee2b146104f05780639ee664b614610506578063a0ef91df1461051c578063ae3e04b114610531578063ba2f303b1461055157600080fd5b80638ea97d261461046e578063949240d414610484578063989e9299146104a457806398c44b7d146104ba57600080fd5b8063561b24631161019b57806364cc37fb1161016a57806364cc37fb146103db578063715018a6146103fb5780638301151c146104105780638bbbbbde146104305780638da5cb5b1461045057600080fd5b8063561b2463146103565780635a8b9599146103695780635cdef57d146103a55780636164e45d146103bb57600080fd5b806325b511bd116101e257806325b511bd146102a857806326a4e8d2146102be5780633e413bee146102de5780634bffc64c1461031657806352916f251461033657600080fd5b806218a1161461021357806307ed92d014610235578063175db3c4146102555780631f5c735b14610284575b600080fd5b34801561021f57600080fd5b5061023361022e366004612297565b610675565b005b34801561024157600080fd5b50610233610250366004612297565b610682565b34801561026157600080fd5b50600b5461026f9060ff1681565b60405190151581526020015b60405180910390f35b34801561029057600080fd5b5061029a60055481565b60405190815260200161027b565b3480156102b457600080fd5b5061029a60045481565b3480156102ca57600080fd5b506102336102d93660046122cc565b61068f565b3480156102ea57600080fd5b506002546102fe906001600160a01b031681565b6040516001600160a01b03909116815260200161027b565b34801561032257600080fd5b506102336103313660046122e7565b6106b9565b34801561034257600080fd5b50610233610351366004612297565b6108b6565b610233610364366004612328565b6108c3565b34801561037557600080fd5b5061026f6103843660046122cc565b6001600160a01b03166000908152600e602052604090206002015460ff1690565b3480156103b157600080fd5b5061029a60085481565b3480156103c757600080fd5b506102336103d6366004612297565b610eae565b3480156103e757600080fd5b506102336103f6366004612297565b611b24565b34801561040757600080fd5b50610233611b31565b34801561041c57600080fd5b5061023361042b366004612297565b611b45565b34801561043c57600080fd5b5061023361044b366004612297565b611b52565b34801561045c57600080fd5b506000546001600160a01b03166102fe565b34801561047a57600080fd5b5061029a60095481565b34801561049057600080fd5b5061029a61049f366004612361565b611b5f565b3480156104b057600080fd5b5061029a60035481565b3480156104c657600080fd5b5061029a6104d53660046122cc565b6001600160a01b03166000908152600e602052604090205490565b3480156104fc57600080fd5b5061029a600c5481565b34801561051257600080fd5b5061029a60065481565b34801561052857600080fd5b50610233611bbf565b34801561053d57600080fd5b5061023361054c366004612297565b611bf6565b34801561055d57600080fd5b5061029a60075481565b34801561057357600080fd5b50610233610582366004612297565b611c03565b34801561059357600080fd5b50610233611c10565b3480156105a857600080fd5b506102336105b73660046122cc565b611d02565b3480156105c857600080fd5b5061029a600a5481565b3480156105de57600080fd5b5061029a6105ed3660046122cc565b6001600160a01b03166000908152600e602052604090206001015490565b34801561061757600080fd5b5061029a611d2c565b34801561062c57600080fd5b5061023361063b3660046122cc565b611d78565b34801561064c57600080fd5b506001546102fe906001600160a01b031681565b34801561066c57600080fd5b50610233611dee565b61067d611e30565b600955565b61068a611e30565b600455565b610697611e30565b600180546001600160a01b0319166001600160a01b0392909216919091179055565b6106c1611e30565b600b5460ff166107185760405162461bcd60e51b815260206004820152601b60248201527f43757272656e742065706f636820686173206e6f7420656e646564000000000060448201526064015b60405180910390fd5b600b805460ff19169055600d805483919060009061073857610738612391565b906000526020600020906004020160000160006101000a8154816001600160a01b0302191690836001600160a01b0316021790555080600d60018154811061078257610782612391565b6000918252602082206004919091020180546001600160a01b0319166001600160a01b039390931692909217909155600d805482906107c3576107c3612391565b9060005260206000209060040201600201819055506000600d6001815481106107ee576107ee612391565b9060005260206000209060040201600201819055506000600d60028154811061081957610819612391565b9060005260206000209060040201600201819055506000600d60008154811061084457610844612391565b9060005260206000209060040201600301819055506000600d60018154811061086f5761086f612391565b9060005260206000209060040201600301819055506000600d60028154811061089a5761089a612391565b6000918252602090912060036004909202010155505042600c55565b6108be611e30565b600a55565b600b5460ff161561090e5760405162461bcd60e51b8152602060048201526015602482015274115c1bd8da081b9bdd081cdd185c9d1959081e595d605a1b604482015260640161070f565b610916611d2c565b156109635760405162461bcd60e51b815260206004820152601860248201527f42657474696e672070686173652068617320656e6465642e0000000000000000604482015260640161070f565b60028311156109a65760405162461bcd60e51b815260206004820152600f60248201526e125b9d985b1a59081c1bdbdb081259608a1b604482015260640161070f565b336000908152600e602052604090206002015461010090046001600160a01b031615610a1f5760405162461bcd60e51b815260206004820152602260248201527f5573657220616c7265616479207374616b656420666f7220746869732065706f6044820152610c6d60f31b606482015260840161070f565b818115610ab0576001841115610a695760405162461bcd60e51b815260206004820152600f60248201526e125b9d985b1a59081c1bdbdb081259608a1b604482015260640161070f565b612710600a54612710610a7c91906123bd565b610a8690856123d0565b610a9091906123e7565b600254909150610aab906001600160a01b0316333086611e8a565b610ac8565b600154610ac8906001600160a01b0316333086611e8a565b60008111610b185760405162461bcd60e51b815260206004820152601d60248201527f4d757374207374616b65206d6f7265207468616e203020746f6b656e73000000604482015260640161070f565b60408051608081018252858152602080820184815285151583850190815233606085018181526000918252600e90945294909420835181559051600182015592516002909301805491516001600160a81b0319909216931515610100600160a81b031916939093176101006001600160a01b03909216919091021790915582610ba2576001610ba5565b60005b60ff16600d8681548110610bbb57610bbb612391565b90600052602060002090600402016002016000828254610bdb9190612409565b90915550839050610bed576000610bf0565b60015b60ff16600d8681548110610c0657610c06612391565b90600052602060002090600402016003016000828254610c269190612409565b90915550506000859003610d0157600f8054600181018255600091909152815160039091027f8d1108e10bcb7c27dddfc02ed9d693a074039d026cf4ea4240b40f7d581ac80281019190915560208201517f8d1108e10bcb7c27dddfc02ed9d693a074039d026cf4ea4240b40f7d581ac80382015560408201517f8d1108e10bcb7c27dddfc02ed9d693a074039d026cf4ea4240b40f7d581ac804909101805460608401516001600160a01b031661010002610100600160a81b0319931515939093166001600160a81b031990911617919091179055610ea7565b84600103610dd65760108054600181018255600091909152815160039091027f1b6847dc741a1b0cd08d278845f9d819d87b734759afb55fe2de5cb82a9ae67281019190915560208201517f1b6847dc741a1b0cd08d278845f9d819d87b734759afb55fe2de5cb82a9ae67382015560408201517f1b6847dc741a1b0cd08d278845f9d819d87b734759afb55fe2de5cb82a9ae674909101805460608401516001600160a01b031661010002610100600160a81b0319931515939093166001600160a81b031990911617919091179055610ea7565b84600203610ea75760118054600181018255600091909152815160039091027f31ecc21a745e3968a04e9570e4425bc18fa8019c68028196b546d1669c200c6881019190915560208201517f31ecc21a745e3968a04e9570e4425bc18fa8019c68028196b546d1669c200c6982015560408201517f31ecc21a745e3968a04e9570e4425bc18fa8019c68028196b546d1669c200c6a909101805460608401516001600160a01b031661010002610100600160a81b0319931515939093166001600160a81b0319909116179190911790555b5050505050565b610eb6611e30565b600b5460ff1615610f095760405162461bcd60e51b815260206004820152601b60248201527f43757272656e742065706f636820616c726561647920656e6465640000000000604482015260640161070f565b600b805460ff19166001908117909155600090610f279083906123bd565b905060008115610f3957601054610f3d565b600f545b905060008315610f4f57601054610f53565b600f545b90506000600d8481548110610f6a57610f6a612391565b906000526020600020906004020160010160006101000a8154816001600160a01b0302191690836001600160a01b03160217905550600d8481548110610fb257610fb2612391565b6000918252602090912060049091020154600d80546001600160a01b039092169186908110610fe357610fe3612391565b906000526020600020906004020160010160006101000a8154816001600160a01b0302191690836001600160a01b0316021790555060008060005b8481101561130b5760008615611054576010828154811061104157611041612391565b9060005260206000209060030201611076565b600f828154811061106757611067612391565b90600052602060002090600302015b604080516080810182528254815260018301546020820181905260029093015460ff81161515928201929092526101009091046001600160a01b03166060820152600554909250600091612710916110cd916123d0565b6110d791906123e7565b905060008183602001516110eb91906123bd565b905061111d6040518060400160405280600f81526020016e17dd5cd95c931bdcd9505b5bdd5b9d608a1b815250611eea565b61112682611f2d565b6111566040518060400160405280600f81526020016e17dd5cd95c92d9595c105b5bdd5b9d608a1b815250611eea565b61115f81611f2d565b8260400151156111f657600254606084015160405163a9059cbb60e01b81526001600160a01b0391821660048201526024810184905291169063a9059cbb906044016020604051808303816000875af11580156111c0573d6000803e3d6000fd5b505050506040513d601f19601f820116820180604052508101906111e4919061241c565b506111ef8286612409565b945061127f565b600154606084015160405163a9059cbb60e01b81526001600160a01b0391821660048201526024810184905291169063a9059cbb906044016020604051808303816000875af115801561124d573d6000803e3d6000fd5b505050506040513d601f19601f82011682018060405250810190611271919061241c565b5061127c8287612409565b95505b5050604080516080810182526000808252602080830182815283850183815260608086018581529701516001600160a01b039081168552600e90935294909220925183559051600183810191909155925160029092018054945190911661010002610100600160a81b0319921515929092166001600160a81b031990941693909317179091550161101e565b5060006127106006548461131f91906123d0565b61132991906123e7565b905060006127106006548461133e91906123d0565b61134891906123e7565b90506000806000600d8b8154811061136257611362612391565b90600052602060002090600402016002015411156113ad57600d8a8154811061138d5761138d612391565b906000526020600020906004020160020154846113aa91906123e7565b91505b6000600d8b815481106113c2576113c2612391565b906000526020600020906004020160030154111561140d57600d8a815481106113ed576113ed612391565b9060005260206000209060040201600301548361140a91906123e7565b90505b60005b878110156116745760008b15611446576010828154811061143357611433612391565b9060005260206000209060030201611468565b600f828154811061145957611459612391565b90600052602060002090600302015b60408051608081018252825481526001830154602082015260029092015460ff81161580159284019290925261010090046001600160a01b0316606083015290915061154e57600254606082015160208301516001600160a01b039092169163a9059cbb91906114d9908790612409565b6040516001600160e01b031960e085901b1681526001600160a01b03909216600483015260248201526044016020604051808303816000875af1158015611524573d6000803e3d6000fd5b505050506040513d601f19601f82011682018060405250810190611548919061241c565b506115ea565b600154606082015160208301516001600160a01b039092169163a9059cbb9190611579908890612409565b6040516001600160e01b031960e085901b1681526001600160a01b03909216600483015260248201526044016020604051808303816000875af11580156115c4573d6000803e3d6000fd5b505050506040513d601f19601f820116820180604052508101906115e8919061241c565b505b604080516080810182526000808252602080830182815283850183815260608086018581529701516001600160a01b039081168552600e90935294909220925183559051600183810191909155925160029092018054945190911661010002610100600160a81b0319921515929092166001600160a81b0319909416939093171790915501611410565b5060006127106007548861168891906123d0565b61169291906123e7565b90506000612710600754886116a791906123d0565b6116b191906123e7565b60025460405163a9059cbb60e01b815261dead6004820152602481018390529192506001600160a01b03169063a9059cbb906044016020604051808303816000875af1158015611705573d6000803e3d6000fd5b505050506040513d601f19601f82011682018060405250810190611729919061241c565b5060015460405163a9059cbb60e01b815261dead6004820152602481018490526001600160a01b039091169063a9059cbb906044016020604051808303816000875af115801561177d573d6000803e3d6000fd5b505050506040513d601f19601f820116820180604052508101906117a1919061241c565b50601154600854600090612710906117b9908c6123d0565b6117c391906123e7565b905060006127106008548b6117d891906123d0565b6117e291906123e7565b90506000806000600d6002815481106117fd576117fd612391565b906000526020600020906004020160020154111561184957600d60028154811061182957611829612391565b9060005260206000209060040201600201548461184691906123e7565b91505b6000600d60028154811061185f5761185f612391565b90600052602060002090600402016003015411156118ab57600d60028154811061188b5761188b612391565b906000526020600020906004020160030154836118a891906123e7565b90505b60005b85811015611aec576000601182815481106118cb576118cb612391565b60009182526020918290206040805160808101825260039093029091018054835260018101549383019390935260029092015460ff8116158015938301939093526001600160a01b0361010090910416606082015291506119c657600254606082015160208301516001600160a01b039092169163a9059cbb9190611951908790612409565b6040516001600160e01b031960e085901b1681526001600160a01b03909216600483015260248201526044016020604051808303816000875af115801561199c573d6000803e3d6000fd5b505050506040513d601f19601f820116820180604052508101906119c0919061241c565b50611a62565b600154606082015160208301516001600160a01b039092169163a9059cbb91906119f1908890612409565b6040516001600160e01b031960e085901b1681526001600160a01b03909216600483015260248201526044016020604051808303816000875af1158015611a3c573d6000803e3d6000fd5b505050506040513d601f19601f82011682018060405250810190611a60919061241c565b505b604080516080810182526000808252602080830182815283850183815260608086018581529701516001600160a01b039081168552600e90935294909220925183559051600183810191909155925160029092018054945190911661010002610100600160a81b0319921515929092166001600160a81b03199094169390931717909155016118ae565b50611af9600f600061224a565b611b056010600061224a565b611b116011600061224a565b5050505050505050505050505050505050565b611b2c611e30565b600855565b611b39611e30565b611b436000611f72565b565b611b4d611e30565b600355565b611b5a611e30565b600655565b600081611b9057600d8381548110611b7957611b79612391565b906000526020600020906004020160020154611bb6565b600d8381548110611ba357611ba3612391565b9060005260206000209060040201600301545b90505b92915050565b611bc7611e30565b60405133904780156108fc02916000818181858888f19350505050158015611bf3573d6000803e3d6000fd5b50565b611bfe611e30565b600555565b611c0b611e30565b600755565b611c18611e30565b6001546002546040516370a0823160e01b81523060048201526001600160a01b039283169263a9059cbb9233929116906370a08231906024015b602060405180830381865afa158015611c6f573d6000803e3d6000fd5b505050506040513d601f19601f82011682018060405250810190611c939190612440565b6040516001600160e01b031960e085901b1681526001600160a01b03909216600483015260248201526044016020604051808303816000875af1158015611cde573d6000803e3d6000fd5b505050506040513d601f19601f82011682018060405250810190611bf3919061241c565b611d0a611e30565b600280546001600160a01b0319166001600160a01b0392909216919091179055565b600080600c5442611d3d91906123bd565b9050600454811180611d515750600b5460ff165b15611d5e57600291505090565b600354811115611d7057600191505090565b600091505090565b611d80611e30565b6001600160a01b038116611de55760405162461bcd60e51b815260206004820152602660248201527f4f776e61626c653a206e6577206f776e657220697320746865207a65726f206160448201526564647265737360d01b606482015260840161070f565b611bf381611f72565b611df6611e30565b6002546040516370a0823160e01b81523060048201526001600160a01b039091169063a9059cbb90339083906370a0823190602401611c52565b6000546001600160a01b03163314611b435760405162461bcd60e51b815260206004820181905260248201527f4f776e61626c653a2063616c6c6572206973206e6f7420746865206f776e6572604482015260640161070f565b604080516001600160a01b0385811660248301528416604482015260648082018490528251808303909101815260849091019091526020810180516001600160e01b03166323b872dd60e01b179052611ee4908590611fc2565b50505050565b611bf381604051602401611efe919061247d565b60408051601f198184030181529190526020810180516001600160e01b031663104c13eb60e21b179052612099565b611bf381604051602401611f4391815260200190565b60408051601f198184030181529190526020810180516001600160e01b031663f82c50f160e01b179052612099565b600080546001600160a01b038381166001600160a01b0319831681178455604051919092169283917f8be0079c531659141344cd1fd0a4f28419497f9722a3daafe3b4186f6b6457e09190a35050565b6000612017826040518060400160405280602081526020017f5361666545524332303a206c6f772d6c6576656c2063616c6c206661696c6564815250856001600160a01b03166120ba9092919063ffffffff16565b8051909150156120945780806020019051810190612035919061241c565b6120945760405162461bcd60e51b815260206004820152602a60248201527f5361666545524332303a204552433230206f7065726174696f6e20646964206e6044820152691bdd081cdd58d8d9595960b21b606482015260840161070f565b505050565b80516a636f6e736f6c652e6c6f67602083016000808483855afa5050505050565b60606120c984846000856120d1565b949350505050565b6060824710156121325760405162461bcd60e51b815260206004820152602660248201527f416464726573733a20696e73756666696369656e742062616c616e636520666f6044820152651c8818d85b1b60d21b606482015260840161070f565b600080866001600160a01b0316858760405161214e91906124b0565b60006040518083038185875af1925050503d806000811461218b576040519150601f19603f3d011682016040523d82523d6000602084013e612190565b606091505b50915091506121a1878383876121ac565b979650505050505050565b6060831561221b578251600003612214576001600160a01b0385163b6122145760405162461bcd60e51b815260206004820152601d60248201527f416464726573733a2063616c6c20746f206e6f6e2d636f6e7472616374000000604482015260640161070f565b50816120c9565b6120c983838151156122305781518083602001fd5b8060405162461bcd60e51b815260040161070f919061247d565b5080546000825560030290600052602060002090810190611bf391905b8082111561229357600080825560018201556002810180546001600160a81b0319169055600301612267565b5090565b6000602082840312156122a957600080fd5b5035919050565b80356001600160a01b03811681146122c757600080fd5b919050565b6000602082840312156122de57600080fd5b611bb6826122b0565b600080604083850312156122fa57600080fd5b612303836122b0565b9150612311602084016122b0565b90509250929050565b8015158114611bf357600080fd5b60008060006060848603121561233d57600080fd5b833592506020840135915060408401356123568161231a565b809150509250925092565b6000806040838503121561237457600080fd5b8235915060208301356123868161231a565b809150509250929050565b634e487b7160e01b600052603260045260246000fd5b634e487b7160e01b600052601160045260246000fd5b81810381811115611bb957611bb96123a7565b8082028115828204841417611bb957611bb96123a7565b60008261240457634e487b7160e01b600052601260045260246000fd5b500490565b80820180821115611bb957611bb96123a7565b60006020828403121561242e57600080fd5b81516124398161231a565b9392505050565b60006020828403121561245257600080fd5b5051919050565b60005b8381101561247457818101518382015260200161245c565b50506000910152565b602081526000825180602084015261249c816040850160208701612459565b601f01601f19169190910160400192915050565b600082516124c2818460208701612459565b919091019291505056fea2646970667358221220b25455546d0e1674b8465a306549b690a0fae5f8fc0bacbb603d4df852e6b4b364736f6c63430008110033",
  "linkReferences": {},
  "deployedLinkReferences": {}
}