{
  "_format": "hh-sol-artifact-1",
  "contractName": "PrimeBabyDragon",
  "sourceName": "src/backend/contracts/PrimeBabyDragon.sol",
  "abi": [
    {
      "inputs": [],
      "stateMutability": "nonpayable",
      "type": "constructor"
    },
    {
      "inputs": [
        {
          "internalType": "address",
          "name": "operator",
          "type": "address"
        }
      ],
      "name": "OperatorNotAllowed",
      "type": "error"
    },
    {
      "anonymous": false,
      "inputs": [
        {
          "indexed": true,
          "internalType": "address",
          "name": "owner",
          "type": "address"
        },
        {
          "indexed": true,
          "internalType": "address",
          "name": "approved",
          "type": "address"
        },
        {
          "indexed": true,
          "internalType": "uint256",
          "name": "tokenId",
          "type": "uint256"
        }
      ],
      "name": "Approval",
      "type": "event"
    },
    {
      "anonymous": false,
      "inputs": [
        {
          "indexed": true,
          "internalType": "address",
          "name": "owner",
          "type": "address"
        },
        {
          "indexed": true,
          "internalType": "address",
          "name": "operator",
          "type": "address"
        },
        {
          "indexed": false,
          "internalType": "bool",
          "name": "approved",
          "type": "bool"
        }
      ],
      "name": "ApprovalForAll",
      "type": "event"
    },
    {
      "anonymous": false,
      "inputs": [
        {
          "indexed": false,
          "internalType": "address",
          "name": "user",
          "type": "address"
        },
        {
          "indexed": false,
          "internalType": "uint256",
          "name": "tokenId",
          "type": "uint256"
        },
        {
          "indexed": false,
          "internalType": "bool",
          "name": "isAlpha",
          "type": "bool"
        }
      ],
      "name": "MintSuccessful",
      "type": "event"
    },
    {
      "anonymous": false,
      "inputs": [
        {
          "indexed": true,
          "internalType": "address",
          "name": "previousOwner",
          "type": "address"
        },
        {
          "indexed": true,
          "internalType": "address",
          "name": "newOwner",
          "type": "address"
        }
      ],
      "name": "OwnershipTransferred",
      "type": "event"
    },
    {
      "anonymous": false,
      "inputs": [
        {
          "indexed": true,
          "internalType": "address",
          "name": "from",
          "type": "address"
        },
        {
          "indexed": true,
          "internalType": "address",
          "name": "to",
          "type": "address"
        },
        {
          "indexed": true,
          "internalType": "uint256",
          "name": "tokenId",
          "type": "uint256"
        }
      ],
      "name": "Transfer",
      "type": "event"
    },
    {
      "inputs": [
        {
          "internalType": "uint256",
          "name": "",
          "type": "uint256"
        }
      ],
      "name": "alphaIds",
      "outputs": [
        {
          "internalType": "uint256",
          "name": "",
          "type": "uint256"
        }
      ],
      "stateMutability": "view",
      "type": "function"
    },
    {
      "inputs": [],
      "name": "alphaSupply",
      "outputs": [
        {
          "internalType": "uint256",
          "name": "",
          "type": "uint256"
        }
      ],
      "stateMutability": "view",
      "type": "function"
    },
    {
      "inputs": [],
      "name": "alphaUri",
      "outputs": [
        {
          "internalType": "string",
          "name": "",
          "type": "string"
        }
      ],
      "stateMutability": "view",
      "type": "function"
    },
    {
      "inputs": [
        {
          "internalType": "address",
          "name": "to",
          "type": "address"
        },
        {
          "internalType": "uint256",
          "name": "tokenId",
          "type": "uint256"
        }
      ],
      "name": "approve",
      "outputs": [],
      "stateMutability": "nonpayable",
      "type": "function"
    },
    {
      "inputs": [
        {
          "internalType": "address",
          "name": "owner",
          "type": "address"
        }
      ],
      "name": "balanceOf",
      "outputs": [
        {
          "internalType": "uint256",
          "name": "",
          "type": "uint256"
        }
      ],
      "stateMutability": "view",
      "type": "function"
    },
    {
      "inputs": [],
      "name": "baseURIString",
      "outputs": [
        {
          "internalType": "string",
          "name": "",
          "type": "string"
        }
      ],
      "stateMutability": "view",
      "type": "function"
    },
    {
      "inputs": [],
      "name": "contractURI",
      "outputs": [
        {
          "internalType": "string",
          "name": "",
          "type": "string"
        }
      ],
      "stateMutability": "pure",
      "type": "function"
    },
    {
      "inputs": [],
      "name": "currentPhase",
      "outputs": [
        {
          "internalType": "uint256",
          "name": "",
          "type": "uint256"
        }
      ],
      "stateMutability": "view",
      "type": "function"
    },
    {
      "inputs": [],
      "name": "getAlphaIds",
      "outputs": [
        {
          "internalType": "uint256[]",
          "name": "",
          "type": "uint256[]"
        }
      ],
      "stateMutability": "view",
      "type": "function"
    },
    {
      "inputs": [
        {
          "internalType": "uint256",
          "name": "tokenId",
          "type": "uint256"
        }
      ],
      "name": "getApproved",
      "outputs": [
        {
          "internalType": "address",
          "name": "",
          "type": "address"
        }
      ],
      "stateMutability": "view",
      "type": "function"
    },
    {
      "inputs": [
        {
          "internalType": "uint256",
          "name": "_tokenId",
          "type": "uint256"
        }
      ],
      "name": "isAlpha",
      "outputs": [
        {
          "internalType": "bool",
          "name": "",
          "type": "bool"
        }
      ],
      "stateMutability": "view",
      "type": "function"
    },
    {
      "inputs": [
        {
          "internalType": "address",
          "name": "owner",
          "type": "address"
        },
        {
          "internalType": "address",
          "name": "operator",
          "type": "address"
        }
      ],
      "name": "isApprovedForAll",
      "outputs": [
        {
          "internalType": "bool",
          "name": "",
          "type": "bool"
        }
      ],
      "stateMutability": "view",
      "type": "function"
    },
    {
      "inputs": [],
      "name": "maxSupply",
      "outputs": [
        {
          "internalType": "uint256",
          "name": "",
          "type": "uint256"
        }
      ],
      "stateMutability": "view",
      "type": "function"
    },
    {
      "inputs": [
        {
          "internalType": "address",
          "name": "_user",
          "type": "address"
        },
        {
          "internalType": "uint256",
          "name": "_additionalChanceForAlpha",
          "type": "uint256"
        }
      ],
      "name": "mintTo",
      "outputs": [
        {
          "internalType": "uint256",
          "name": "",
          "type": "uint256"
        }
      ],
      "stateMutability": "nonpayable",
      "type": "function"
    },
    {
      "inputs": [],
      "name": "mintingEnabled",
      "outputs": [
        {
          "internalType": "bool",
          "name": "",
          "type": "bool"
        }
      ],
      "stateMutability": "view",
      "type": "function"
    },
    {
      "inputs": [],
      "name": "name",
      "outputs": [
        {
          "internalType": "string",
          "name": "",
          "type": "string"
        }
      ],
      "stateMutability": "view",
      "type": "function"
    },
    {
      "inputs": [],
      "name": "owner",
      "outputs": [
        {
          "internalType": "address",
          "name": "",
          "type": "address"
        }
      ],
      "stateMutability": "view",
      "type": "function"
    },
    {
      "inputs": [
        {
          "internalType": "uint256",
          "name": "tokenId",
          "type": "uint256"
        }
      ],
      "name": "ownerOf",
      "outputs": [
        {
          "internalType": "address",
          "name": "",
          "type": "address"
        }
      ],
      "stateMutability": "view",
      "type": "function"
    },
    {
      "inputs": [],
      "name": "phase1Supply",
      "outputs": [
        {
          "internalType": "uint256",
          "name": "",
          "type": "uint256"
        }
      ],
      "stateMutability": "view",
      "type": "function"
    },
    {
      "inputs": [],
      "name": "primeApeBurnerAddress",
      "outputs": [
        {
          "internalType": "address",
          "name": "",
          "type": "address"
        }
      ],
      "stateMutability": "view",
      "type": "function"
    },
    {
      "inputs": [],
      "name": "renounceOwnership",
      "outputs": [],
      "stateMutability": "nonpayable",
      "type": "function"
    },
    {
      "inputs": [],
      "name": "revealed",
      "outputs": [
        {
          "internalType": "bool",
          "name": "",
          "type": "bool"
        }
      ],
      "stateMutability": "view",
      "type": "function"
    },
    {
      "inputs": [
        {
          "internalType": "address",
          "name": "from",
          "type": "address"
        },
        {
          "internalType": "address",
          "name": "to",
          "type": "address"
        },
        {
          "internalType": "uint256",
          "name": "tokenId",
          "type": "uint256"
        }
      ],
      "name": "safeTransferFrom",
      "outputs": [],
      "stateMutability": "nonpayable",
      "type": "function"
    },
    {
      "inputs": [
        {
          "internalType": "address",
          "name": "from",
          "type": "address"
        },
        {
          "internalType": "address",
          "name": "to",
          "type": "address"
        },
        {
          "internalType": "uint256",
          "name": "tokenId",
          "type": "uint256"
        },
        {
          "internalType": "bytes",
          "name": "data",
          "type": "bytes"
        }
      ],
      "name": "safeTransferFrom",
      "outputs": [],
      "stateMutability": "nonpayable",
      "type": "function"
    },
    {
      "inputs": [
        {
          "internalType": "address",
          "name": "operator",
          "type": "address"
        },
        {
          "internalType": "bool",
          "name": "approved",
          "type": "bool"
        }
      ],
      "name": "setApprovalForAll",
      "outputs": [],
      "stateMutability": "nonpayable",
      "type": "function"
    },
    {
      "inputs": [
        {
          "internalType": "string",
          "name": "_newBaseURI",
          "type": "string"
        }
      ],
      "name": "setBaseURI",
      "outputs": [],
      "stateMutability": "nonpayable",
      "type": "function"
    },
    {
      "inputs": [
        {
          "internalType": "address",
          "name": "_primeApeBurnerAddress",
          "type": "address"
        }
      ],
      "name": "setBurnerContract",
      "outputs": [],
      "stateMutability": "nonpayable",
      "type": "function"
    },
    {
      "inputs": [
        {
          "internalType": "bool",
          "name": "_mintingEnabled",
          "type": "bool"
        }
      ],
      "name": "setMintingEnabled",
      "outputs": [],
      "stateMutability": "nonpayable",
      "type": "function"
    },
    {
      "inputs": [
        {
          "internalType": "uint256",
          "name": "_phase",
          "type": "uint256"
        }
      ],
      "name": "setPhase",
      "outputs": [],
      "stateMutability": "nonpayable",
      "type": "function"
    },
    {
      "inputs": [
        {
          "internalType": "bool",
          "name": "_revealed",
          "type": "bool"
        }
      ],
      "name": "setRevealed",
      "outputs": [],
      "stateMutability": "nonpayable",
      "type": "function"
    },
    {
      "inputs": [
        {
          "internalType": "bytes4",
          "name": "interfaceId",
          "type": "bytes4"
        }
      ],
      "name": "supportsInterface",
      "outputs": [
        {
          "internalType": "bool",
          "name": "",
          "type": "bool"
        }
      ],
      "stateMutability": "view",
      "type": "function"
    },
    {
      "inputs": [],
      "name": "symbol",
      "outputs": [
        {
          "internalType": "string",
          "name": "",
          "type": "string"
        }
      ],
      "stateMutability": "view",
      "type": "function"
    },
    {
      "inputs": [
        {
          "internalType": "uint256",
          "name": "index",
          "type": "uint256"
        }
      ],
      "name": "tokenByIndex",
      "outputs": [
        {
          "internalType": "uint256",
          "name": "",
          "type": "uint256"
        }
      ],
      "stateMutability": "view",
      "type": "function"
    },
    {
      "inputs": [
        {
          "internalType": "address",
          "name": "owner",
          "type": "address"
        },
        {
          "internalType": "uint256",
          "name": "index",
          "type": "uint256"
        }
      ],
      "name": "tokenOfOwnerByIndex",
      "outputs": [
        {
          "internalType": "uint256",
          "name": "",
          "type": "uint256"
        }
      ],
      "stateMutability": "view",
      "type": "function"
    },
    {
      "inputs": [
        {
          "internalType": "uint256",
          "name": "_tokenId",
          "type": "uint256"
        }
      ],
      "name": "tokenURI",
      "outputs": [
        {
          "internalType": "string",
          "name": "",
          "type": "string"
        }
      ],
      "stateMutability": "view",
      "type": "function"
    },
    {
      "inputs": [],
      "name": "totalSupply",
      "outputs": [
        {
          "internalType": "uint256",
          "name": "",
          "type": "uint256"
        }
      ],
      "stateMutability": "view",
      "type": "function"
    },
    {
      "inputs": [
        {
          "internalType": "address",
          "name": "from",
          "type": "address"
        },
        {
          "internalType": "address",
          "name": "to",
          "type": "address"
        },
        {
          "internalType": "uint256",
          "name": "tokenId",
          "type": "uint256"
        }
      ],
      "name": "transferFrom",
      "outputs": [],
      "stateMutability": "nonpayable",
      "type": "function"
    },
    {
      "inputs": [
        {
          "internalType": "address",
          "name": "newOwner",
          "type": "address"
        }
      ],
      "name": "transferOwnership",
      "outputs": [],
      "stateMutability": "nonpayable",
      "type": "function"
    }
  ],
  "bytecode": "0x610457600c5561022b600d556001600e55600b600f55610100604052604260808181529062002bd560a0396011906200003990826200034f565b5060405180608001604052806042815260200162002b93604291396012906200006390826200034f565b503480156200007157600080fd5b50733cc6cdda760b79bafa08df41ecfa224f810dceb6600160405180604001604052806011815260200170283934b6b2902130b13c90223930b3b7b760791b8152506040518060400160405280600381526020016214109160ea1b815250620000e9620000e36200025660201b60201c565b6200025a565b6001620000f783826200034f565b5060026200010682826200034f565b5050506daaeb6d7670e522a718067333cd4e3b156200024e5780156200019c57604051633e9f1edf60e11b81523060048201526001600160a01b03831660248201526daaeb6d7670e522a718067333cd4e90637d3e3dbe906044015b600060405180830381600087803b1580156200017d57600080fd5b505af115801562000192573d6000803e3d6000fd5b505050506200024e565b6001600160a01b03821615620001ed5760405163a0af290360e01b81523060048201526001600160a01b03831660248201526daaeb6d7670e522a718067333cd4e9063a0af29039060440162000162565b604051632210724360e11b81523060048201526daaeb6d7670e522a718067333cd4e90634420e48690602401600060405180830381600087803b1580156200023457600080fd5b505af115801562000249573d6000803e3d6000fd5b505050505b50506200041b565b3390565b600080546001600160a01b038381166001600160a01b0319831681178455604051919092169283917f8be0079c531659141344cd1fd0a4f28419497f9722a3daafe3b4186f6b6457e09190a35050565b634e487b7160e01b600052604160045260246000fd5b600181811c90821680620002d557607f821691505b602082108103620002f657634e487b7160e01b600052602260045260246000fd5b50919050565b601f8211156200034a57600081815260208120601f850160051c81016020861015620003255750805b601f850160051c820191505b81811015620003465782815560010162000331565b5050505b505050565b81516001600160401b038111156200036b576200036b620002aa565b62000383816200037c8454620002c0565b84620002fc565b602080601f831160018114620003bb5760008415620003a25750858301515b600019600386901b1c1916600185901b17855562000346565b600085815260208120601f198616915b82811015620003ec57888601518255948401946001909101908401620003cb565b50858210156200040b5787850151600019600388901b60f8161c191681555b5050505050600190811b01905550565b612768806200042b6000396000f3fe608060405234801561001057600080fd5b50600436106102325760003560e01c8063674ca52211610130578063a22cb465116100b8578063d5abeb011161007c578063d5abeb011461048d578063e0a8085314610496578063e8a3d485146104a9578063e985e9c5146104b1578063f2fde38b146104ed57600080fd5b8063a22cb46514610437578063b88d4fde1461044a578063c33ee7f21461045d578063c87b56dd14610472578063cf76a1531461048557600080fd5b80637157a697116100ff5780637157a697146103f05780637244cf90146103f95780638da5cb5b1461040c57806395d89b411461041d5780639fd6db121461042557600080fd5b8063674ca522146103ba5780636fb747a1146103cd57806370a08231146103d5578063715018a6146103e857600080fd5b80632cc82655116101be5780634ea3871a116101825780634ea3871a146103615780634f6ccce714610374578063518302271461038757806355f804b3146103945780636352211e146103a757600080fd5b80632cc82655146103025780632f745c591461031557806342842e0e14610328578063449a52f81461033b5780634d40a9b21461034e57600080fd5b8063095ea7b311610205578063095ea7b3146102b657806318160ddd146102cb5780631e5526d0146102d3578063205a1d8c146102e657806323b872dd146102ef57600080fd5b806301ffc9a714610237578063055ad42e1461025f57806306fdde0314610276578063081812fc1461028b575b600080fd5b61024a61024536600461203e565b610500565b60405190151581526020015b60405180910390f35b610268600e5481565b604051908152602001610256565b61027e61052b565b60405161025691906120ab565b61029e6102993660046120be565b6105bd565b6040516001600160a01b039091168152602001610256565b6102c96102c43660046120f3565b6105e4565b005b600954610268565b6102686102e13660046120be565b6106fe565b610268600d5481565b6102c96102fd36600461211d565b61071f565b6102c96103103660046120be565b61087b565b6102686103233660046120f3565b610888565b6102c961033636600461211d565b61091e565b6102686103493660046120f3565b610a6f565b61024a61035c3660046120be565b610ce7565b6102c961036f366004612167565b610d37565b6102686103823660046120be565b610d59565b60105461024a9060ff1681565b6102c96103a2366004612210565b610dec565b61029e6103b53660046120be565b610e04565b6102c96103c8366004612259565b610e64565b61027e610e8e565b6102686103e3366004612259565b610f1c565b6102c9610fa2565b610268600f5481565b600b5461029e906001600160a01b031681565b6000546001600160a01b031661029e565b61027e610fb6565b60105461024a90610100900460ff1681565b6102c9610445366004612274565b610fc5565b6102c96104583660046122ab565b610fd0565b61046561112f565b6040516102569190612327565b61027e6104803660046120be565b611186565b61027e61130d565b610268600c5481565b6102c96104a4366004612167565b61131a565b61027e611335565b61024a6104bf36600461236b565b6001600160a01b03918216600090815260066020908152604080832093909416825291909152205460ff1690565b6102c96104fb366004612259565b611355565b60006001600160e01b0319821663780e9d6360e01b14806105255750610525826113ce565b92915050565b60606001805461053a9061239e565b80601f01602080910402602001604051908101604052809291908181526020018280546105669061239e565b80156105b35780601f10610588576101008083540402835291602001916105b3565b820191906000526020600020905b81548152906001019060200180831161059657829003601f168201915b5050505050905090565b60006105c88261141e565b506000908152600560205260409020546001600160a01b031690565b60006105ef82610e04565b9050806001600160a01b0316836001600160a01b0316036106615760405162461bcd60e51b815260206004820152602160248201527f4552433732313a20617070726f76616c20746f2063757272656e74206f776e656044820152603960f91b60648201526084015b60405180910390fd5b336001600160a01b038216148061067d575061067d81336104bf565b6106ef5760405162461bcd60e51b815260206004820152603d60248201527f4552433732313a20617070726f76652063616c6c6572206973206e6f7420746f60448201527f6b656e206f776e6572206f7220617070726f76656420666f7220616c6c0000006064820152608401610658565b6106f9838361147d565b505050565b6013818154811061070e57600080fd5b600091825260209091200154905081565b826daaeb6d7670e522a718067333cd4e3b1561086a57336001600160a01b03821603610755576107508484846114eb565b610875565b604051633185c44d60e21b81523060048201523360248201526daaeb6d7670e522a718067333cd4e9063c617113490604401602060405180830381865afa1580156107a4573d6000803e3d6000fd5b505050506040513d601f19601f820116820180604052508101906107c891906123d8565b801561084b5750604051633185c44d60e21b81523060048201526001600160a01b03821660248201526daaeb6d7670e522a718067333cd4e9063c617113490604401602060405180830381865afa158015610827573d6000803e3d6000fd5b505050506040513d601f19601f8201168201806040525081019061084b91906123d8565b61086a57604051633b79c77360e21b8152336004820152602401610658565b6108758484846114eb565b50505050565b61088361151c565b600e55565b600061089383610f1c565b82106108f55760405162461bcd60e51b815260206004820152602b60248201527f455243373231456e756d657261626c653a206f776e657220696e646578206f7560448201526a74206f6620626f756e647360a81b6064820152608401610658565b506001600160a01b03919091166000908152600760209081526040808320938352929052205490565b826daaeb6d7670e522a718067333cd4e3b15610a6457336001600160a01b0382160361094f57610750848484611576565b604051633185c44d60e21b81523060048201523360248201526daaeb6d7670e522a718067333cd4e9063c617113490604401602060405180830381865afa15801561099e573d6000803e3d6000fd5b505050506040513d601f19601f820116820180604052508101906109c291906123d8565b8015610a455750604051633185c44d60e21b81523060048201526001600160a01b03821660248201526daaeb6d7670e522a718067333cd4e9063c617113490604401602060405180830381865afa158015610a21573d6000803e3d6000fd5b505050506040513d601f19601f82011682018060405250810190610a4591906123d8565b610a6457604051633b79c77360e21b8152336004820152602401610658565b610875848484611576565b600033610aad5760405162461bcd60e51b815260206004820152600c60248201526b5a65726f206164647265737360a01b6044820152606401610658565b600b546001600160a01b0316331480610ad057506000546001600160a01b031633145b610b105760405162461bcd60e51b815260206004820152601160248201527029b2b73232b9103737ba10313ab93732b960791b6044820152606401610658565b601054610100900460ff16610b605760405162461bcd60e51b8152602060048201526016602482015275135a5b9d1a5b99c81a5cc81b9bdd08195b98589b195960521b6044820152606401610658565b600d546009541080610b7457506001600e54115b610bcc5760405162461bcd60e51b8152602060048201526024808201527f43616e6e6f74206d696e74206d6f7265207468616e207068617365203120737560448201526370706c7960e01b6064820152608401610658565b600c5460095410610c1f5760405162461bcd60e51b815260206004820181905260248201527f43616e6e6f74206d696e74206d6f7265207468616e206d617820737570706c796044820152606401610658565b6000610c2a60095490565b9050610c368482611591565b60008315610c9e57600f546013541015610c9e57836064610c5561172a565b610c5f91906123f5565b1090508015610c9e57601380546001810182556000919091527f66de8ffda797e3de9c05e8fc57b3bf0ec28a930d40b0d285d93c06501cf6a090018290555b60408051338152602081018490528215158183015290517fc2341d2f54cec9e0822a3c92ff2d56b6638f00998c6ddd4417c59b6b32fb1f8d9181900360600190a1509392505050565b601354600090815b81811015610d2d5760138181548110610d0a57610d0a612417565b90600052602060002001548403610d25575060019392505050565b600101610cef565b5060009392505050565b610d3f61151c565b601080549115156101000261ff0019909216919091179055565b6000610d6460095490565b8210610dc75760405162461bcd60e51b815260206004820152602c60248201527f455243373231456e756d657261626c653a20676c6f62616c20696e646578206f60448201526b7574206f6620626f756e647360a01b6064820152608401610658565b60098281548110610dda57610dda612417565b90600052602060002001549050919050565b610df461151c565b6011610e00828261247b565b5050565b6000818152600360205260408120546001600160a01b0316806105255760405162461bcd60e51b8152602060048201526018602482015277115490cdcc8c4e881a5b9d985b1a59081d1bdad95b88125160421b6044820152606401610658565b610e6c61151c565b600b80546001600160a01b0319166001600160a01b0392909216919091179055565b60128054610e9b9061239e565b80601f0160208091040260200160405190810160405280929190818152602001828054610ec79061239e565b8015610f145780601f10610ee957610100808354040283529160200191610f14565b820191906000526020600020905b815481529060010190602001808311610ef757829003601f168201915b505050505081565b60006001600160a01b038216610f865760405162461bcd60e51b815260206004820152602960248201527f4552433732313a2061646472657373207a65726f206973206e6f7420612076616044820152683634b21037bbb732b960b91b6064820152608401610658565b506001600160a01b031660009081526004602052604090205490565b610faa61151c565b610fb46000611782565b565b60606002805461053a9061239e565b610e003383836117d2565b836daaeb6d7670e522a718067333cd4e3b1561111c57336001600160a01b0382160361100757611002858585856118a0565b611128565b604051633185c44d60e21b81523060048201523360248201526daaeb6d7670e522a718067333cd4e9063c617113490604401602060405180830381865afa158015611056573d6000803e3d6000fd5b505050506040513d601f19601f8201168201806040525081019061107a91906123d8565b80156110fd5750604051633185c44d60e21b81523060048201526001600160a01b03821660248201526daaeb6d7670e522a718067333cd4e9063c617113490604401602060405180830381865afa1580156110d9573d6000803e3d6000fd5b505050506040513d601f19601f820116820180604052508101906110fd91906123d8565b61111c57604051633b79c77360e21b8152336004820152602401610658565b611128858585856118a0565b5050505050565b606060138054806020026020016040519081016040528092919081815260200182805480156105b357602002820191906000526020600020905b815481526020019060010190808311611169575050505050905090565b6000818152600360205260409020546060906001600160a01b03166112055760405162461bcd60e51b815260206004820152602f60248201527f4552433732314d657461646174613a2055524920717565727920666f72206e6f60448201526e3732bc34b9ba32b73a103a37b5b2b760891b6064820152608401610658565b600061120f6118d2565b60105490915060ff166112bd5761122583610ce7565b1561052557601280546112379061239e565b80601f01602080910402602001604051908101604052809291908181526020018280546112639061239e565b80156112b05780601f10611285576101008083540402835291602001916112b0565b820191906000526020600020905b81548152906001019060200180831161129357829003601f168201915b5050505050915050919050565b60008151116112db5760405180602001604052806000815250611306565b806112e5846118e1565b6040516020016112f692919061253b565b6040516020818303038152906040525b9392505050565b60118054610e9b9061239e565b61132261151c565b6010805460ff1916911515919091179055565b60606040518060800160405280604381526020016126f060439139905090565b61135d61151c565b6001600160a01b0381166113c25760405162461bcd60e51b815260206004820152602660248201527f4f776e61626c653a206e6577206f776e657220697320746865207a65726f206160448201526564647265737360d01b6064820152608401610658565b6113cb81611782565b50565b60006001600160e01b031982166380ac58cd60e01b14806113ff57506001600160e01b03198216635b5e139f60e01b145b8061052557506301ffc9a760e01b6001600160e01b0319831614610525565b6000818152600360205260409020546001600160a01b03166113cb5760405162461bcd60e51b8152602060048201526018602482015277115490cdcc8c4e881a5b9d985b1a59081d1bdad95b88125160421b6044820152606401610658565b600081815260056020526040902080546001600160a01b0319166001600160a01b03841690811790915581906114b282610e04565b6001600160a01b03167f8c5be1e5ebec7d5bd14f71427d1e84f3dd0314c0f7b2291e5b200ac8c7c3b92560405160405180910390a45050565b6114f53382611974565b6115115760405162461bcd60e51b81526004016106589061257a565b6106f98383836119f3565b6000546001600160a01b03163314610fb45760405162461bcd60e51b815260206004820181905260248201527f4f776e61626c653a2063616c6c6572206973206e6f7420746865206f776e65726044820152606401610658565b6106f983838360405180602001604052806000815250610fd0565b6001600160a01b0382166115e75760405162461bcd60e51b815260206004820181905260248201527f4552433732313a206d696e7420746f20746865207a65726f20616464726573736044820152606401610658565b6000818152600360205260409020546001600160a01b03161561164c5760405162461bcd60e51b815260206004820152601c60248201527f4552433732313a20746f6b656e20616c7265616479206d696e746564000000006044820152606401610658565b61165a600083836001611b64565b6000818152600360205260409020546001600160a01b0316156116bf5760405162461bcd60e51b815260206004820152601c60248201527f4552433732313a20746f6b656e20616c7265616479206d696e746564000000006044820152606401610658565b6001600160a01b038216600081815260046020908152604080832080546001019055848352600390915280822080546001600160a01b0319168417905551839291907fddf252ad1be2c89b69c2b068fc378daa952ba7f163c4a11628f55a4df523b3ef908290a45050565b6000336117386001436125c7565b60405160609290921b6bffffffffffffffffffffffff191660208301524060348201524460548201526074016040516020818303038152906040528051906020012060001c905090565b600080546001600160a01b038381166001600160a01b0319831681178455604051919092169283917f8be0079c531659141344cd1fd0a4f28419497f9722a3daafe3b4186f6b6457e09190a35050565b816001600160a01b0316836001600160a01b0316036118335760405162461bcd60e51b815260206004820152601960248201527f4552433732313a20617070726f766520746f2063616c6c6572000000000000006044820152606401610658565b6001600160a01b03838116600081815260066020908152604080832094871680845294825291829020805460ff191686151590811790915591519182527f17307eab39ab6107e8899845ad3d59bd9653f200f220920489ca2b5937696c31910160405180910390a3505050565b6118aa3383611974565b6118c65760405162461bcd60e51b81526004016106589061257a565b61087584848484611c8c565b60606011805461053a9061239e565b606060006118ee83611cbf565b600101905060008167ffffffffffffffff81111561190e5761190e612184565b6040519080825280601f01601f191660200182016040528015611938576020820181803683370190505b5090508181016020015b600019016f181899199a1a9b1b9c1cb0b131b232b360811b600a86061a8153600a850494508461194257509392505050565b60008061198083610e04565b9050806001600160a01b0316846001600160a01b031614806119c757506001600160a01b0380821660009081526006602090815260408083209388168352929052205460ff165b806119eb5750836001600160a01b03166119e0846105bd565b6001600160a01b0316145b949350505050565b826001600160a01b0316611a0682610e04565b6001600160a01b031614611a2c5760405162461bcd60e51b8152600401610658906125e8565b6001600160a01b038216611a8e5760405162461bcd60e51b8152602060048201526024808201527f4552433732313a207472616e7366657220746f20746865207a65726f206164646044820152637265737360e01b6064820152608401610658565b611a9b8383836001611b64565b826001600160a01b0316611aae82610e04565b6001600160a01b031614611ad45760405162461bcd60e51b8152600401610658906125e8565b600081815260056020908152604080832080546001600160a01b03199081169091556001600160a01b0387811680865260048552838620805460001901905590871680865283862080546001019055868652600390945282852080549092168417909155905184937fddf252ad1be2c89b69c2b068fc378daa952ba7f163c4a11628f55a4df523b3ef91a4505050565b6001811115611bd35760405162461bcd60e51b815260206004820152603560248201527f455243373231456e756d657261626c653a20636f6e7365637574697665207472604482015274185b9cd9995c9cc81b9bdd081cdd5c1c1bdc9d1959605a1b6064820152608401610658565b816001600160a01b038516611c2f57611c2a81600980546000838152600a60205260408120829055600182018355919091527f6e1540171b6c0c960b71a7020d9f60077f6af931a8bbf590da0223dacf75c7af0155565b611c52565b836001600160a01b0316856001600160a01b031614611c5257611c528582611d97565b6001600160a01b038416611c695761100281611e34565b846001600160a01b0316846001600160a01b031614611128576111288482611ee3565b611c978484846119f3565b611ca384848484611f27565b6108755760405162461bcd60e51b81526004016106589061262d565b60008072184f03e93ff9f4daa797ed6e38ed64bf6a1f0160401b8310611cfe5772184f03e93ff9f4daa797ed6e38ed64bf6a1f0160401b830492506040015b6d04ee2d6d415b85acef81000000008310611d2a576d04ee2d6d415b85acef8100000000830492506020015b662386f26fc100008310611d4857662386f26fc10000830492506010015b6305f5e1008310611d60576305f5e100830492506008015b6127108310611d7457612710830492506004015b60648310611d86576064830492506002015b600a83106105255760010192915050565b60006001611da484610f1c565b611dae91906125c7565b600083815260086020526040902054909150808214611e01576001600160a01b03841660009081526007602090815260408083208584528252808320548484528184208190558352600890915290208190555b5060009182526008602090815260408084208490556001600160a01b039094168352600781528383209183525290812055565b600954600090611e46906001906125c7565b6000838152600a602052604081205460098054939450909284908110611e6e57611e6e612417565b906000526020600020015490508060098381548110611e8f57611e8f612417565b6000918252602080832090910192909255828152600a90915260408082208490558582528120556009805480611ec757611ec761267f565b6001900381819060005260206000200160009055905550505050565b6000611eee83610f1c565b6001600160a01b039093166000908152600760209081526040808320868452825280832085905593825260089052919091209190915550565b60006001600160a01b0384163b1561201d57604051630a85bd0160e11b81526001600160a01b0385169063150b7a0290611f6b903390899088908890600401612695565b6020604051808303816000875af1925050508015611fa6575060408051601f3d908101601f19168201909252611fa3918101906126d2565b60015b612003573d808015611fd4576040519150601f19603f3d011682016040523d82523d6000602084013e611fd9565b606091505b508051600003611ffb5760405162461bcd60e51b81526004016106589061262d565b805181602001fd5b6001600160e01b031916630a85bd0160e11b1490506119eb565b506001949350505050565b6001600160e01b0319811681146113cb57600080fd5b60006020828403121561205057600080fd5b813561130681612028565b60005b8381101561207657818101518382015260200161205e565b50506000910152565b6000815180845261209781602086016020860161205b565b601f01601f19169290920160200192915050565b602081526000611306602083018461207f565b6000602082840312156120d057600080fd5b5035919050565b80356001600160a01b03811681146120ee57600080fd5b919050565b6000806040838503121561210657600080fd5b61210f836120d7565b946020939093013593505050565b60008060006060848603121561213257600080fd5b61213b846120d7565b9250612149602085016120d7565b9150604084013590509250925092565b80151581146113cb57600080fd5b60006020828403121561217957600080fd5b813561130681612159565b634e487b7160e01b600052604160045260246000fd5b600067ffffffffffffffff808411156121b5576121b5612184565b604051601f8501601f19908116603f011681019082821181831017156121dd576121dd612184565b816040528093508581528686860111156121f657600080fd5b858560208301376000602087830101525050509392505050565b60006020828403121561222257600080fd5b813567ffffffffffffffff81111561223957600080fd5b8201601f8101841361224a57600080fd5b6119eb8482356020840161219a565b60006020828403121561226b57600080fd5b611306826120d7565b6000806040838503121561228757600080fd5b612290836120d7565b915060208301356122a081612159565b809150509250929050565b600080600080608085870312156122c157600080fd5b6122ca856120d7565b93506122d8602086016120d7565b925060408501359150606085013567ffffffffffffffff8111156122fb57600080fd5b8501601f8101871361230c57600080fd5b61231b8782356020840161219a565b91505092959194509250565b6020808252825182820181905260009190848201906040850190845b8181101561235f57835183529284019291840191600101612343565b50909695505050505050565b6000806040838503121561237e57600080fd5b612387836120d7565b9150612395602084016120d7565b90509250929050565b600181811c908216806123b257607f821691505b6020821081036123d257634e487b7160e01b600052602260045260246000fd5b50919050565b6000602082840312156123ea57600080fd5b815161130681612159565b60008261241257634e487b7160e01b600052601260045260246000fd5b500690565b634e487b7160e01b600052603260045260246000fd5b601f8211156106f957600081815260208120601f850160051c810160208610156124545750805b601f850160051c820191505b8181101561247357828155600101612460565b505050505050565b815167ffffffffffffffff81111561249557612495612184565b6124a9816124a3845461239e565b8461242d565b602080601f8311600181146124de57600084156124c65750858301515b600019600386901b1c1916600185901b178555612473565b600085815260208120601f198616915b8281101561250d578886015182559484019460019091019084016124ee565b508582101561252b5787850151600019600388901b60f8161c191681555b5050505050600190811b01905550565b6000835161254d81846020880161205b565b83519083019061256181836020880161205b565b64173539b7b760d91b9101908152600501949350505050565b6020808252602d908201527f4552433732313a2063616c6c6572206973206e6f7420746f6b656e206f776e6560408201526c1c881bdc88185c1c1c9bdd9959609a1b606082015260800190565b8181038181111561052557634e487b7160e01b600052601160045260246000fd5b60208082526025908201527f4552433732313a207472616e736665722066726f6d20696e636f72726563742060408201526437bbb732b960d91b606082015260800190565b60208082526032908201527f4552433732313a207472616e7366657220746f206e6f6e20455243373231526560408201527131b2b4bb32b91034b6b83632b6b2b73a32b960711b606082015260800190565b634e487b7160e01b600052603160045260246000fd5b6001600160a01b03858116825284166020820152604081018390526080606082018190526000906126c89083018461207f565b9695505050505050565b6000602082840312156126e457600080fd5b81516113068161202856fe697066733a2f2f6261666b726569687668753573723537367135326c676f69616b746937356d3472366b767a736a7a32796a7066626b6d6a6836617a79336b796f342fa26469706673582212205c2b5af86743775e04b584129fb684dc4455b4f83ecd17824dc5c837b94dd8b164736f6c63430008110033697066733a2f2f6261666b72656964786f3567786d64377168796566377a366c33676637736c32366f3336726c72796864786269357867797a7136336534626b3261697066733a2f2f6261666b7265696634777736667233346568333575676174696e74343379626769616e6773677875666d336c6e35656c6c70326b36366237707479",
  "linkReferences": {},
  "deployedLinkReferences": {}
}