{
  "_format": "hh-sol-artifact-1",
  "contractName": "PrimeDragon",
  "sourceName": "src/backend/contracts/PrimeDragon.sol",
  "abi": [
    {
      "inputs": [
        {
          "internalType": "string",
          "name": "uri",
          "type": "string"
        }
      ],
      "stateMutability": "nonpayable",
      "type": "constructor"
    },
    {
      "inputs": [
        {
          "internalType": "address",
          "name": "operator",
          "type": "address"
        }
      ],
      "name": "OperatorNotAllowed",
      "type": "error"
    },
    {
      "anonymous": false,
      "inputs": [
        {
          "indexed": true,
          "internalType": "address",
          "name": "owner",
          "type": "address"
        },
        {
          "indexed": true,
          "internalType": "address",
          "name": "approved",
          "type": "address"
        },
        {
          "indexed": true,
          "internalType": "uint256",
          "name": "tokenId",
          "type": "uint256"
        }
      ],
      "name": "Approval",
      "type": "event"
    },
    {
      "anonymous": false,
      "inputs": [
        {
          "indexed": true,
          "internalType": "address",
          "name": "owner",
          "type": "address"
        },
        {
          "indexed": true,
          "internalType": "address",
          "name": "operator",
          "type": "address"
        },
        {
          "indexed": false,
          "internalType": "bool",
          "name": "approved",
          "type": "bool"
        }
      ],
      "name": "ApprovalForAll",
      "type": "event"
    },
    {
      "anonymous": false,
      "inputs": [
        {
          "indexed": true,
          "internalType": "address",
          "name": "previousOwner",
          "type": "address"
        },
        {
          "indexed": true,
          "internalType": "address",
          "name": "newOwner",
          "type": "address"
        }
      ],
      "name": "OwnershipTransferred",
      "type": "event"
    },
    {
      "anonymous": false,
      "inputs": [
        {
          "indexed": true,
          "internalType": "address",
          "name": "from",
          "type": "address"
        },
        {
          "indexed": true,
          "internalType": "address",
          "name": "to",
          "type": "address"
        },
        {
          "indexed": true,
          "internalType": "uint256",
          "name": "tokenId",
          "type": "uint256"
        }
      ],
      "name": "Transfer",
      "type": "event"
    },
    {
      "anonymous": false,
      "inputs": [
        {
          "indexed": false,
          "internalType": "bool",
          "name": "active",
          "type": "bool"
        }
      ],
      "name": "primelistMintActive",
      "type": "event"
    },
    {
      "anonymous": false,
      "inputs": [
        {
          "indexed": false,
          "internalType": "bool",
          "name": "active",
          "type": "bool"
        }
      ],
      "name": "publicMintActive",
      "type": "event"
    },
    {
      "anonymous": false,
      "inputs": [
        {
          "indexed": false,
          "internalType": "bool",
          "name": "active",
          "type": "bool"
        }
      ],
      "name": "whitelistMintActive",
      "type": "event"
    },
    {
      "inputs": [],
      "name": "MAX_SUPPLY",
      "outputs": [
        {
          "internalType": "uint256",
          "name": "",
          "type": "uint256"
        }
      ],
      "stateMutability": "view",
      "type": "function"
    },
    {
      "inputs": [],
      "name": "NFT_STAKING_CONTRACT",
      "outputs": [
        {
          "internalType": "address",
          "name": "",
          "type": "address"
        }
      ],
      "stateMutability": "view",
      "type": "function"
    },
    {
      "inputs": [],
      "name": "PRIME_APE_CONTRACT",
      "outputs": [
        {
          "internalType": "address",
          "name": "",
          "type": "address"
        }
      ],
      "stateMutability": "view",
      "type": "function"
    },
    {
      "inputs": [],
      "name": "PRIME_APE_MIN_COUNT",
      "outputs": [
        {
          "internalType": "uint256",
          "name": "",
          "type": "uint256"
        }
      ],
      "stateMutability": "view",
      "type": "function"
    },
    {
      "inputs": [],
      "name": "PRIME_INFECTED_CONTRACT",
      "outputs": [
        {
          "internalType": "address",
          "name": "",
          "type": "address"
        }
      ],
      "stateMutability": "view",
      "type": "function"
    },
    {
      "inputs": [],
      "name": "PRIME_INFECTED_MIN_COUNT",
      "outputs": [
        {
          "internalType": "uint256",
          "name": "",
          "type": "uint256"
        }
      ],
      "stateMutability": "view",
      "type": "function"
    },
    {
      "inputs": [],
      "name": "PRIME_KONG_CONTRACT",
      "outputs": [
        {
          "internalType": "address",
          "name": "",
          "type": "address"
        }
      ],
      "stateMutability": "view",
      "type": "function"
    },
    {
      "inputs": [],
      "name": "PRIME_KONG_MIN_COUNT",
      "outputs": [
        {
          "internalType": "uint256",
          "name": "",
          "type": "uint256"
        }
      ],
      "stateMutability": "view",
      "type": "function"
    },
    {
      "inputs": [
        {
          "internalType": "uint256",
          "name": "newMaxSupply",
          "type": "uint256"
        }
      ],
      "name": "activatePrimelistMint",
      "outputs": [],
      "stateMutability": "nonpayable",
      "type": "function"
    },
    {
      "inputs": [
        {
          "internalType": "uint256",
          "name": "newMaxSupply",
          "type": "uint256"
        }
      ],
      "name": "activatePublicMint",
      "outputs": [],
      "stateMutability": "nonpayable",
      "type": "function"
    },
    {
      "inputs": [
        {
          "internalType": "uint256",
          "name": "newMaxSupply",
          "type": "uint256"
        }
      ],
      "name": "activateWhitelistMint",
      "outputs": [],
      "stateMutability": "nonpayable",
      "type": "function"
    },
    {
      "inputs": [
        {
          "internalType": "address[]",
          "name": "recipient",
          "type": "address[]"
        },
        {
          "internalType": "uint256[]",
          "name": "quantity",
          "type": "uint256[]"
        }
      ],
      "name": "airDrop",
      "outputs": [],
      "stateMutability": "nonpayable",
      "type": "function"
    },
    {
      "inputs": [
        {
          "internalType": "address",
          "name": "to",
          "type": "address"
        },
        {
          "internalType": "uint256",
          "name": "tokenId",
          "type": "uint256"
        }
      ],
      "name": "approve",
      "outputs": [],
      "stateMutability": "nonpayable",
      "type": "function"
    },
    {
      "inputs": [
        {
          "internalType": "address",
          "name": "owner",
          "type": "address"
        }
      ],
      "name": "balanceOf",
      "outputs": [
        {
          "internalType": "uint256",
          "name": "",
          "type": "uint256"
        }
      ],
      "stateMutability": "view",
      "type": "function"
    },
    {
      "inputs": [
        {
          "internalType": "address",
          "name": "user",
          "type": "address"
        }
      ],
      "name": "checkPrimeNFTOwned",
      "outputs": [
        {
          "internalType": "bool",
          "name": "",
          "type": "bool"
        }
      ],
      "stateMutability": "view",
      "type": "function"
    },
    {
      "inputs": [
        {
          "internalType": "address",
          "name": "user",
          "type": "address"
        },
        {
          "internalType": "bytes32[]",
          "name": "proof",
          "type": "bytes32[]"
        }
      ],
      "name": "checkWhitelist",
      "outputs": [
        {
          "internalType": "bool",
          "name": "",
          "type": "bool"
        }
      ],
      "stateMutability": "view",
      "type": "function"
    },
    {
      "inputs": [
        {
          "internalType": "uint256",
          "name": "tokenId",
          "type": "uint256"
        }
      ],
      "name": "getApproved",
      "outputs": [
        {
          "internalType": "address",
          "name": "",
          "type": "address"
        }
      ],
      "stateMutability": "view",
      "type": "function"
    },
    {
      "inputs": [
        {
          "internalType": "address",
          "name": "addr",
          "type": "address"
        }
      ],
      "name": "getTokenIDs",
      "outputs": [
        {
          "internalType": "uint256[]",
          "name": "",
          "type": "uint256[]"
        }
      ],
      "stateMutability": "view",
      "type": "function"
    },
    {
      "inputs": [
        {
          "internalType": "address",
          "name": "owner",
          "type": "address"
        },
        {
          "internalType": "address",
          "name": "operator",
          "type": "address"
        }
      ],
      "name": "isApprovedForAll",
      "outputs": [
        {
          "internalType": "bool",
          "name": "",
          "type": "bool"
        }
      ],
      "stateMutability": "view",
      "type": "function"
    },
    {
      "inputs": [],
      "name": "name",
      "outputs": [
        {
          "internalType": "string",
          "name": "",
          "type": "string"
        }
      ],
      "stateMutability": "view",
      "type": "function"
    },
    {
      "inputs": [],
      "name": "owner",
      "outputs": [
        {
          "internalType": "address",
          "name": "",
          "type": "address"
        }
      ],
      "stateMutability": "view",
      "type": "function"
    },
    {
      "inputs": [
        {
          "internalType": "uint256",
          "name": "tokenId",
          "type": "uint256"
        }
      ],
      "name": "ownerOf",
      "outputs": [
        {
          "internalType": "address",
          "name": "",
          "type": "address"
        }
      ],
      "stateMutability": "view",
      "type": "function"
    },
    {
      "inputs": [
        {
          "internalType": "uint256",
          "name": "amount",
          "type": "uint256"
        }
      ],
      "name": "primelistMint",
      "outputs": [],
      "stateMutability": "payable",
      "type": "function"
    },
    {
      "inputs": [],
      "name": "primelistMintEnabled",
      "outputs": [
        {
          "internalType": "bool",
          "name": "",
          "type": "bool"
        }
      ],
      "stateMutability": "view",
      "type": "function"
    },
    {
      "inputs": [],
      "name": "primelistMintPrice",
      "outputs": [
        {
          "internalType": "uint256",
          "name": "",
          "type": "uint256"
        }
      ],
      "stateMutability": "view",
      "type": "function"
    },
    {
      "inputs": [
        {
          "internalType": "address",
          "name": "",
          "type": "address"
        }
      ],
      "name": "primelistMinted",
      "outputs": [
        {
          "internalType": "uint256",
          "name": "",
          "type": "uint256"
        }
      ],
      "stateMutability": "view",
      "type": "function"
    },
    {
      "inputs": [],
      "name": "primelist_MaxMintPerAddress",
      "outputs": [
        {
          "internalType": "uint256",
          "name": "",
          "type": "uint256"
        }
      ],
      "stateMutability": "view",
      "type": "function"
    },
    {
      "inputs": [
        {
          "internalType": "uint256",
          "name": "amount",
          "type": "uint256"
        }
      ],
      "name": "publicMint",
      "outputs": [],
      "stateMutability": "payable",
      "type": "function"
    },
    {
      "inputs": [],
      "name": "publicMintEnabled",
      "outputs": [
        {
          "internalType": "bool",
          "name": "",
          "type": "bool"
        }
      ],
      "stateMutability": "view",
      "type": "function"
    },
    {
      "inputs": [],
      "name": "publicMintPrice",
      "outputs": [
        {
          "internalType": "uint256",
          "name": "",
          "type": "uint256"
        }
      ],
      "stateMutability": "view",
      "type": "function"
    },
    {
      "inputs": [
        {
          "internalType": "address",
          "name": "",
          "type": "address"
        }
      ],
      "name": "publicMinted",
      "outputs": [
        {
          "internalType": "uint256",
          "name": "",
          "type": "uint256"
        }
      ],
      "stateMutability": "view",
      "type": "function"
    },
    {
      "inputs": [],
      "name": "public_MaxMintPerAddress",
      "outputs": [
        {
          "internalType": "uint256",
          "name": "",
          "type": "uint256"
        }
      ],
      "stateMutability": "view",
      "type": "function"
    },
    {
      "inputs": [],
      "name": "renounceOwnership",
      "outputs": [],
      "stateMutability": "nonpayable",
      "type": "function"
    },
    {
      "inputs": [
        {
          "internalType": "address",
          "name": "from",
          "type": "address"
        },
        {
          "internalType": "address",
          "name": "to",
          "type": "address"
        },
        {
          "internalType": "uint256",
          "name": "tokenId",
          "type": "uint256"
        }
      ],
      "name": "safeTransferFrom",
      "outputs": [],
      "stateMutability": "nonpayable",
      "type": "function"
    },
    {
      "inputs": [
        {
          "internalType": "address",
          "name": "from",
          "type": "address"
        },
        {
          "internalType": "address",
          "name": "to",
          "type": "address"
        },
        {
          "internalType": "uint256",
          "name": "tokenId",
          "type": "uint256"
        },
        {
          "internalType": "bytes",
          "name": "data",
          "type": "bytes"
        }
      ],
      "name": "safeTransferFrom",
      "outputs": [],
      "stateMutability": "nonpayable",
      "type": "function"
    },
    {
      "inputs": [
        {
          "internalType": "address",
          "name": "operator",
          "type": "address"
        },
        {
          "internalType": "bool",
          "name": "approved",
          "type": "bool"
        }
      ],
      "name": "setApprovalForAll",
      "outputs": [],
      "stateMutability": "nonpayable",
      "type": "function"
    },
    {
      "inputs": [
        {
          "internalType": "string",
          "name": "newBaseURI",
          "type": "string"
        }
      ],
      "name": "setBaseURI",
      "outputs": [],
      "stateMutability": "nonpayable",
      "type": "function"
    },
    {
      "inputs": [
        {
          "internalType": "uint256",
          "name": "newMaxSupply",
          "type": "uint256"
        }
      ],
      "name": "setMaxSupply",
      "outputs": [],
      "stateMutability": "nonpayable",
      "type": "function"
    },
    {
      "inputs": [
        {
          "internalType": "bytes32",
          "name": "root",
          "type": "bytes32"
        }
      ],
      "name": "setMerkleRoot",
      "outputs": [],
      "stateMutability": "nonpayable",
      "type": "function"
    },
    {
      "inputs": [
        {
          "internalType": "uint256",
          "name": "primeApeCount",
          "type": "uint256"
        },
        {
          "internalType": "uint256",
          "name": "primeKongCount",
          "type": "uint256"
        },
        {
          "internalType": "uint256",
          "name": "primeInfectedCount",
          "type": "uint256"
        }
      ],
      "name": "setPrimeConstraintCount",
      "outputs": [],
      "stateMutability": "nonpayable",
      "type": "function"
    },
    {
      "inputs": [
        {
          "internalType": "address",
          "name": "primeApeAddress",
          "type": "address"
        },
        {
          "internalType": "address",
          "name": "primeKongAddress",
          "type": "address"
        },
        {
          "internalType": "address",
          "name": "primeInfectedAddress",
          "type": "address"
        }
      ],
      "name": "setPrimeContractAddress",
      "outputs": [],
      "stateMutability": "nonpayable",
      "type": "function"
    },
    {
      "inputs": [
        {
          "internalType": "address",
          "name": "newStakingAddress",
          "type": "address"
        }
      ],
      "name": "setPrimeNFTStaking",
      "outputs": [],
      "stateMutability": "nonpayable",
      "type": "function"
    },
    {
      "inputs": [
        {
          "internalType": "uint256",
          "name": "newMaxMintPerAddress",
          "type": "uint256"
        }
      ],
      "name": "setPrimelistMaxMintPerAddress",
      "outputs": [],
      "stateMutability": "nonpayable",
      "type": "function"
    },
    {
      "inputs": [
        {
          "internalType": "uint256",
          "name": "newPrice",
          "type": "uint256"
        }
      ],
      "name": "setPrimelistMintPrice",
      "outputs": [],
      "stateMutability": "nonpayable",
      "type": "function"
    },
    {
      "inputs": [
        {
          "internalType": "uint256",
          "name": "newMaxMintPerAddress",
          "type": "uint256"
        }
      ],
      "name": "setPublicMaxMintPerAddress",
      "outputs": [],
      "stateMutability": "nonpayable",
      "type": "function"
    },
    {
      "inputs": [
        {
          "internalType": "uint256",
          "name": "newPrice",
          "type": "uint256"
        }
      ],
      "name": "setPublicMintPrice",
      "outputs": [],
      "stateMutability": "nonpayable",
      "type": "function"
    },
    {
      "inputs": [
        {
          "internalType": "uint256",
          "name": "newMaxMintPerAddress",
          "type": "uint256"
        }
      ],
      "name": "setWhitelistMaxMintPerAddress",
      "outputs": [],
      "stateMutability": "nonpayable",
      "type": "function"
    },
    {
      "inputs": [
        {
          "internalType": "uint256",
          "name": "newPrice",
          "type": "uint256"
        }
      ],
      "name": "setWhitelistMintPrice",
      "outputs": [],
      "stateMutability": "nonpayable",
      "type": "function"
    },
    {
      "inputs": [
        {
          "internalType": "bytes4",
          "name": "interfaceId",
          "type": "bytes4"
        }
      ],
      "name": "supportsInterface",
      "outputs": [
        {
          "internalType": "bool",
          "name": "",
          "type": "bool"
        }
      ],
      "stateMutability": "view",
      "type": "function"
    },
    {
      "inputs": [],
      "name": "symbol",
      "outputs": [
        {
          "internalType": "string",
          "name": "",
          "type": "string"
        }
      ],
      "stateMutability": "view",
      "type": "function"
    },
    {
      "inputs": [],
      "name": "togglePrimelistMint",
      "outputs": [],
      "stateMutability": "nonpayable",
      "type": "function"
    },
    {
      "inputs": [],
      "name": "togglePublicMint",
      "outputs": [],
      "stateMutability": "nonpayable",
      "type": "function"
    },
    {
      "inputs": [],
      "name": "toggleWhitelistMint",
      "outputs": [],
      "stateMutability": "nonpayable",
      "type": "function"
    },
    {
      "inputs": [
        {
          "internalType": "uint256",
          "name": "index",
          "type": "uint256"
        }
      ],
      "name": "tokenByIndex",
      "outputs": [
        {
          "internalType": "uint256",
          "name": "",
          "type": "uint256"
        }
      ],
      "stateMutability": "view",
      "type": "function"
    },
    {
      "inputs": [
        {
          "internalType": "address",
          "name": "owner",
          "type": "address"
        },
        {
          "internalType": "uint256",
          "name": "index",
          "type": "uint256"
        }
      ],
      "name": "tokenOfOwnerByIndex",
      "outputs": [
        {
          "internalType": "uint256",
          "name": "",
          "type": "uint256"
        }
      ],
      "stateMutability": "view",
      "type": "function"
    },
    {
      "inputs": [
        {
          "internalType": "uint256",
          "name": "tokenId",
          "type": "uint256"
        }
      ],
      "name": "tokenURI",
      "outputs": [
        {
          "internalType": "string",
          "name": "",
          "type": "string"
        }
      ],
      "stateMutability": "view",
      "type": "function"
    },
    {
      "inputs": [],
      "name": "totalSupply",
      "outputs": [
        {
          "internalType": "uint256",
          "name": "",
          "type": "uint256"
        }
      ],
      "stateMutability": "view",
      "type": "function"
    },
    {
      "inputs": [
        {
          "internalType": "address",
          "name": "from",
          "type": "address"
        },
        {
          "internalType": "address",
          "name": "to",
          "type": "address"
        },
        {
          "internalType": "uint256",
          "name": "tokenId",
          "type": "uint256"
        }
      ],
      "name": "transferFrom",
      "outputs": [],
      "stateMutability": "nonpayable",
      "type": "function"
    },
    {
      "inputs": [
        {
          "internalType": "address",
          "name": "newOwner",
          "type": "address"
        }
      ],
      "name": "transferOwnership",
      "outputs": [],
      "stateMutability": "nonpayable",
      "type": "function"
    },
    {
      "inputs": [
        {
          "internalType": "uint256",
          "name": "amount",
          "type": "uint256"
        },
        {
          "internalType": "bytes32[]",
          "name": "proof",
          "type": "bytes32[]"
        }
      ],
      "name": "whitelistMint",
      "outputs": [],
      "stateMutability": "payable",
      "type": "function"
    },
    {
      "inputs": [],
      "name": "whitelistMintEnabled",
      "outputs": [
        {
          "internalType": "bool",
          "name": "",
          "type": "bool"
        }
      ],
      "stateMutability": "view",
      "type": "function"
    },
    {
      "inputs": [],
      "name": "whitelistMintPrice",
      "outputs": [
        {
          "internalType": "uint256",
          "name": "",
          "type": "uint256"
        }
      ],
      "stateMutability": "view",
      "type": "function"
    },
    {
      "inputs": [
        {
          "internalType": "address",
          "name": "",
          "type": "address"
        }
      ],
      "name": "whitelistMinted",
      "outputs": [
        {
          "internalType": "uint256",
          "name": "",
          "type": "uint256"
        }
      ],
      "stateMutability": "view",
      "type": "function"
    },
    {
      "inputs": [],
      "name": "whitelist_MaxMintPerAddress",
      "outputs": [
        {
          "internalType": "uint256",
          "name": "",
          "type": "uint256"
        }
      ],
      "stateMutability": "view",
      "type": "function"
    },
    {
      "inputs": [],
      "name": "withdrawAll",
      "outputs": [],
      "stateMutability": "nonpayable",
      "type": "function"
    }
  ],
  "bytecode": "0x60806040526101f4600d5567030d98d59a960000600f5567027f7d0bdb9200006010556701aa535d3d0c000060115560128054769d1d148193c296dbcb7056c4ec0bc1445e3fadfb0000006001600160b81b0319909116179055601380546001600160a01b0319908116736632a9d63e142f17a668064d41a21193b49b41a017909155601480548216735845e5f0571427d0ce33550587961262ca8cdf5c1790556015805490911673fd8917a36f76c4da9550f26db2faaaa242d6ae2c179055600160168190556017556002601881905560198190556003601a55601b55348015620000ea57600080fd5b50604051620042f0380380620042f08339810160408190526200010d9162000378565b733cc6cdda760b79bafa08df41ecfa224f810dceb660016040518060400160405280600b81526020016a283934b6b2a23930b3b7b760a91b8152506040518060400160405280600b81526020016a283934b6b2a23930b3b7b760a91b81525081600090816200017d9190620004dc565b5060016200018c8282620004dc565b505050620001a9620001a36200030c60201b60201c565b62000310565b6001600b556daaeb6d7670e522a718067333cd4e3b15620002f35780156200024157604051633e9f1edf60e11b81523060048201526001600160a01b03831660248201526daaeb6d7670e522a718067333cd4e90637d3e3dbe906044015b600060405180830381600087803b1580156200022257600080fd5b505af115801562000237573d6000803e3d6000fd5b50505050620002f3565b6001600160a01b03821615620002925760405163a0af290360e01b81523060048201526001600160a01b03831660248201526daaeb6d7670e522a718067333cd4e9063a0af29039060440162000207565b604051632210724360e11b81523060048201526daaeb6d7670e522a718067333cd4e90634420e48690602401600060405180830381600087803b158015620002d957600080fd5b505af1158015620002ee573d6000803e3d6000fd5b505050505b50600e9050620003048282620004dc565b5050620005a8565b3390565b600a80546001600160a01b038381166001600160a01b0319831681179093556040519116919082907f8be0079c531659141344cd1fd0a4f28419497f9722a3daafe3b4186f6b6457e090600090a35050565b634e487b7160e01b600052604160045260246000fd5b600060208083850312156200038c57600080fd5b82516001600160401b0380821115620003a457600080fd5b818501915085601f830112620003b957600080fd5b815181811115620003ce57620003ce62000362565b604051601f8201601f19908116603f01168101908382118183101715620003f957620003f962000362565b8160405282815288868487010111156200041257600080fd5b600093505b8284101562000436578484018601518185018701529285019262000417565b600086848301015280965050505050505092915050565b600181811c908216806200046257607f821691505b6020821081036200048357634e487b7160e01b600052602260045260246000fd5b50919050565b601f821115620004d757600081815260208120601f850160051c81016020861015620004b25750805b601f850160051c820191505b81811015620004d357828155600101620004be565b5050505b505050565b81516001600160401b03811115620004f857620004f862000362565b62000510816200050984546200044d565b8462000489565b602080601f8311600181146200054857600084156200052f5750858301515b600019600386901b1c1916600185901b178555620004d3565b600085815260208120601f198616915b82811015620005795788860151825594840194600190910190840162000558565b5085821015620005985787850151600019600388901b60f8161c191681555b5050505050600190811b01905550565b613d3880620005b86000396000f3fe6080604052600436106103ce5760003560e01c8063642e943a116101fd5780639d61df0711610118578063c1d00537116100ab578063da9b84a11161007a578063da9b84a114610af6578063db7ff4c814610b16578063dc53fd9214610b36578063e985e9c514610b4c578063f2fde38b14610b9557600080fd5b8063c1d0053714610a83578063c87b56dd14610aa3578063cc46ed4b14610ac3578063d2cab05614610ae357600080fd5b8063b10709d4116100e7578063b10709d414610a01578063b43cb27e14610a21578063b5be6acd14610a36578063b88d4fde14610a6357600080fd5b80639d61df071461098b578063a22cb465146109a1578063a611708e146109c1578063ab8ce091146109e157600080fd5b80637cb64759116101905780638a80effd1161015f5780638a80effd1461090b5780638da5cb5b1461092b57806395d89b411461094957806398a8cffe1461095e57600080fd5b80637cb6475914610882578063806c440d146108a2578063853828b6146108cf57806385971b46146108e457600080fd5b80636f63b60a116101cc5780636f63b60a146108185780636f8b44b01461082d57806370a082311461084d578063715018a61461086d57600080fd5b8063642e943a146107a657806365216a41146107c6578063676d2aa2146107e65780636caede3d146107f957600080fd5b80633e5d819f116102ed5780634c1b31951161028057806351c1234e1161024f57806351c1234e1461073057806355f804b3146107465780635d82cf6e146107665780636352211e1461078657600080fd5b80634c1b3195146106ce5780634c5be06f146106e45780634de3aa32146106fa5780634f6ccce71461071057600080fd5b8063462da7ed116102bc578063462da7ed14610658578063497343481461066e578063498d2f661461068e5780634ace6724146106ae57600080fd5b80633e5d819f146105ed5780634047638d1461060357806341ebc4211461061857806342842e0e1461063857600080fd5b806317dbd54f116103655780632db11544116103345780632db115441461058e5780632f745c59146105a157806332cb6b0c146105c157806335c6aaf8146105d757600080fd5b806317dbd54f1461051957806318160ddd1461053957806323b872dd1461054e5780632b7da4971461056e57600080fd5b80630f4161aa116103a15780630f4161aa146104845780631015805b1461049e578063157609bf146104d95780631649a8a9146104f957600080fd5b806301ffc9a7146103d357806306fdde0314610408578063081812fc1461042a578063095ea7b314610462575b600080fd5b3480156103df57600080fd5b506103f36103ee3660046131b4565b610bb5565b60405190151581526020015b60405180910390f35b34801561041457600080fd5b5061041d610be0565b6040516103ff9190613221565b34801561043657600080fd5b5061044a610445366004613234565b610c72565b6040516001600160a01b0390911681526020016103ff565b34801561046e57600080fd5b5061048261047d366004613262565b610c99565b005b34801561049057600080fd5b506012546103f39060ff1681565b3480156104aa57600080fd5b506104cb6104b936600461328e565b601c6020526000908152604090205481565b6040519081526020016103ff565b3480156104e557600080fd5b506104826104f436600461328e565b610db3565b34801561050557600080fd5b506103f36105143660046133a7565b610de7565b34801561052557600080fd5b5060135461044a906001600160a01b031681565b34801561054557600080fd5b506008546104cb565b34801561055a57600080fd5b506104826105693660046133f6565b610e3d565b34801561057a57600080fd5b50610482610589366004613234565b610f99565b61048261059c366004613234565b610ff2565b3480156105ad57600080fd5b506104cb6105bc366004613262565b611133565b3480156105cd57600080fd5b506104cb600d5481565b3480156105e357600080fd5b506104cb60105481565b3480156105f957600080fd5b506104cb60175481565b34801561060f57600080fd5b506104826111c9565b34801561062457600080fd5b50610482610633366004613234565b61121f565b34801561064457600080fd5b506104826106533660046133f6565b61124c565b34801561066457600080fd5b506104cb601b5481565b34801561067a57600080fd5b50610482610689366004613437565b61139d565b34801561069a57600080fd5b506103f36106a936600461328e565b6113e4565b3480156106ba57600080fd5b5060145461044a906001600160a01b031681565b3480156106da57600080fd5b506104cb60115481565b3480156106f057600080fd5b506104cb60185481565b34801561070657600080fd5b506104cb601a5481565b34801561071c57600080fd5b506104cb61072b366004613234565b6116e5565b34801561073c57600080fd5b506104cb60195481565b34801561075257600080fd5b506104826107613660046134d9565b611778565b34801561077257600080fd5b50610482610781366004613234565b611790565b34801561079257600080fd5b5061044a6107a1366004613234565b61179d565b3480156107b257600080fd5b506104826107c1366004613234565b6117fd565b3480156107d257600080fd5b506104826107e136600461356c565b61182a565b6104826107f4366004613234565b6119ce565b34801561080557600080fd5b506012546103f390610100900460ff1681565b34801561082457600080fd5b50610482611b70565b34801561083957600080fd5b50610482610848366004613234565b611bd0565b34801561085957600080fd5b506104cb61086836600461328e565b611c80565b34801561087957600080fd5b50610482611d06565b34801561088e57600080fd5b5061048261089d366004613234565b611d1a565b3480156108ae57600080fd5b506108c26108bd36600461328e565b611d27565b6040516103ff91906135d7565b3480156108db57600080fd5b50610482611dff565b3480156108f057600080fd5b5060125461044a90630100000090046001600160a01b031681565b34801561091757600080fd5b50610482610926366004613234565b611e2b565b34801561093757600080fd5b50600a546001600160a01b031661044a565b34801561095557600080fd5b5061041d611e7e565b34801561096a57600080fd5b506104cb61097936600461328e565b601d6020526000908152604090205481565b34801561099757600080fd5b506104cb60165481565b3480156109ad57600080fd5b506104826109bc366004613629565b611e8d565b3480156109cd57600080fd5b506104826109dc366004613234565b611e98565b3480156109ed57600080fd5b5060155461044a906001600160a01b031681565b348015610a0d57600080fd5b50610482610a1c366004613234565b611ea5565b348015610a2d57600080fd5b50610482611ed2565b348015610a4257600080fd5b506104cb610a5136600461328e565b601e6020526000908152604090205481565b348015610a6f57600080fd5b50610482610a7e366004613662565b611f34565b348015610a8f57600080fd5b50610482610a9e366004613234565b612093565b348015610aaf57600080fd5b5061041d610abe366004613234565b6120a0565b348015610acf57600080fd5b506012546103f39062010000900460ff1681565b610482610af13660046136e1565b612106565b348015610b0257600080fd5b50610482610b11366004613711565b612301565b348015610b2257600080fd5b50610482610b31366004613234565b612317565b348015610b4257600080fd5b506104cb600f5481565b348015610b5857600080fd5b506103f3610b6736600461373d565b6001600160a01b03918216600090815260056020908152604080832093909416825291909152205460ff1690565b348015610ba157600080fd5b50610482610bb036600461328e565b61236a565b60006001600160e01b0319821663780e9d6360e01b1480610bda5750610bda826123e0565b92915050565b606060008054610bef9061376b565b80601f0160208091040260200160405190810160405280929190818152602001828054610c1b9061376b565b8015610c685780601f10610c3d57610100808354040283529160200191610c68565b820191906000526020600020905b815481529060010190602001808311610c4b57829003601f168201915b5050505050905090565b6000610c7d82612430565b506000908152600460205260409020546001600160a01b031690565b6000610ca48261179d565b9050806001600160a01b0316836001600160a01b031603610d165760405162461bcd60e51b815260206004820152602160248201527f4552433732313a20617070726f76616c20746f2063757272656e74206f776e656044820152603960f91b60648201526084015b60405180910390fd5b336001600160a01b0382161480610d325750610d328133610b67565b610da45760405162461bcd60e51b815260206004820152603d60248201527f4552433732313a20617070726f76652063616c6c6572206973206e6f7420746f60448201527f6b656e206f776e6572206f7220617070726f76656420666f7220616c6c0000006064820152608401610d0d565b610dae838361248f565b505050565b610dbb6124fd565b601280546001600160a01b039092166301000000026301000000600160b81b0319909216919091179055565b600c546040516bffffffffffffffffffffffff19606085901b166020820152600091610e369160340160405160208183030381529060405280519060200120846125579092919063ffffffff16565b9392505050565b826daaeb6d7670e522a718067333cd4e3b15610f8857336001600160a01b03821603610e7357610e6e84848461256d565b610f93565b604051633185c44d60e21b81523060048201523360248201526daaeb6d7670e522a718067333cd4e9063c617113490604401602060405180830381865afa158015610ec2573d6000803e3d6000fd5b505050506040513d601f19601f82011682018060405250810190610ee691906137a5565b8015610f695750604051633185c44d60e21b81523060048201526001600160a01b03821660248201526daaeb6d7670e522a718067333cd4e9063c617113490604401602060405180830381865afa158015610f45573d6000803e3d6000fd5b505050506040513d601f19601f82011682018060405250810190610f6991906137a5565b610f8857604051633b79c77360e21b8152336004820152602401610d0d565b610f9384848461256d565b50505050565b610fa16124fd565b610faa81611bd0565b6012805462ffffff1916610100179055604051600181527fcf4f5af72b47b639160f4263702eed66578aed2748042225cf1773abaeb2ad3b906020015b60405180910390a150565b610ffa61259e565b600061100560085490565b905033321461101357600080fd5b60125460ff166110655760405162461bcd60e51b815260206004820152601760248201527f5075626c6963206d696e74206e6f7420656e61626c65640000000000000000006044820152606401610d0d565b34600f548361107491906137d8565b11156110925760405162461bcd60e51b8152600401610d0d906137ef565b600d5461109f8284613818565b11156110bd5760405162461bcd60e51b8152600401610d0d9061382b565b601954336000908152601c60205260409020546110da9084613818565b11156110f85760405162461bcd60e51b8152600401610d0d9061387b565b61110233836125f7565b50336000908152601c602052604081208054849290611122908490613818565b90915550506001600b555050565b50565b600061113e83611c80565b82106111a05760405162461bcd60e51b815260206004820152602b60248201527f455243373231456e756d657261626c653a206f776e657220696e646578206f7560448201526a74206f6620626f756e647360a81b6064820152608401610d0d565b506001600160a01b03919091166000908152600660209081526040808320938352929052205490565b6111d16124fd565b6012805460ff8082161560ff1990921682179092556040519116151581527fff86b46c70549aebb417928c09375906431033ea9045c1d91044637ff67eaf7a906020015b60405180910390a1565b6112276124fd565b600081116112475760405162461bcd60e51b8152600401610d0d906138cf565b601955565b826daaeb6d7670e522a718067333cd4e3b1561139257336001600160a01b0382160361127d57610e6e848484612685565b604051633185c44d60e21b81523060048201523360248201526daaeb6d7670e522a718067333cd4e9063c617113490604401602060405180830381865afa1580156112cc573d6000803e3d6000fd5b505050506040513d601f19601f820116820180604052508101906112f091906137a5565b80156113735750604051633185c44d60e21b81523060048201526001600160a01b03821660248201526daaeb6d7670e522a718067333cd4e9063c617113490604401602060405180830381865afa15801561134f573d6000803e3d6000fd5b505050506040513d601f19601f8201168201806040525081019061137391906137a5565b61139257604051633b79c77360e21b8152336004820152602401610d0d565b610f93848484612685565b6113a56124fd565b601380546001600160a01b039485166001600160a01b031991821617909155601480549385169382169390931790925560158054919093169116179055565b60125460405163842e298160e01b81526001600160a01b0383811660048301526000928392839283926301000000900416908290829063842e298190602401600060405180830381865afa158015611440573d6000803e3d6000fd5b505050506040513d6000823e601f3d908101601f191682016040526114689190810190613917565b905060005b815181101561152057600082828151811061148a5761148a613a17565b6020908102919091010151516013549091506001600160a01b03908116908216036114c1576114ba600188613818565b965061150d565b6014546001600160a01b03908116908216036114e9576114e2600187613818565b955061150d565b6015546001600160a01b039081169082160361150d5761150a600186613818565b94505b508061151881613a2d565b91505061146d565b506013546040516370a0823160e01b81526001600160a01b03898116600483015260009216906370a0823190602401602060405180830381865afa15801561156c573d6000803e3d6000fd5b505050506040513d601f19601f820116820180604052508101906115909190613a46565b6014546040516370a0823160e01b81526001600160a01b038b81166004830152929350600092909116906370a0823190602401602060405180830381865afa1580156115e0573d6000803e3d6000fd5b505050506040513d601f19601f820116820180604052508101906116049190613a46565b6015546040516370a0823160e01b81526001600160a01b038c81166004830152929350600092909116906370a0823190602401602060405180830381865afa158015611654573d6000803e3d6000fd5b505050506040513d601f19601f820116820180604052508101906116789190613a46565b90506116848389613818565b97506116908288613818565b965061169c8187613818565b955060165488101580156116b257506017548710155b80156116c057506018548610155b156116d5575060019998505050505050505050565b5060009998505050505050505050565b60006116f060085490565b82106117535760405162461bcd60e51b815260206004820152602c60248201527f455243373231456e756d657261626c653a20676c6f62616c20696e646578206f60448201526b7574206f6620626f756e647360a01b6064820152608401610d0d565b6008828154811061176657611766613a17565b90600052602060002001549050919050565b6117806124fd565b600e61178c8282613aad565b5050565b6117986124fd565b600f55565b6000818152600260205260408120546001600160a01b031680610bda5760405162461bcd60e51b8152602060048201526018602482015277115490cdcc8c4e881a5b9d985b1a59081d1bdad95b88125160421b6044820152606401610d0d565b6118056124fd565b600081116118255760405162461bcd60e51b8152600401610d0d906138cf565b601a55565b6118326124fd565b8083146118985760405162461bcd60e51b815260206004820152602e60248201527f506c656173652070726f7669646520657175616c207175616e7469746965732060448201526d616e6420726563697069656e747360901b6064820152608401610d0d565b6000806118a460085490565b905060005b838110156118e7578484828181106118c3576118c3613a17565b90506020020135836118d59190613818565b92506118e081613a2d565b90506118a9565b50600d546118f58383613818565b11156119375760405162461bcd60e51b81526020600482015260116024820152704e6f7420656e6f75676820737570706c7960781b6044820152606401610d0d565b6000915060005b858110156119c55760005b85858381811061195b5761195b613a17565b905060200201358110156119b4576119a488888481811061197e5761197e613a17565b9050602002016020810190611993919061328e565b8461199d81613a2d565b95506126a0565b6119ad81613a2d565b9050611949565b506119be81613a2d565b905061193e565b50505050505050565b6119d661259e565b60006119e160085490565b90503332146119ef57600080fd5b60125462010000900460ff16611a475760405162461bcd60e51b815260206004820152601a60248201527f5072696d656c697374206d696e74206e6f7420656e61626c65640000000000006044820152606401610d0d565b3460115483611a5691906137d8565b1115611a745760405162461bcd60e51b8152600401610d0d906137ef565b600d54611a818284613818565b1115611a9f5760405162461bcd60e51b8152600401610d0d9061382b565b601b54336000908152601e6020526040902054611abc9084613818565b1115611ada5760405162461bcd60e51b8152600401610d0d9061387b565b611ae3336113e4565b611b465760405162461bcd60e51b815260206004820152602e60248201527f596f7520646f206e6f74206d656574204e465420726571756972656d656e747360448201526d08199bdc88141c9a5b595b1a5cdd60921b6064820152608401610d0d565b611b5033836125f7565b50336000908152601e602052604081208054849290611122908490613818565b611b786124fd565b6012805460ff610100808304821615810261ff001990931692909217928390556040517fcf4f5af72b47b639160f4263702eed66578aed2748042225cf1773abaeb2ad3b936112159390049091161515815260200190565b611bd86124fd565b600d548103611c295760405162461bcd60e51b815260206004820181905260248201527f53616d652076616c75652061732063757272656e74206d617820737570706c796044820152606401610d0d565b600854811015611c7b5760405162461bcd60e51b815260206004820152601d60248201527f56616c7565206c6f776572207468616e20746f74616c20737570706c790000006044820152606401610d0d565b600d55565b60006001600160a01b038216611cea5760405162461bcd60e51b815260206004820152602960248201527f4552433732313a2061646472657373207a65726f206973206e6f7420612076616044820152683634b21037bbb732b960b91b6064820152608401610d0d565b506001600160a01b031660009081526003602052604090205490565b611d0e6124fd565b611d1860006126ba565b565b611d226124fd565b600c55565b60606000611d3460085490565b90506000611d4184611c80565b90506000816001600160401b03811115611d5d57611d5d6132ab565b604051908082528060200260200182016040528015611d86578160200160208202803683370190505b5090506000805b84811015611df457611d9e8161179d565b6001600160a01b0316876001600160a01b031603611de25780838381518110611dc957611dc9613a17565b602090810291909101015281611dde81613a2d565b9250505b80611dec81613a2d565b915050611d8d565b509095945050505050565b611e076124fd565b60405133904780156108fc02916000818181858888f19350505050611d1857600080fd5b611e336124fd565b611e3c81611bd0565b6012805462ffffff191660019081179091556040519081527fff86b46c70549aebb417928c09375906431033ea9045c1d91044637ff67eaf7a90602001610fe7565b606060018054610bef9061376b565b61178c33838361270c565b611ea06124fd565b601055565b611ead6124fd565b60008111611ecd5760405162461bcd60e51b8152600401610d0d906138cf565b601b55565b611eda6124fd565b6012805460ff62010000808304821615810262ff00001990931692909217928390556040517f8c8d9fb62d9cf4d32b4fb72e56d942aa138e49b60188e0e40b0d4abef987f94e936112159390049091161515815260200190565b836daaeb6d7670e522a718067333cd4e3b1561208057336001600160a01b03821603611f6b57611f66858585856127da565b61208c565b604051633185c44d60e21b81523060048201523360248201526daaeb6d7670e522a718067333cd4e9063c617113490604401602060405180830381865afa158015611fba573d6000803e3d6000fd5b505050506040513d601f19601f82011682018060405250810190611fde91906137a5565b80156120615750604051633185c44d60e21b81523060048201526001600160a01b03821660248201526daaeb6d7670e522a718067333cd4e9063c617113490604401602060405180830381865afa15801561203d573d6000803e3d6000fd5b505050506040513d601f19601f8201168201806040525081019061206191906137a5565b61208057604051633b79c77360e21b8152336004820152602401610d0d565b61208c858585856127da565b5050505050565b61209b6124fd565b601155565b60606120ab82612430565b60006120b561280c565b905060008151116120d55760405180602001604052806000815250610e36565b806120df8461281b565b6040516020016120f0929190613b6c565b6040516020818303038152906040529392505050565b61210e61259e565b600061211960085490565b905033321461212757600080fd5b601254610100900460ff1661217e5760405162461bcd60e51b815260206004820152601a60248201527f57686974656c697374206d696e74206e6f7420656e61626c65640000000000006044820152606401610d0d565b346010548461218d91906137d8565b11156121ab5760405162461bcd60e51b8152600401610d0d906137ef565b600d546121b88285613818565b11156121d65760405162461bcd60e51b8152600401610d0d9061382b565b601a54336000908152601d60205260409020546121f39085613818565b11156122725760405162461bcd60e51b815260206004820152604260248201527f4578636565646564206d6178206d696e7420706572206164647265737320666f60448201527f722077686974656c6973742c20747279206d696e74696e672077697468206c65606482015261737360f01b608482015260a401610d0d565b61227c3383610de7565b6122c85760405162461bcd60e51b815260206004820152601c60248201527f596f7520617265206e6f74206f6e207468652077686974656c697374000000006044820152606401610d0d565b6122d233846125f7565b50336000908152601d6020526040812080548592906122f2908490613818565b90915550506001600b55505050565b6123096124fd565b601692909255601755601855565b61231f6124fd565b61232881611bd0565b6012805462ffffff191662010000179055604051600181527f8c8d9fb62d9cf4d32b4fb72e56d942aa138e49b60188e0e40b0d4abef987f94e90602001610fe7565b6123726124fd565b6001600160a01b0381166123d75760405162461bcd60e51b815260206004820152602660248201527f4f776e61626c653a206e6577206f776e657220697320746865207a65726f206160448201526564647265737360d01b6064820152608401610d0d565b611130816126ba565b60006001600160e01b031982166380ac58cd60e01b148061241157506001600160e01b03198216635b5e139f60e01b145b80610bda57506301ffc9a760e01b6001600160e01b0319831614610bda565b6000818152600260205260409020546001600160a01b03166111305760405162461bcd60e51b8152602060048201526018602482015277115490cdcc8c4e881a5b9d985b1a59081d1bdad95b88125160421b6044820152606401610d0d565b600081815260046020526040902080546001600160a01b0319166001600160a01b03841690811790915581906124c48261179d565b6001600160a01b03167f8c5be1e5ebec7d5bd14f71427d1e84f3dd0314c0f7b2291e5b200ac8c7c3b92560405160405180910390a45050565b600a546001600160a01b03163314611d185760405162461bcd60e51b815260206004820181905260248201527f4f776e61626c653a2063616c6c6572206973206e6f7420746865206f776e65726044820152606401610d0d565b60008261256485846128ad565b14949350505050565b61257733826128fa565b6125935760405162461bcd60e51b8152600401610d0d90613b9b565b610dae838383612979565b6002600b54036125f05760405162461bcd60e51b815260206004820152601f60248201527f5265656e7472616e637947756172643a207265656e7472616e742063616c6c006044820152606401610d0d565b6002600b55565b600080821161263d5760405162461bcd60e51b81526020600482015260126024820152714d696e745a65726f5175616e74697479282960701b6044820152606401610d0d565b600061264860085490565b905060005b8381101561267a57612668856126638385613818565b6126a0565b8061267281613a2d565b91505061264d565b506001949350505050565b610dae83838360405180602001604052806000815250611f34565b61178c828260405180602001604052806000815250612aea565b600a80546001600160a01b038381166001600160a01b0319831681179093556040519116919082907f8be0079c531659141344cd1fd0a4f28419497f9722a3daafe3b4186f6b6457e090600090a35050565b816001600160a01b0316836001600160a01b03160361276d5760405162461bcd60e51b815260206004820152601960248201527f4552433732313a20617070726f766520746f2063616c6c6572000000000000006044820152606401610d0d565b6001600160a01b03838116600081815260056020908152604080832094871680845294825291829020805460ff191686151590811790915591519182527f17307eab39ab6107e8899845ad3d59bd9653f200f220920489ca2b5937696c31910160405180910390a3505050565b6127e433836128fa565b6128005760405162461bcd60e51b8152600401610d0d90613b9b565b610f9384848484612b1d565b6060600e8054610bef9061376b565b6060600061282883612b50565b60010190506000816001600160401b03811115612847576128476132ab565b6040519080825280601f01601f191660200182016040528015612871576020820181803683370190505b5090508181016020015b600019016f181899199a1a9b1b9c1cb0b131b232b360811b600a86061a8153600a850494508461287b57509392505050565b600081815b84518110156128f2576128de828683815181106128d1576128d1613a17565b6020026020010151612c28565b9150806128ea81613a2d565b9150506128b2565b509392505050565b6000806129068361179d565b9050806001600160a01b0316846001600160a01b0316148061294d57506001600160a01b0380821660009081526005602090815260408083209388168352929052205460ff165b806129715750836001600160a01b031661296684610c72565b6001600160a01b0316145b949350505050565b826001600160a01b031661298c8261179d565b6001600160a01b0316146129b25760405162461bcd60e51b8152600401610d0d90613be8565b6001600160a01b038216612a145760405162461bcd60e51b8152602060048201526024808201527f4552433732313a207472616e7366657220746f20746865207a65726f206164646044820152637265737360e01b6064820152608401610d0d565b612a218383836001612c57565b826001600160a01b0316612a348261179d565b6001600160a01b031614612a5a5760405162461bcd60e51b8152600401610d0d90613be8565b600081815260046020908152604080832080546001600160a01b03199081169091556001600160a01b0387811680865260038552838620805460001901905590871680865283862080546001019055868652600290945282852080549092168417909155905184937fddf252ad1be2c89b69c2b068fc378daa952ba7f163c4a11628f55a4df523b3ef91a4505050565b612af48383612d7f565b612b016000848484612f18565b610dae5760405162461bcd60e51b8152600401610d0d90613c2d565b612b28848484612979565b612b3484848484612f18565b610f935760405162461bcd60e51b8152600401610d0d90613c2d565b60008072184f03e93ff9f4daa797ed6e38ed64bf6a1f0160401b8310612b8f5772184f03e93ff9f4daa797ed6e38ed64bf6a1f0160401b830492506040015b6d04ee2d6d415b85acef81000000008310612bbb576d04ee2d6d415b85acef8100000000830492506020015b662386f26fc100008310612bd957662386f26fc10000830492506010015b6305f5e1008310612bf1576305f5e100830492506008015b6127108310612c0557612710830492506004015b60648310612c17576064830492506002015b600a8310610bda5760010192915050565b6000818310612c44576000828152602084905260409020610e36565b6000838152602083905260409020610e36565b6001811115612cc65760405162461bcd60e51b815260206004820152603560248201527f455243373231456e756d657261626c653a20636f6e7365637574697665207472604482015274185b9cd9995c9cc81b9bdd081cdd5c1c1bdc9d1959605a1b6064820152608401610d0d565b816001600160a01b038516612d2257612d1d81600880546000838152600960205260408120829055600182018355919091527ff3f7a9fe364faab93b216da50a3214154f22a0a2b415b23a84c8169e8b636ee30155565b612d45565b836001600160a01b0316856001600160a01b031614612d4557612d45858261300e565b6001600160a01b038416612d5c57611f66816130ab565b846001600160a01b0316846001600160a01b03161461208c5761208c848261315a565b6001600160a01b038216612dd55760405162461bcd60e51b815260206004820181905260248201527f4552433732313a206d696e7420746f20746865207a65726f20616464726573736044820152606401610d0d565b6000818152600260205260409020546001600160a01b031615612e3a5760405162461bcd60e51b815260206004820152601c60248201527f4552433732313a20746f6b656e20616c7265616479206d696e746564000000006044820152606401610d0d565b612e48600083836001612c57565b6000818152600260205260409020546001600160a01b031615612ead5760405162461bcd60e51b815260206004820152601c60248201527f4552433732313a20746f6b656e20616c7265616479206d696e746564000000006044820152606401610d0d565b6001600160a01b038216600081815260036020908152604080832080546001019055848352600290915280822080546001600160a01b0319168417905551839291907fddf252ad1be2c89b69c2b068fc378daa952ba7f163c4a11628f55a4df523b3ef908290a45050565b60006001600160a01b0384163b1561267a57604051630a85bd0160e11b81526001600160a01b0385169063150b7a0290612f5c903390899088908890600401613c7f565b6020604051808303816000875af1925050508015612f97575060408051601f3d908101601f19168201909252612f9491810190613cbc565b60015b612ff4573d808015612fc5576040519150601f19603f3d011682016040523d82523d6000602084013e612fca565b606091505b508051600003612fec5760405162461bcd60e51b8152600401610d0d90613c2d565b805181602001fd5b6001600160e01b031916630a85bd0160e11b149050612971565b6000600161301b84611c80565b6130259190613cd9565b600083815260076020526040902054909150808214613078576001600160a01b03841660009081526006602090815260408083208584528252808320548484528184208190558352600790915290208190555b5060009182526007602090815260408084208490556001600160a01b039094168352600681528383209183525290812055565b6008546000906130bd90600190613cd9565b600083815260096020526040812054600880549394509092849081106130e5576130e5613a17565b90600052602060002001549050806008838154811061310657613106613a17565b600091825260208083209091019290925582815260099091526040808220849055858252812055600880548061313e5761313e613cec565b6001900381819060005260206000200160009055905550505050565b600061316583611c80565b6001600160a01b039093166000908152600660209081526040808320868452825280832085905593825260079052919091209190915550565b6001600160e01b03198116811461113057600080fd5b6000602082840312156131c657600080fd5b8135610e368161319e565b60005b838110156131ec5781810151838201526020016131d4565b50506000910152565b6000815180845261320d8160208601602086016131d1565b601f01601f19169290920160200192915050565b602081526000610e3660208301846131f5565b60006020828403121561324657600080fd5b5035919050565b6001600160a01b038116811461113057600080fd5b6000806040838503121561327557600080fd5b82356132808161324d565b946020939093013593505050565b6000602082840312156132a057600080fd5b8135610e368161324d565b634e487b7160e01b600052604160045260246000fd5b60405160c081016001600160401b03811182821017156132e3576132e36132ab565b60405290565b604051601f8201601f191681016001600160401b0381118282101715613311576133116132ab565b604052919050565b60006001600160401b03821115613332576133326132ab565b5060051b60200190565b600082601f83011261334d57600080fd5b8135602061336261335d83613319565b6132e9565b82815260059290921b8401810191818101908684111561338157600080fd5b8286015b8481101561339c5780358352918301918301613385565b509695505050505050565b600080604083850312156133ba57600080fd5b82356133c58161324d565b915060208301356001600160401b038111156133e057600080fd5b6133ec8582860161333c565b9150509250929050565b60008060006060848603121561340b57600080fd5b83356134168161324d565b925060208401356134268161324d565b929592945050506040919091013590565b60008060006060848603121561344c57600080fd5b83356134578161324d565b925060208401356134678161324d565b915060408401356134778161324d565b809150509250925092565b60006001600160401b0383111561349b5761349b6132ab565b6134ae601f8401601f19166020016132e9565b90508281528383830111156134c257600080fd5b828260208301376000602084830101529392505050565b6000602082840312156134eb57600080fd5b81356001600160401b0381111561350157600080fd5b8201601f8101841361351257600080fd5b61297184823560208401613482565b60008083601f84011261353357600080fd5b5081356001600160401b0381111561354a57600080fd5b6020830191508360208260051b850101111561356557600080fd5b9250929050565b6000806000806040858703121561358257600080fd5b84356001600160401b038082111561359957600080fd5b6135a588838901613521565b909650945060208701359150808211156135be57600080fd5b506135cb87828801613521565b95989497509550505050565b6020808252825182820181905260009190848201906040850190845b8181101561360f578351835292840192918401916001016135f3565b50909695505050505050565b801515811461113057600080fd5b6000806040838503121561363c57600080fd5b82356136478161324d565b915060208301356136578161361b565b809150509250929050565b6000806000806080858703121561367857600080fd5b84356136838161324d565b935060208501356136938161324d565b92506040850135915060608501356001600160401b038111156136b557600080fd5b8501601f810187136136c657600080fd5b6136d587823560208401613482565b91505092959194509250565b600080604083850312156136f457600080fd5b8235915060208301356001600160401b038111156133e057600080fd5b60008060006060848603121561372657600080fd5b505081359360208301359350604090920135919050565b6000806040838503121561375057600080fd5b823561375b8161324d565b915060208301356136578161324d565b600181811c9082168061377f57607f821691505b60208210810361379f57634e487b7160e01b600052602260045260246000fd5b50919050565b6000602082840312156137b757600080fd5b8151610e368161361b565b634e487b7160e01b600052601160045260246000fd5b8082028115828204841417610bda57610bda6137c2565b6020808252600f908201526e4d6f72652045544820706c6561736560881b604082015260600190565b80820180821115610bda57610bda6137c2565b60208082526030908201527f506c6561736520747279206d696e74696e672077697468206c6573732c206e6f60408201526f7420656e6f75676820737570706c792160801b606082015260800190565b60208082526034908201527f4578636565646564206d6178206d696e742070657220616464726573732c20746040820152737279206d696e74696e672077697468206c65737360601b606082015260800190565b60208082526012908201527156616c7565206c6f776572207468656e203160701b604082015260600190565b80516001600160401b038116811461391257600080fd5b919050565b6000602080838503121561392a57600080fd5b82516001600160401b0381111561394057600080fd5b8301601f8101851361395157600080fd5b805161395f61335d82613319565b81815260c0918202830184019184820191908884111561397e57600080fd5b938501935b83851015613a0b5780858a03121561399b5760008081fd5b6139a36132c1565b85516139ae8161324d565b81528587015187820152604080870151600481106139cc5760008081fd5b9082015260606139dd8782016138fb565b9082015260806139ee8782016138fb565b9082015260a0868101519082015283529384019391850191613983565b50979650505050505050565b634e487b7160e01b600052603260045260246000fd5b600060018201613a3f57613a3f6137c2565b5060010190565b600060208284031215613a5857600080fd5b5051919050565b601f821115610dae57600081815260208120601f850160051c81016020861015613a865750805b601f850160051c820191505b81811015613aa557828155600101613a92565b505050505050565b81516001600160401b03811115613ac657613ac66132ab565b613ada81613ad4845461376b565b84613a5f565b602080601f831160018114613b0f5760008415613af75750858301515b600019600386901b1c1916600185901b178555613aa5565b600085815260208120601f198616915b82811015613b3e57888601518255948401946001909101908401613b1f565b5085821015613b5c5787850151600019600388901b60f8161c191681555b5050505050600190811b01905550565b60008351613b7e8184602088016131d1565b835190830190613b928183602088016131d1565b01949350505050565b6020808252602d908201527f4552433732313a2063616c6c6572206973206e6f7420746f6b656e206f776e6560408201526c1c881bdc88185c1c1c9bdd9959609a1b606082015260800190565b60208082526025908201527f4552433732313a207472616e736665722066726f6d20696e636f72726563742060408201526437bbb732b960d91b606082015260800190565b60208082526032908201527f4552433732313a207472616e7366657220746f206e6f6e20455243373231526560408201527131b2b4bb32b91034b6b83632b6b2b73a32b960711b606082015260800190565b6001600160a01b0385811682528416602082015260408101839052608060608201819052600090613cb2908301846131f5565b9695505050505050565b600060208284031215613cce57600080fd5b8151610e368161319e565b81810381811115610bda57610bda6137c2565b634e487b7160e01b600052603160045260246000fdfea2646970667358221220c2398c5980fb6e412bce146525c6691b2ca9728be5c600a9465cf9d36b88c0d764736f6c63430008110033",
  "linkReferences": {},
  "deployedLinkReferences": {}
}