{
  "_format": "hh-sol-artifact-1",
  "contractName": "PoisonedBananas",
  "sourceName": "src/backend/contracts/PoisonedBananas.sol",
  "abi": [
    {
      "inputs": [
        {
          "internalType": "address",
          "name": "_openseaProxyRegistryAddress",
          "type": "address"
        }
      ],
      "stateMutability": "nonpayable",
      "type": "constructor"
    },
    {
      "anonymous": false,
      "inputs": [
        {
          "indexed": true,
          "internalType": "address",
          "name": "account",
          "type": "address"
        },
        {
          "indexed": true,
          "internalType": "address",
          "name": "operator",
          "type": "address"
        },
        {
          "indexed": false,
          "internalType": "bool",
          "name": "approved",
          "type": "bool"
        }
      ],
      "name": "ApprovalForAll",
      "type": "event"
    },
    {
      "anonymous": false,
      "inputs": [
        {
          "indexed": true,
          "internalType": "address",
          "name": "previousOwner",
          "type": "address"
        },
        {
          "indexed": true,
          "internalType": "address",
          "name": "newOwner",
          "type": "address"
        }
      ],
      "name": "OwnershipTransferred",
      "type": "event"
    },
    {
      "anonymous": false,
      "inputs": [
        {
          "indexed": true,
          "internalType": "address",
          "name": "sender",
          "type": "address"
        },
        {
          "indexed": true,
          "internalType": "uint256",
          "name": "amount",
          "type": "uint256"
        }
      ],
      "name": "ReceivedEther",
      "type": "event"
    },
    {
      "anonymous": false,
      "inputs": [
        {
          "indexed": true,
          "internalType": "address",
          "name": "operator",
          "type": "address"
        },
        {
          "indexed": true,
          "internalType": "address",
          "name": "from",
          "type": "address"
        },
        {
          "indexed": true,
          "internalType": "address",
          "name": "to",
          "type": "address"
        },
        {
          "indexed": false,
          "internalType": "uint256[]",
          "name": "ids",
          "type": "uint256[]"
        },
        {
          "indexed": false,
          "internalType": "uint256[]",
          "name": "values",
          "type": "uint256[]"
        }
      ],
      "name": "TransferBatch",
      "type": "event"
    },
    {
      "anonymous": false,
      "inputs": [
        {
          "indexed": true,
          "internalType": "address",
          "name": "operator",
          "type": "address"
        },
        {
          "indexed": true,
          "internalType": "address",
          "name": "from",
          "type": "address"
        },
        {
          "indexed": true,
          "internalType": "address",
          "name": "to",
          "type": "address"
        },
        {
          "indexed": false,
          "internalType": "uint256",
          "name": "id",
          "type": "uint256"
        },
        {
          "indexed": false,
          "internalType": "uint256",
          "name": "value",
          "type": "uint256"
        }
      ],
      "name": "TransferSingle",
      "type": "event"
    },
    {
      "anonymous": false,
      "inputs": [
        {
          "indexed": false,
          "internalType": "string",
          "name": "value",
          "type": "string"
        },
        {
          "indexed": true,
          "internalType": "uint256",
          "name": "id",
          "type": "uint256"
        }
      ],
      "name": "URI",
      "type": "event"
    },
    {
      "anonymous": false,
      "inputs": [
        {
          "indexed": true,
          "internalType": "string",
          "name": "baseURI",
          "type": "string"
        }
      ],
      "name": "setBaseURIEvent",
      "type": "event"
    },
    {
      "anonymous": false,
      "inputs": [
        {
          "indexed": true,
          "internalType": "address",
          "name": "claimContract",
          "type": "address"
        }
      ],
      "name": "setClaimContractEvent",
      "type": "event"
    },
    {
      "anonymous": false,
      "inputs": [
        {
          "indexed": true,
          "internalType": "address",
          "name": "infectContract",
          "type": "address"
        }
      ],
      "name": "setInfectContractEvent",
      "type": "event"
    },
    {
      "anonymous": false,
      "inputs": [
        {
          "indexed": true,
          "internalType": "uint256",
          "name": "quantity",
          "type": "uint256"
        }
      ],
      "name": "setOwnersExplicitEvent",
      "type": "event"
    },
    {
      "inputs": [
        {
          "internalType": "address",
          "name": "account",
          "type": "address"
        },
        {
          "internalType": "uint256",
          "name": "id",
          "type": "uint256"
        }
      ],
      "name": "balanceOf",
      "outputs": [
        {
          "internalType": "uint256",
          "name": "",
          "type": "uint256"
        }
      ],
      "stateMutability": "view",
      "type": "function"
    },
    {
      "inputs": [
        {
          "internalType": "address[]",
          "name": "accounts",
          "type": "address[]"
        },
        {
          "internalType": "uint256[]",
          "name": "ids",
          "type": "uint256[]"
        }
      ],
      "name": "balanceOfBatch",
      "outputs": [
        {
          "internalType": "uint256[]",
          "name": "",
          "type": "uint256[]"
        }
      ],
      "stateMutability": "view",
      "type": "function"
    },
    {
      "inputs": [],
      "name": "baseURIString",
      "outputs": [
        {
          "internalType": "string",
          "name": "",
          "type": "string"
        }
      ],
      "stateMutability": "view",
      "type": "function"
    },
    {
      "inputs": [
        {
          "internalType": "address",
          "name": "bananaOwner",
          "type": "address"
        },
        {
          "internalType": "uint256[]",
          "name": "bananaTypes",
          "type": "uint256[]"
        },
        {
          "internalType": "uint256[]",
          "name": "amounts",
          "type": "uint256[]"
        }
      ],
      "name": "burnMultiple",
      "outputs": [],
      "stateMutability": "nonpayable",
      "type": "function"
    },
    {
      "inputs": [
        {
          "internalType": "address",
          "name": "bananaOwner",
          "type": "address"
        },
        {
          "internalType": "uint256",
          "name": "bananaType",
          "type": "uint256"
        }
      ],
      "name": "burnSingle",
      "outputs": [],
      "stateMutability": "nonpayable",
      "type": "function"
    },
    {
      "inputs": [
        {
          "internalType": "uint256",
          "name": "id",
          "type": "uint256"
        }
      ],
      "name": "exists",
      "outputs": [
        {
          "internalType": "bool",
          "name": "",
          "type": "bool"
        }
      ],
      "stateMutability": "view",
      "type": "function"
    },
    {
      "inputs": [
        {
          "internalType": "address",
          "name": "owner",
          "type": "address"
        },
        {
          "internalType": "address",
          "name": "operator",
          "type": "address"
        }
      ],
      "name": "isApprovedForAll",
      "outputs": [
        {
          "internalType": "bool",
          "name": "",
          "type": "bool"
        }
      ],
      "stateMutability": "view",
      "type": "function"
    },
    {
      "inputs": [
        {
          "internalType": "uint256",
          "name": "",
          "type": "uint256"
        }
      ],
      "name": "isPoisonedBanana",
      "outputs": [
        {
          "internalType": "bool",
          "name": "",
          "type": "bool"
        }
      ],
      "stateMutability": "view",
      "type": "function"
    },
    {
      "inputs": [],
      "name": "lvl1Banana",
      "outputs": [
        {
          "internalType": "uint256",
          "name": "",
          "type": "uint256"
        }
      ],
      "stateMutability": "view",
      "type": "function"
    },
    {
      "inputs": [],
      "name": "lvl2Banana",
      "outputs": [
        {
          "internalType": "uint256",
          "name": "",
          "type": "uint256"
        }
      ],
      "stateMutability": "view",
      "type": "function"
    },
    {
      "inputs": [],
      "name": "lvl3Banana",
      "outputs": [
        {
          "internalType": "uint256",
          "name": "",
          "type": "uint256"
        }
      ],
      "stateMutability": "view",
      "type": "function"
    },
    {
      "inputs": [
        {
          "internalType": "uint256[]",
          "name": "bananaTypes",
          "type": "uint256[]"
        },
        {
          "internalType": "uint256[]",
          "name": "amounts",
          "type": "uint256[]"
        },
        {
          "internalType": "address",
          "name": "to",
          "type": "address"
        }
      ],
      "name": "mintMultiple",
      "outputs": [],
      "stateMutability": "nonpayable",
      "type": "function"
    },
    {
      "inputs": [
        {
          "internalType": "uint256",
          "name": "bananaType",
          "type": "uint256"
        },
        {
          "internalType": "address",
          "name": "to",
          "type": "address"
        }
      ],
      "name": "mintSingle",
      "outputs": [],
      "stateMutability": "nonpayable",
      "type": "function"
    },
    {
      "inputs": [],
      "name": "name",
      "outputs": [
        {
          "internalType": "string",
          "name": "",
          "type": "string"
        }
      ],
      "stateMutability": "view",
      "type": "function"
    },
    {
      "inputs": [],
      "name": "openseaProxyRegistryAddress",
      "outputs": [
        {
          "internalType": "address",
          "name": "",
          "type": "address"
        }
      ],
      "stateMutability": "view",
      "type": "function"
    },
    {
      "inputs": [],
      "name": "owner",
      "outputs": [
        {
          "internalType": "address",
          "name": "",
          "type": "address"
        }
      ],
      "stateMutability": "view",
      "type": "function"
    },
    {
      "inputs": [],
      "name": "renounceOwnership",
      "outputs": [],
      "stateMutability": "nonpayable",
      "type": "function"
    },
    {
      "inputs": [
        {
          "internalType": "address",
          "name": "from",
          "type": "address"
        },
        {
          "internalType": "address",
          "name": "to",
          "type": "address"
        },
        {
          "internalType": "uint256[]",
          "name": "ids",
          "type": "uint256[]"
        },
        {
          "internalType": "uint256[]",
          "name": "amounts",
          "type": "uint256[]"
        },
        {
          "internalType": "bytes",
          "name": "data",
          "type": "bytes"
        }
      ],
      "name": "safeBatchTransferFrom",
      "outputs": [],
      "stateMutability": "nonpayable",
      "type": "function"
    },
    {
      "inputs": [
        {
          "internalType": "address",
          "name": "from",
          "type": "address"
        },
        {
          "internalType": "address",
          "name": "to",
          "type": "address"
        },
        {
          "internalType": "uint256",
          "name": "id",
          "type": "uint256"
        },
        {
          "internalType": "uint256",
          "name": "amount",
          "type": "uint256"
        },
        {
          "internalType": "bytes",
          "name": "data",
          "type": "bytes"
        }
      ],
      "name": "safeTransferFrom",
      "outputs": [],
      "stateMutability": "nonpayable",
      "type": "function"
    },
    {
      "inputs": [
        {
          "internalType": "address",
          "name": "operator",
          "type": "address"
        },
        {
          "internalType": "bool",
          "name": "approved",
          "type": "bool"
        }
      ],
      "name": "setApprovalForAll",
      "outputs": [],
      "stateMutability": "nonpayable",
      "type": "function"
    },
    {
      "inputs": [
        {
          "internalType": "string",
          "name": "_newBaseURI",
          "type": "string"
        }
      ],
      "name": "setBaseURI",
      "outputs": [],
      "stateMutability": "nonpayable",
      "type": "function"
    },
    {
      "inputs": [
        {
          "internalType": "address",
          "name": "newClaimContract",
          "type": "address"
        }
      ],
      "name": "setClaimContract",
      "outputs": [],
      "stateMutability": "nonpayable",
      "type": "function"
    },
    {
      "inputs": [
        {
          "internalType": "address",
          "name": "newInfectContract",
          "type": "address"
        }
      ],
      "name": "setInfectContract",
      "outputs": [],
      "stateMutability": "nonpayable",
      "type": "function"
    },
    {
      "inputs": [
        {
          "internalType": "bytes4",
          "name": "interfaceId",
          "type": "bytes4"
        }
      ],
      "name": "supportsInterface",
      "outputs": [
        {
          "internalType": "bool",
          "name": "",
          "type": "bool"
        }
      ],
      "stateMutability": "view",
      "type": "function"
    },
    {
      "inputs": [],
      "name": "symbol",
      "outputs": [
        {
          "internalType": "string",
          "name": "",
          "type": "string"
        }
      ],
      "stateMutability": "view",
      "type": "function"
    },
    {
      "inputs": [
        {
          "internalType": "uint256",
          "name": "id",
          "type": "uint256"
        }
      ],
      "name": "totalSupply",
      "outputs": [
        {
          "internalType": "uint256",
          "name": "",
          "type": "uint256"
        }
      ],
      "stateMutability": "view",
      "type": "function"
    },
    {
      "inputs": [
        {
          "internalType": "address",
          "name": "newOwner",
          "type": "address"
        }
      ],
      "name": "transferOwnership",
      "outputs": [],
      "stateMutability": "nonpayable",
      "type": "function"
    },
    {
      "inputs": [
        {
          "internalType": "uint256",
          "name": "typeId",
          "type": "uint256"
        }
      ],
      "name": "uri",
      "outputs": [
        {
          "internalType": "string",
          "name": "",
          "type": "string"
        }
      ],
      "stateMutability": "view",
      "type": "function"
    },
    {
      "inputs": [
        {
          "internalType": "address",
          "name": "_to",
          "type": "address"
        }
      ],
      "name": "withdrawEth",
      "outputs": [],
      "stateMutability": "nonpayable",
      "type": "function"
    },
    {
      "stateMutability": "payable",
      "type": "receive"
    }
  ],
  "bytecode": "0x60e0604052602360808181529062002ee960a0396008906200002290826200025d565b5060408051808201909152601081526f506f69736f6e65642042616e616e617360801b60208201526009906200005990826200025d565b506040805180820190915260038152622829a160e91b6020820152600a906200008390826200025d565b506000600b556001600c556002600d55348015620000a057600080fd5b5060405162002f0c38038062002f0c833981016040819052620000c39162000329565b604080516020810190915260008152620000dd8162000154565b50620000e93362000166565b600580546001600160a01b0319166001600160a01b0392909216919091179055600b546000908152600e6020526040808220805460ff199081166001908117909255600c5484528284208054821683179055600d54845291909220805490911690911790556200035b565b60026200016282826200025d565b5050565b600480546001600160a01b038381166001600160a01b0319831681179093556040519116919082907f8be0079c531659141344cd1fd0a4f28419497f9722a3daafe3b4186f6b6457e090600090a35050565b634e487b7160e01b600052604160045260246000fd5b600181811c90821680620001e357607f821691505b6020821081036200020457634e487b7160e01b600052602260045260246000fd5b50919050565b601f8211156200025857600081815260208120601f850160051c81016020861015620002335750805b601f850160051c820191505b8181101562000254578281556001016200023f565b5050505b505050565b81516001600160401b03811115620002795762000279620001b8565b62000291816200028a8454620001ce565b846200020a565b602080601f831160018114620002c95760008415620002b05750858301515b600019600386901b1c1916600185901b17855562000254565b600085815260208120601f198616915b82811015620002fa57888601518255948401946001909101908401620002d9565b5085821015620003195787850151600019600388901b60f8161c191681555b5050505050600190811b01905550565b6000602082840312156200033c57600080fd5b81516001600160a01b03811681146200035457600080fd5b9392505050565b612b7e806200036b6000396000f3fe6080604052600436106101c55760003560e01c806355f804b3116100f757806395d89b4111610095578063cf76a15311610064578063cf76a15314610560578063e985e9c514610575578063f242432a14610595578063f2fde38b146105b557600080fd5b806395d89b41146104de578063a22cb465146104f3578063af2340dc14610513578063bd85b0391461053357600080fd5b8063777685bf116100d1578063777685bf14610452578063791b3616146104725780638da5cb5b146104aa5780638dab045a146104c857600080fd5b806355f804b3146104075780636f42030014610427578063715018a61461043d57600080fd5b806319708af5116101645780632eb2c2d61161013e5780632eb2c2d61461036b5780634a30d3eb1461038b5780634e1273f4146103ab5780634f558e79146103d857600080fd5b806319708af51461031557806325e16063146103355780632c1e944b1461035557600080fd5b80630bea05e7116101a05780630bea05e7146102835780630e89341c146102a55780631340ab96146102c55780631504e677146102e557600080fd5b8062fdd58e146101fe57806301ffc9a71461023157806306fdde031461026157600080fd5b366101f957604051349033907fa419615bc8fda4c87663805ee2a3597a6d71c1d476911d9892f340d965bc7bf190600090a3005b600080fd5b34801561020a57600080fd5b5061021e610219366004611f0d565b6105d5565b6040519081526020015b60405180910390f35b34801561023d57600080fd5b5061025161024c366004611f4f565b61066e565b6040519015158152602001610228565b34801561026d57600080fd5b506102766106be565b6040516102289190611fc3565b34801561028f57600080fd5b506102a361029e366004611fd6565b61074c565b005b3480156102b157600080fd5b506102766102c0366004611ff3565b61079e565b3480156102d157600080fd5b506102a36102e03660046120e2565b610801565b3480156102f157600080fd5b50610251610300366004611ff3565b600e6020526000908152604090205460ff1681565b34801561032157600080fd5b506102a3610330366004612157565b6109b7565b34801561034157600080fd5b506102a3610350366004611fd6565b610a71565b34801561036157600080fd5b5061021e600b5481565b34801561037757600080fd5b506102a3610386366004612204565b610b4f565b34801561039757600080fd5b506102a36103a6366004611fd6565b610b9b565b3480156103b757600080fd5b506103cb6103c63660046122b1565b610bed565b60405161022891906123b8565b3480156103e457600080fd5b506102516103f3366004611ff3565b600090815260036020526040902054151590565b34801561041357600080fd5b506102a36104223660046123cb565b610d16565b34801561043357600080fd5b5061021e600d5481565b34801561044957600080fd5b506102a3610d6c565b34801561045e57600080fd5b506102a361046d366004611f0d565b610d80565b34801561047e57600080fd5b50600554610492906001600160a01b031681565b6040516001600160a01b039091168152602001610228565b3480156104b657600080fd5b506004546001600160a01b0316610492565b3480156104d457600080fd5b5061021e600c5481565b3480156104ea57600080fd5b50610276610e27565b3480156104ff57600080fd5b506102a361050e366004612413565b610e34565b34801561051f57600080fd5b506102a361052e366004612446565b610e3f565b34801561053f57600080fd5b5061021e61054e366004611ff3565b60009081526003602052604090205490565b34801561056c57600080fd5b50610276610fcd565b34801561058157600080fd5b506102516105903660046124bd565b610fda565b3480156105a157600080fd5b506102a36105b03660046124eb565b6110b9565b3480156105c157600080fd5b506102a36105d0366004611fd6565b6110fe565b60006001600160a01b0383166106455760405162461bcd60e51b815260206004820152602a60248201527f455243313135353a2061646472657373207a65726f206973206e6f742061207660448201526930b634b21037bbb732b960b11b60648201526084015b60405180910390fd5b506000818152602081815260408083206001600160a01b03861684529091529020545b92915050565b60006001600160e01b03198216636cdb3d1360e11b148061069f57506001600160e01b031982166303a24d0760e21b145b8061066857506301ffc9a760e01b6001600160e01b0319831614610668565b600980546106cb90612553565b80601f01602080910402602001604051908101604052809291908181526020018280546106f790612553565b80156107445780601f1061071957610100808354040283529160200191610744565b820191906000526020600020905b81548152906001019060200180831161072757829003601f168201915b505050505081565b610754611177565b600780546001600160a01b0319166001600160a01b0383169081179091556040517fa6e6cddd116d033703845849bfd5879a4a74eb069a0f9c135d7bb2a35ea880ac90600090a250565b6000818152600e602052604090205460609060ff166107cf5760405162461bcd60e51b815260040161063c9061258d565b60086107da836111d1565b6040516020016107eb9291906125c4565b6040516020818303038152906040529050919050565b3361081e5760405162461bcd60e51b815260040161063c9061264b565b6007546001600160a01b0316331461086e5760405162461bcd60e51b815260206004820152601360248201527229b2b73232b9103737ba1034b73332b1ba37b960691b604482015260640161063c565b60008251116108b55760405162461bcd60e51b815260206004820152601360248201527216995c9bc81d1e5c195cc81c1c9bdd9a591959606a1b604482015260640161063c565b80518251146109065760405162461bcd60e51b815260206004820152601b60248201527f4e6f6e20657175616c20616d6f756e7473207370656369666965640000000000604482015260640161063c565b60005b82518110156109b157600e600084838151811061092857610928612671565b60209081029190910181015182528101919091526040016000205460ff166109625760405162461bcd60e51b815260040161063c9061258d565b61099f8484838151811061097857610978612671565b602002602001015184848151811061099257610992612671565b6020026020010151611263565b806109a98161269d565b915050610909565b50505050565b336109d45760405162461bcd60e51b815260040161063c9061264b565b6006546001600160a01b03163314610a235760405162461bcd60e51b815260206004820152601260248201527129b2b73232b9103737ba1031b630b4b6b2b960711b604482015260640161063c565b6000828152600e602052604090205460ff16610a515760405162461bcd60e51b815260040161063c9061258d565b610a6d81836001604051806020016040528060008152506113f8565b5050565b610a79611177565b6001600160a01b038116610acf5760405162461bcd60e51b815260206004820152601f60248201527f43414e4e4f5420574954484452415720544f205a45524f204144445245535300604482015260640161063c565b4780610b145760405162461bcd60e51b81526020600482015260146024820152734e4f20455448455220544f20574954484452415760601b604482015260640161063c565b6040516001600160a01b0383169082156108fc029083906000818181858888f19350505050158015610b4a573d6000803e3d6000fd5b505050565b6001600160a01b038516331480610b6b5750610b6b8533610fda565b610b875760405162461bcd60e51b815260040161063c906126b6565b610b9485858585856114d8565b5050505050565b610ba3611177565b600680546001600160a01b0319166001600160a01b0383169081179091556040517fa763813777d4dea63407e7d93600082c595eac3ed348c0318213fd888afcd46c90600090a250565b60608151835114610c525760405162461bcd60e51b815260206004820152602960248201527f455243313135353a206163636f756e747320616e6420696473206c656e677468604482015268040dad2e6dac2e8c6d60bb1b606482015260840161063c565b600083516001600160401b03811115610c6d57610c6d61200c565b604051908082528060200260200182016040528015610c96578160200160208202803683370190505b50905060005b8451811015610d0e57610ce1858281518110610cba57610cba612671565b6020026020010151858381518110610cd457610cd4612671565b60200260200101516105d5565b828281518110610cf357610cf3612671565b6020908102919091010152610d078161269d565b9050610c9c565b509392505050565b610d1e611177565b6008610d2a828261274a565b5080604051610d399190612809565b604051908190038120907fc9e8f610c54c2b76116d5166ae3d1bd8f7227fd57dce593bc86525d58991963d90600090a250565b610d74611177565b610d7e6000611682565b565b33610d9d5760405162461bcd60e51b815260040161063c9061264b565b6007546001600160a01b03163314610ded5760405162461bcd60e51b815260206004820152601360248201527229b2b73232b9103737ba1034b73332b1ba37b960691b604482015260640161063c565b6000818152600e602052604090205460ff16610e1b5760405162461bcd60e51b815260040161063c9061258d565b610a6d82826001611263565b600a80546106cb90612553565b610a6d3383836116d4565b33610e5c5760405162461bcd60e51b815260040161063c9061264b565b6006546001600160a01b03163314610eab5760405162461bcd60e51b815260206004820152601260248201527129b2b73232b9103737ba1031b630b4b6b2b960711b604482015260640161063c565b6000835111610ef25760405162461bcd60e51b815260206004820152601360248201527216995c9bc81d1e5c195cc81c1c9bdd9a591959606a1b604482015260640161063c565b8151835114610f435760405162461bcd60e51b815260206004820152601b60248201527f4e6f6e20657175616c20616d6f756e7473207370656369666965640000000000604482015260640161063c565b60005b8351811015610fb157600e6000858381518110610f6557610f65612671565b60209081029190910181015182528101919091526040016000205460ff16610f9f5760405162461bcd60e51b815260040161063c9061258d565b80610fa98161269d565b915050610f46565b50610b4a818484604051806020016040528060008152506117b4565b600880546106cb90612553565b60055460405163c455279160e01b81526001600160a01b03848116600483015260009281169190841690829063c455279190602401602060405180830381865afa15801561102c573d6000803e3d6000fd5b505050506040513d601f19601f820116820180604052508101906110509190612825565b6001600160a01b031603611068576001915050610668565b6005546001600160a01b03808516911603611087576001915050610668565b6001600160a01b0380851660009081526001602090815260408083209387168352929052205460ff165b949350505050565b6001600160a01b0385163314806110d557506110d58533610fda565b6110f15760405162461bcd60e51b815260040161063c906126b6565b610b94858585858561190e565b611106611177565b6001600160a01b03811661116b5760405162461bcd60e51b815260206004820152602660248201527f4f776e61626c653a206e6577206f776e657220697320746865207a65726f206160448201526564647265737360d01b606482015260840161063c565b61117481611682565b50565b6004546001600160a01b03163314610d7e5760405162461bcd60e51b815260206004820181905260248201527f4f776e61626c653a2063616c6c6572206973206e6f7420746865206f776e6572604482015260640161063c565b606060006111de83611a46565b60010190506000816001600160401b038111156111fd576111fd61200c565b6040519080825280601f01601f191660200182016040528015611227576020820181803683370190505b5090508181016020015b600019016f181899199a1a9b1b9c1cb0b131b232b360811b600a86061a8153600a850494508461123157509392505050565b6001600160a01b0383166112c55760405162461bcd60e51b815260206004820152602360248201527f455243313135353a206275726e2066726f6d20746865207a65726f206164647260448201526265737360e81b606482015260840161063c565b3360006112d184611b1e565b905060006112de84611b1e565b90506112fe83876000858560405180602001604052806000815250611b69565b6000858152602081815260408083206001600160a01b038a1684529091529020548481101561137b5760405162461bcd60e51b8152602060048201526024808201527f455243313135353a206275726e20616d6f756e7420657863656564732062616c604482015263616e636560e01b606482015260840161063c565b6000868152602081815260408083206001600160a01b038b81168086529184528285208a8703905582518b81529384018a90529092908816917fc3d58168c5ae7397731d063d5bbf3d657854427343f4c083240f7aacaa2d0f62910160405180910390a46040805160208101909152600090525b50505050505050565b6001600160a01b03841661141e5760405162461bcd60e51b815260040161063c90612842565b33600061142a85611b1e565b9050600061143785611b1e565b905061144883600089858589611b69565b6000868152602081815260408083206001600160a01b038b16845290915281208054879290611478908490612883565b909155505060408051878152602081018790526001600160a01b03808a1692600092918716917fc3d58168c5ae7397731d063d5bbf3d657854427343f4c083240f7aacaa2d0f62910160405180910390a46113ef83600089898989611ce2565b81518351146114f95760405162461bcd60e51b815260040161063c90612896565b6001600160a01b03841661151f5760405162461bcd60e51b815260040161063c906128de565b3361152e818787878787611b69565b60005b845181101561161457600085828151811061154e5761154e612671565b60200260200101519050600085838151811061156c5761156c612671565b602090810291909101810151600084815280835260408082206001600160a01b038e1683529093529190912054909150818110156115bc5760405162461bcd60e51b815260040161063c90612923565b6000838152602081815260408083206001600160a01b038e8116855292528083208585039055908b168252812080548492906115f9908490612883565b925050819055505050508061160d9061269d565b9050611531565b50846001600160a01b0316866001600160a01b0316826001600160a01b03167f4a39dc06d4c0dbc64b70af90fd698a233a518aa5d07e595d983b8c0526c8f7fb878760405161166492919061296d565b60405180910390a461167a818787878787611e3d565b505050505050565b600480546001600160a01b038381166001600160a01b0319831681179093556040519116919082907f8be0079c531659141344cd1fd0a4f28419497f9722a3daafe3b4186f6b6457e090600090a35050565b816001600160a01b0316836001600160a01b0316036117475760405162461bcd60e51b815260206004820152602960248201527f455243313135353a2073657474696e6720617070726f76616c20737461747573604482015268103337b91039b2b63360b91b606482015260840161063c565b6001600160a01b03838116600081815260016020908152604080832094871680845294825291829020805460ff191686151590811790915591519182527f17307eab39ab6107e8899845ad3d59bd9653f200f220920489ca2b5937696c31910160405180910390a3505050565b6001600160a01b0384166117da5760405162461bcd60e51b815260040161063c90612842565b81518351146117fb5760405162461bcd60e51b815260040161063c90612896565b3361180b81600087878787611b69565b60005b84518110156118a65783818151811061182957611829612671565b602002602001015160008087848151811061184657611846612671565b602002602001015181526020019081526020016000206000886001600160a01b03166001600160a01b03168152602001908152602001600020600082825461188e9190612883565b9091555081905061189e8161269d565b91505061180e565b50846001600160a01b031660006001600160a01b0316826001600160a01b03167f4a39dc06d4c0dbc64b70af90fd698a233a518aa5d07e595d983b8c0526c8f7fb87876040516118f792919061296d565b60405180910390a4610b9481600087878787611e3d565b6001600160a01b0384166119345760405162461bcd60e51b815260040161063c906128de565b33600061194085611b1e565b9050600061194d85611b1e565b905061195d838989858589611b69565b6000868152602081815260408083206001600160a01b038c1684529091529020548581101561199e5760405162461bcd60e51b815260040161063c90612923565b6000878152602081815260408083206001600160a01b038d8116855292528083208985039055908a168252812080548892906119db908490612883565b909155505060408051888152602081018890526001600160a01b03808b16928c821692918816917fc3d58168c5ae7397731d063d5bbf3d657854427343f4c083240f7aacaa2d0f62910160405180910390a4611a3b848a8a8a8a8a611ce2565b505050505050505050565b60008072184f03e93ff9f4daa797ed6e38ed64bf6a1f0160401b8310611a855772184f03e93ff9f4daa797ed6e38ed64bf6a1f0160401b830492506040015b6d04ee2d6d415b85acef81000000008310611ab1576d04ee2d6d415b85acef8100000000830492506020015b662386f26fc100008310611acf57662386f26fc10000830492506010015b6305f5e1008310611ae7576305f5e100830492506008015b6127108310611afb57612710830492506004015b60648310611b0d576064830492506002015b600a83106106685760010192915050565b60408051600180825281830190925260609160009190602080830190803683370190505090508281600081518110611b5857611b58612671565b602090810291909101015292915050565b6001600160a01b038516611bf05760005b8351811015611bee57828181518110611b9557611b95612671565b602002602001015160036000868481518110611bb357611bb3612671565b602002602001015181526020019081526020016000206000828254611bd89190612883565b90915550611be790508161269d565b9050611b7a565b505b6001600160a01b03841661167a5760005b83518110156113ef576000848281518110611c1e57611c1e612671565b602002602001015190506000848381518110611c3c57611c3c612671565b6020026020010151905060006003600084815260200190815260200160002054905081811015611cbf5760405162461bcd60e51b815260206004820152602860248201527f455243313135353a206275726e20616d6f756e74206578636565647320746f74604482015267616c537570706c7960c01b606482015260840161063c565b60009283526003602052604090922091039055611cdb8161269d565b9050611c01565b6001600160a01b0384163b1561167a5760405163f23a6e6160e01b81526001600160a01b0385169063f23a6e6190611d26908990899088908890889060040161299b565b6020604051808303816000875af1925050508015611d61575060408051601f3d908101601f19168201909252611d5e918101906129e0565b60015b611e0d57611d6d6129fd565b806308c379a003611da65750611d81612a19565b80611d8c5750611da8565b8060405162461bcd60e51b815260040161063c9190611fc3565b505b60405162461bcd60e51b815260206004820152603460248201527f455243313135353a207472616e7366657220746f206e6f6e2d455243313135356044820152732932b1b2b4bb32b91034b6b83632b6b2b73a32b960611b606482015260840161063c565b6001600160e01b0319811663f23a6e6160e01b146113ef5760405162461bcd60e51b815260040161063c90612aa2565b6001600160a01b0384163b1561167a5760405163bc197c8160e01b81526001600160a01b0385169063bc197c8190611e819089908990889088908890600401612aea565b6020604051808303816000875af1925050508015611ebc575060408051601f3d908101601f19168201909252611eb9918101906129e0565b60015b611ec857611d6d6129fd565b6001600160e01b0319811663bc197c8160e01b146113ef5760405162461bcd60e51b815260040161063c90612aa2565b6001600160a01b038116811461117457600080fd5b60008060408385031215611f2057600080fd5b8235611f2b81611ef8565b946020939093013593505050565b6001600160e01b03198116811461117457600080fd5b600060208284031215611f6157600080fd5b8135611f6c81611f39565b9392505050565b60005b83811015611f8e578181015183820152602001611f76565b50506000910152565b60008151808452611faf816020860160208601611f73565b601f01601f19169290920160200192915050565b602081526000611f6c6020830184611f97565b600060208284031215611fe857600080fd5b8135611f6c81611ef8565b60006020828403121561200557600080fd5b5035919050565b634e487b7160e01b600052604160045260246000fd5b601f8201601f191681016001600160401b03811182821017156120475761204761200c565b6040525050565b60006001600160401b038211156120675761206761200c565b5060051b60200190565b600082601f83011261208257600080fd5b8135602061208f8261204e565b60405161209c8282612022565b83815260059390931b85018201928281019150868411156120bc57600080fd5b8286015b848110156120d757803583529183019183016120c0565b509695505050505050565b6000806000606084860312156120f757600080fd5b833561210281611ef8565b925060208401356001600160401b038082111561211e57600080fd5b61212a87838801612071565b9350604086013591508082111561214057600080fd5b5061214d86828701612071565b9150509250925092565b6000806040838503121561216a57600080fd5b82359150602083013561217c81611ef8565b809150509250929050565b60006001600160401b038311156121a0576121a061200c565b6040516121b7601f8501601f191660200182612022565b8091508381528484840111156121cc57600080fd5b83836020830137600060208583010152509392505050565b600082601f8301126121f557600080fd5b611f6c83833560208501612187565b600080600080600060a0868803121561221c57600080fd5b853561222781611ef8565b9450602086013561223781611ef8565b935060408601356001600160401b038082111561225357600080fd5b61225f89838a01612071565b9450606088013591508082111561227557600080fd5b61228189838a01612071565b9350608088013591508082111561229757600080fd5b506122a4888289016121e4565b9150509295509295909350565b600080604083850312156122c457600080fd5b82356001600160401b03808211156122db57600080fd5b818501915085601f8301126122ef57600080fd5b813560206122fc8261204e565b6040516123098282612022565b83815260059390931b850182019282810191508984111561232957600080fd5b948201945b8386101561235057853561234181611ef8565b8252948201949082019061232e565b9650508601359250508082111561236657600080fd5b5061237385828601612071565b9150509250929050565b600081518084526020808501945080840160005b838110156123ad57815187529582019590820190600101612391565b509495945050505050565b602081526000611f6c602083018461237d565b6000602082840312156123dd57600080fd5b81356001600160401b038111156123f357600080fd5b8201601f8101841361240457600080fd5b6110b184823560208401612187565b6000806040838503121561242657600080fd5b823561243181611ef8565b91506020830135801515811461217c57600080fd5b60008060006060848603121561245b57600080fd5b83356001600160401b038082111561247257600080fd5b61247e87838801612071565b9450602086013591508082111561249457600080fd5b506124a186828701612071565b92505060408401356124b281611ef8565b809150509250925092565b600080604083850312156124d057600080fd5b82356124db81611ef8565b9150602083013561217c81611ef8565b600080600080600060a0868803121561250357600080fd5b853561250e81611ef8565b9450602086013561251e81611ef8565b9350604086013592506060860135915060808601356001600160401b0381111561254757600080fd5b6122a4888289016121e4565b600181811c9082168061256757607f821691505b60208210810361258757634e487b7160e01b600052602260045260246000fd5b50919050565b6020808252601d908201527f50726f76696465642074797065206973206e6f7420706f69736f6e6564000000604082015260600190565b60008084546125d281612553565b600182811680156125ea57600181146125ff5761262e565b60ff198416875282151583028701945061262e565b8860005260208060002060005b858110156126255781548a82015290840190820161260c565b50505082870194505b505050508351612642818360208801611f73565b01949350505050565b6020808252600c908201526b5a65726f206164647265737360a01b604082015260600190565b634e487b7160e01b600052603260045260246000fd5b634e487b7160e01b600052601160045260246000fd5b6000600182016126af576126af612687565b5060010190565b6020808252602e908201527f455243313135353a2063616c6c6572206973206e6f7420746f6b656e206f776e60408201526d195c881bdc88185c1c1c9bdd995960921b606082015260800190565b601f821115610b4a57600081815260208120601f850160051c8101602086101561272b5750805b601f850160051c820191505b8181101561167a57828155600101612737565b81516001600160401b038111156127635761276361200c565b612777816127718454612553565b84612704565b602080601f8311600181146127ac57600084156127945750858301515b600019600386901b1c1916600185901b17855561167a565b600085815260208120601f198616915b828110156127db578886015182559484019460019091019084016127bc565b50858210156127f95787850151600019600388901b60f8161c191681555b5050505050600190811b01905550565b6000825161281b818460208701611f73565b9190910192915050565b60006020828403121561283757600080fd5b8151611f6c81611ef8565b60208082526021908201527f455243313135353a206d696e7420746f20746865207a65726f206164647265736040820152607360f81b606082015260800190565b8082018082111561066857610668612687565b60208082526028908201527f455243313135353a2069647320616e6420616d6f756e7473206c656e677468206040820152670dad2e6dac2e8c6d60c31b606082015260800190565b60208082526025908201527f455243313135353a207472616e7366657220746f20746865207a65726f206164604082015264647265737360d81b606082015260800190565b6020808252602a908201527f455243313135353a20696e73756666696369656e742062616c616e636520666f60408201526939103a3930b739b332b960b11b606082015260800190565b604081526000612980604083018561237d565b8281036020840152612992818561237d565b95945050505050565b6001600160a01b03868116825285166020820152604081018490526060810183905260a0608082018190526000906129d590830184611f97565b979650505050505050565b6000602082840312156129f257600080fd5b8151611f6c81611f39565b600060033d1115612a165760046000803e5060005160e01c5b90565b600060443d1015612a275790565b6040516003193d81016004833e81513d6001600160401b038160248401118184111715612a5657505050505090565b8285019150815181811115612a6e5750505050505090565b843d8701016020828501011115612a885750505050505090565b612a9760208286010187612022565b509095945050505050565b60208082526028908201527f455243313135353a204552433131353552656365697665722072656a656374656040820152676420746f6b656e7360c01b606082015260800190565b6001600160a01b0386811682528516602082015260a060408201819052600090612b169083018661237d565b8281036060840152612b28818661237d565b90508281036080840152612b3c8185611f97565b9897505050505050505056fea264697066735822122036e8ae58f0a5b9fce5c895cd36a05c89f6bbbd400feead6d8364b52e123d4aaf64736f6c6343000811003368747470733a2f2f7072696d65617065706c616e65742e636f6d2f62616e616e61732f",
  "linkReferences": {},
  "deployedLinkReferences": {}
}