{
  "_format": "hh-sol-artifact-1",
  "contractName": "PrimeBabyDragon",
  "sourceName": "src/backend/contracts/PrimeBabyDragon.sol",
  "abi": [
    {
      "inputs": [],
      "stateMutability": "nonpayable",
      "type": "constructor"
    },
    {
      "inputs": [
        {
          "internalType": "address",
          "name": "operator",
          "type": "address"
        }
      ],
      "name": "OperatorNotAllowed",
      "type": "error"
    },
    {
      "anonymous": false,
      "inputs": [
        {
          "indexed": true,
          "internalType": "address",
          "name": "owner",
          "type": "address"
        },
        {
          "indexed": true,
          "internalType": "address",
          "name": "approved",
          "type": "address"
        },
        {
          "indexed": true,
          "internalType": "uint256",
          "name": "tokenId",
          "type": "uint256"
        }
      ],
      "name": "Approval",
      "type": "event"
    },
    {
      "anonymous": false,
      "inputs": [
        {
          "indexed": true,
          "internalType": "address",
          "name": "owner",
          "type": "address"
        },
        {
          "indexed": true,
          "internalType": "address",
          "name": "operator",
          "type": "address"
        },
        {
          "indexed": false,
          "internalType": "bool",
          "name": "approved",
          "type": "bool"
        }
      ],
      "name": "ApprovalForAll",
      "type": "event"
    },
    {
      "anonymous": false,
      "inputs": [
        {
          "indexed": false,
          "internalType": "address",
          "name": "user",
          "type": "address"
        },
        {
          "indexed": false,
          "internalType": "uint256",
          "name": "tokenId",
          "type": "uint256"
        },
        {
          "indexed": false,
          "internalType": "bool",
          "name": "isAlpha",
          "type": "bool"
        }
      ],
      "name": "MintSuccessful",
      "type": "event"
    },
    {
      "anonymous": false,
      "inputs": [
        {
          "indexed": true,
          "internalType": "address",
          "name": "previousOwner",
          "type": "address"
        },
        {
          "indexed": true,
          "internalType": "address",
          "name": "newOwner",
          "type": "address"
        }
      ],
      "name": "OwnershipTransferred",
      "type": "event"
    },
    {
      "anonymous": false,
      "inputs": [
        {
          "indexed": true,
          "internalType": "address",
          "name": "from",
          "type": "address"
        },
        {
          "indexed": true,
          "internalType": "address",
          "name": "to",
          "type": "address"
        },
        {
          "indexed": true,
          "internalType": "uint256",
          "name": "tokenId",
          "type": "uint256"
        }
      ],
      "name": "Transfer",
      "type": "event"
    },
    {
      "inputs": [
        {
          "internalType": "address",
          "name": "_user",
          "type": "address"
        }
      ],
      "name": "airdrop",
      "outputs": [],
      "stateMutability": "nonpayable",
      "type": "function"
    },
    {
      "inputs": [
        {
          "internalType": "uint256",
          "name": "",
          "type": "uint256"
        }
      ],
      "name": "alphaIds",
      "outputs": [
        {
          "internalType": "uint256",
          "name": "",
          "type": "uint256"
        }
      ],
      "stateMutability": "view",
      "type": "function"
    },
    {
      "inputs": [],
      "name": "alphaSupply",
      "outputs": [
        {
          "internalType": "uint256",
          "name": "",
          "type": "uint256"
        }
      ],
      "stateMutability": "view",
      "type": "function"
    },
    {
      "inputs": [],
      "name": "alphaUri",
      "outputs": [
        {
          "internalType": "string",
          "name": "",
          "type": "string"
        }
      ],
      "stateMutability": "view",
      "type": "function"
    },
    {
      "inputs": [
        {
          "internalType": "address",
          "name": "to",
          "type": "address"
        },
        {
          "internalType": "uint256",
          "name": "tokenId",
          "type": "uint256"
        }
      ],
      "name": "approve",
      "outputs": [],
      "stateMutability": "nonpayable",
      "type": "function"
    },
    {
      "inputs": [
        {
          "internalType": "address",
          "name": "owner",
          "type": "address"
        }
      ],
      "name": "balanceOf",
      "outputs": [
        {
          "internalType": "uint256",
          "name": "",
          "type": "uint256"
        }
      ],
      "stateMutability": "view",
      "type": "function"
    },
    {
      "inputs": [],
      "name": "baseURIString",
      "outputs": [
        {
          "internalType": "string",
          "name": "",
          "type": "string"
        }
      ],
      "stateMutability": "view",
      "type": "function"
    },
    {
      "inputs": [],
      "name": "contractURI",
      "outputs": [
        {
          "internalType": "string",
          "name": "",
          "type": "string"
        }
      ],
      "stateMutability": "pure",
      "type": "function"
    },
    {
      "inputs": [],
      "name": "currentPhase",
      "outputs": [
        {
          "internalType": "uint256",
          "name": "",
          "type": "uint256"
        }
      ],
      "stateMutability": "view",
      "type": "function"
    },
    {
      "inputs": [],
      "name": "getAlphaIds",
      "outputs": [
        {
          "internalType": "uint256[]",
          "name": "",
          "type": "uint256[]"
        }
      ],
      "stateMutability": "view",
      "type": "function"
    },
    {
      "inputs": [
        {
          "internalType": "uint256",
          "name": "tokenId",
          "type": "uint256"
        }
      ],
      "name": "getApproved",
      "outputs": [
        {
          "internalType": "address",
          "name": "",
          "type": "address"
        }
      ],
      "stateMutability": "view",
      "type": "function"
    },
    {
      "inputs": [
        {
          "internalType": "uint256",
          "name": "_tokenId",
          "type": "uint256"
        }
      ],
      "name": "isAlpha",
      "outputs": [
        {
          "internalType": "bool",
          "name": "",
          "type": "bool"
        }
      ],
      "stateMutability": "view",
      "type": "function"
    },
    {
      "inputs": [
        {
          "internalType": "address",
          "name": "owner",
          "type": "address"
        },
        {
          "internalType": "address",
          "name": "operator",
          "type": "address"
        }
      ],
      "name": "isApprovedForAll",
      "outputs": [
        {
          "internalType": "bool",
          "name": "",
          "type": "bool"
        }
      ],
      "stateMutability": "view",
      "type": "function"
    },
    {
      "inputs": [],
      "name": "maxSupply",
      "outputs": [
        {
          "internalType": "uint256",
          "name": "",
          "type": "uint256"
        }
      ],
      "stateMutability": "view",
      "type": "function"
    },
    {
      "inputs": [
        {
          "internalType": "address",
          "name": "_user",
          "type": "address"
        },
        {
          "internalType": "uint256",
          "name": "_additionalChanceForAlpha",
          "type": "uint256"
        }
      ],
      "name": "mintTo",
      "outputs": [
        {
          "internalType": "uint256",
          "name": "",
          "type": "uint256"
        }
      ],
      "stateMutability": "nonpayable",
      "type": "function"
    },
    {
      "inputs": [],
      "name": "mintingEnabled",
      "outputs": [
        {
          "internalType": "bool",
          "name": "",
          "type": "bool"
        }
      ],
      "stateMutability": "view",
      "type": "function"
    },
    {
      "inputs": [],
      "name": "name",
      "outputs": [
        {
          "internalType": "string",
          "name": "",
          "type": "string"
        }
      ],
      "stateMutability": "view",
      "type": "function"
    },
    {
      "inputs": [],
      "name": "owner",
      "outputs": [
        {
          "internalType": "address",
          "name": "",
          "type": "address"
        }
      ],
      "stateMutability": "view",
      "type": "function"
    },
    {
      "inputs": [
        {
          "internalType": "uint256",
          "name": "tokenId",
          "type": "uint256"
        }
      ],
      "name": "ownerOf",
      "outputs": [
        {
          "internalType": "address",
          "name": "",
          "type": "address"
        }
      ],
      "stateMutability": "view",
      "type": "function"
    },
    {
      "inputs": [],
      "name": "phase1Supply",
      "outputs": [
        {
          "internalType": "uint256",
          "name": "",
          "type": "uint256"
        }
      ],
      "stateMutability": "view",
      "type": "function"
    },
    {
      "inputs": [],
      "name": "primeApeBurnerAddress",
      "outputs": [
        {
          "internalType": "address",
          "name": "",
          "type": "address"
        }
      ],
      "stateMutability": "view",
      "type": "function"
    },
    {
      "inputs": [],
      "name": "renounceOwnership",
      "outputs": [],
      "stateMutability": "nonpayable",
      "type": "function"
    },
    {
      "inputs": [],
      "name": "revealed",
      "outputs": [
        {
          "internalType": "bool",
          "name": "",
          "type": "bool"
        }
      ],
      "stateMutability": "view",
      "type": "function"
    },
    {
      "inputs": [
        {
          "internalType": "address",
          "name": "from",
          "type": "address"
        },
        {
          "internalType": "address",
          "name": "to",
          "type": "address"
        },
        {
          "internalType": "uint256",
          "name": "tokenId",
          "type": "uint256"
        }
      ],
      "name": "safeTransferFrom",
      "outputs": [],
      "stateMutability": "nonpayable",
      "type": "function"
    },
    {
      "inputs": [
        {
          "internalType": "address",
          "name": "from",
          "type": "address"
        },
        {
          "internalType": "address",
          "name": "to",
          "type": "address"
        },
        {
          "internalType": "uint256",
          "name": "tokenId",
          "type": "uint256"
        },
        {
          "internalType": "bytes",
          "name": "data",
          "type": "bytes"
        }
      ],
      "name": "safeTransferFrom",
      "outputs": [],
      "stateMutability": "nonpayable",
      "type": "function"
    },
    {
      "inputs": [
        {
          "internalType": "address",
          "name": "operator",
          "type": "address"
        },
        {
          "internalType": "bool",
          "name": "approved",
          "type": "bool"
        }
      ],
      "name": "setApprovalForAll",
      "outputs": [],
      "stateMutability": "nonpayable",
      "type": "function"
    },
    {
      "inputs": [
        {
          "internalType": "string",
          "name": "_newBaseURI",
          "type": "string"
        }
      ],
      "name": "setBaseURI",
      "outputs": [],
      "stateMutability": "nonpayable",
      "type": "function"
    },
    {
      "inputs": [
        {
          "internalType": "address",
          "name": "_primeApeBurnerAddress",
          "type": "address"
        }
      ],
      "name": "setBurnerContract",
      "outputs": [],
      "stateMutability": "nonpayable",
      "type": "function"
    },
    {
      "inputs": [
        {
          "internalType": "bool",
          "name": "_mintingEnabled",
          "type": "bool"
        }
      ],
      "name": "setMintingEnabled",
      "outputs": [],
      "stateMutability": "nonpayable",
      "type": "function"
    },
    {
      "inputs": [
        {
          "internalType": "uint256",
          "name": "_phase",
          "type": "uint256"
        }
      ],
      "name": "setPhase",
      "outputs": [],
      "stateMutability": "nonpayable",
      "type": "function"
    },
    {
      "inputs": [
        {
          "internalType": "bool",
          "name": "_revealed",
          "type": "bool"
        }
      ],
      "name": "setRevealed",
      "outputs": [],
      "stateMutability": "nonpayable",
      "type": "function"
    },
    {
      "inputs": [
        {
          "internalType": "bytes4",
          "name": "interfaceId",
          "type": "bytes4"
        }
      ],
      "name": "supportsInterface",
      "outputs": [
        {
          "internalType": "bool",
          "name": "",
          "type": "bool"
        }
      ],
      "stateMutability": "view",
      "type": "function"
    },
    {
      "inputs": [],
      "name": "symbol",
      "outputs": [
        {
          "internalType": "string",
          "name": "",
          "type": "string"
        }
      ],
      "stateMutability": "view",
      "type": "function"
    },
    {
      "inputs": [
        {
          "internalType": "uint256",
          "name": "index",
          "type": "uint256"
        }
      ],
      "name": "tokenByIndex",
      "outputs": [
        {
          "internalType": "uint256",
          "name": "",
          "type": "uint256"
        }
      ],
      "stateMutability": "view",
      "type": "function"
    },
    {
      "inputs": [
        {
          "internalType": "address",
          "name": "owner",
          "type": "address"
        },
        {
          "internalType": "uint256",
          "name": "index",
          "type": "uint256"
        }
      ],
      "name": "tokenOfOwnerByIndex",
      "outputs": [
        {
          "internalType": "uint256",
          "name": "",
          "type": "uint256"
        }
      ],
      "stateMutability": "view",
      "type": "function"
    },
    {
      "inputs": [
        {
          "internalType": "uint256",
          "name": "_tokenId",
          "type": "uint256"
        }
      ],
      "name": "tokenURI",
      "outputs": [
        {
          "internalType": "string",
          "name": "",
          "type": "string"
        }
      ],
      "stateMutability": "view",
      "type": "function"
    },
    {
      "inputs": [],
      "name": "totalSupply",
      "outputs": [
        {
          "internalType": "uint256",
          "name": "",
          "type": "uint256"
        }
      ],
      "stateMutability": "view",
      "type": "function"
    },
    {
      "inputs": [
        {
          "internalType": "address",
          "name": "from",
          "type": "address"
        },
        {
          "internalType": "address",
          "name": "to",
          "type": "address"
        },
        {
          "internalType": "uint256",
          "name": "tokenId",
          "type": "uint256"
        }
      ],
      "name": "transferFrom",
      "outputs": [],
      "stateMutability": "nonpayable",
      "type": "function"
    },
    {
      "inputs": [
        {
          "internalType": "address",
          "name": "newOwner",
          "type": "address"
        }
      ],
      "name": "transferOwnership",
      "outputs": [],
      "stateMutability": "nonpayable",
      "type": "function"
    }
  ],
  "bytecode": "0x610457600c5561022b600d556001600e55600b600f55610100604052604260808181529062002c1260a0396011906200003990826200034f565b5060405180608001604052806042815260200162002bd0604291396012906200006390826200034f565b503480156200007157600080fd5b50733cc6cdda760b79bafa08df41ecfa224f810dceb6600160405180604001604052806011815260200170283934b6b2902130b13c90223930b3b7b760791b8152506040518060400160405280600381526020016214109160ea1b815250620000e9620000e36200025660201b60201c565b6200025a565b6001620000f783826200034f565b5060026200010682826200034f565b5050506daaeb6d7670e522a718067333cd4e3b156200024e5780156200019c57604051633e9f1edf60e11b81523060048201526001600160a01b03831660248201526daaeb6d7670e522a718067333cd4e90637d3e3dbe906044015b600060405180830381600087803b1580156200017d57600080fd5b505af115801562000192573d6000803e3d6000fd5b505050506200024e565b6001600160a01b03821615620001ed5760405163a0af290360e01b81523060048201526001600160a01b03831660248201526daaeb6d7670e522a718067333cd4e9063a0af29039060440162000162565b604051632210724360e11b81523060048201526daaeb6d7670e522a718067333cd4e90634420e48690602401600060405180830381600087803b1580156200023457600080fd5b505af115801562000249573d6000803e3d6000fd5b505050505b50506200041b565b3390565b600080546001600160a01b038381166001600160a01b0319831681178455604051919092169283917f8be0079c531659141344cd1fd0a4f28419497f9722a3daafe3b4186f6b6457e09190a35050565b634e487b7160e01b600052604160045260246000fd5b600181811c90821680620002d557607f821691505b602082108103620002f657634e487b7160e01b600052602260045260246000fd5b50919050565b601f8211156200034a57600081815260208120601f850160051c81016020861015620003255750805b601f850160051c820191505b81811015620003465782815560010162000331565b5050505b505050565b81516001600160401b038111156200036b576200036b620002aa565b62000383816200037c8454620002c0565b84620002fc565b602080601f831160018114620003bb5760008415620003a25750858301515b600019600386901b1c1916600185901b17855562000346565b600085815260208120601f198616915b82811015620003ec57888601518255948401946001909101908401620003cb565b50858210156200040b5787850151600019600388901b60f8161c191681555b5050505050600190811b01905550565b6127a5806200042b6000396000f3fe608060405234801561001057600080fd5b506004361061023d5760003560e01c80636352211e1161013b578063a22cb465116100b8578063d5abeb011161007c578063d5abeb01146104ab578063e0a80853146104b4578063e8a3d485146104c7578063e985e9c5146104cf578063f2fde38b1461050b57600080fd5b8063a22cb46514610455578063b88d4fde14610468578063c33ee7f21461047b578063c87b56dd14610490578063cf76a153146104a357600080fd5b80637157a697116100ff5780637157a6971461040e5780637244cf90146104175780638da5cb5b1461042a57806395d89b411461043b5780639fd6db121461044357600080fd5b80636352211e146103c5578063674ca522146103d85780636fb747a1146103eb57806370a08231146103f3578063715018a61461040657600080fd5b806323b872dd116101c95780634d40a9b21161018d5780634d40a9b21461036c5780634ea3871a1461037f5780634f6ccce71461039257806351830227146103a557806355f804b3146103b257600080fd5b806323b872dd1461030d5780632cc82655146103205780632f745c591461033357806342842e0e14610346578063449a52f81461035957600080fd5b8063095ea7b311610210578063095ea7b3146102c157806318160ddd146102d65780631e5526d0146102de578063205a1d8c146102f157806321860a05146102fa57600080fd5b806301ffc9a714610242578063055ad42e1461026a57806306fdde0314610281578063081812fc14610296575b600080fd5b61025561025036600461207b565b61051e565b60405190151581526020015b60405180910390f35b610273600e5481565b604051908152602001610261565b610289610549565b60405161026191906120e8565b6102a96102a43660046120fb565b6105db565b6040516001600160a01b039091168152602001610261565b6102d46102cf366004612130565b610602565b005b600954610273565b6102736102ec3660046120fb565b61071c565b610273600d5481565b6102d461030836600461215a565b61073d565b6102d461031b366004612175565b610760565b6102d461032e3660046120fb565b6108bc565b610273610341366004612130565b6108c9565b6102d4610354366004612175565b61095f565b610273610367366004612130565b610ab0565b61025561037a3660046120fb565b610d28565b6102d461038d3660046121bf565b610d78565b6102736103a03660046120fb565b610d9a565b6010546102559060ff1681565b6102d46103c0366004612268565b610e2d565b6102a96103d33660046120fb565b610e41565b6102d46103e636600461215a565b610ea1565b610289610ecb565b61027361040136600461215a565b610f59565b6102d4610fdf565b610273600f5481565b600b546102a9906001600160a01b031681565b6000546001600160a01b03166102a9565b610289610ff3565b60105461025590610100900460ff1681565b6102d46104633660046122b1565b611002565b6102d46104763660046122e8565b61100d565b61048361116c565b6040516102619190612364565b61028961049e3660046120fb565b6111c3565b61028961134a565b610273600c5481565b6102d46104c23660046121bf565b611357565b610289611372565b6102556104dd3660046123a8565b6001600160a01b03918216600090815260066020908152604080832093909416825291909152205460ff1690565b6102d461051936600461215a565b611392565b60006001600160e01b0319821663780e9d6360e01b148061054357506105438261140b565b92915050565b606060018054610558906123db565b80601f0160208091040260200160405190810160405280929190818152602001828054610584906123db565b80156105d15780601f106105a6576101008083540402835291602001916105d1565b820191906000526020600020905b8154815290600101906020018083116105b457829003601f168201915b5050505050905090565b60006105e68261145b565b506000908152600560205260409020546001600160a01b031690565b600061060d82610e41565b9050806001600160a01b0316836001600160a01b03160361067f5760405162461bcd60e51b815260206004820152602160248201527f4552433732313a20617070726f76616c20746f2063757272656e74206f776e656044820152603960f91b60648201526084015b60405180910390fd5b336001600160a01b038216148061069b575061069b81336104dd565b61070d5760405162461bcd60e51b815260206004820152603d60248201527f4552433732313a20617070726f76652063616c6c6572206973206e6f7420746f60448201527f6b656e206f776e6572206f7220617070726f76656420666f7220616c6c0000006064820152608401610676565b61071783836114ba565b505050565b6013818154811061072c57600080fd5b600091825260209091200154905081565b610745611528565b600061075060095490565b905061075c8282611582565b5050565b826daaeb6d7670e522a718067333cd4e3b156108ab57336001600160a01b038216036107965761079184848461171b565b6108b6565b604051633185c44d60e21b81523060048201523360248201526daaeb6d7670e522a718067333cd4e9063c617113490604401602060405180830381865afa1580156107e5573d6000803e3d6000fd5b505050506040513d601f19601f820116820180604052508101906108099190612415565b801561088c5750604051633185c44d60e21b81523060048201526001600160a01b03821660248201526daaeb6d7670e522a718067333cd4e9063c617113490604401602060405180830381865afa158015610868573d6000803e3d6000fd5b505050506040513d601f19601f8201168201806040525081019061088c9190612415565b6108ab57604051633b79c77360e21b8152336004820152602401610676565b6108b684848461171b565b50505050565b6108c4611528565b600e55565b60006108d483610f59565b82106109365760405162461bcd60e51b815260206004820152602b60248201527f455243373231456e756d657261626c653a206f776e657220696e646578206f7560448201526a74206f6620626f756e647360a81b6064820152608401610676565b506001600160a01b03919091166000908152600760209081526040808320938352929052205490565b826daaeb6d7670e522a718067333cd4e3b15610aa557336001600160a01b038216036109905761079184848461174c565b604051633185c44d60e21b81523060048201523360248201526daaeb6d7670e522a718067333cd4e9063c617113490604401602060405180830381865afa1580156109df573d6000803e3d6000fd5b505050506040513d601f19601f82011682018060405250810190610a039190612415565b8015610a865750604051633185c44d60e21b81523060048201526001600160a01b03821660248201526daaeb6d7670e522a718067333cd4e9063c617113490604401602060405180830381865afa158015610a62573d6000803e3d6000fd5b505050506040513d601f19601f82011682018060405250810190610a869190612415565b610aa557604051633b79c77360e21b8152336004820152602401610676565b6108b684848461174c565b600033610aee5760405162461bcd60e51b815260206004820152600c60248201526b5a65726f206164647265737360a01b6044820152606401610676565b600b546001600160a01b0316331480610b1157506000546001600160a01b031633145b610b515760405162461bcd60e51b815260206004820152601160248201527029b2b73232b9103737ba10313ab93732b960791b6044820152606401610676565b601054610100900460ff16610ba15760405162461bcd60e51b8152602060048201526016602482015275135a5b9d1a5b99c81a5cc81b9bdd08195b98589b195960521b6044820152606401610676565b600d546009541080610bb557506001600e54115b610c0d5760405162461bcd60e51b8152602060048201526024808201527f43616e6e6f74206d696e74206d6f7265207468616e207068617365203120737560448201526370706c7960e01b6064820152608401610676565b600c5460095410610c605760405162461bcd60e51b815260206004820181905260248201527f43616e6e6f74206d696e74206d6f7265207468616e206d617820737570706c796044820152606401610676565b6000610c6b60095490565b9050610c778482611582565b60008315610cdf57600f546013541015610cdf57836064610c96611767565b610ca09190612432565b1090508015610cdf57601380546001810182556000919091527f66de8ffda797e3de9c05e8fc57b3bf0ec28a930d40b0d285d93c06501cf6a090018290555b60408051338152602081018490528215158183015290517fc2341d2f54cec9e0822a3c92ff2d56b6638f00998c6ddd4417c59b6b32fb1f8d9181900360600190a1509392505050565b601354600090815b81811015610d6e5760138181548110610d4b57610d4b612454565b90600052602060002001548403610d66575060019392505050565b600101610d30565b5060009392505050565b610d80611528565b601080549115156101000261ff0019909216919091179055565b6000610da560095490565b8210610e085760405162461bcd60e51b815260206004820152602c60248201527f455243373231456e756d657261626c653a20676c6f62616c20696e646578206f60448201526b7574206f6620626f756e647360a01b6064820152608401610676565b60098281548110610e1b57610e1b612454565b90600052602060002001549050919050565b610e35611528565b601161075c82826124b8565b6000818152600360205260408120546001600160a01b0316806105435760405162461bcd60e51b8152602060048201526018602482015277115490cdcc8c4e881a5b9d985b1a59081d1bdad95b88125160421b6044820152606401610676565b610ea9611528565b600b80546001600160a01b0319166001600160a01b0392909216919091179055565b60128054610ed8906123db565b80601f0160208091040260200160405190810160405280929190818152602001828054610f04906123db565b8015610f515780601f10610f2657610100808354040283529160200191610f51565b820191906000526020600020905b815481529060010190602001808311610f3457829003601f168201915b505050505081565b60006001600160a01b038216610fc35760405162461bcd60e51b815260206004820152602960248201527f4552433732313a2061646472657373207a65726f206973206e6f7420612076616044820152683634b21037bbb732b960b91b6064820152608401610676565b506001600160a01b031660009081526004602052604090205490565b610fe7611528565b610ff160006117bf565b565b606060028054610558906123db565b61075c33838361180f565b836daaeb6d7670e522a718067333cd4e3b1561115957336001600160a01b038216036110445761103f858585856118dd565b611165565b604051633185c44d60e21b81523060048201523360248201526daaeb6d7670e522a718067333cd4e9063c617113490604401602060405180830381865afa158015611093573d6000803e3d6000fd5b505050506040513d601f19601f820116820180604052508101906110b79190612415565b801561113a5750604051633185c44d60e21b81523060048201526001600160a01b03821660248201526daaeb6d7670e522a718067333cd4e9063c617113490604401602060405180830381865afa158015611116573d6000803e3d6000fd5b505050506040513d601f19601f8201168201806040525081019061113a9190612415565b61115957604051633b79c77360e21b8152336004820152602401610676565b611165858585856118dd565b5050505050565b606060138054806020026020016040519081016040528092919081815260200182805480156105d157602002820191906000526020600020905b8154815260200190600101908083116111a6575050505050905090565b6000818152600360205260409020546060906001600160a01b03166112425760405162461bcd60e51b815260206004820152602f60248201527f4552433732314d657461646174613a2055524920717565727920666f72206e6f60448201526e3732bc34b9ba32b73a103a37b5b2b760891b6064820152608401610676565b600061124c61190f565b60105490915060ff166112fa5761126283610d28565b156105435760128054611274906123db565b80601f01602080910402602001604051908101604052809291908181526020018280546112a0906123db565b80156112ed5780601f106112c2576101008083540402835291602001916112ed565b820191906000526020600020905b8154815290600101906020018083116112d057829003601f168201915b5050505050915050919050565b60008151116113185760405180602001604052806000815250611343565b806113228461191e565b604051602001611333929190612578565b6040516020818303038152906040525b9392505050565b60118054610ed8906123db565b61135f611528565b6010805460ff1916911515919091179055565b606060405180608001604052806043815260200161272d60439139905090565b61139a611528565b6001600160a01b0381166113ff5760405162461bcd60e51b815260206004820152602660248201527f4f776e61626c653a206e6577206f776e657220697320746865207a65726f206160448201526564647265737360d01b6064820152608401610676565b611408816117bf565b50565b60006001600160e01b031982166380ac58cd60e01b148061143c57506001600160e01b03198216635b5e139f60e01b145b8061054357506301ffc9a760e01b6001600160e01b0319831614610543565b6000818152600360205260409020546001600160a01b03166114085760405162461bcd60e51b8152602060048201526018602482015277115490cdcc8c4e881a5b9d985b1a59081d1bdad95b88125160421b6044820152606401610676565b600081815260056020526040902080546001600160a01b0319166001600160a01b03841690811790915581906114ef82610e41565b6001600160a01b03167f8c5be1e5ebec7d5bd14f71427d1e84f3dd0314c0f7b2291e5b200ac8c7c3b92560405160405180910390a45050565b6000546001600160a01b03163314610ff15760405162461bcd60e51b815260206004820181905260248201527f4f776e61626c653a2063616c6c6572206973206e6f7420746865206f776e65726044820152606401610676565b6001600160a01b0382166115d85760405162461bcd60e51b815260206004820181905260248201527f4552433732313a206d696e7420746f20746865207a65726f20616464726573736044820152606401610676565b6000818152600360205260409020546001600160a01b03161561163d5760405162461bcd60e51b815260206004820152601c60248201527f4552433732313a20746f6b656e20616c7265616479206d696e746564000000006044820152606401610676565b61164b6000838360016119b1565b6000818152600360205260409020546001600160a01b0316156116b05760405162461bcd60e51b815260206004820152601c60248201527f4552433732313a20746f6b656e20616c7265616479206d696e746564000000006044820152606401610676565b6001600160a01b038216600081815260046020908152604080832080546001019055848352600390915280822080546001600160a01b0319168417905551839291907fddf252ad1be2c89b69c2b068fc378daa952ba7f163c4a11628f55a4df523b3ef908290a45050565b6117253382611ad9565b6117415760405162461bcd60e51b8152600401610676906125b7565b610717838383611b58565b6107178383836040518060200160405280600081525061100d565b600033611775600143612604565b60405160609290921b6bffffffffffffffffffffffff191660208301524060348201524460548201526074016040516020818303038152906040528051906020012060001c905090565b600080546001600160a01b038381166001600160a01b0319831681178455604051919092169283917f8be0079c531659141344cd1fd0a4f28419497f9722a3daafe3b4186f6b6457e09190a35050565b816001600160a01b0316836001600160a01b0316036118705760405162461bcd60e51b815260206004820152601960248201527f4552433732313a20617070726f766520746f2063616c6c6572000000000000006044820152606401610676565b6001600160a01b03838116600081815260066020908152604080832094871680845294825291829020805460ff191686151590811790915591519182527f17307eab39ab6107e8899845ad3d59bd9653f200f220920489ca2b5937696c31910160405180910390a3505050565b6118e73383611ad9565b6119035760405162461bcd60e51b8152600401610676906125b7565b6108b684848484611cc9565b606060118054610558906123db565b6060600061192b83611cfc565b600101905060008167ffffffffffffffff81111561194b5761194b6121dc565b6040519080825280601f01601f191660200182016040528015611975576020820181803683370190505b5090508181016020015b600019016f181899199a1a9b1b9c1cb0b131b232b360811b600a86061a8153600a850494508461197f57509392505050565b6001811115611a205760405162461bcd60e51b815260206004820152603560248201527f455243373231456e756d657261626c653a20636f6e7365637574697665207472604482015274185b9cd9995c9cc81b9bdd081cdd5c1c1bdc9d1959605a1b6064820152608401610676565b816001600160a01b038516611a7c57611a7781600980546000838152600a60205260408120829055600182018355919091527f6e1540171b6c0c960b71a7020d9f60077f6af931a8bbf590da0223dacf75c7af0155565b611a9f565b836001600160a01b0316856001600160a01b031614611a9f57611a9f8582611dd4565b6001600160a01b038416611ab65761103f81611e71565b846001600160a01b0316846001600160a01b031614611165576111658482611f20565b600080611ae583610e41565b9050806001600160a01b0316846001600160a01b03161480611b2c57506001600160a01b0380821660009081526006602090815260408083209388168352929052205460ff165b80611b505750836001600160a01b0316611b45846105db565b6001600160a01b0316145b949350505050565b826001600160a01b0316611b6b82610e41565b6001600160a01b031614611b915760405162461bcd60e51b815260040161067690612625565b6001600160a01b038216611bf35760405162461bcd60e51b8152602060048201526024808201527f4552433732313a207472616e7366657220746f20746865207a65726f206164646044820152637265737360e01b6064820152608401610676565b611c0083838360016119b1565b826001600160a01b0316611c1382610e41565b6001600160a01b031614611c395760405162461bcd60e51b815260040161067690612625565b600081815260056020908152604080832080546001600160a01b03199081169091556001600160a01b0387811680865260048552838620805460001901905590871680865283862080546001019055868652600390945282852080549092168417909155905184937fddf252ad1be2c89b69c2b068fc378daa952ba7f163c4a11628f55a4df523b3ef91a4505050565b611cd4848484611b58565b611ce084848484611f64565b6108b65760405162461bcd60e51b81526004016106769061266a565b60008072184f03e93ff9f4daa797ed6e38ed64bf6a1f0160401b8310611d3b5772184f03e93ff9f4daa797ed6e38ed64bf6a1f0160401b830492506040015b6d04ee2d6d415b85acef81000000008310611d67576d04ee2d6d415b85acef8100000000830492506020015b662386f26fc100008310611d8557662386f26fc10000830492506010015b6305f5e1008310611d9d576305f5e100830492506008015b6127108310611db157612710830492506004015b60648310611dc3576064830492506002015b600a83106105435760010192915050565b60006001611de184610f59565b611deb9190612604565b600083815260086020526040902054909150808214611e3e576001600160a01b03841660009081526007602090815260408083208584528252808320548484528184208190558352600890915290208190555b5060009182526008602090815260408084208490556001600160a01b039094168352600781528383209183525290812055565b600954600090611e8390600190612604565b6000838152600a602052604081205460098054939450909284908110611eab57611eab612454565b906000526020600020015490508060098381548110611ecc57611ecc612454565b6000918252602080832090910192909255828152600a90915260408082208490558582528120556009805480611f0457611f046126bc565b6001900381819060005260206000200160009055905550505050565b6000611f2b83610f59565b6001600160a01b039093166000908152600760209081526040808320868452825280832085905593825260089052919091209190915550565b60006001600160a01b0384163b1561205a57604051630a85bd0160e11b81526001600160a01b0385169063150b7a0290611fa89033908990889088906004016126d2565b6020604051808303816000875af1925050508015611fe3575060408051601f3d908101601f19168201909252611fe09181019061270f565b60015b612040573d808015612011576040519150601f19603f3d011682016040523d82523d6000602084013e612016565b606091505b5080516000036120385760405162461bcd60e51b81526004016106769061266a565b805181602001fd5b6001600160e01b031916630a85bd0160e11b149050611b50565b506001949350505050565b6001600160e01b03198116811461140857600080fd5b60006020828403121561208d57600080fd5b813561134381612065565b60005b838110156120b357818101518382015260200161209b565b50506000910152565b600081518084526120d4816020860160208601612098565b601f01601f19169290920160200192915050565b60208152600061134360208301846120bc565b60006020828403121561210d57600080fd5b5035919050565b80356001600160a01b038116811461212b57600080fd5b919050565b6000806040838503121561214357600080fd5b61214c83612114565b946020939093013593505050565b60006020828403121561216c57600080fd5b61134382612114565b60008060006060848603121561218a57600080fd5b61219384612114565b92506121a160208501612114565b9150604084013590509250925092565b801515811461140857600080fd5b6000602082840312156121d157600080fd5b8135611343816121b1565b634e487b7160e01b600052604160045260246000fd5b600067ffffffffffffffff8084111561220d5761220d6121dc565b604051601f8501601f19908116603f01168101908282118183101715612235576122356121dc565b8160405280935085815286868601111561224e57600080fd5b858560208301376000602087830101525050509392505050565b60006020828403121561227a57600080fd5b813567ffffffffffffffff81111561229157600080fd5b8201601f810184136122a257600080fd5b611b50848235602084016121f2565b600080604083850312156122c457600080fd5b6122cd83612114565b915060208301356122dd816121b1565b809150509250929050565b600080600080608085870312156122fe57600080fd5b61230785612114565b935061231560208601612114565b925060408501359150606085013567ffffffffffffffff81111561233857600080fd5b8501601f8101871361234957600080fd5b612358878235602084016121f2565b91505092959194509250565b6020808252825182820181905260009190848201906040850190845b8181101561239c57835183529284019291840191600101612380565b50909695505050505050565b600080604083850312156123bb57600080fd5b6123c483612114565b91506123d260208401612114565b90509250929050565b600181811c908216806123ef57607f821691505b60208210810361240f57634e487b7160e01b600052602260045260246000fd5b50919050565b60006020828403121561242757600080fd5b8151611343816121b1565b60008261244f57634e487b7160e01b600052601260045260246000fd5b500690565b634e487b7160e01b600052603260045260246000fd5b601f82111561071757600081815260208120601f850160051c810160208610156124915750805b601f850160051c820191505b818110156124b05782815560010161249d565b505050505050565b815167ffffffffffffffff8111156124d2576124d26121dc565b6124e6816124e084546123db565b8461246a565b602080601f83116001811461251b57600084156125035750858301515b600019600386901b1c1916600185901b1785556124b0565b600085815260208120601f198616915b8281101561254a5788860151825594840194600190910190840161252b565b50858210156125685787850151600019600388901b60f8161c191681555b5050505050600190811b01905550565b6000835161258a818460208801612098565b83519083019061259e818360208801612098565b64173539b7b760d91b9101908152600501949350505050565b6020808252602d908201527f4552433732313a2063616c6c6572206973206e6f7420746f6b656e206f776e6560408201526c1c881bdc88185c1c1c9bdd9959609a1b606082015260800190565b8181038181111561054357634e487b7160e01b600052601160045260246000fd5b60208082526025908201527f4552433732313a207472616e736665722066726f6d20696e636f72726563742060408201526437bbb732b960d91b606082015260800190565b60208082526032908201527f4552433732313a207472616e7366657220746f206e6f6e20455243373231526560408201527131b2b4bb32b91034b6b83632b6b2b73a32b960711b606082015260800190565b634e487b7160e01b600052603160045260246000fd5b6001600160a01b0385811682528416602082015260408101839052608060608201819052600090612705908301846120bc565b9695505050505050565b60006020828403121561272157600080fd5b81516113438161206556fe697066733a2f2f6261666b726569687668753573723537367135326c676f69616b746937356d3472366b767a736a7a32796a7066626b6d6a6836617a79336b796f342fa26469706673582212209682423bf52345448329bd4db8ccadb4fceb81ed8030a4e2982b6e645bbf8e0864736f6c63430008110033697066733a2f2f6261666b72656964786f3567786d64377168796566377a366c33676637736c32366f3336726c72796864786269357867797a7136336534626b3261697066733a2f2f6261666b7265696634777736667233346568333575676174696e74343379626769616e6773677875666d336c6e35656c6c70326b36366237707479",
  "linkReferences": {},
  "deployedLinkReferences": {}
}