{
  "_format": "hh-sol-artifact-1",
  "contractName": "PrimeApeBurner",
  "sourceName": "src/backend/contracts/PrimeApeBurner.sol",
  "abi": [
    {
      "inputs": [],
      "stateMutability": "nonpayable",
      "type": "constructor"
    },
    {
      "anonymous": false,
      "inputs": [
        {
          "indexed": false,
          "internalType": "address",
          "name": "user",
          "type": "address"
        },
        {
          "indexed": false,
          "internalType": "address",
          "name": "collectionAddress",
          "type": "address"
        },
        {
          "indexed": false,
          "internalType": "uint256",
          "name": "tokenId",
          "type": "uint256"
        },
        {
          "indexed": false,
          "internalType": "uint256",
          "name": "points",
          "type": "uint256"
        }
      ],
      "name": "BurnSuccessful",
      "type": "event"
    },
    {
      "anonymous": false,
      "inputs": [
        {
          "indexed": true,
          "internalType": "address",
          "name": "previousOwner",
          "type": "address"
        },
        {
          "indexed": true,
          "internalType": "address",
          "name": "newOwner",
          "type": "address"
        }
      ],
      "name": "OwnershipTransferred",
      "type": "event"
    },
    {
      "anonymous": false,
      "inputs": [
        {
          "indexed": false,
          "internalType": "address",
          "name": "user",
          "type": "address"
        },
        {
          "indexed": false,
          "internalType": "uint256",
          "name": "tokenId",
          "type": "uint256"
        }
      ],
      "name": "RedeemSuccessful",
      "type": "event"
    },
    {
      "inputs": [
        {
          "internalType": "address",
          "name": "",
          "type": "address"
        }
      ],
      "name": "additionalChanceForAlphaBabyPerAddress10",
      "outputs": [
        {
          "internalType": "uint256",
          "name": "",
          "type": "uint256"
        }
      ],
      "stateMutability": "view",
      "type": "function"
    },
    {
      "inputs": [
        {
          "internalType": "address",
          "name": "",
          "type": "address"
        }
      ],
      "name": "additionalChanceForAlphaBabyPerAddress25",
      "outputs": [
        {
          "internalType": "uint256",
          "name": "",
          "type": "uint256"
        }
      ],
      "stateMutability": "view",
      "type": "function"
    },
    {
      "inputs": [],
      "name": "alphaBabyBonusWindowDuration",
      "outputs": [
        {
          "internalType": "uint256",
          "name": "",
          "type": "uint256"
        }
      ],
      "stateMutability": "view",
      "type": "function"
    },
    {
      "inputs": [],
      "name": "alphaBabyBonusWindowStartTimestamp",
      "outputs": [
        {
          "internalType": "uint256",
          "name": "",
          "type": "uint256"
        }
      ],
      "stateMutability": "view",
      "type": "function"
    },
    {
      "inputs": [],
      "name": "babyDragonAddress",
      "outputs": [
        {
          "internalType": "address",
          "name": "",
          "type": "address"
        }
      ],
      "stateMutability": "view",
      "type": "function"
    },
    {
      "inputs": [
        {
          "internalType": "address",
          "name": "_collectionAddress",
          "type": "address"
        },
        {
          "internalType": "uint256",
          "name": "_tokenId",
          "type": "uint256"
        },
        {
          "internalType": "bytes32[]",
          "name": "_proof",
          "type": "bytes32[]"
        }
      ],
      "name": "burn",
      "outputs": [],
      "stateMutability": "nonpayable",
      "type": "function"
    },
    {
      "inputs": [
        {
          "internalType": "address[]",
          "name": "_collectionAddress",
          "type": "address[]"
        },
        {
          "internalType": "uint256[]",
          "name": "_tokenId",
          "type": "uint256[]"
        },
        {
          "internalType": "bytes32[][]",
          "name": "_proof",
          "type": "bytes32[][]"
        }
      ],
      "name": "burnBatch",
      "outputs": [],
      "stateMutability": "nonpayable",
      "type": "function"
    },
    {
      "inputs": [
        {
          "internalType": "address",
          "name": "_collectionAddress",
          "type": "address"
        },
        {
          "internalType": "uint256",
          "name": "_tokenId",
          "type": "uint256"
        }
      ],
      "name": "getPointsForTokenCollection",
      "outputs": [
        {
          "internalType": "uint256",
          "name": "",
          "type": "uint256"
        }
      ],
      "stateMutability": "view",
      "type": "function"
    },
    {
      "inputs": [],
      "name": "infectedApeAddress",
      "outputs": [
        {
          "internalType": "address",
          "name": "",
          "type": "address"
        }
      ],
      "stateMutability": "view",
      "type": "function"
    },
    {
      "inputs": [],
      "name": "isDuringAlphaBabyBonusWindow",
      "outputs": [
        {
          "internalType": "bool",
          "name": "",
          "type": "bool"
        }
      ],
      "stateMutability": "view",
      "type": "function"
    },
    {
      "inputs": [
        {
          "internalType": "bytes32[]",
          "name": "_proof",
          "type": "bytes32[]"
        },
        {
          "internalType": "bytes32",
          "name": "_root",
          "type": "bytes32"
        },
        {
          "internalType": "bytes32",
          "name": "_leaf",
          "type": "bytes32"
        }
      ],
      "name": "isValid",
      "outputs": [
        {
          "internalType": "bool",
          "name": "",
          "type": "bool"
        }
      ],
      "stateMutability": "pure",
      "type": "function"
    },
    {
      "inputs": [],
      "name": "owner",
      "outputs": [
        {
          "internalType": "address",
          "name": "",
          "type": "address"
        }
      ],
      "stateMutability": "view",
      "type": "function"
    },
    {
      "inputs": [
        {
          "internalType": "address",
          "name": "",
          "type": "address"
        }
      ],
      "name": "pointsPerAddress",
      "outputs": [
        {
          "internalType": "uint256",
          "name": "",
          "type": "uint256"
        }
      ],
      "stateMutability": "view",
      "type": "function"
    },
    {
      "inputs": [],
      "name": "pointsToRedeem",
      "outputs": [
        {
          "internalType": "uint256",
          "name": "",
          "type": "uint256"
        }
      ],
      "stateMutability": "view",
      "type": "function"
    },
    {
      "inputs": [],
      "name": "primeApeAddress",
      "outputs": [
        {
          "internalType": "address",
          "name": "",
          "type": "address"
        }
      ],
      "stateMutability": "view",
      "type": "function"
    },
    {
      "inputs": [],
      "name": "primeApeOffset",
      "outputs": [
        {
          "internalType": "uint256",
          "name": "",
          "type": "uint256"
        }
      ],
      "stateMutability": "view",
      "type": "function"
    },
    {
      "inputs": [],
      "name": "primeDragonAddress",
      "outputs": [
        {
          "internalType": "address",
          "name": "",
          "type": "address"
        }
      ],
      "stateMutability": "view",
      "type": "function"
    },
    {
      "inputs": [],
      "name": "primeDragonAlphaMerkleRoot",
      "outputs": [
        {
          "internalType": "bytes32",
          "name": "",
          "type": "bytes32"
        }
      ],
      "stateMutability": "view",
      "type": "function"
    },
    {
      "inputs": [],
      "name": "primeDragonEpicMerkleRoot",
      "outputs": [
        {
          "internalType": "bytes32",
          "name": "",
          "type": "bytes32"
        }
      ],
      "stateMutability": "view",
      "type": "function"
    },
    {
      "inputs": [],
      "name": "primeDragonNormalMerkleRoot",
      "outputs": [
        {
          "internalType": "bytes32",
          "name": "",
          "type": "bytes32"
        }
      ],
      "stateMutability": "view",
      "type": "function"
    },
    {
      "inputs": [],
      "name": "primeKongAddress",
      "outputs": [
        {
          "internalType": "address",
          "name": "",
          "type": "address"
        }
      ],
      "stateMutability": "view",
      "type": "function"
    },
    {
      "inputs": [],
      "name": "redeem",
      "outputs": [],
      "stateMutability": "nonpayable",
      "type": "function"
    },
    {
      "inputs": [
        {
          "internalType": "uint256",
          "name": "_amount",
          "type": "uint256"
        }
      ],
      "name": "redeemBatch",
      "outputs": [],
      "stateMutability": "nonpayable",
      "type": "function"
    },
    {
      "inputs": [],
      "name": "renounceOwnership",
      "outputs": [],
      "stateMutability": "nonpayable",
      "type": "function"
    },
    {
      "inputs": [
        {
          "internalType": "uint256",
          "name": "_alphaBabyBonusWindowDuration",
          "type": "uint256"
        }
      ],
      "name": "setAlphaBabyBonusWindowDuration",
      "outputs": [],
      "stateMutability": "nonpayable",
      "type": "function"
    },
    {
      "inputs": [
        {
          "internalType": "address",
          "name": "_primeApeAddress",
          "type": "address"
        },
        {
          "internalType": "address",
          "name": "_primeDragonAddress",
          "type": "address"
        },
        {
          "internalType": "address",
          "name": "_primeKongAddress",
          "type": "address"
        },
        {
          "internalType": "address",
          "name": "_infectedApeAddress",
          "type": "address"
        },
        {
          "internalType": "address",
          "name": "_babyDragonAddress",
          "type": "address"
        }
      ],
      "name": "setContracts",
      "outputs": [],
      "stateMutability": "nonpayable",
      "type": "function"
    },
    {
      "inputs": [
        {
          "internalType": "bytes32",
          "name": "_primeDragonEpicMerkleRoot",
          "type": "bytes32"
        },
        {
          "internalType": "bytes32",
          "name": "_primeDragonNormalMerkleRoot",
          "type": "bytes32"
        },
        {
          "internalType": "bytes32",
          "name": "_primeDragonAlphaMerkleRoot",
          "type": "bytes32"
        }
      ],
      "name": "setMerkleRoots",
      "outputs": [],
      "stateMutability": "nonpayable",
      "type": "function"
    },
    {
      "inputs": [],
      "name": "startAlphaBabyBonusWindow",
      "outputs": [],
      "stateMutability": "nonpayable",
      "type": "function"
    },
    {
      "inputs": [
        {
          "internalType": "address",
          "name": "newOwner",
          "type": "address"
        }
      ],
      "name": "transferOwnership",
      "outputs": [],
      "stateMutability": "nonpayable",
      "type": "function"
    }
  ],
  "bytecode": "0x6080604052603c600755611f2b6008556203f480600a557f900493612a071ad64784e9adbe4a945fc145614b5ab937e0805113bcab054483600b557f125d8be70edd7fdde86cd5c566e42f612f3da056b37163721828d171d035ba28600c557fbf78512182e763d945c70c90a7eda13ada2b9c42020954a5b2c57fbc963b7279600d5534801561008e57600080fd5b50610098336100a1565b600180556100f1565b600080546001600160a01b038381166001600160a01b0319831681178455604051919092169283917f8be0079c531659141344cd1fd0a4f28419497f9722a3daafe3b4186f6b6457e09190a35050565b6115c1806101006000396000f3fe608060405234801561001057600080fd5b50600436106101ce5760003560e01c8063b171202d11610104578063c65f7d9e116100a2578063ed08e62811610071578063ed08e628146103a9578063f2fde38b146103bc578063f53e89b8146103cf578063f63bf8bd146103d757600080fd5b8063c65f7d9e14610364578063d5a4acee1461036d578063d736e5a114610380578063e20c3a521461038957600080fd5b8063b6a22fb3116100de578063b6a22fb314610337578063b8e4ccd014610340578063be040fb014610353578063c50c6c7e1461035b57600080fd5b8063b171202d14610313578063b2bd56ba1461031c578063b36bdc301461032457600080fd5b8063797f89d911610171578063903c6db61161014b578063903c6db6146102b4578063915dea61146102d7578063a3a7c4d8146102ea578063ac0e7f77146102f357600080fd5b8063797f89d91461027d5780638b456345146102905780638da5cb5b146102a357600080fd5b80634f0a04e6116101ad5780634f0a04e61461022b5780635ae679591461025957806362bb5c2e14610262578063715018a61461027557600080fd5b8062f9ae54146101d357806312e50622146101e85780631ac31b0014610218575b600080fd5b6101e66101e13660046110ac565b6103ea565b005b6003546101fb906001600160a01b031681565b6040516001600160a01b0390911681526020015b60405180910390f35b6002546101fb906001600160a01b031681565b61024b6102393660046110ed565b600e6020526000908152604090205481565b60405190815260200161020f565b61024b60085481565b6101e661027036600461110a565b610400565b6101e661040d565b6004546101fb906001600160a01b031681565b61024b61029e366004611123565b610421565b6000546001600160a01b03166101fb565b6102c76102c2366004611225565b6104b7565b604051901515815260200161020f565b6005546101fb906001600160a01b031681565b61024b600b5481565b61024b6103013660046110ed565b60106020526000908152604090205481565b61024b60095481565b6101e66104cc565b6101e6610332366004611273565b6104da565b61024b600d5481565b6101e661034e36600461110a565b6108d6565b6101e66109c5565b61024b600a5481565b61024b60075481565b6101e661037b36600461134c565b610b23565b61024b600c5481565b61024b6103973660046110ed565b600f6020526000908152604090205481565b6006546101fb906001600160a01b031681565b6101e66103ca3660046110ed565b610bf1565b6102c7610c6a565b6101e66103e5366004611428565b610c92565b6103f2610cf9565b600b92909255600c55600d55565b610408610cf9565b600a55565b610415610cf9565b61041f6000610d53565b565b6002546000906001600160a01b03908116908416036104425750600c6104b1565b6003546001600160a01b0390811690841603610460575060086104b1565b6004546001600160a01b039081169084160361047e575060066104b1565b6005546001600160a01b03908116908416036104ad5760085482106104a55750600a6104b1565b5060056104b1565b5060005b92915050565b60006104c4848484610da3565b949350505050565b6104d4610cf9565b42600955565b6104e2610db9565b6000546001600160a01b03163314806104fd57506000600954115b6105455760405162461bcd60e51b8152602060048201526014602482015273109d5c9b881b9bdd08185b1b1bddd959081e595d60621b60448201526064015b60405180910390fd5b60006105518484610421565b9050600081116105975760405162461bcd60e51b8152602060048201526011602482015270125b9d985b1a590819da5d995b88139195607a1b604482015260640161053c565b6040516331a9108f60e11b81526004810184905233906001600160a01b03861690636352211e90602401602060405180830381865afa1580156105de573d6000803e3d6000fd5b505050506040513d601f19601f820116820180604052508101906106029190611499565b6001600160a01b0316146106585760405162461bcd60e51b815260206004820152601760248201527f596f7520646f206e6f74206f776e2074686973204e4654000000000000000000604482015260640161053c565b610660610c6a565b156107ea5760006106a283600b5461067787610e12565b60405160200161068791906114b6565b604051602081830303815290604052805190602001206104b7565b905060006106b684600c5461067788610e12565b905060006106ca85600d5461067789610e12565b6003549091506001600160a01b0388811691161480156106f6575082806106ee5750815b806106f65750805b6107805760405162461bcd60e51b815260206004820152604f60248201527f43616e206f6e6c79206275726e20616c7068612c2062616279206f7220616c7060448201527f6861207072696d6520647261676f6e7320647572696e6720616c70686120626160648201526e627920626f6e75732077696e646f7760881b608482015260a40161053c565b82156107b5573360009081526010602052604081208054600192906107a69084906114fb565b90915550603c94506107e69050565b81156107db57336000908152600f602052604081208054600192906107a69084906114fb565b80156107e657603c93505b5050505b604051632142170760e11b815233600482015261dead6024820152604481018490526001600160a01b038516906342842e0e90606401600060405180830381600087803b15801561083a57600080fd5b505af115801561084e573d6000803e3d6000fd5b5050336000908152600e6020526040812080548594509092506108729084906114fb565b9091555050604080513381526001600160a01b0386166020820152908101849052606081018290527f1ca6534400a1cb95c66ed05487129ad537b137d1e1489ba14d0b49a5941dbf839060800160405180910390a1506108d160018055565b505050565b3332146109255760405162461bcd60e51b815260206004820152601f60248201527f43616c6c65722063616e6e6f7420626520736d61727420636f6e747261637400604482015260640161053c565b336000908152600e602052604081205461094190603c9061150e565b90508082111580156109535750600081115b61099f5760405162461bcd60e51b815260206004820152601b60248201527f4e6f7420656e6f75676820706f696e747320746f2072656465656d0000000000604482015260640161053c565b60005b81811080156109b057508281105b156108d1576109bd6109c5565b6001016109a2565b6109cd610db9565b600754336000908152600e60205260409020541015610a2e5760405162461bcd60e51b815260206004820152601d60248201527f4e6f7420656e6f75676820706f696e747320616363756d756c61746564000000604482015260640161053c565b600754336000908152600e602052604081208054909190610a50908490611530565b9091555060009050610a6133610ea5565b6006546040516308934a5f60e31b8152336004820152602481018390529192506000916001600160a01b039091169063449a52f8906044016020604051808303816000875af1158015610ab8573d6000803e3d6000fd5b505050506040513d601f19601f82011682018060405250810190610adc9190611543565b60408051338152602081018390529192507f80cfc930fa1029f5fdb639588b474e55c8051b1a9b635f90fe3af3508cfd8ad1910160405180910390a1505061041f60018055565b8251825181148015610b355750815181145b610b815760405162461bcd60e51b815260206004820152601860248201527f417272617973206c656e677468206d757374206d617463680000000000000000604482015260640161053c565b60005b81811015610bea57610be2858281518110610ba157610ba161155c565b6020026020010151858381518110610bbb57610bbb61155c565b6020026020010151858481518110610bd557610bd561155c565b60200260200101516104da565b600101610b84565b5050505050565b610bf9610cf9565b6001600160a01b038116610c5e5760405162461bcd60e51b815260206004820152602660248201527f4f776e61626c653a206e6577206f776e657220697320746865207a65726f206160448201526564647265737360d01b606482015260840161053c565b610c6781610d53565b50565b6000600954600014158015610c8d5750600a54600954610c8a91906114fb565b42105b905090565b610c9a610cf9565b600280546001600160a01b03199081166001600160a01b03978816179091556003805482169587169590951790945560048054851693861693909317909255600580548416918516919091179055600680549092169216919091179055565b6000546001600160a01b0316331461041f5760405162461bcd60e51b815260206004820181905260248201527f4f776e61626c653a2063616c6c6572206973206e6f7420746865206f776e6572604482015260640161053c565b600080546001600160a01b038381166001600160a01b0319831681178455604051919092169283917f8be0079c531659141344cd1fd0a4f28419497f9722a3daafe3b4186f6b6457e09190a35050565b600082610db08584610f55565b14949350505050565b600260015403610e0b5760405162461bcd60e51b815260206004820152601f60248201527f5265656e7472616e637947756172643a207265656e7472616e742063616c6c00604482015260640161053c565b6002600155565b60606000610e1f83610fa2565b600101905060008167ffffffffffffffff811115610e3f57610e3f61114f565b6040519080825280601f01601f191660200182016040528015610e69576020820181803683370190505b5090508181016020015b600019016f181899199a1a9b1b9c1cb0b131b232b360811b600a86061a8153600a8504945084610e7357509392505050565b6001600160a01b03811660009081526010602052604081205415610ef9576001600160a01b0382166000908152601060205260408120805460019290610eec908490611530565b9091555060199392505050565b6001600160a01b0382166000908152600f602052604090205415610f4d576001600160a01b0382166000908152600f60205260408120805460019290610f40908490611530565b90915550600a9392505050565b506000919050565b600081815b8451811015610f9a57610f8682868381518110610f7957610f7961155c565b602002602001015161107a565b915080610f9281611572565b915050610f5a565b509392505050565b60008072184f03e93ff9f4daa797ed6e38ed64bf6a1f0160401b8310610fe15772184f03e93ff9f4daa797ed6e38ed64bf6a1f0160401b830492506040015b6d04ee2d6d415b85acef8100000000831061100d576d04ee2d6d415b85acef8100000000830492506020015b662386f26fc10000831061102b57662386f26fc10000830492506010015b6305f5e1008310611043576305f5e100830492506008015b612710831061105757612710830492506004015b60648310611069576064830492506002015b600a83106104b15760010192915050565b60008183106110965760008281526020849052604090206110a5565b60008381526020839052604090205b9392505050565b6000806000606084860312156110c157600080fd5b505081359360208301359350604090920135919050565b6001600160a01b0381168114610c6757600080fd5b6000602082840312156110ff57600080fd5b81356110a5816110d8565b60006020828403121561111c57600080fd5b5035919050565b6000806040838503121561113657600080fd5b8235611141816110d8565b946020939093013593505050565b634e487b7160e01b600052604160045260246000fd5b604051601f8201601f1916810167ffffffffffffffff8111828210171561118e5761118e61114f565b604052919050565b600067ffffffffffffffff8211156111b0576111b061114f565b5060051b60200190565b600082601f8301126111cb57600080fd5b813560206111e06111db83611196565b611165565b82815260059290921b840181019181810190868411156111ff57600080fd5b8286015b8481101561121a5780358352918301918301611203565b509695505050505050565b60008060006060848603121561123a57600080fd5b833567ffffffffffffffff81111561125157600080fd5b61125d868287016111ba565b9660208601359650604090950135949350505050565b60008060006060848603121561128857600080fd5b8335611293816110d8565b925060208401359150604084013567ffffffffffffffff8111156112b657600080fd5b6112c2868287016111ba565b9150509250925092565b600082601f8301126112dd57600080fd5b813560206112ed6111db83611196565b82815260059290921b8401810191818101908684111561130c57600080fd5b8286015b8481101561121a57803567ffffffffffffffff8111156113305760008081fd5b61133e8986838b01016111ba565b845250918301918301611310565b60008060006060848603121561136157600080fd5b833567ffffffffffffffff8082111561137957600080fd5b818601915086601f83011261138d57600080fd5b8135602061139d6111db83611196565b82815260059290921b8401810191818101908a8411156113bc57600080fd5b948201945b838610156113e35785356113d4816110d8565b825294820194908201906113c1565b975050870135925050808211156113f957600080fd5b611405878388016111ba565b9350604086013591508082111561141b57600080fd5b506112c2868287016112cc565b600080600080600060a0868803121561144057600080fd5b853561144b816110d8565b9450602086013561145b816110d8565b9350604086013561146b816110d8565b9250606086013561147b816110d8565b9150608086013561148b816110d8565b809150509295509295909350565b6000602082840312156114ab57600080fd5b81516110a5816110d8565b6000825160005b818110156114d757602081860181015185830152016114bd565b506000920191825250919050565b634e487b7160e01b600052601160045260246000fd5b808201808211156104b1576104b16114e5565b60008261152b57634e487b7160e01b600052601260045260246000fd5b500490565b818103818111156104b1576104b16114e5565b60006020828403121561155557600080fd5b5051919050565b634e487b7160e01b600052603260045260246000fd5b600060018201611584576115846114e5565b506001019056fea26469706673582212200f1aa44fc8f59c8cd591691c85305dc013eac7e1eae9100432f992819ea51e2664736f6c63430008110033",
  "linkReferences": {},
  "deployedLinkReferences": {}
}