{
  "_format": "hh-sol-artifact-1",
  "contractName": "PrimeApeInfector",
  "sourceName": "src/backend/contracts/PrimeApeInfector.sol",
  "abi": [
    {
      "inputs": [
        {
          "internalType": "address",
          "name": "_ape",
          "type": "address"
        },
        {
          "internalType": "address",
          "name": "_banana",
          "type": "address"
        },
        {
          "internalType": "address",
          "name": "_infected",
          "type": "address"
        }
      ],
      "stateMutability": "nonpayable",
      "type": "constructor"
    },
    {
      "anonymous": false,
      "inputs": [
        {
          "indexed": false,
          "internalType": "address",
          "name": "infector",
          "type": "address"
        },
        {
          "indexed": true,
          "internalType": "uint256",
          "name": "apeId",
          "type": "uint256"
        },
        {
          "indexed": true,
          "internalType": "uint256",
          "name": "bananaType",
          "type": "uint256"
        },
        {
          "indexed": true,
          "internalType": "uint256",
          "name": "infectedApeId",
          "type": "uint256"
        }
      ],
      "name": "Infect",
      "type": "event"
    },
    {
      "anonymous": false,
      "inputs": [
        {
          "indexed": true,
          "internalType": "address",
          "name": "previousOwner",
          "type": "address"
        },
        {
          "indexed": true,
          "internalType": "address",
          "name": "newOwner",
          "type": "address"
        }
      ],
      "name": "OwnershipTransferred",
      "type": "event"
    },
    {
      "anonymous": false,
      "inputs": [
        {
          "indexed": true,
          "internalType": "address",
          "name": "sender",
          "type": "address"
        },
        {
          "indexed": true,
          "internalType": "uint256",
          "name": "amount",
          "type": "uint256"
        }
      ],
      "name": "ReceivedEther",
      "type": "event"
    },
    {
      "anonymous": false,
      "inputs": [
        {
          "indexed": true,
          "internalType": "address",
          "name": "to",
          "type": "address"
        },
        {
          "indexed": false,
          "internalType": "uint256",
          "name": "amount",
          "type": "uint256"
        }
      ],
      "name": "WithdrawAllEvent",
      "type": "event"
    },
    {
      "inputs": [
        {
          "internalType": "uint256",
          "name": "",
          "type": "uint256"
        },
        {
          "internalType": "uint256",
          "name": "",
          "type": "uint256"
        }
      ],
      "name": "apeInfected",
      "outputs": [
        {
          "internalType": "bool",
          "name": "",
          "type": "bool"
        }
      ],
      "stateMutability": "view",
      "type": "function"
    },
    {
      "inputs": [],
      "name": "bananas",
      "outputs": [
        {
          "internalType": "contract IPoisonedBananas",
          "name": "",
          "type": "address"
        }
      ],
      "stateMutability": "view",
      "type": "function"
    },
    {
      "inputs": [
        {
          "internalType": "uint256[]",
          "name": "apeIds",
          "type": "uint256[]"
        },
        {
          "internalType": "uint256",
          "name": "bananaType",
          "type": "uint256"
        }
      ],
      "name": "getInfectedByLevel",
      "outputs": [
        {
          "internalType": "uint256[]",
          "name": "",
          "type": "uint256[]"
        }
      ],
      "stateMutability": "view",
      "type": "function"
    },
    {
      "inputs": [
        {
          "internalType": "uint256",
          "name": "apeId",
          "type": "uint256"
        },
        {
          "internalType": "uint256",
          "name": "bananaType",
          "type": "uint256"
        }
      ],
      "name": "infectApe",
      "outputs": [],
      "stateMutability": "nonpayable",
      "type": "function"
    },
    {
      "inputs": [],
      "name": "infectedApes",
      "outputs": [
        {
          "internalType": "contract IInfectedApePlanet",
          "name": "",
          "type": "address"
        }
      ],
      "stateMutability": "view",
      "type": "function"
    },
    {
      "inputs": [],
      "name": "infectingOpen",
      "outputs": [
        {
          "internalType": "bool",
          "name": "",
          "type": "bool"
        }
      ],
      "stateMutability": "view",
      "type": "function"
    },
    {
      "inputs": [
        {
          "internalType": "uint256",
          "name": "",
          "type": "uint256"
        }
      ],
      "name": "isLegendary",
      "outputs": [
        {
          "internalType": "bool",
          "name": "",
          "type": "bool"
        }
      ],
      "stateMutability": "view",
      "type": "function"
    },
    {
      "inputs": [],
      "name": "nextLevelThreeId",
      "outputs": [
        {
          "internalType": "uint256",
          "name": "",
          "type": "uint256"
        }
      ],
      "stateMutability": "view",
      "type": "function"
    },
    {
      "inputs": [],
      "name": "owner",
      "outputs": [
        {
          "internalType": "address",
          "name": "",
          "type": "address"
        }
      ],
      "stateMutability": "view",
      "type": "function"
    },
    {
      "inputs": [],
      "name": "primeApeNFT",
      "outputs": [
        {
          "internalType": "contract IERC721",
          "name": "",
          "type": "address"
        }
      ],
      "stateMutability": "view",
      "type": "function"
    },
    {
      "inputs": [],
      "name": "primeApeOffset",
      "outputs": [
        {
          "internalType": "uint256",
          "name": "",
          "type": "uint256"
        }
      ],
      "stateMutability": "view",
      "type": "function"
    },
    {
      "inputs": [],
      "name": "renounceOwnership",
      "outputs": [],
      "stateMutability": "nonpayable",
      "type": "function"
    },
    {
      "inputs": [
        {
          "internalType": "uint256[]",
          "name": "legendaryIds",
          "type": "uint256[]"
        }
      ],
      "name": "resetLegendaries",
      "outputs": [],
      "stateMutability": "nonpayable",
      "type": "function"
    },
    {
      "inputs": [
        {
          "internalType": "address",
          "name": "_ape",
          "type": "address"
        },
        {
          "internalType": "address",
          "name": "_banana",
          "type": "address"
        },
        {
          "internalType": "address",
          "name": "_infected",
          "type": "address"
        }
      ],
      "name": "setContracts",
      "outputs": [],
      "stateMutability": "nonpayable",
      "type": "function"
    },
    {
      "inputs": [
        {
          "internalType": "bool",
          "name": "open",
          "type": "bool"
        }
      ],
      "name": "setInfectingOpen",
      "outputs": [],
      "stateMutability": "nonpayable",
      "type": "function"
    },
    {
      "inputs": [
        {
          "internalType": "uint256[]",
          "name": "legendaryIds",
          "type": "uint256[]"
        }
      ],
      "name": "setLegendaries",
      "outputs": [],
      "stateMutability": "nonpayable",
      "type": "function"
    },
    {
      "inputs": [
        {
          "internalType": "address",
          "name": "newOwner",
          "type": "address"
        }
      ],
      "name": "transferOwnership",
      "outputs": [],
      "stateMutability": "nonpayable",
      "type": "function"
    },
    {
      "inputs": [
        {
          "internalType": "address",
          "name": "_to",
          "type": "address"
        }
      ],
      "name": "withdrawAll",
      "outputs": [],
      "stateMutability": "nonpayable",
      "type": "function"
    },
    {
      "stateMutability": "payable",
      "type": "receive"
    }
  ],
  "bytecode": "0x6080604052611f2b600455600160055534801561001b57600080fd5b5060405161117038038061117083398101604081905261003a916100f1565b61004333610085565b600180546001600160a01b039485166001600160a01b031991821617909155600280549385169382169390931790925560038054919093169116179055610134565b600080546001600160a01b038381166001600160a01b0319831681178455604051919092169283917f8be0079c531659141344cd1fd0a4f28419497f9722a3daafe3b4186f6b6457e09190a35050565b80516001600160a01b03811681146100ec57600080fd5b919050565b60008060006060848603121561010657600080fd5b61010f846100d5565b925061011d602085016100d5565b915061012b604085016100d5565b90509250925092565b61102d806101436000396000f3fe60806040526004361061010d5760003560e01c80638d80f3a611610095578063c5a991f811610064578063c5a991f814610310578063de99cb5714610340578063f2fde38b1461037b578063fa09e6301461039b578063fc754eb9146103bb57600080fd5b80638d80f3a6146102925780638da5cb5b146102b25780639c404bd4146102d0578063b3066d49146102f057600080fd5b80635ae67959116100dc5780635ae67959146101f6578063715018a61461020c57806376446bce14610221578063794cb2a014610241578063874bf4e51461027257600080fd5b80631efbdd931461014657806348752d491461016f5780634b4b7c06146101a7578063589a52a3146101c957600080fd5b3661014157604051349033907fa419615bc8fda4c87663805ee2a3597a6d71c1d476911d9892f340d965bc7bf190600090a3005b600080fd5b34801561015257600080fd5b5061015c60055481565b6040519081526020015b60405180910390f35b34801561017b57600080fd5b5060035461018f906001600160a01b031681565b6040516001600160a01b039091168152602001610166565b3480156101b357600080fd5b506101c76101c2366004610d49565b6103db565b005b3480156101d557600080fd5b506101e96101e4366004610db7565b61087a565b6040516101669190610e03565b34801561020257600080fd5b5061015c60045481565b34801561021857600080fd5b506101c761095e565b34801561022d57600080fd5b506101c761023c366004610e3b565b610972565b34801561024d57600080fd5b5060035461026290600160a01b900460ff1681565b6040519015158152602001610166565b34801561027e57600080fd5b5060025461018f906001600160a01b031681565b34801561029e57600080fd5b506101c76102ad366004610e3b565b6109e1565b3480156102be57600080fd5b506000546001600160a01b031661018f565b3480156102dc57600080fd5b5060015461018f906001600160a01b031681565b3480156102fc57600080fd5b506101c761030b366004610e92565b610a4b565b34801561031c57600080fd5b5061026261032b366004610edd565b60076020526000908152604090205460ff1681565b34801561034c57600080fd5b5061026261035b366004610d49565b600660209081526000928352604080842090915290825290205460ff1681565b34801561038757600080fd5b506101c7610396366004610ef6565b610a92565b3480156103a757600080fd5b506101c76103b6366004610ef6565b610b0b565b3480156103c757600080fd5b506101c76103d6366004610f1a565b610c2c565b600354600160a01b900460ff1661042c5760405162461bcd60e51b815260206004820152601060248201526f125b999958dd1a5bdb8818db1bdcd95960821b60448201526064015b60405180910390fd5b6001546040516331a9108f60e11b81526004810184905233916001600160a01b031690636352211e90602401602060405180830381865afa158015610475573d6000803e3d6000fd5b505050506040513d601f19601f820116820180604052508101906104999190610f3c565b6001600160a01b0316146104ef5760405162461bcd60e51b815260206004820152601760248201527f53656e646572206e6f74206f776e6572206f66206170650000000000000000006044820152606401610423565b600254604051627eeac760e11b8152336004820152602481018390526000916001600160a01b03169062fdd58e90604401602060405180830381865afa15801561053d573d6000803e3d6000fd5b505050506040513d601f19601f820116820180604052508101906105619190610f59565b116105ae5760405162461bcd60e51b815260206004820152601f60248201527f53656e646572206e6f74206f776e6572206f662062616e616e612074797065006044820152606401610423565b600381106105f25760405162461bcd60e51b815260206004820152601160248201527057726f6e672062616e616e61207479706560781b6044820152606401610423565b60008281526007602052604090205460ff16156106db57600082815260066020908152604080832083805290915290205460ff1615801561064e575060008281526006602090815260408083206001845290915290205460ff16155b8015610675575060008281526006602090815260408083206002845290915290205460ff16155b6106c15760405162461bcd60e51b815260206004820152601a60248201527f4c6567656e6461727920616c726561647920696e6665637465640000000000006044820152606401610423565b600580549060006106d183610f88565b9190505550610745565b600082815260066020908152604080832084845290915290205460ff16156107455760405162461bcd60e51b815260206004820152601e60248201527f41706520616c726561647920696e6665637465642062792062616e616e6100006044820152606401610423565b60008281526006602090815260408083208484529091528120805460ff191660011790556107738383610c52565b60025460405163777685bf60e01b8152336004820152602481018590529192506001600160a01b03169063777685bf90604401600060405180830381600087803b1580156107c057600080fd5b505af11580156107d4573d6000803e3d6000fd5b5050600354604051635b91d9a760e11b8152600481018590523360248201526001600160a01b03909116925063b723b34e9150604401600060405180830381600087803b15801561082457600080fd5b505af1158015610838573d6000803e3d6000fd5b505060405133815283925084915085907f3eea8e7422451a1189325ad4191e1c35e670b700d1a82a96f3c25ef41f398aad9060200160405180910390a4505050565b60608260008167ffffffffffffffff81111561089857610898610fa1565b6040519080825280602002602001820160405280156108c1578160200160208202803683370190505b5090506000805b868110156109525760008888838181106108e4576108e4610fb7565b6020908102929092013560008181526006845260408082208c835290945292909220549192505060ff161561093f578084848151811061092657610926610fb7565b60209081029190910101528261093b81610f88565b9350505b508061094a81610f88565b9150506108c8565b50909695505050505050565b610966610c9f565b6109706000610cf9565b565b61097a610c9f565b60005b818110156109dc5760016007600085858581811061099d5761099d610fb7565b90506020020135815260200190815260200160002060006101000a81548160ff02191690831515021790555080806109d490610f88565b91505061097d565b505050565b6109e9610c9f565b60005b818110156109dc57600060076000858585818110610a0c57610a0c610fb7565b90506020020135815260200190815260200160002060006101000a81548160ff0219169083151502179055508080610a4390610f88565b9150506109ec565b610a53610c9f565b600180546001600160a01b039485166001600160a01b031991821617909155600280549385169382169390931790925560038054919093169116179055565b610a9a610c9f565b6001600160a01b038116610aff5760405162461bcd60e51b815260206004820152602660248201527f4f776e61626c653a206e6577206f776e657220697320746865207a65726f206160448201526564647265737360d01b6064820152608401610423565b610b0881610cf9565b50565b610b13610c9f565b6001600160a01b038116610b695760405162461bcd60e51b815260206004820152601f60248201527f43414e4e4f5420574954484452415720544f205a45524f2041444452455353006044820152606401610423565b4780610bae5760405162461bcd60e51b81526020600482015260146024820152734e4f20455448455220544f20574954484452415760601b6044820152606401610423565b6040516001600160a01b0383169082156108fc029083906000818181858888f19350505050158015610be4573d6000803e3d6000fd5b50816001600160a01b03167f2bd20150a637d72a74539599f66637c3ec4f6d3807458bf9e002061053ae167c82604051610c2091815260200190565b60405180910390a25050565b610c34610c9f565b60038054911515600160a01b0260ff60a01b19909216919091179055565b600081600203610c7e5781600454610c6a9190610fcd565b600554610c779190610fe4565b9050610c99565b81600454610c8c9190610fcd565b610c969084610fe4565b90505b92915050565b6000546001600160a01b031633146109705760405162461bcd60e51b815260206004820181905260248201527f4f776e61626c653a2063616c6c6572206973206e6f7420746865206f776e65726044820152606401610423565b600080546001600160a01b038381166001600160a01b0319831681178455604051919092169283917f8be0079c531659141344cd1fd0a4f28419497f9722a3daafe3b4186f6b6457e09190a35050565b60008060408385031215610d5c57600080fd5b50508035926020909101359150565b60008083601f840112610d7d57600080fd5b50813567ffffffffffffffff811115610d9557600080fd5b6020830191508360208260051b8501011115610db057600080fd5b9250929050565b600080600060408486031215610dcc57600080fd5b833567ffffffffffffffff811115610de357600080fd5b610def86828701610d6b565b909790965060209590950135949350505050565b6020808252825182820181905260009190848201906040850190845b8181101561095257835183529284019291840191600101610e1f565b60008060208385031215610e4e57600080fd5b823567ffffffffffffffff811115610e6557600080fd5b610e7185828601610d6b565b90969095509350505050565b6001600160a01b0381168114610b0857600080fd5b600080600060608486031215610ea757600080fd5b8335610eb281610e7d565b92506020840135610ec281610e7d565b91506040840135610ed281610e7d565b809150509250925092565b600060208284031215610eef57600080fd5b5035919050565b600060208284031215610f0857600080fd5b8135610f1381610e7d565b9392505050565b600060208284031215610f2c57600080fd5b81358015158114610f1357600080fd5b600060208284031215610f4e57600080fd5b8151610f1381610e7d565b600060208284031215610f6b57600080fd5b5051919050565b634e487b7160e01b600052601160045260246000fd5b600060018201610f9a57610f9a610f72565b5060010190565b634e487b7160e01b600052604160045260246000fd5b634e487b7160e01b600052603260045260246000fd5b8082028115828204841417610c9957610c99610f72565b80820180821115610c9957610c99610f7256fea2646970667358221220cbd4b95ab2415717919691cee6732c72897d2f93ac3e908225c63abb737a32d764736f6c63430008110033",
  "linkReferences": {},
  "deployedLinkReferences": {}
}