{
  "_format": "hh-sol-artifact-1",
  "contractName": "InfectedApePlanet",
  "sourceName": "src/backend/contracts/InfectedApePlanet.sol",
  "abi": [
    {
      "inputs": [
        {
          "internalType": "address",
          "name": "_openseaProxyRegistryAddress",
          "type": "address"
        }
      ],
      "stateMutability": "nonpayable",
      "type": "constructor"
    },
    {
      "anonymous": false,
      "inputs": [
        {
          "indexed": true,
          "internalType": "address",
          "name": "owner",
          "type": "address"
        },
        {
          "indexed": true,
          "internalType": "address",
          "name": "approved",
          "type": "address"
        },
        {
          "indexed": true,
          "internalType": "uint256",
          "name": "tokenId",
          "type": "uint256"
        }
      ],
      "name": "Approval",
      "type": "event"
    },
    {
      "anonymous": false,
      "inputs": [
        {
          "indexed": true,
          "internalType": "address",
          "name": "owner",
          "type": "address"
        },
        {
          "indexed": true,
          "internalType": "address",
          "name": "operator",
          "type": "address"
        },
        {
          "indexed": false,
          "internalType": "bool",
          "name": "approved",
          "type": "bool"
        }
      ],
      "name": "ApprovalForAll",
      "type": "event"
    },
    {
      "anonymous": false,
      "inputs": [
        {
          "indexed": true,
          "internalType": "address",
          "name": "previousOwner",
          "type": "address"
        },
        {
          "indexed": true,
          "internalType": "address",
          "name": "newOwner",
          "type": "address"
        }
      ],
      "name": "OwnershipTransferred",
      "type": "event"
    },
    {
      "anonymous": false,
      "inputs": [
        {
          "indexed": true,
          "internalType": "address",
          "name": "sender",
          "type": "address"
        },
        {
          "indexed": true,
          "internalType": "uint256",
          "name": "amount",
          "type": "uint256"
        }
      ],
      "name": "ReceivedEther",
      "type": "event"
    },
    {
      "anonymous": false,
      "inputs": [
        {
          "indexed": true,
          "internalType": "address",
          "name": "from",
          "type": "address"
        },
        {
          "indexed": true,
          "internalType": "address",
          "name": "to",
          "type": "address"
        },
        {
          "indexed": true,
          "internalType": "uint256",
          "name": "tokenId",
          "type": "uint256"
        }
      ],
      "name": "Transfer",
      "type": "event"
    },
    {
      "anonymous": false,
      "inputs": [
        {
          "indexed": true,
          "internalType": "string",
          "name": "baseURI",
          "type": "string"
        }
      ],
      "name": "setBaseURIEvent",
      "type": "event"
    },
    {
      "inputs": [
        {
          "internalType": "address",
          "name": "to",
          "type": "address"
        },
        {
          "internalType": "uint256",
          "name": "tokenId",
          "type": "uint256"
        }
      ],
      "name": "approve",
      "outputs": [],
      "stateMutability": "nonpayable",
      "type": "function"
    },
    {
      "inputs": [
        {
          "internalType": "address",
          "name": "owner",
          "type": "address"
        }
      ],
      "name": "balanceOf",
      "outputs": [
        {
          "internalType": "uint256",
          "name": "",
          "type": "uint256"
        }
      ],
      "stateMutability": "view",
      "type": "function"
    },
    {
      "inputs": [],
      "name": "baseURIString",
      "outputs": [
        {
          "internalType": "string",
          "name": "",
          "type": "string"
        }
      ],
      "stateMutability": "view",
      "type": "function"
    },
    {
      "inputs": [
        {
          "internalType": "uint256",
          "name": "tokenId",
          "type": "uint256"
        }
      ],
      "name": "exists",
      "outputs": [
        {
          "internalType": "bool",
          "name": "",
          "type": "bool"
        }
      ],
      "stateMutability": "view",
      "type": "function"
    },
    {
      "inputs": [
        {
          "internalType": "uint256",
          "name": "tokenId",
          "type": "uint256"
        }
      ],
      "name": "getApproved",
      "outputs": [
        {
          "internalType": "address",
          "name": "",
          "type": "address"
        }
      ],
      "stateMutability": "view",
      "type": "function"
    },
    {
      "inputs": [],
      "name": "infectContract",
      "outputs": [
        {
          "internalType": "address",
          "name": "",
          "type": "address"
        }
      ],
      "stateMutability": "view",
      "type": "function"
    },
    {
      "inputs": [
        {
          "internalType": "address",
          "name": "owner",
          "type": "address"
        },
        {
          "internalType": "address",
          "name": "operator",
          "type": "address"
        }
      ],
      "name": "isApprovedForAll",
      "outputs": [
        {
          "internalType": "bool",
          "name": "",
          "type": "bool"
        }
      ],
      "stateMutability": "view",
      "type": "function"
    },
    {
      "inputs": [
        {
          "internalType": "uint256",
          "name": "tokenId",
          "type": "uint256"
        },
        {
          "internalType": "address",
          "name": "_to",
          "type": "address"
        }
      ],
      "name": "mintTo",
      "outputs": [],
      "stateMutability": "nonpayable",
      "type": "function"
    },
    {
      "inputs": [],
      "name": "name",
      "outputs": [
        {
          "internalType": "string",
          "name": "",
          "type": "string"
        }
      ],
      "stateMutability": "view",
      "type": "function"
    },
    {
      "inputs": [],
      "name": "openseaProxyRegistryAddress",
      "outputs": [
        {
          "internalType": "address",
          "name": "",
          "type": "address"
        }
      ],
      "stateMutability": "view",
      "type": "function"
    },
    {
      "inputs": [],
      "name": "owner",
      "outputs": [
        {
          "internalType": "address",
          "name": "",
          "type": "address"
        }
      ],
      "stateMutability": "view",
      "type": "function"
    },
    {
      "inputs": [
        {
          "internalType": "uint256",
          "name": "tokenId",
          "type": "uint256"
        }
      ],
      "name": "ownerOf",
      "outputs": [
        {
          "internalType": "address",
          "name": "",
          "type": "address"
        }
      ],
      "stateMutability": "view",
      "type": "function"
    },
    {
      "inputs": [],
      "name": "renounceOwnership",
      "outputs": [],
      "stateMutability": "nonpayable",
      "type": "function"
    },
    {
      "inputs": [
        {
          "internalType": "address",
          "name": "from",
          "type": "address"
        },
        {
          "internalType": "address",
          "name": "to",
          "type": "address"
        },
        {
          "internalType": "uint256",
          "name": "tokenId",
          "type": "uint256"
        }
      ],
      "name": "safeTransferFrom",
      "outputs": [],
      "stateMutability": "nonpayable",
      "type": "function"
    },
    {
      "inputs": [
        {
          "internalType": "address",
          "name": "from",
          "type": "address"
        },
        {
          "internalType": "address",
          "name": "to",
          "type": "address"
        },
        {
          "internalType": "uint256",
          "name": "tokenId",
          "type": "uint256"
        },
        {
          "internalType": "bytes",
          "name": "_data",
          "type": "bytes"
        }
      ],
      "name": "safeTransferFrom",
      "outputs": [],
      "stateMutability": "nonpayable",
      "type": "function"
    },
    {
      "inputs": [
        {
          "internalType": "address",
          "name": "operator",
          "type": "address"
        },
        {
          "internalType": "bool",
          "name": "approved",
          "type": "bool"
        }
      ],
      "name": "setApprovalForAll",
      "outputs": [],
      "stateMutability": "nonpayable",
      "type": "function"
    },
    {
      "inputs": [
        {
          "internalType": "string",
          "name": "_newBaseURI",
          "type": "string"
        }
      ],
      "name": "setBaseURI",
      "outputs": [],
      "stateMutability": "nonpayable",
      "type": "function"
    },
    {
      "inputs": [
        {
          "internalType": "address",
          "name": "newInfectContract",
          "type": "address"
        }
      ],
      "name": "setInfectContract",
      "outputs": [],
      "stateMutability": "nonpayable",
      "type": "function"
    },
    {
      "inputs": [
        {
          "internalType": "bytes4",
          "name": "interfaceId",
          "type": "bytes4"
        }
      ],
      "name": "supportsInterface",
      "outputs": [
        {
          "internalType": "bool",
          "name": "",
          "type": "bool"
        }
      ],
      "stateMutability": "view",
      "type": "function"
    },
    {
      "inputs": [],
      "name": "symbol",
      "outputs": [
        {
          "internalType": "string",
          "name": "",
          "type": "string"
        }
      ],
      "stateMutability": "view",
      "type": "function"
    },
    {
      "inputs": [
        {
          "internalType": "uint256",
          "name": "index",
          "type": "uint256"
        }
      ],
      "name": "tokenByIndex",
      "outputs": [
        {
          "internalType": "uint256",
          "name": "",
          "type": "uint256"
        }
      ],
      "stateMutability": "view",
      "type": "function"
    },
    {
      "inputs": [
        {
          "internalType": "address",
          "name": "owner",
          "type": "address"
        },
        {
          "internalType": "uint256",
          "name": "index",
          "type": "uint256"
        }
      ],
      "name": "tokenOfOwnerByIndex",
      "outputs": [
        {
          "internalType": "uint256",
          "name": "",
          "type": "uint256"
        }
      ],
      "stateMutability": "view",
      "type": "function"
    },
    {
      "inputs": [
        {
          "internalType": "uint256",
          "name": "tokenId",
          "type": "uint256"
        }
      ],
      "name": "tokenURI",
      "outputs": [
        {
          "internalType": "string",
          "name": "",
          "type": "string"
        }
      ],
      "stateMutability": "view",
      "type": "function"
    },
    {
      "inputs": [],
      "name": "totalSupply",
      "outputs": [
        {
          "internalType": "uint256",
          "name": "",
          "type": "uint256"
        }
      ],
      "stateMutability": "view",
      "type": "function"
    },
    {
      "inputs": [
        {
          "internalType": "address",
          "name": "from",
          "type": "address"
        },
        {
          "internalType": "address",
          "name": "to",
          "type": "address"
        },
        {
          "internalType": "uint256",
          "name": "tokenId",
          "type": "uint256"
        }
      ],
      "name": "transferFrom",
      "outputs": [],
      "stateMutability": "nonpayable",
      "type": "function"
    },
    {
      "inputs": [
        {
          "internalType": "address",
          "name": "newOwner",
          "type": "address"
        }
      ],
      "name": "transferOwnership",
      "outputs": [],
      "stateMutability": "nonpayable",
      "type": "function"
    },
    {
      "stateMutability": "payable",
      "type": "receive"
    }
  ],
  "bytecode": "0x60806040526040518060600160405280602c815260200162003f65602c9139600d9080519060200190620000359291906200023f565b503480156200004357600080fd5b5060405162003f9138038062003f91833981810160405281019062000069919062000359565b6040518060400160405280601381526020017f496e6665637465642041706520506c616e6574000000000000000000000000008152506040518060400160405280600381526020017f49415000000000000000000000000000000000000000000000000000000000008152508160009080519060200190620000ed9291906200023f565b508060019080519060200190620001069291906200023f565b505050620001296200011d6200017160201b60201c565b6200017960201b60201c565b80600b60006101000a81548173ffffffffffffffffffffffffffffffffffffffff021916908373ffffffffffffffffffffffffffffffffffffffff16021790555050620003ef565b600033905090565b6000600a60009054906101000a900473ffffffffffffffffffffffffffffffffffffffff16905081600a60006101000a81548173ffffffffffffffffffffffffffffffffffffffff021916908373ffffffffffffffffffffffffffffffffffffffff1602179055508173ffffffffffffffffffffffffffffffffffffffff168173ffffffffffffffffffffffffffffffffffffffff167f8be0079c531659141344cd1fd0a4f28419497f9722a3daafe3b4186f6b6457e060405160405180910390a35050565b8280546200024d90620003ba565b90600052602060002090601f016020900481019282620002715760008555620002bd565b82601f106200028c57805160ff1916838001178555620002bd565b82800160010185558215620002bd579182015b82811115620002bc5782518255916020019190600101906200029f565b5b509050620002cc9190620002d0565b5090565b5b80821115620002eb576000816000905550600101620002d1565b5090565b600080fd5b600073ffffffffffffffffffffffffffffffffffffffff82169050919050565b60006200032182620002f4565b9050919050565b620003338162000314565b81146200033f57600080fd5b50565b600081519050620003538162000328565b92915050565b600060208284031215620003725762000371620002ef565b5b6000620003828482850162000342565b91505092915050565b7f4e487b7100000000000000000000000000000000000000000000000000000000600052602260045260246000fd5b60006002820490506001821680620003d357607f821691505b602082108103620003e957620003e86200038b565b5b50919050565b613b6680620003ff6000396000f3fe6080604052600436106101855760003560e01c80636352211e116100d1578063a22cb4651161008a578063c87b56dd11610064578063c87b56dd146105e1578063cf76a1531461061e578063e985e9c514610649578063f2fde38b14610686576101d0565b8063a22cb46514610566578063b723b34e1461058f578063b88d4fde146105b8576101d0565b80636352211e1461045457806370a0823114610491578063715018a6146104ce578063791b3616146104e55780638da5cb5b1461051057806395d89b411461053b576101d0565b806318160ddd1161013e57806342842e0e1161011857806342842e0e146103885780634f558e79146103b15780634f6ccce7146103ee57806355f804b31461042b576101d0565b806318160ddd146102f757806323b872dd146103225780632f745c591461034b576101d0565b806301ffc9a7146101d557806306fdde0314610212578063081812fc1461023d578063095ea7b31461027a5780630bea05e7146102a357806312af8372146102cc576101d0565b366101d057343373ffffffffffffffffffffffffffffffffffffffff167fa419615bc8fda4c87663805ee2a3597a6d71c1d476911d9892f340d965bc7bf160405160405180910390a3005b600080fd5b3480156101e157600080fd5b506101fc60048036038101906101f791906127e1565b6106af565b6040516102099190612829565b60405180910390f35b34801561021e57600080fd5b50610227610729565b60405161023491906128dd565b60405180910390f35b34801561024957600080fd5b50610264600480360381019061025f9190612935565b6107bb565b60405161027191906129a3565b60405180910390f35b34801561028657600080fd5b506102a1600480360381019061029c91906129ea565b610801565b005b3480156102af57600080fd5b506102ca60048036038101906102c59190612a2a565b610918565b005b3480156102d857600080fd5b506102e1610964565b6040516102ee91906129a3565b60405180910390f35b34801561030357600080fd5b5061030c61098a565b6040516103199190612a66565b60405180910390f35b34801561032e57600080fd5b5061034960048036038101906103449190612a81565b610997565b005b34801561035757600080fd5b50610372600480360381019061036d91906129ea565b6109f7565b60405161037f9190612a66565b60405180910390f35b34801561039457600080fd5b506103af60048036038101906103aa9190612a81565b610a9c565b005b3480156103bd57600080fd5b506103d860048036038101906103d39190612935565b610abc565b6040516103e59190612829565b60405180910390f35b3480156103fa57600080fd5b5061041560048036038101906104109190612935565b610ace565b6040516104229190612a66565b60405180910390f35b34801561043757600080fd5b50610452600480360381019061044d9190612c09565b610b3f565b005b34801561046057600080fd5b5061047b60048036038101906104769190612935565b610ba3565b60405161048891906129a3565b60405180910390f35b34801561049d57600080fd5b506104b860048036038101906104b39190612a2a565b610c29565b6040516104c59190612a66565b60405180910390f35b3480156104da57600080fd5b506104e3610ce0565b005b3480156104f157600080fd5b506104fa610cf4565b60405161050791906129a3565b60405180910390f35b34801561051c57600080fd5b50610525610d1a565b60405161053291906129a3565b60405180910390f35b34801561054757600080fd5b50610550610d44565b60405161055d91906128dd565b60405180910390f35b34801561057257600080fd5b5061058d60048036038101906105889190612c7e565b610dd6565b005b34801561059b57600080fd5b506105b660048036038101906105b19190612cbe565b610dec565b005b3480156105c457600080fd5b506105df60048036038101906105da9190612d9f565b610f36565b005b3480156105ed57600080fd5b5061060860048036038101906106039190612935565b610f98565b60405161061591906128dd565b60405180910390f35b34801561062a57600080fd5b50610633610fcc565b60405161064091906128dd565b60405180910390f35b34801561065557600080fd5b50610670600480360381019061066b9190612e22565b61105a565b60405161067d9190612829565b60405180910390f35b34801561069257600080fd5b506106ad60048036038101906106a89190612a2a565b6110ee565b005b60007f780e9d63000000000000000000000000000000000000000000000000000000007bffffffffffffffffffffffffffffffffffffffffffffffffffffffff1916827bffffffffffffffffffffffffffffffffffffffffffffffffffffffff19161480610722575061072182611171565b5b9050919050565b60606000805461073890612e91565b80601f016020809104026020016040519081016040528092919081815260200182805461076490612e91565b80156107b15780601f10610786576101008083540402835291602001916107b1565b820191906000526020600020905b81548152906001019060200180831161079457829003601f168201915b5050505050905090565b60006107c682611253565b6004600083815260200190815260200160002060009054906101000a900473ffffffffffffffffffffffffffffffffffffffff169050919050565b600061080c82610ba3565b90508073ffffffffffffffffffffffffffffffffffffffff168373ffffffffffffffffffffffffffffffffffffffff160361087c576040517f08c379a000000000000000000000000000000000000000000000000000000000815260040161087390612f34565b60405180910390fd5b8073ffffffffffffffffffffffffffffffffffffffff1661089b61129e565b73ffffffffffffffffffffffffffffffffffffffff1614806108ca57506108c9816108c461129e565b61105a565b5b610909576040517f08c379a000000000000000000000000000000000000000000000000000000000815260040161090090612fc6565b60405180910390fd5b61091383836112a6565b505050565b61092061135f565b80600c60006101000a81548173ffffffffffffffffffffffffffffffffffffffff021916908373ffffffffffffffffffffffffffffffffffffffff16021790555050565b600c60009054906101000a900473ffffffffffffffffffffffffffffffffffffffff1681565b6000600880549050905090565b6109a86109a261129e565b826113dd565b6109e7576040517f08c379a00000000000000000000000000000000000000000000000000000000081526004016109de90613058565b60405180910390fd5b6109f2838383611472565b505050565b6000610a0283610c29565b8210610a43576040517f08c379a0000000000000000000000000000000000000000000000000000000008152600401610a3a906130ea565b60405180910390fd5b600660008473ffffffffffffffffffffffffffffffffffffffff1673ffffffffffffffffffffffffffffffffffffffff168152602001908152602001600020600083815260200190815260200160002054905092915050565b610ab783838360405180602001604052806000815250610f36565b505050565b6000610ac78261176b565b9050919050565b6000610ad861098a565b8210610b19576040517f08c379a0000000000000000000000000000000000000000000000000000000008152600401610b109061317c565b60405180910390fd5b60088281548110610b2d57610b2c61319c565b5b90600052602060002001549050919050565b610b4761135f565b80600d9080519060200190610b5d9291906126d2565b5080604051610b6c9190613207565b60405180910390207fc9e8f610c54c2b76116d5166ae3d1bd8f7227fd57dce593bc86525d58991963d60405160405180910390a250565b600080610baf836117ac565b9050600073ffffffffffffffffffffffffffffffffffffffff168173ffffffffffffffffffffffffffffffffffffffff1603610c20576040517f08c379a0000000000000000000000000000000000000000000000000000000008152600401610c179061326a565b60405180910390fd5b80915050919050565b60008073ffffffffffffffffffffffffffffffffffffffff168273ffffffffffffffffffffffffffffffffffffffff1603610c99576040517f08c379a0000000000000000000000000000000000000000000000000000000008152600401610c90906132fc565b60405180910390fd5b600360008373ffffffffffffffffffffffffffffffffffffffff1673ffffffffffffffffffffffffffffffffffffffff168152602001908152602001600020549050919050565b610ce861135f565b610cf260006117e9565b565b600b60009054906101000a900473ffffffffffffffffffffffffffffffffffffffff1681565b6000600a60009054906101000a900473ffffffffffffffffffffffffffffffffffffffff16905090565b606060018054610d5390612e91565b80601f0160208091040260200160405190810160405280929190818152602001828054610d7f90612e91565b8015610dcc5780601f10610da157610100808354040283529160200191610dcc565b820191906000526020600020905b815481529060010190602001808311610daf57829003601f168201915b5050505050905090565b610de8610de161129e565b83836118af565b5050565b600073ffffffffffffffffffffffffffffffffffffffff163373ffffffffffffffffffffffffffffffffffffffff1603610e5b576040517f08c379a0000000000000000000000000000000000000000000000000000000008152600401610e5290613368565b60405180910390fd5b600c60009054906101000a900473ffffffffffffffffffffffffffffffffffffffff1673ffffffffffffffffffffffffffffffffffffffff163373ffffffffffffffffffffffffffffffffffffffff161480610ee95750610eba610d1a565b73ffffffffffffffffffffffffffffffffffffffff163373ffffffffffffffffffffffffffffffffffffffff16145b610f28576040517f08c379a0000000000000000000000000000000000000000000000000000000008152600401610f1f906133d4565b60405180910390fd5b610f328183611a1b565b5050565b610f47610f4161129e565b836113dd565b610f86576040517f08c379a0000000000000000000000000000000000000000000000000000000008152600401610f7d90613058565b60405180910390fd5b610f9284848484611a39565b50505050565b6060600d610fa583611a95565b604051602001610fb6929190613488565b6040516020818303038152906040529050919050565b600d8054610fd990612e91565b80601f016020809104026020016040519081016040528092919081815260200182805461100590612e91565b80156110525780601f1061102757610100808354040283529160200191611052565b820191906000526020600020905b81548152906001019060200180831161103557829003601f168201915b505050505081565b6000600560008473ffffffffffffffffffffffffffffffffffffffff1673ffffffffffffffffffffffffffffffffffffffff16815260200190815260200160002060008373ffffffffffffffffffffffffffffffffffffffff1673ffffffffffffffffffffffffffffffffffffffff16815260200190815260200160002060009054906101000a900460ff16905092915050565b6110f661135f565b600073ffffffffffffffffffffffffffffffffffffffff168173ffffffffffffffffffffffffffffffffffffffff1603611165576040517f08c379a000000000000000000000000000000000000000000000000000000000815260040161115c9061351e565b60405180910390fd5b61116e816117e9565b50565b60007f80ac58cd000000000000000000000000000000000000000000000000000000007bffffffffffffffffffffffffffffffffffffffffffffffffffffffff1916827bffffffffffffffffffffffffffffffffffffffffffffffffffffffff1916148061123c57507f5b5e139f000000000000000000000000000000000000000000000000000000007bffffffffffffffffffffffffffffffffffffffffffffffffffffffff1916827bffffffffffffffffffffffffffffffffffffffffffffffffffffffff1916145b8061124c575061124b82611b63565b5b9050919050565b61125c8161176b565b61129b576040517f08c379a00000000000000000000000000000000000000000000000000000000081526004016112929061326a565b60405180910390fd5b50565b600033905090565b816004600083815260200190815260200160002060006101000a81548173ffffffffffffffffffffffffffffffffffffffff021916908373ffffffffffffffffffffffffffffffffffffffff160217905550808273ffffffffffffffffffffffffffffffffffffffff1661131983610ba3565b73ffffffffffffffffffffffffffffffffffffffff167f8c5be1e5ebec7d5bd14f71427d1e84f3dd0314c0f7b2291e5b200ac8c7c3b92560405160405180910390a45050565b61136761129e565b73ffffffffffffffffffffffffffffffffffffffff16611385610d1a565b73ffffffffffffffffffffffffffffffffffffffff16146113db576040517f08c379a00000000000000000000000000000000000000000000000000000000081526004016113d29061358a565b60405180910390fd5b565b6000806113e983610ba3565b90508073ffffffffffffffffffffffffffffffffffffffff168473ffffffffffffffffffffffffffffffffffffffff16148061142b575061142a818561105a565b5b8061146957508373ffffffffffffffffffffffffffffffffffffffff16611451846107bb565b73ffffffffffffffffffffffffffffffffffffffff16145b91505092915050565b8273ffffffffffffffffffffffffffffffffffffffff1661149282610ba3565b73ffffffffffffffffffffffffffffffffffffffff16146114e8576040517f08c379a00000000000000000000000000000000000000000000000000000000081526004016114df9061361c565b60405180910390fd5b600073ffffffffffffffffffffffffffffffffffffffff168273ffffffffffffffffffffffffffffffffffffffff1603611557576040517f08c379a000000000000000000000000000000000000000000000000000000000815260040161154e906136ae565b60405180910390fd5b6115648383836001611bcd565b8273ffffffffffffffffffffffffffffffffffffffff1661158482610ba3565b73ffffffffffffffffffffffffffffffffffffffff16146115da576040517f08c379a00000000000000000000000000000000000000000000000000000000081526004016115d19061361c565b60405180910390fd5b6004600082815260200190815260200160002060006101000a81549073ffffffffffffffffffffffffffffffffffffffff02191690556001600360008573ffffffffffffffffffffffffffffffffffffffff1673ffffffffffffffffffffffffffffffffffffffff168152602001908152602001600020600082825403925050819055506001600360008473ffffffffffffffffffffffffffffffffffffffff1673ffffffffffffffffffffffffffffffffffffffff16815260200190815260200160002060008282540192505081905550816002600083815260200190815260200160002060006101000a81548173ffffffffffffffffffffffffffffffffffffffff021916908373ffffffffffffffffffffffffffffffffffffffff160217905550808273ffffffffffffffffffffffffffffffffffffffff168473ffffffffffffffffffffffffffffffffffffffff167fddf252ad1be2c89b69c2b068fc378daa952ba7f163c4a11628f55a4df523b3ef60405160405180910390a46117668383836001611d2b565b505050565b60008073ffffffffffffffffffffffffffffffffffffffff1661178d836117ac565b73ffffffffffffffffffffffffffffffffffffffff1614159050919050565b60006002600083815260200190815260200160002060009054906101000a900473ffffffffffffffffffffffffffffffffffffffff169050919050565b6000600a60009054906101000a900473ffffffffffffffffffffffffffffffffffffffff16905081600a60006101000a81548173ffffffffffffffffffffffffffffffffffffffff021916908373ffffffffffffffffffffffffffffffffffffffff1602179055508173ffffffffffffffffffffffffffffffffffffffff168173ffffffffffffffffffffffffffffffffffffffff167f8be0079c531659141344cd1fd0a4f28419497f9722a3daafe3b4186f6b6457e060405160405180910390a35050565b8173ffffffffffffffffffffffffffffffffffffffff168373ffffffffffffffffffffffffffffffffffffffff160361191d576040517f08c379a00000000000000000000000000000000000000000000000000000000081526004016119149061371a565b60405180910390fd5b80600560008573ffffffffffffffffffffffffffffffffffffffff1673ffffffffffffffffffffffffffffffffffffffff16815260200190815260200160002060008473ffffffffffffffffffffffffffffffffffffffff1673ffffffffffffffffffffffffffffffffffffffff16815260200190815260200160002060006101000a81548160ff0219169083151502179055508173ffffffffffffffffffffffffffffffffffffffff168373ffffffffffffffffffffffffffffffffffffffff167f17307eab39ab6107e8899845ad3d59bd9653f200f220920489ca2b5937696c3183604051611a0e9190612829565b60405180910390a3505050565b611a35828260405180602001604052806000815250611d31565b5050565b611a44848484611472565b611a5084848484611d8c565b611a8f576040517f08c379a0000000000000000000000000000000000000000000000000000000008152600401611a86906137ac565b60405180910390fd5b50505050565b606060006001611aa484611f13565b01905060008167ffffffffffffffff811115611ac357611ac2612ade565b5b6040519080825280601f01601f191660200182016040528015611af55781602001600182028036833780820191505090505b509050600082602001820190505b600115611b58578080600190039150507f3031323334353637383961626364656600000000000000000000000000000000600a86061a8153600a8581611b4c57611b4b6137cc565b5b04945060008503611b03575b819350505050919050565b60007f01ffc9a7000000000000000000000000000000000000000000000000000000007bffffffffffffffffffffffffffffffffffffffffffffffffffffffff1916827bffffffffffffffffffffffffffffffffffffffffffffffffffffffff1916149050919050565b611bd984848484612066565b6001811115611c1d576040517f08c379a0000000000000000000000000000000000000000000000000000000008152600401611c149061386d565b60405180910390fd5b6000829050600073ffffffffffffffffffffffffffffffffffffffff168573ffffffffffffffffffffffffffffffffffffffff1603611c6457611c5f8161218c565b611ca3565b8373ffffffffffffffffffffffffffffffffffffffff168573ffffffffffffffffffffffffffffffffffffffff1614611ca257611ca185826121d5565b5b5b600073ffffffffffffffffffffffffffffffffffffffff168473ffffffffffffffffffffffffffffffffffffffff1603611ce557611ce081612342565b611d24565b8473ffffffffffffffffffffffffffffffffffffffff168473ffffffffffffffffffffffffffffffffffffffff1614611d2357611d228482612413565b5b5b5050505050565b50505050565b611d3b8383612492565b611d486000848484611d8c565b611d87576040517f08c379a0000000000000000000000000000000000000000000000000000000008152600401611d7e906137ac565b60405180910390fd5b505050565b6000611dad8473ffffffffffffffffffffffffffffffffffffffff166126af565b15611f06578373ffffffffffffffffffffffffffffffffffffffff1663150b7a02611dd661129e565b8786866040518563ffffffff1660e01b8152600401611df894939291906138e2565b6020604051808303816000875af1925050508015611e3457506040513d601f19601f82011682018060405250810190611e319190613943565b60015b611eb6573d8060008114611e64576040519150601f19603f3d011682016040523d82523d6000602084013e611e69565b606091505b506000815103611eae576040517f08c379a0000000000000000000000000000000000000000000000000000000008152600401611ea5906137ac565b60405180910390fd5b805181602001fd5b63150b7a0260e01b7bffffffffffffffffffffffffffffffffffffffffffffffffffffffff1916817bffffffffffffffffffffffffffffffffffffffffffffffffffffffff191614915050611f0b565b600190505b949350505050565b600080600090507a184f03e93ff9f4daa797ed6e38ed64bf6a1f0100000000000000008310611f71577a184f03e93ff9f4daa797ed6e38ed64bf6a1f0100000000000000008381611f6757611f666137cc565b5b0492506040810190505b6d04ee2d6d415b85acef81000000008310611fae576d04ee2d6d415b85acef81000000008381611fa457611fa36137cc565b5b0492506020810190505b662386f26fc100008310611fdd57662386f26fc100008381611fd357611fd26137cc565b5b0492506010810190505b6305f5e1008310612006576305f5e1008381611ffc57611ffb6137cc565b5b0492506008810190505b612710831061202b576127108381612021576120206137cc565b5b0492506004810190505b6064831061204e5760648381612044576120436137cc565b5b0492506002810190505b600a831061205d576001810190505b80915050919050565b600181111561218657600073ffffffffffffffffffffffffffffffffffffffff168473ffffffffffffffffffffffffffffffffffffffff16146120fa5780600360008673ffffffffffffffffffffffffffffffffffffffff1673ffffffffffffffffffffffffffffffffffffffff16815260200190815260200160002060008282546120f2919061399f565b925050819055505b600073ffffffffffffffffffffffffffffffffffffffff168373ffffffffffffffffffffffffffffffffffffffff16146121855780600360008573ffffffffffffffffffffffffffffffffffffffff1673ffffffffffffffffffffffffffffffffffffffff168152602001908152602001600020600082825461217d91906139d3565b925050819055505b5b50505050565b6008805490506009600083815260200190815260200160002081905550600881908060018154018082558091505060019003906000526020600020016000909190919091505550565b600060016121e284610c29565b6121ec919061399f565b90506000600760008481526020019081526020016000205490508181146122d1576000600660008673ffffffffffffffffffffffffffffffffffffffff1673ffffffffffffffffffffffffffffffffffffffff168152602001908152602001600020600084815260200190815260200160002054905080600660008773ffffffffffffffffffffffffffffffffffffffff1673ffffffffffffffffffffffffffffffffffffffff168152602001908152602001600020600084815260200190815260200160002081905550816007600083815260200190815260200160002081905550505b6007600084815260200190815260200160002060009055600660008573ffffffffffffffffffffffffffffffffffffffff1673ffffffffffffffffffffffffffffffffffffffff16815260200190815260200160002060008381526020019081526020016000206000905550505050565b60006001600880549050612356919061399f565b90506000600960008481526020019081526020016000205490506000600883815481106123865761238561319c565b5b9060005260206000200154905080600883815481106123a8576123a761319c565b5b9060005260206000200181905550816009600083815260200190815260200160002081905550600960008581526020019081526020016000206000905560088054806123f7576123f6613a29565b5b6001900381819060005260206000200160009055905550505050565b600061241e83610c29565b905081600660008573ffffffffffffffffffffffffffffffffffffffff1673ffffffffffffffffffffffffffffffffffffffff168152602001908152602001600020600083815260200190815260200160002081905550806007600084815260200190815260200160002081905550505050565b600073ffffffffffffffffffffffffffffffffffffffff168273ffffffffffffffffffffffffffffffffffffffff1603612501576040517f08c379a00000000000000000000000000000000000000000000000000000000081526004016124f890613aa4565b60405180910390fd5b61250a8161176b565b1561254a576040517f08c379a000000000000000000000000000000000000000000000000000000000815260040161254190613b10565b60405180910390fd5b612558600083836001611bcd565b6125618161176b565b156125a1576040517f08c379a000000000000000000000000000000000000000000000000000000000815260040161259890613b10565b60405180910390fd5b6001600360008473ffffffffffffffffffffffffffffffffffffffff1673ffffffffffffffffffffffffffffffffffffffff16815260200190815260200160002060008282540192505081905550816002600083815260200190815260200160002060006101000a81548173ffffffffffffffffffffffffffffffffffffffff021916908373ffffffffffffffffffffffffffffffffffffffff160217905550808273ffffffffffffffffffffffffffffffffffffffff16600073ffffffffffffffffffffffffffffffffffffffff167fddf252ad1be2c89b69c2b068fc378daa952ba7f163c4a11628f55a4df523b3ef60405160405180910390a46126ab600083836001611d2b565b5050565b6000808273ffffffffffffffffffffffffffffffffffffffff163b119050919050565b8280546126de90612e91565b90600052602060002090601f0160209004810192826127005760008555612747565b82601f1061271957805160ff1916838001178555612747565b82800160010185558215612747579182015b8281111561274657825182559160200191906001019061272b565b5b5090506127549190612758565b5090565b5b80821115612771576000816000905550600101612759565b5090565b6000604051905090565b600080fd5b600080fd5b60007fffffffff0000000000000000000000000000000000000000000000000000000082169050919050565b6127be81612789565b81146127c957600080fd5b50565b6000813590506127db816127b5565b92915050565b6000602082840312156127f7576127f661277f565b5b6000612805848285016127cc565b91505092915050565b60008115159050919050565b6128238161280e565b82525050565b600060208201905061283e600083018461281a565b92915050565b600081519050919050565b600082825260208201905092915050565b60005b8381101561287e578082015181840152602081019050612863565b8381111561288d576000848401525b50505050565b6000601f19601f8301169050919050565b60006128af82612844565b6128b9818561284f565b93506128c9818560208601612860565b6128d281612893565b840191505092915050565b600060208201905081810360008301526128f781846128a4565b905092915050565b6000819050919050565b612912816128ff565b811461291d57600080fd5b50565b60008135905061292f81612909565b92915050565b60006020828403121561294b5761294a61277f565b5b600061295984828501612920565b91505092915050565b600073ffffffffffffffffffffffffffffffffffffffff82169050919050565b600061298d82612962565b9050919050565b61299d81612982565b82525050565b60006020820190506129b86000830184612994565b92915050565b6129c781612982565b81146129d257600080fd5b50565b6000813590506129e4816129be565b92915050565b60008060408385031215612a0157612a0061277f565b5b6000612a0f858286016129d5565b9250506020612a2085828601612920565b9150509250929050565b600060208284031215612a4057612a3f61277f565b5b6000612a4e848285016129d5565b91505092915050565b612a60816128ff565b82525050565b6000602082019050612a7b6000830184612a57565b92915050565b600080600060608486031215612a9a57612a9961277f565b5b6000612aa8868287016129d5565b9350506020612ab9868287016129d5565b9250506040612aca86828701612920565b9150509250925092565b600080fd5b600080fd5b7f4e487b7100000000000000000000000000000000000000000000000000000000600052604160045260246000fd5b612b1682612893565b810181811067ffffffffffffffff82111715612b3557612b34612ade565b5b80604052505050565b6000612b48612775565b9050612b548282612b0d565b919050565b600067ffffffffffffffff821115612b7457612b73612ade565b5b612b7d82612893565b9050602081019050919050565b82818337600083830152505050565b6000612bac612ba784612b59565b612b3e565b905082815260208101848484011115612bc857612bc7612ad9565b5b612bd3848285612b8a565b509392505050565b600082601f830112612bf057612bef612ad4565b5b8135612c00848260208601612b99565b91505092915050565b600060208284031215612c1f57612c1e61277f565b5b600082013567ffffffffffffffff811115612c3d57612c3c612784565b5b612c4984828501612bdb565b91505092915050565b612c5b8161280e565b8114612c6657600080fd5b50565b600081359050612c7881612c52565b92915050565b60008060408385031215612c9557612c9461277f565b5b6000612ca3858286016129d5565b9250506020612cb485828601612c69565b9150509250929050565b60008060408385031215612cd557612cd461277f565b5b6000612ce385828601612920565b9250506020612cf4858286016129d5565b9150509250929050565b600067ffffffffffffffff821115612d1957612d18612ade565b5b612d2282612893565b9050602081019050919050565b6000612d42612d3d84612cfe565b612b3e565b905082815260208101848484011115612d5e57612d5d612ad9565b5b612d69848285612b8a565b509392505050565b600082601f830112612d8657612d85612ad4565b5b8135612d96848260208601612d2f565b91505092915050565b60008060008060808587031215612db957612db861277f565b5b6000612dc7878288016129d5565b9450506020612dd8878288016129d5565b9350506040612de987828801612920565b925050606085013567ffffffffffffffff811115612e0a57612e09612784565b5b612e1687828801612d71565b91505092959194509250565b60008060408385031215612e3957612e3861277f565b5b6000612e47858286016129d5565b9250506020612e58858286016129d5565b9150509250929050565b7f4e487b7100000000000000000000000000000000000000000000000000000000600052602260045260246000fd5b60006002820490506001821680612ea957607f821691505b602082108103612ebc57612ebb612e62565b5b50919050565b7f4552433732313a20617070726f76616c20746f2063757272656e74206f776e6560008201527f7200000000000000000000000000000000000000000000000000000000000000602082015250565b6000612f1e60218361284f565b9150612f2982612ec2565b604082019050919050565b60006020820190508181036000830152612f4d81612f11565b9050919050565b7f4552433732313a20617070726f76652063616c6c6572206973206e6f7420746f60008201527f6b656e206f776e6572206f7220617070726f76656420666f7220616c6c000000602082015250565b6000612fb0603d8361284f565b9150612fbb82612f54565b604082019050919050565b60006020820190508181036000830152612fdf81612fa3565b9050919050565b7f4552433732313a2063616c6c6572206973206e6f7420746f6b656e206f776e6560008201527f72206f7220617070726f76656400000000000000000000000000000000000000602082015250565b6000613042602d8361284f565b915061304d82612fe6565b604082019050919050565b6000602082019050818103600083015261307181613035565b9050919050565b7f455243373231456e756d657261626c653a206f776e657220696e646578206f7560008201527f74206f6620626f756e6473000000000000000000000000000000000000000000602082015250565b60006130d4602b8361284f565b91506130df82613078565b604082019050919050565b60006020820190508181036000830152613103816130c7565b9050919050565b7f455243373231456e756d657261626c653a20676c6f62616c20696e646578206f60008201527f7574206f6620626f756e64730000000000000000000000000000000000000000602082015250565b6000613166602c8361284f565b91506131718261310a565b604082019050919050565b6000602082019050818103600083015261319581613159565b9050919050565b7f4e487b7100000000000000000000000000000000000000000000000000000000600052603260045260246000fd5b600081905092915050565b60006131e182612844565b6131eb81856131cb565b93506131fb818560208601612860565b80840191505092915050565b600061321382846131d6565b915081905092915050565b7f4552433732313a20696e76616c696420746f6b656e2049440000000000000000600082015250565b600061325460188361284f565b915061325f8261321e565b602082019050919050565b6000602082019050818103600083015261328381613247565b9050919050565b7f4552433732313a2061646472657373207a65726f206973206e6f74206120766160008201527f6c6964206f776e65720000000000000000000000000000000000000000000000602082015250565b60006132e660298361284f565b91506132f18261328a565b604082019050919050565b60006020820190508181036000830152613315816132d9565b9050919050565b7f5a65726f20616464726573730000000000000000000000000000000000000000600082015250565b6000613352600c8361284f565b915061335d8261331c565b602082019050919050565b6000602082019050818103600083015261338181613345565b9050919050565b7f53656e646572206e6f7420696e666563746f7200000000000000000000000000600082015250565b60006133be60138361284f565b91506133c982613388565b602082019050919050565b600060208201905081810360008301526133ed816133b1565b9050919050565b60008190508160005260206000209050919050565b6000815461341681612e91565b61342081866131cb565b9450600182166000811461343b576001811461344c5761347f565b60ff1983168652818601935061347f565b613455856133f4565b60005b8381101561347757815481890152600182019150602081019050613458565b838801955050505b50505092915050565b60006134948285613409565b91506134a082846131d6565b91508190509392505050565b7f4f776e61626c653a206e6577206f776e657220697320746865207a65726f206160008201527f6464726573730000000000000000000000000000000000000000000000000000602082015250565b600061350860268361284f565b9150613513826134ac565b604082019050919050565b60006020820190508181036000830152613537816134fb565b9050919050565b7f4f776e61626c653a2063616c6c6572206973206e6f7420746865206f776e6572600082015250565b600061357460208361284f565b915061357f8261353e565b602082019050919050565b600060208201905081810360008301526135a381613567565b9050919050565b7f4552433732313a207472616e736665722066726f6d20696e636f72726563742060008201527f6f776e6572000000000000000000000000000000000000000000000000000000602082015250565b600061360660258361284f565b9150613611826135aa565b604082019050919050565b60006020820190508181036000830152613635816135f9565b9050919050565b7f4552433732313a207472616e7366657220746f20746865207a65726f2061646460008201527f7265737300000000000000000000000000000000000000000000000000000000602082015250565b600061369860248361284f565b91506136a38261363c565b604082019050919050565b600060208201905081810360008301526136c78161368b565b9050919050565b7f4552433732313a20617070726f766520746f2063616c6c657200000000000000600082015250565b600061370460198361284f565b915061370f826136ce565b602082019050919050565b60006020820190508181036000830152613733816136f7565b9050919050565b7f4552433732313a207472616e7366657220746f206e6f6e20455243373231526560008201527f63656976657220696d706c656d656e7465720000000000000000000000000000602082015250565b600061379660328361284f565b91506137a18261373a565b604082019050919050565b600060208201905081810360008301526137c581613789565b9050919050565b7f4e487b7100000000000000000000000000000000000000000000000000000000600052601260045260246000fd5b7f455243373231456e756d657261626c653a20636f6e736563757469766520747260008201527f616e7366657273206e6f7420737570706f727465640000000000000000000000602082015250565b600061385760358361284f565b9150613862826137fb565b604082019050919050565b600060208201905081810360008301526138868161384a565b9050919050565b600081519050919050565b600082825260208201905092915050565b60006138b48261388d565b6138be8185613898565b93506138ce818560208601612860565b6138d781612893565b840191505092915050565b60006080820190506138f76000830187612994565b6139046020830186612994565b6139116040830185612a57565b818103606083015261392381846138a9565b905095945050505050565b60008151905061393d816127b5565b92915050565b6000602082840312156139595761395861277f565b5b60006139678482850161392e565b91505092915050565b7f4e487b7100000000000000000000000000000000000000000000000000000000600052601160045260246000fd5b60006139aa826128ff565b91506139b5836128ff565b9250828210156139c8576139c7613970565b5b828203905092915050565b60006139de826128ff565b91506139e9836128ff565b9250827fffffffffffffffffffffffffffffffffffffffffffffffffffffffffffffffff03821115613a1e57613a1d613970565b5b828201905092915050565b7f4e487b7100000000000000000000000000000000000000000000000000000000600052603160045260246000fd5b7f4552433732313a206d696e7420746f20746865207a65726f2061646472657373600082015250565b6000613a8e60208361284f565b9150613a9982613a58565b602082019050919050565b60006020820190508181036000830152613abd81613a81565b9050919050565b7f4552433732313a20746f6b656e20616c7265616479206d696e74656400000000600082015250565b6000613afa601c8361284f565b9150613b0582613ac4565b602082019050919050565b60006020820190508181036000830152613b2981613aed565b905091905056fea2646970667358221220add71af81cc81ed895162708e54078ab9ddbd668d7a4373fa2a264037ff05ac164736f6c634300080d003368747470733a2f2f7072696d65617065706c616e65742e636f6d2f696e6665637465646d657461646174612f",
  "linkReferences": {},
  "deployedLinkReferences": {}
}