{
  "_format": "hh-sol-artifact-1",
  "contractName": "MintableERC721",
  "sourceName": "src/backend/contracts/MintableERC721.sol",
  "abi": [
    {
      "inputs": [
        {
          "internalType": "string",
          "name": "_name",
          "type": "string"
        },
        {
          "internalType": "string",
          "name": "_symbol",
          "type": "string"
        }
      ],
      "stateMutability": "nonpayable",
      "type": "constructor"
    },
    {
      "anonymous": false,
      "inputs": [
        {
          "indexed": true,
          "internalType": "address",
          "name": "owner",
          "type": "address"
        },
        {
          "indexed": true,
          "internalType": "address",
          "name": "approved",
          "type": "address"
        },
        {
          "indexed": true,
          "internalType": "uint256",
          "name": "tokenId",
          "type": "uint256"
        }
      ],
      "name": "Approval",
      "type": "event"
    },
    {
      "anonymous": false,
      "inputs": [
        {
          "indexed": true,
          "internalType": "address",
          "name": "owner",
          "type": "address"
        },
        {
          "indexed": true,
          "internalType": "address",
          "name": "operator",
          "type": "address"
        },
        {
          "indexed": false,
          "internalType": "bool",
          "name": "approved",
          "type": "bool"
        }
      ],
      "name": "ApprovalForAll",
      "type": "event"
    },
    {
      "anonymous": false,
      "inputs": [
        {
          "indexed": false,
          "internalType": "address",
          "name": "_by",
          "type": "address"
        },
        {
          "indexed": false,
          "internalType": "string",
          "name": "_oldVal",
          "type": "string"
        },
        {
          "indexed": false,
          "internalType": "string",
          "name": "_newVal",
          "type": "string"
        }
      ],
      "name": "BaseURIChanged",
      "type": "event"
    },
    {
      "anonymous": false,
      "inputs": [
        {
          "indexed": true,
          "internalType": "address",
          "name": "previousOwner",
          "type": "address"
        },
        {
          "indexed": true,
          "internalType": "address",
          "name": "newOwner",
          "type": "address"
        }
      ],
      "name": "OwnershipTransferred",
      "type": "event"
    },
    {
      "anonymous": false,
      "inputs": [
        {
          "indexed": true,
          "internalType": "bytes32",
          "name": "role",
          "type": "bytes32"
        },
        {
          "indexed": true,
          "internalType": "bytes32",
          "name": "previousAdminRole",
          "type": "bytes32"
        },
        {
          "indexed": true,
          "internalType": "bytes32",
          "name": "newAdminRole",
          "type": "bytes32"
        }
      ],
      "name": "RoleAdminChanged",
      "type": "event"
    },
    {
      "anonymous": false,
      "inputs": [
        {
          "indexed": true,
          "internalType": "bytes32",
          "name": "role",
          "type": "bytes32"
        },
        {
          "indexed": true,
          "internalType": "address",
          "name": "account",
          "type": "address"
        },
        {
          "indexed": true,
          "internalType": "address",
          "name": "sender",
          "type": "address"
        }
      ],
      "name": "RoleGranted",
      "type": "event"
    },
    {
      "anonymous": false,
      "inputs": [
        {
          "indexed": true,
          "internalType": "bytes32",
          "name": "role",
          "type": "bytes32"
        },
        {
          "indexed": true,
          "internalType": "address",
          "name": "account",
          "type": "address"
        },
        {
          "indexed": true,
          "internalType": "address",
          "name": "sender",
          "type": "address"
        }
      ],
      "name": "RoleRevoked",
      "type": "event"
    },
    {
      "anonymous": false,
      "inputs": [
        {
          "indexed": true,
          "internalType": "address",
          "name": "from",
          "type": "address"
        },
        {
          "indexed": true,
          "internalType": "address",
          "name": "to",
          "type": "address"
        },
        {
          "indexed": true,
          "internalType": "uint256",
          "name": "tokenId",
          "type": "uint256"
        }
      ],
      "name": "Transfer",
      "type": "event"
    },
    {
      "inputs": [],
      "name": "BURNER_ROLE",
      "outputs": [
        {
          "internalType": "bytes32",
          "name": "",
          "type": "bytes32"
        }
      ],
      "stateMutability": "view",
      "type": "function"
    },
    {
      "inputs": [],
      "name": "DEFAULT_ADMIN_ROLE",
      "outputs": [
        {
          "internalType": "bytes32",
          "name": "",
          "type": "bytes32"
        }
      ],
      "stateMutability": "view",
      "type": "function"
    },
    {
      "inputs": [],
      "name": "MINTER_ROLE",
      "outputs": [
        {
          "internalType": "bytes32",
          "name": "",
          "type": "bytes32"
        }
      ],
      "stateMutability": "view",
      "type": "function"
    },
    {
      "inputs": [],
      "name": "UID",
      "outputs": [
        {
          "internalType": "uint256",
          "name": "",
          "type": "uint256"
        }
      ],
      "stateMutability": "view",
      "type": "function"
    },
    {
      "inputs": [],
      "name": "URI_MANAGER_ROLE",
      "outputs": [
        {
          "internalType": "bytes32",
          "name": "",
          "type": "bytes32"
        }
      ],
      "stateMutability": "view",
      "type": "function"
    },
    {
      "inputs": [
        {
          "internalType": "address",
          "name": "to",
          "type": "address"
        },
        {
          "internalType": "uint256",
          "name": "tokenId",
          "type": "uint256"
        }
      ],
      "name": "approve",
      "outputs": [],
      "stateMutability": "nonpayable",
      "type": "function"
    },
    {
      "inputs": [
        {
          "internalType": "address",
          "name": "owner",
          "type": "address"
        }
      ],
      "name": "balanceOf",
      "outputs": [
        {
          "internalType": "uint256",
          "name": "",
          "type": "uint256"
        }
      ],
      "stateMutability": "view",
      "type": "function"
    },
    {
      "inputs": [
        {
          "internalType": "uint256",
          "name": "_tokenId",
          "type": "uint256"
        }
      ],
      "name": "burn",
      "outputs": [],
      "stateMutability": "nonpayable",
      "type": "function"
    },
    {
      "inputs": [
        {
          "internalType": "uint256",
          "name": "_tokenId",
          "type": "uint256"
        }
      ],
      "name": "exists",
      "outputs": [
        {
          "internalType": "bool",
          "name": "",
          "type": "bool"
        }
      ],
      "stateMutability": "view",
      "type": "function"
    },
    {
      "inputs": [
        {
          "internalType": "uint256",
          "name": "tokenId",
          "type": "uint256"
        }
      ],
      "name": "getApproved",
      "outputs": [
        {
          "internalType": "address",
          "name": "",
          "type": "address"
        }
      ],
      "stateMutability": "view",
      "type": "function"
    },
    {
      "inputs": [
        {
          "internalType": "bytes32",
          "name": "role",
          "type": "bytes32"
        }
      ],
      "name": "getRoleAdmin",
      "outputs": [
        {
          "internalType": "bytes32",
          "name": "",
          "type": "bytes32"
        }
      ],
      "stateMutability": "view",
      "type": "function"
    },
    {
      "inputs": [
        {
          "internalType": "bytes32",
          "name": "role",
          "type": "bytes32"
        },
        {
          "internalType": "address",
          "name": "account",
          "type": "address"
        }
      ],
      "name": "grantRole",
      "outputs": [],
      "stateMutability": "nonpayable",
      "type": "function"
    },
    {
      "inputs": [
        {
          "internalType": "bytes32",
          "name": "role",
          "type": "bytes32"
        },
        {
          "internalType": "address",
          "name": "account",
          "type": "address"
        }
      ],
      "name": "hasRole",
      "outputs": [
        {
          "internalType": "bool",
          "name": "",
          "type": "bool"
        }
      ],
      "stateMutability": "view",
      "type": "function"
    },
    {
      "inputs": [
        {
          "internalType": "address",
          "name": "owner",
          "type": "address"
        },
        {
          "internalType": "address",
          "name": "operator",
          "type": "address"
        }
      ],
      "name": "isApprovedForAll",
      "outputs": [
        {
          "internalType": "bool",
          "name": "",
          "type": "bool"
        }
      ],
      "stateMutability": "view",
      "type": "function"
    },
    {
      "inputs": [
        {
          "internalType": "address",
          "name": "_to",
          "type": "address"
        },
        {
          "internalType": "uint256",
          "name": "_tokenId",
          "type": "uint256"
        }
      ],
      "name": "mint",
      "outputs": [],
      "stateMutability": "nonpayable",
      "type": "function"
    },
    {
      "inputs": [
        {
          "internalType": "address",
          "name": "_to",
          "type": "address"
        },
        {
          "internalType": "uint256",
          "name": "_tokenId",
          "type": "uint256"
        },
        {
          "internalType": "uint256",
          "name": "_n",
          "type": "uint256"
        }
      ],
      "name": "mintBatch",
      "outputs": [],
      "stateMutability": "nonpayable",
      "type": "function"
    },
    {
      "inputs": [],
      "name": "name",
      "outputs": [
        {
          "internalType": "string",
          "name": "",
          "type": "string"
        }
      ],
      "stateMutability": "view",
      "type": "function"
    },
    {
      "inputs": [],
      "name": "owner",
      "outputs": [
        {
          "internalType": "address",
          "name": "",
          "type": "address"
        }
      ],
      "stateMutability": "view",
      "type": "function"
    },
    {
      "inputs": [
        {
          "internalType": "uint256",
          "name": "tokenId",
          "type": "uint256"
        }
      ],
      "name": "ownerOf",
      "outputs": [
        {
          "internalType": "address",
          "name": "",
          "type": "address"
        }
      ],
      "stateMutability": "view",
      "type": "function"
    },
    {
      "inputs": [],
      "name": "renounceOwnership",
      "outputs": [],
      "stateMutability": "nonpayable",
      "type": "function"
    },
    {
      "inputs": [
        {
          "internalType": "bytes32",
          "name": "role",
          "type": "bytes32"
        },
        {
          "internalType": "address",
          "name": "account",
          "type": "address"
        }
      ],
      "name": "renounceRole",
      "outputs": [],
      "stateMutability": "nonpayable",
      "type": "function"
    },
    {
      "inputs": [
        {
          "internalType": "bytes32",
          "name": "role",
          "type": "bytes32"
        },
        {
          "internalType": "address",
          "name": "account",
          "type": "address"
        }
      ],
      "name": "revokeRole",
      "outputs": [],
      "stateMutability": "nonpayable",
      "type": "function"
    },
    {
      "inputs": [
        {
          "internalType": "address",
          "name": "_to",
          "type": "address"
        },
        {
          "internalType": "uint256",
          "name": "_tokenId",
          "type": "uint256"
        },
        {
          "internalType": "bytes",
          "name": "_data",
          "type": "bytes"
        }
      ],
      "name": "safeMint",
      "outputs": [],
      "stateMutability": "nonpayable",
      "type": "function"
    },
    {
      "inputs": [
        {
          "internalType": "address",
          "name": "_to",
          "type": "address"
        },
        {
          "internalType": "uint256",
          "name": "_tokenId",
          "type": "uint256"
        }
      ],
      "name": "safeMint",
      "outputs": [],
      "stateMutability": "nonpayable",
      "type": "function"
    },
    {
      "inputs": [
        {
          "internalType": "address",
          "name": "_to",
          "type": "address"
        },
        {
          "internalType": "uint256",
          "name": "_tokenId",
          "type": "uint256"
        },
        {
          "internalType": "uint256",
          "name": "_n",
          "type": "uint256"
        }
      ],
      "name": "safeMintBatch",
      "outputs": [],
      "stateMutability": "nonpayable",
      "type": "function"
    },
    {
      "inputs": [
        {
          "internalType": "address",
          "name": "_to",
          "type": "address"
        },
        {
          "internalType": "uint256",
          "name": "_tokenId",
          "type": "uint256"
        },
        {
          "internalType": "uint256",
          "name": "_n",
          "type": "uint256"
        },
        {
          "internalType": "bytes",
          "name": "_data",
          "type": "bytes"
        }
      ],
      "name": "safeMintBatch",
      "outputs": [],
      "stateMutability": "nonpayable",
      "type": "function"
    },
    {
      "inputs": [
        {
          "internalType": "address",
          "name": "from",
          "type": "address"
        },
        {
          "internalType": "address",
          "name": "to",
          "type": "address"
        },
        {
          "internalType": "uint256",
          "name": "tokenId",
          "type": "uint256"
        }
      ],
      "name": "safeTransferFrom",
      "outputs": [],
      "stateMutability": "nonpayable",
      "type": "function"
    },
    {
      "inputs": [
        {
          "internalType": "address",
          "name": "from",
          "type": "address"
        },
        {
          "internalType": "address",
          "name": "to",
          "type": "address"
        },
        {
          "internalType": "uint256",
          "name": "tokenId",
          "type": "uint256"
        },
        {
          "internalType": "bytes",
          "name": "_data",
          "type": "bytes"
        }
      ],
      "name": "safeTransferFrom",
      "outputs": [],
      "stateMutability": "nonpayable",
      "type": "function"
    },
    {
      "inputs": [
        {
          "internalType": "address",
          "name": "operator",
          "type": "address"
        },
        {
          "internalType": "bool",
          "name": "approved",
          "type": "bool"
        }
      ],
      "name": "setApprovalForAll",
      "outputs": [],
      "stateMutability": "nonpayable",
      "type": "function"
    },
    {
      "inputs": [
        {
          "internalType": "string",
          "name": "_newBaseURI",
          "type": "string"
        }
      ],
      "name": "setBaseURI",
      "outputs": [],
      "stateMutability": "nonpayable",
      "type": "function"
    },
    {
      "inputs": [
        {
          "internalType": "bytes4",
          "name": "interfaceId",
          "type": "bytes4"
        }
      ],
      "name": "supportsInterface",
      "outputs": [
        {
          "internalType": "bool",
          "name": "",
          "type": "bool"
        }
      ],
      "stateMutability": "view",
      "type": "function"
    },
    {
      "inputs": [],
      "name": "symbol",
      "outputs": [
        {
          "internalType": "string",
          "name": "",
          "type": "string"
        }
      ],
      "stateMutability": "view",
      "type": "function"
    },
    {
      "inputs": [
        {
          "internalType": "uint256",
          "name": "index",
          "type": "uint256"
        }
      ],
      "name": "tokenByIndex",
      "outputs": [
        {
          "internalType": "uint256",
          "name": "",
          "type": "uint256"
        }
      ],
      "stateMutability": "view",
      "type": "function"
    },
    {
      "inputs": [
        {
          "internalType": "address",
          "name": "owner",
          "type": "address"
        },
        {
          "internalType": "uint256",
          "name": "index",
          "type": "uint256"
        }
      ],
      "name": "tokenOfOwnerByIndex",
      "outputs": [
        {
          "internalType": "uint256",
          "name": "",
          "type": "uint256"
        }
      ],
      "stateMutability": "view",
      "type": "function"
    },
    {
      "inputs": [
        {
          "internalType": "uint256",
          "name": "tokenId",
          "type": "uint256"
        }
      ],
      "name": "tokenURI",
      "outputs": [
        {
          "internalType": "string",
          "name": "",
          "type": "string"
        }
      ],
      "stateMutability": "view",
      "type": "function"
    },
    {
      "inputs": [],
      "name": "totalSupply",
      "outputs": [
        {
          "internalType": "uint256",
          "name": "",
          "type": "uint256"
        }
      ],
      "stateMutability": "view",
      "type": "function"
    },
    {
      "inputs": [
        {
          "internalType": "address",
          "name": "from",
          "type": "address"
        },
        {
          "internalType": "address",
          "name": "to",
          "type": "address"
        },
        {
          "internalType": "uint256",
          "name": "tokenId",
          "type": "uint256"
        }
      ],
      "name": "transferFrom",
      "outputs": [],
      "stateMutability": "nonpayable",
      "type": "function"
    },
    {
      "inputs": [
        {
          "internalType": "address",
          "name": "newOwner",
          "type": "address"
        }
      ],
      "name": "transferOwnership",
      "outputs": [],
      "stateMutability": "nonpayable",
      "type": "function"
    }
  ],
  "bytecode": "0x608060405260405180602001604052806000815250600c90805190602001906200002b929190620003a9565b503480156200003957600080fd5b506040516200520e3803806200520e83398181016040528101906200005f9190620005f6565b8181816000908051906020019062000079929190620003a9565b50806001908051906020019062000092929190620003a9565b505050620000b5620000a96200016860201b60201c565b6200017060201b60201c565b620000ca6000801b336200023660201b60201c565b620000fc7f9f2df0fed2c77648de5860a4cc508cd0818c85b8b8a1ab4ceeef8d981c8956a6336200023660201b60201c565b6200012e7f3c11d16cbaffd01df69ce1c404f6340ee057498f5f00246190ea54220576a848336200023660201b60201c565b620001607fa70a2d8710fed9f014c8c2af50c7c2f6b25748ae4cded822e03b7beed44cf3a8336200023660201b60201c565b5050620006e0565b600033905090565b6000600b60009054906101000a900473ffffffffffffffffffffffffffffffffffffffff16905081600b60006101000a81548173ffffffffffffffffffffffffffffffffffffffff021916908373ffffffffffffffffffffffffffffffffffffffff1602179055508173ffffffffffffffffffffffffffffffffffffffff168173ffffffffffffffffffffffffffffffffffffffff167f8be0079c531659141344cd1fd0a4f28419497f9722a3daafe3b4186f6b6457e060405160405180910390a35050565b6200024882826200024c60201b60201c565b5050565b6200025e82826200033e60201b60201c565b6200033a576001600a600084815260200190815260200160002060000160008373ffffffffffffffffffffffffffffffffffffffff1673ffffffffffffffffffffffffffffffffffffffff16815260200190815260200160002060006101000a81548160ff021916908315150217905550620002df6200016860201b60201c565b73ffffffffffffffffffffffffffffffffffffffff168173ffffffffffffffffffffffffffffffffffffffff16837f2f8788117e7eff1d82e926ec794901d17c78024a50270940304540a733656f0d60405160405180910390a45b5050565b6000600a600084815260200190815260200160002060000160008373ffffffffffffffffffffffffffffffffffffffff1673ffffffffffffffffffffffffffffffffffffffff16815260200190815260200160002060009054906101000a900460ff16905092915050565b828054620003b790620006aa565b90600052602060002090601f016020900481019282620003db576000855562000427565b82601f10620003f657805160ff191683800117855562000427565b8280016001018555821562000427579182015b828111156200042657825182559160200191906001019062000409565b5b5090506200043691906200043a565b5090565b5b80821115620004555760008160009055506001016200043b565b5090565b6000604051905090565b600080fd5b600080fd5b600080fd5b600080fd5b6000601f19601f8301169050919050565b7f4e487b7100000000000000000000000000000000000000000000000000000000600052604160045260246000fd5b620004c28262000477565b810181811067ffffffffffffffff82111715620004e457620004e362000488565b5b80604052505050565b6000620004f962000459565b9050620005078282620004b7565b919050565b600067ffffffffffffffff8211156200052a576200052962000488565b5b620005358262000477565b9050602081019050919050565b60005b838110156200056257808201518184015260208101905062000545565b8381111562000572576000848401525b50505050565b60006200058f62000589846200050c565b620004ed565b905082815260208101848484011115620005ae57620005ad62000472565b5b620005bb84828562000542565b509392505050565b600082601f830112620005db57620005da6200046d565b5b8151620005ed84826020860162000578565b91505092915050565b6000806040838503121562000610576200060f62000463565b5b600083015167ffffffffffffffff81111562000631576200063062000468565b5b6200063f85828601620005c3565b925050602083015167ffffffffffffffff81111562000663576200066262000468565b5b6200067185828601620005c3565b9150509250929050565b7f4e487b7100000000000000000000000000000000000000000000000000000000600052602260045260246000fd5b60006002820490506001821680620006c357607f821691505b60208210811415620006da57620006d96200067b565b5b50919050565b614b1e80620006f06000396000f3fe608060405234801561001057600080fd5b50600436106102325760003560e01c80636158791111610130578063a1448194116100b8578063c87b56dd1161007c578063c87b56dd14610685578063d5391393146106b5578063d547741f146106d3578063e985e9c5146106ef578063f2fde38b1461071f57610232565b8063a1448194146105f7578063a217fddf14610613578063a22cb46514610631578063af65e2a81461064d578063b88d4fde1461066957610232565b8063715018a6116100ff578063715018a6146105655780638832e6e31461056f5780638da5cb5b1461058b57806391d14854146105a957806395d89b41146105d957610232565b806361587911146104cb5780636352211e146104e7578063682d07d91461051757806370a082311461053557610232565b80632f2ff15d116101be57806342966c681161018257806342966c68146104155780634f558e79146104315780634f6ccce71461046157806355f804b3146104915780635cc99e35146104ad57610232565b80632f2ff15d146103755780632f745c591461039157806336568abe146103c157806340c10f19146103dd57806342842e0e146103f957610232565b806318160ddd1161020557806318160ddd146102d157806323b872dd146102ef578063248a9ca31461030b578063282c51f31461033b5780632e81aaea1461035957610232565b806301ffc9a71461023757806306fdde0314610267578063081812fc14610285578063095ea7b3146102b5575b600080fd5b610251600480360381019061024c9190613340565b61073b565b60405161025e9190613388565b60405180910390f35b61026f6107b5565b60405161027c919061343c565b60405180910390f35b61029f600480360381019061029a9190613494565b610847565b6040516102ac9190613502565b60405180910390f35b6102cf60048036038101906102ca9190613549565b61088d565b005b6102d96109a5565b6040516102e69190613598565b60405180910390f35b610309600480360381019061030491906135b3565b6109b2565b005b6103256004803603810190610320919061363c565b610a12565b6040516103329190613678565b60405180910390f35b610343610a32565b6040516103509190613678565b60405180910390f35b610373600480360381019061036e9190613693565b610a56565b005b61038f600480360381019061038a91906136e6565b610aba565b005b6103ab60048036038101906103a69190613549565b610adb565b6040516103b89190613598565b60405180910390f35b6103db60048036038101906103d691906136e6565b610b80565b005b6103f760048036038101906103f29190613549565b610c03565b005b610413600480360381019061040e91906135b3565b610c3c565b005b61042f600480360381019061042a9190613494565b610c5c565b005b61044b60048036038101906104469190613494565b610c93565b6040516104589190613388565b60405180910390f35b61047b60048036038101906104769190613494565b610ca5565b6040516104889190613598565b60405180910390f35b6104ab60048036038101906104a6919061385b565b610d16565b005b6104b5610d97565b6040516104c29190613598565b60405180910390f35b6104e560048036038101906104e09190613693565b610dbb565b005b61050160048036038101906104fc9190613494565b610ddb565b60405161050e9190613502565b60405180910390f35b61051f610e62565b60405161052c9190613678565b60405180910390f35b61054f600480360381019061054a91906138a4565b610e86565b60405161055c9190613598565b60405180910390f35b61056d610f3e565b005b61058960048036038101906105849190613972565b610f52565b005b6105936110c0565b6040516105a09190613502565b60405180910390f35b6105c360048036038101906105be91906136e6565b6110ea565b6040516105d09190613388565b60405180910390f35b6105e1611155565b6040516105ee919061343c565b60405180910390f35b610611600480360381019061060c9190613549565b6111e7565b005b61061b611205565b6040516106289190613678565b60405180910390f35b61064b60048036038101906106469190613a0d565b61120c565b005b61066760048036038101906106629190613a4d565b611222565b005b610683600480360381019061067e9190613ad0565b611367565b005b61069f600480360381019061069a9190613494565b6113c9565b6040516106ac919061343c565b60405180910390f35b6106bd611431565b6040516106ca9190613678565b60405180910390f35b6106ed60048036038101906106e891906136e6565b611455565b005b61070960048036038101906107049190613b53565b611476565b6040516107169190613388565b60405180910390f35b610739600480360381019061073491906138a4565b61150a565b005b60007fc65ed744000000000000000000000000000000000000000000000000000000007bffffffffffffffffffffffffffffffffffffffffffffffffffffffff1916827bffffffffffffffffffffffffffffffffffffffffffffffffffffffff191614806107ae57506107ad8261158e565b5b9050919050565b6060600080546107c490613bc2565b80601f01602080910402602001604051908101604052809291908181526020018280546107f090613bc2565b801561083d5780601f106108125761010080835404028352916020019161083d565b820191906000526020600020905b81548152906001019060200180831161082057829003601f168201915b5050505050905090565b600061085282611608565b6004600083815260200190815260200160002060009054906101000a900473ffffffffffffffffffffffffffffffffffffffff169050919050565b600061089882610ddb565b90508073ffffffffffffffffffffffffffffffffffffffff168373ffffffffffffffffffffffffffffffffffffffff161415610909576040517f08c379a000000000000000000000000000000000000000000000000000000000815260040161090090613c66565b60405180910390fd5b8073ffffffffffffffffffffffffffffffffffffffff16610928611653565b73ffffffffffffffffffffffffffffffffffffffff161480610957575061095681610951611653565b611476565b5b610996576040517f08c379a000000000000000000000000000000000000000000000000000000000815260040161098d90613cf8565b60405180910390fd5b6109a0838361165b565b505050565b6000600880549050905090565b6109c36109bd611653565b82611714565b610a02576040517f08c379a00000000000000000000000000000000000000000000000000000000081526004016109f990613d8a565b60405180910390fd5b610a0d8383836117a9565b505050565b6000600a6000838152602001908152602001600020600101549050919050565b7f3c11d16cbaffd01df69ce1c404f6340ee057498f5f00246190ea54220576a84881565b7f9f2df0fed2c77648de5860a4cc508cd0818c85b8b8a1ab4ceeef8d981c8956a6610a8081611aa3565b60005b82811015610ab357610aa0858286610a9b9190613dd9565b611ab7565b8080610aab90613e2f565b915050610a83565b5050505050565b610ac382610a12565b610acc81611aa3565b610ad68383611cd5565b505050565b6000610ae683610e86565b8210610b27576040517f08c379a0000000000000000000000000000000000000000000000000000000008152600401610b1e90613eea565b60405180910390fd5b600660008473ffffffffffffffffffffffffffffffffffffffff1673ffffffffffffffffffffffffffffffffffffffff168152602001908152602001600020600083815260200190815260200160002054905092915050565b610b88611653565b73ffffffffffffffffffffffffffffffffffffffff168173ffffffffffffffffffffffffffffffffffffffff1614610bf5576040517f08c379a0000000000000000000000000000000000000000000000000000000008152600401610bec90613f7c565b60405180910390fd5b610bff8282611db6565b5050565b7f9f2df0fed2c77648de5860a4cc508cd0818c85b8b8a1ab4ceeef8d981c8956a6610c2d81611aa3565b610c378383611ab7565b505050565b610c5783838360405180602001604052806000815250611367565b505050565b7f3c11d16cbaffd01df69ce1c404f6340ee057498f5f00246190ea54220576a848610c8681611aa3565b610c8f82611e98565b5050565b6000610c9e82611fe6565b9050919050565b6000610caf6109a5565b8210610cf0576040517f08c379a0000000000000000000000000000000000000000000000000000000008152600401610ce79061400e565b60405180910390fd5b60088281548110610d0457610d0361402e565b5b90600052602060002001549050919050565b7fa70a2d8710fed9f014c8c2af50c7c2f6b25748ae4cded822e03b7beed44cf3a8610d4081611aa3565b7f92bf6a7b8937c17e6781a68d61f9fe6a5ce08604b96ca2206f311049a3a295ea33600c84604051610d74939291906140f2565b60405180910390a181600c9080519060200190610d92929190613231565b505050565b7f96166164645b31243986cb90a43d09d991140aa39d43ffa58a6af6d5e90bdbf481565b610dd683838360405180602001604052806000815250611222565b505050565b600080610de783612027565b9050600073ffffffffffffffffffffffffffffffffffffffff168173ffffffffffffffffffffffffffffffffffffffff161415610e59576040517f08c379a0000000000000000000000000000000000000000000000000000000008152600401610e5090614183565b60405180910390fd5b80915050919050565b7fa70a2d8710fed9f014c8c2af50c7c2f6b25748ae4cded822e03b7beed44cf3a881565b60008073ffffffffffffffffffffffffffffffffffffffff168273ffffffffffffffffffffffffffffffffffffffff161415610ef7576040517f08c379a0000000000000000000000000000000000000000000000000000000008152600401610eee90614215565b60405180910390fd5b600360008373ffffffffffffffffffffffffffffffffffffffff1673ffffffffffffffffffffffffffffffffffffffff168152602001908152602001600020549050919050565b610f46612064565b610f5060006120e2565b565b7f9f2df0fed2c77648de5860a4cc508cd0818c85b8b8a1ab4ceeef8d981c8956a6610f7c81611aa3565b610f868484611ab7565b610fa58473ffffffffffffffffffffffffffffffffffffffff166121a8565b156110ba5760008473ffffffffffffffffffffffffffffffffffffffff1663150b7a0233600087876040518563ffffffff1660e01b8152600401610fec949392919061428a565b6020604051808303816000875af115801561100b573d6000803e3d6000fd5b505050506040513d601f19601f8201168201806040525081019061102f91906142eb565b905063150b7a0260e01b7bffffffffffffffffffffffffffffffffffffffffffffffffffffffff1916817bffffffffffffffffffffffffffffffffffffffffffffffffffffffff1916146110b8576040517f08c379a00000000000000000000000000000000000000000000000000000000081526004016110af9061438a565b60405180910390fd5b505b50505050565b6000600b60009054906101000a900473ffffffffffffffffffffffffffffffffffffffff16905090565b6000600a600084815260200190815260200160002060000160008373ffffffffffffffffffffffffffffffffffffffff1673ffffffffffffffffffffffffffffffffffffffff16815260200190815260200160002060009054906101000a900460ff16905092915050565b60606001805461116490613bc2565b80601f016020809104026020016040519081016040528092919081815260200182805461119090613bc2565b80156111dd5780601f106111b2576101008083540402835291602001916111dd565b820191906000526020600020905b8154815290600101906020018083116111c057829003601f168201915b5050505050905090565b611201828260405180602001604052806000815250610f52565b5050565b6000801b81565b61121e611217611653565b83836121cb565b5050565b61122d848484610a56565b61124c8473ffffffffffffffffffffffffffffffffffffffff166121a8565b156113615760008473ffffffffffffffffffffffffffffffffffffffff1663150b7a0233600087866040518563ffffffff1660e01b8152600401611293949392919061428a565b6020604051808303816000875af11580156112b2573d6000803e3d6000fd5b505050506040513d601f19601f820116820180604052508101906112d691906142eb565b905063150b7a0260e01b7bffffffffffffffffffffffffffffffffffffffffffffffffffffffff1916817bffffffffffffffffffffffffffffffffffffffffffffffffffffffff19161461135f576040517f08c379a00000000000000000000000000000000000000000000000000000000081526004016113569061438a565b60405180910390fd5b505b50505050565b611378611372611653565b83611714565b6113b7576040517f08c379a00000000000000000000000000000000000000000000000000000000081526004016113ae90613d8a565b60405180910390fd5b6113c384848484612338565b50505050565b60606113d482611608565b60006113de612394565b905060008151116113fe5760405180602001604052806000815250611429565b8061140884612426565b6040516020016114199291906143e6565b6040516020818303038152906040525b915050919050565b7f9f2df0fed2c77648de5860a4cc508cd0818c85b8b8a1ab4ceeef8d981c8956a681565b61145e82610a12565b61146781611aa3565b6114718383611db6565b505050565b6000600560008473ffffffffffffffffffffffffffffffffffffffff1673ffffffffffffffffffffffffffffffffffffffff16815260200190815260200160002060008373ffffffffffffffffffffffffffffffffffffffff1673ffffffffffffffffffffffffffffffffffffffff16815260200190815260200160002060009054906101000a900460ff16905092915050565b611512612064565b600073ffffffffffffffffffffffffffffffffffffffff168173ffffffffffffffffffffffffffffffffffffffff161415611582576040517f08c379a00000000000000000000000000000000000000000000000000000000081526004016115799061447c565b60405180910390fd5b61158b816120e2565b50565b60007f7965db0b000000000000000000000000000000000000000000000000000000007bffffffffffffffffffffffffffffffffffffffffffffffffffffffff1916827bffffffffffffffffffffffffffffffffffffffffffffffffffffffff191614806116015750611600826124fe565b5b9050919050565b61161181611fe6565b611650576040517f08c379a000000000000000000000000000000000000000000000000000000000815260040161164790614183565b60405180910390fd5b50565b600033905090565b816004600083815260200190815260200160002060006101000a81548173ffffffffffffffffffffffffffffffffffffffff021916908373ffffffffffffffffffffffffffffffffffffffff160217905550808273ffffffffffffffffffffffffffffffffffffffff166116ce83610ddb565b73ffffffffffffffffffffffffffffffffffffffff167f8c5be1e5ebec7d5bd14f71427d1e84f3dd0314c0f7b2291e5b200ac8c7c3b92560405160405180910390a45050565b60008061172083610ddb565b90508073ffffffffffffffffffffffffffffffffffffffff168473ffffffffffffffffffffffffffffffffffffffff16148061176257506117618185611476565b5b806117a057508373ffffffffffffffffffffffffffffffffffffffff1661178884610847565b73ffffffffffffffffffffffffffffffffffffffff16145b91505092915050565b8273ffffffffffffffffffffffffffffffffffffffff166117c982610ddb565b73ffffffffffffffffffffffffffffffffffffffff161461181f576040517f08c379a00000000000000000000000000000000000000000000000000000000081526004016118169061450e565b60405180910390fd5b600073ffffffffffffffffffffffffffffffffffffffff168273ffffffffffffffffffffffffffffffffffffffff16141561188f576040517f08c379a0000000000000000000000000000000000000000000000000000000008152600401611886906145a0565b60405180910390fd5b61189c8383836001612578565b8273ffffffffffffffffffffffffffffffffffffffff166118bc82610ddb565b73ffffffffffffffffffffffffffffffffffffffff1614611912576040517f08c379a00000000000000000000000000000000000000000000000000000000081526004016119099061450e565b60405180910390fd5b6004600082815260200190815260200160002060006101000a81549073ffffffffffffffffffffffffffffffffffffffff02191690556001600360008573ffffffffffffffffffffffffffffffffffffffff1673ffffffffffffffffffffffffffffffffffffffff168152602001908152602001600020600082825403925050819055506001600360008473ffffffffffffffffffffffffffffffffffffffff1673ffffffffffffffffffffffffffffffffffffffff16815260200190815260200160002060008282540192505081905550816002600083815260200190815260200160002060006101000a81548173ffffffffffffffffffffffffffffffffffffffff021916908373ffffffffffffffffffffffffffffffffffffffff160217905550808273ffffffffffffffffffffffffffffffffffffffff168473ffffffffffffffffffffffffffffffffffffffff167fddf252ad1be2c89b69c2b068fc378daa952ba7f163c4a11628f55a4df523b3ef60405160405180910390a4611a9e838383600161258a565b505050565b611ab481611aaf611653565b612590565b50565b600073ffffffffffffffffffffffffffffffffffffffff168273ffffffffffffffffffffffffffffffffffffffff161415611b27576040517f08c379a0000000000000000000000000000000000000000000000000000000008152600401611b1e9061460c565b60405180910390fd5b611b3081611fe6565b15611b70576040517f08c379a0000000000000000000000000000000000000000000000000000000008152600401611b6790614678565b60405180910390fd5b611b7e600083836001612578565b611b8781611fe6565b15611bc7576040517f08c379a0000000000000000000000000000000000000000000000000000000008152600401611bbe90614678565b60405180910390fd5b6001600360008473ffffffffffffffffffffffffffffffffffffffff1673ffffffffffffffffffffffffffffffffffffffff16815260200190815260200160002060008282540192505081905550816002600083815260200190815260200160002060006101000a81548173ffffffffffffffffffffffffffffffffffffffff021916908373ffffffffffffffffffffffffffffffffffffffff160217905550808273ffffffffffffffffffffffffffffffffffffffff16600073ffffffffffffffffffffffffffffffffffffffff167fddf252ad1be2c89b69c2b068fc378daa952ba7f163c4a11628f55a4df523b3ef60405160405180910390a4611cd160008383600161258a565b5050565b611cdf82826110ea565b611db2576001600a600084815260200190815260200160002060000160008373ffffffffffffffffffffffffffffffffffffffff1673ffffffffffffffffffffffffffffffffffffffff16815260200190815260200160002060006101000a81548160ff021916908315150217905550611d57611653565b73ffffffffffffffffffffffffffffffffffffffff168173ffffffffffffffffffffffffffffffffffffffff16837f2f8788117e7eff1d82e926ec794901d17c78024a50270940304540a733656f0d60405160405180910390a45b5050565b611dc082826110ea565b15611e94576000600a600084815260200190815260200160002060000160008373ffffffffffffffffffffffffffffffffffffffff1673ffffffffffffffffffffffffffffffffffffffff16815260200190815260200160002060006101000a81548160ff021916908315150217905550611e39611653565b73ffffffffffffffffffffffffffffffffffffffff168173ffffffffffffffffffffffffffffffffffffffff16837ff6391f5c32d9c69d2a47ea670b442974b53935d1edc7fd64eb21e047a839171b60405160405180910390a45b5050565b6000611ea382610ddb565b9050611eb3816000846001612578565b611ebc82610ddb565b90506004600083815260200190815260200160002060006101000a81549073ffffffffffffffffffffffffffffffffffffffff02191690556001600360008373ffffffffffffffffffffffffffffffffffffffff1673ffffffffffffffffffffffffffffffffffffffff168152602001908152602001600020600082825403925050819055506002600083815260200190815260200160002060006101000a81549073ffffffffffffffffffffffffffffffffffffffff021916905581600073ffffffffffffffffffffffffffffffffffffffff168273ffffffffffffffffffffffffffffffffffffffff167fddf252ad1be2c89b69c2b068fc378daa952ba7f163c4a11628f55a4df523b3ef60405160405180910390a4611fe281600084600161258a565b5050565b60008073ffffffffffffffffffffffffffffffffffffffff1661200883612027565b73ffffffffffffffffffffffffffffffffffffffff1614159050919050565b60006002600083815260200190815260200160002060009054906101000a900473ffffffffffffffffffffffffffffffffffffffff169050919050565b61206c611653565b73ffffffffffffffffffffffffffffffffffffffff1661208a6110c0565b73ffffffffffffffffffffffffffffffffffffffff16146120e0576040517f08c379a00000000000000000000000000000000000000000000000000000000081526004016120d7906146e4565b60405180910390fd5b565b6000600b60009054906101000a900473ffffffffffffffffffffffffffffffffffffffff16905081600b60006101000a81548173ffffffffffffffffffffffffffffffffffffffff021916908373ffffffffffffffffffffffffffffffffffffffff1602179055508173ffffffffffffffffffffffffffffffffffffffff168173ffffffffffffffffffffffffffffffffffffffff167f8be0079c531659141344cd1fd0a4f28419497f9722a3daafe3b4186f6b6457e060405160405180910390a35050565b6000808273ffffffffffffffffffffffffffffffffffffffff163b119050919050565b8173ffffffffffffffffffffffffffffffffffffffff168373ffffffffffffffffffffffffffffffffffffffff16141561223a576040517f08c379a000000000000000000000000000000000000000000000000000000000815260040161223190614750565b60405180910390fd5b80600560008573ffffffffffffffffffffffffffffffffffffffff1673ffffffffffffffffffffffffffffffffffffffff16815260200190815260200160002060008473ffffffffffffffffffffffffffffffffffffffff1673ffffffffffffffffffffffffffffffffffffffff16815260200190815260200160002060006101000a81548160ff0219169083151502179055508173ffffffffffffffffffffffffffffffffffffffff168373ffffffffffffffffffffffffffffffffffffffff167f17307eab39ab6107e8899845ad3d59bd9653f200f220920489ca2b5937696c318360405161232b9190613388565b60405180910390a3505050565b6123438484846117a9565b61234f84848484612615565b61238e576040517f08c379a0000000000000000000000000000000000000000000000000000000008152600401612385906147e2565b60405180910390fd5b50505050565b6060600c80546123a390613bc2565b80601f01602080910402602001604051908101604052809291908181526020018280546123cf90613bc2565b801561241c5780601f106123f15761010080835404028352916020019161241c565b820191906000526020600020905b8154815290600101906020018083116123ff57829003601f168201915b5050505050905090565b6060600060016124358461279d565b01905060008167ffffffffffffffff81111561245457612453613730565b5b6040519080825280601f01601f1916602001820160405280156124865781602001600182028036833780820191505090505b509050600082602001820190505b6001156124f3578080600190039150507f3031323334353637383961626364656600000000000000000000000000000000600a86061a8153600a85816124dd576124dc614802565b5b04945060008514156124ee576124f3565b612494565b819350505050919050565b60007f780e9d63000000000000000000000000000000000000000000000000000000007bffffffffffffffffffffffffffffffffffffffffffffffffffffffff1916827bffffffffffffffffffffffffffffffffffffffffffffffffffffffff191614806125715750612570826128f0565b5b9050919050565b612584848484846129d2565b50505050565b50505050565b61259a82826110ea565b612611576125a781612b32565b6125b58360001c6020612b5f565b6040516020016125c69291906148c9565b6040516020818303038152906040526040517f08c379a0000000000000000000000000000000000000000000000000000000008152600401612608919061343c565b60405180910390fd5b5050565b60006126368473ffffffffffffffffffffffffffffffffffffffff166121a8565b15612790578373ffffffffffffffffffffffffffffffffffffffff1663150b7a0261265f611653565b8786866040518563ffffffff1660e01b8152600401612681949392919061428a565b6020604051808303816000875af19250505080156126bd57506040513d601f19601f820116820180604052508101906126ba91906142eb565b60015b612740573d80600081146126ed576040519150601f19603f3d011682016040523d82523d6000602084013e6126f2565b606091505b50600081511415612738576040517f08c379a000000000000000000000000000000000000000000000000000000000815260040161272f906147e2565b60405180910390fd5b805181602001fd5b63150b7a0260e01b7bffffffffffffffffffffffffffffffffffffffffffffffffffffffff1916817bffffffffffffffffffffffffffffffffffffffffffffffffffffffff191614915050612795565b600190505b949350505050565b600080600090507a184f03e93ff9f4daa797ed6e38ed64bf6a1f01000000000000000083106127fb577a184f03e93ff9f4daa797ed6e38ed64bf6a1f01000000000000000083816127f1576127f0614802565b5b0492506040810190505b6d04ee2d6d415b85acef81000000008310612838576d04ee2d6d415b85acef8100000000838161282e5761282d614802565b5b0492506020810190505b662386f26fc10000831061286757662386f26fc10000838161285d5761285c614802565b5b0492506010810190505b6305f5e1008310612890576305f5e100838161288657612885614802565b5b0492506008810190505b61271083106128b55761271083816128ab576128aa614802565b5b0492506004810190505b606483106128d857606483816128ce576128cd614802565b5b0492506002810190505b600a83106128e7576001810190505b80915050919050565b60007f80ac58cd000000000000000000000000000000000000000000000000000000007bffffffffffffffffffffffffffffffffffffffffffffffffffffffff1916827bffffffffffffffffffffffffffffffffffffffffffffffffffffffff191614806129bb57507f5b5e139f000000000000000000000000000000000000000000000000000000007bffffffffffffffffffffffffffffffffffffffffffffffffffffffff1916827bffffffffffffffffffffffffffffffffffffffffffffffffffffffff1916145b806129cb57506129ca82612d9b565b5b9050919050565b6129de84848484612e05565b6001811115612a22576040517f08c379a0000000000000000000000000000000000000000000000000000000008152600401612a1990614975565b60405180910390fd5b6000829050600073ffffffffffffffffffffffffffffffffffffffff168573ffffffffffffffffffffffffffffffffffffffff161415612a6a57612a6581612f2b565b612aa9565b8373ffffffffffffffffffffffffffffffffffffffff168573ffffffffffffffffffffffffffffffffffffffff1614612aa857612aa78582612f74565b5b5b600073ffffffffffffffffffffffffffffffffffffffff168473ffffffffffffffffffffffffffffffffffffffff161415612aec57612ae7816130e1565b612b2b565b8473ffffffffffffffffffffffffffffffffffffffff168473ffffffffffffffffffffffffffffffffffffffff1614612b2a57612b2984826131b2565b5b5b5050505050565b6060612b588273ffffffffffffffffffffffffffffffffffffffff16601460ff16612b5f565b9050919050565b606060006002836002612b729190614995565b612b7c9190613dd9565b67ffffffffffffffff811115612b9557612b94613730565b5b6040519080825280601f01601f191660200182016040528015612bc75781602001600182028036833780820191505090505b5090507f300000000000000000000000000000000000000000000000000000000000000081600081518110612bff57612bfe61402e565b5b60200101907effffffffffffffffffffffffffffffffffffffffffffffffffffffffffffff1916908160001a9053507f780000000000000000000000000000000000000000000000000000000000000081600181518110612c6357612c6261402e565b5b60200101907effffffffffffffffffffffffffffffffffffffffffffffffffffffffffffff1916908160001a90535060006001846002612ca39190614995565b612cad9190613dd9565b90505b6001811115612d4d577f3031323334353637383961626364656600000000000000000000000000000000600f861660108110612cef57612cee61402e565b5b1a60f81b828281518110612d0657612d0561402e565b5b60200101907effffffffffffffffffffffffffffffffffffffffffffffffffffffffffffff1916908160001a905350600485901c945080612d46906149ef565b9050612cb0565b5060008414612d91576040517f08c379a0000000000000000000000000000000000000000000000000000000008152600401612d8890614a65565b60405180910390fd5b8091505092915050565b60007f01ffc9a7000000000000000000000000000000000000000000000000000000007bffffffffffffffffffffffffffffffffffffffffffffffffffffffff1916827bffffffffffffffffffffffffffffffffffffffffffffffffffffffff1916149050919050565b6001811115612f2557600073ffffffffffffffffffffffffffffffffffffffff168473ffffffffffffffffffffffffffffffffffffffff1614612e995780600360008673ffffffffffffffffffffffffffffffffffffffff1673ffffffffffffffffffffffffffffffffffffffff1681526020019081526020016000206000828254612e919190614a85565b925050819055505b600073ffffffffffffffffffffffffffffffffffffffff168373ffffffffffffffffffffffffffffffffffffffff1614612f245780600360008573ffffffffffffffffffffffffffffffffffffffff1673ffffffffffffffffffffffffffffffffffffffff1681526020019081526020016000206000828254612f1c9190613dd9565b925050819055505b5b50505050565b6008805490506009600083815260200190815260200160002081905550600881908060018154018082558091505060019003906000526020600020016000909190919091505550565b60006001612f8184610e86565b612f8b9190614a85565b9050600060076000848152602001908152602001600020549050818114613070576000600660008673ffffffffffffffffffffffffffffffffffffffff1673ffffffffffffffffffffffffffffffffffffffff168152602001908152602001600020600084815260200190815260200160002054905080600660008773ffffffffffffffffffffffffffffffffffffffff1673ffffffffffffffffffffffffffffffffffffffff168152602001908152602001600020600084815260200190815260200160002081905550816007600083815260200190815260200160002081905550505b6007600084815260200190815260200160002060009055600660008573ffffffffffffffffffffffffffffffffffffffff1673ffffffffffffffffffffffffffffffffffffffff16815260200190815260200160002060008381526020019081526020016000206000905550505050565b600060016008805490506130f59190614a85565b90506000600960008481526020019081526020016000205490506000600883815481106131255761312461402e565b5b9060005260206000200154905080600883815481106131475761314661402e565b5b90600052602060002001819055508160096000838152602001908152602001600020819055506009600085815260200190815260200160002060009055600880548061319657613195614ab9565b5b6001900381819060005260206000200160009055905550505050565b60006131bd83610e86565b905081600660008573ffffffffffffffffffffffffffffffffffffffff1673ffffffffffffffffffffffffffffffffffffffff168152602001908152602001600020600083815260200190815260200160002081905550806007600084815260200190815260200160002081905550505050565b82805461323d90613bc2565b90600052602060002090601f01602090048101928261325f57600085556132a6565b82601f1061327857805160ff19168380011785556132a6565b828001600101855582156132a6579182015b828111156132a557825182559160200191906001019061328a565b5b5090506132b391906132b7565b5090565b5b808211156132d05760008160009055506001016132b8565b5090565b6000604051905090565b600080fd5b600080fd5b60007fffffffff0000000000000000000000000000000000000000000000000000000082169050919050565b61331d816132e8565b811461332857600080fd5b50565b60008135905061333a81613314565b92915050565b600060208284031215613356576133556132de565b5b60006133648482850161332b565b91505092915050565b60008115159050919050565b6133828161336d565b82525050565b600060208201905061339d6000830184613379565b92915050565b600081519050919050565b600082825260208201905092915050565b60005b838110156133dd5780820151818401526020810190506133c2565b838111156133ec576000848401525b50505050565b6000601f19601f8301169050919050565b600061340e826133a3565b61341881856133ae565b93506134288185602086016133bf565b613431816133f2565b840191505092915050565b600060208201905081810360008301526134568184613403565b905092915050565b6000819050919050565b6134718161345e565b811461347c57600080fd5b50565b60008135905061348e81613468565b92915050565b6000602082840312156134aa576134a96132de565b5b60006134b88482850161347f565b91505092915050565b600073ffffffffffffffffffffffffffffffffffffffff82169050919050565b60006134ec826134c1565b9050919050565b6134fc816134e1565b82525050565b600060208201905061351760008301846134f3565b92915050565b613526816134e1565b811461353157600080fd5b50565b6000813590506135438161351d565b92915050565b600080604083850312156135605761355f6132de565b5b600061356e85828601613534565b925050602061357f8582860161347f565b9150509250929050565b6135928161345e565b82525050565b60006020820190506135ad6000830184613589565b92915050565b6000806000606084860312156135cc576135cb6132de565b5b60006135da86828701613534565b93505060206135eb86828701613534565b92505060406135fc8682870161347f565b9150509250925092565b6000819050919050565b61361981613606565b811461362457600080fd5b50565b60008135905061363681613610565b92915050565b600060208284031215613652576136516132de565b5b600061366084828501613627565b91505092915050565b61367281613606565b82525050565b600060208201905061368d6000830184613669565b92915050565b6000806000606084860312156136ac576136ab6132de565b5b60006136ba86828701613534565b93505060206136cb8682870161347f565b92505060406136dc8682870161347f565b9150509250925092565b600080604083850312156136fd576136fc6132de565b5b600061370b85828601613627565b925050602061371c85828601613534565b9150509250929050565b600080fd5b600080fd5b7f4e487b7100000000000000000000000000000000000000000000000000000000600052604160045260246000fd5b613768826133f2565b810181811067ffffffffffffffff8211171561378757613786613730565b5b80604052505050565b600061379a6132d4565b90506137a6828261375f565b919050565b600067ffffffffffffffff8211156137c6576137c5613730565b5b6137cf826133f2565b9050602081019050919050565b82818337600083830152505050565b60006137fe6137f9846137ab565b613790565b90508281526020810184848401111561381a5761381961372b565b5b6138258482856137dc565b509392505050565b600082601f83011261384257613841613726565b5b81356138528482602086016137eb565b91505092915050565b600060208284031215613871576138706132de565b5b600082013567ffffffffffffffff81111561388f5761388e6132e3565b5b61389b8482850161382d565b91505092915050565b6000602082840312156138ba576138b96132de565b5b60006138c884828501613534565b91505092915050565b600067ffffffffffffffff8211156138ec576138eb613730565b5b6138f5826133f2565b9050602081019050919050565b6000613915613910846138d1565b613790565b9050828152602081018484840111156139315761393061372b565b5b61393c8482856137dc565b509392505050565b600082601f83011261395957613958613726565b5b8135613969848260208601613902565b91505092915050565b60008060006060848603121561398b5761398a6132de565b5b600061399986828701613534565b93505060206139aa8682870161347f565b925050604084013567ffffffffffffffff8111156139cb576139ca6132e3565b5b6139d786828701613944565b9150509250925092565b6139ea8161336d565b81146139f557600080fd5b50565b600081359050613a07816139e1565b92915050565b60008060408385031215613a2457613a236132de565b5b6000613a3285828601613534565b9250506020613a43858286016139f8565b9150509250929050565b60008060008060808587031215613a6757613a666132de565b5b6000613a7587828801613534565b9450506020613a868782880161347f565b9350506040613a978782880161347f565b925050606085013567ffffffffffffffff811115613ab857613ab76132e3565b5b613ac487828801613944565b91505092959194509250565b60008060008060808587031215613aea57613ae96132de565b5b6000613af887828801613534565b9450506020613b0987828801613534565b9350506040613b1a8782880161347f565b925050606085013567ffffffffffffffff811115613b3b57613b3a6132e3565b5b613b4787828801613944565b91505092959194509250565b60008060408385031215613b6a57613b696132de565b5b6000613b7885828601613534565b9250506020613b8985828601613534565b9150509250929050565b7f4e487b7100000000000000000000000000000000000000000000000000000000600052602260045260246000fd5b60006002820490506001821680613bda57607f821691505b60208210811415613bee57613bed613b93565b5b50919050565b7f4552433732313a20617070726f76616c20746f2063757272656e74206f776e6560008201527f7200000000000000000000000000000000000000000000000000000000000000602082015250565b6000613c506021836133ae565b9150613c5b82613bf4565b604082019050919050565b60006020820190508181036000830152613c7f81613c43565b9050919050565b7f4552433732313a20617070726f76652063616c6c6572206973206e6f7420746f60008201527f6b656e206f776e6572206f7220617070726f76656420666f7220616c6c000000602082015250565b6000613ce2603d836133ae565b9150613ced82613c86565b604082019050919050565b60006020820190508181036000830152613d1181613cd5565b9050919050565b7f4552433732313a2063616c6c6572206973206e6f7420746f6b656e206f776e6560008201527f72206f7220617070726f76656400000000000000000000000000000000000000602082015250565b6000613d74602d836133ae565b9150613d7f82613d18565b604082019050919050565b60006020820190508181036000830152613da381613d67565b9050919050565b7f4e487b7100000000000000000000000000000000000000000000000000000000600052601160045260246000fd5b6000613de48261345e565b9150613def8361345e565b9250827fffffffffffffffffffffffffffffffffffffffffffffffffffffffffffffffff03821115613e2457613e23613daa565b5b828201905092915050565b6000613e3a8261345e565b91507fffffffffffffffffffffffffffffffffffffffffffffffffffffffffffffffff821415613e6d57613e6c613daa565b5b600182019050919050565b7f455243373231456e756d657261626c653a206f776e657220696e646578206f7560008201527f74206f6620626f756e6473000000000000000000000000000000000000000000602082015250565b6000613ed4602b836133ae565b9150613edf82613e78565b604082019050919050565b60006020820190508181036000830152613f0381613ec7565b9050919050565b7f416363657373436f6e74726f6c3a2063616e206f6e6c792072656e6f756e636560008201527f20726f6c657320666f722073656c660000000000000000000000000000000000602082015250565b6000613f66602f836133ae565b9150613f7182613f0a565b604082019050919050565b60006020820190508181036000830152613f9581613f59565b9050919050565b7f455243373231456e756d657261626c653a20676c6f62616c20696e646578206f60008201527f7574206f6620626f756e64730000000000000000000000000000000000000000602082015250565b6000613ff8602c836133ae565b915061400382613f9c565b604082019050919050565b6000602082019050818103600083015261402781613feb565b9050919050565b7f4e487b7100000000000000000000000000000000000000000000000000000000600052603260045260246000fd5b60008190508160005260206000209050919050565b6000815461407f81613bc2565b61408981866133ae565b945060018216600081146140a457600181146140b6576140e9565b60ff19831686526020860193506140e9565b6140bf8561405d565b60005b838110156140e1578154818901526001820191506020810190506140c2565b808801955050505b50505092915050565b600060608201905061410760008301866134f3565b81810360208301526141198185614072565b9050818103604083015261412d8184613403565b9050949350505050565b7f4552433732313a20696e76616c696420746f6b656e2049440000000000000000600082015250565b600061416d6018836133ae565b915061417882614137565b602082019050919050565b6000602082019050818103600083015261419c81614160565b9050919050565b7f4552433732313a2061646472657373207a65726f206973206e6f74206120766160008201527f6c6964206f776e65720000000000000000000000000000000000000000000000602082015250565b60006141ff6029836133ae565b915061420a826141a3565b604082019050919050565b6000602082019050818103600083015261422e816141f2565b9050919050565b600081519050919050565b600082825260208201905092915050565b600061425c82614235565b6142668185614240565b93506142768185602086016133bf565b61427f816133f2565b840191505092915050565b600060808201905061429f60008301876134f3565b6142ac60208301866134f3565b6142b96040830185613589565b81810360608301526142cb8184614251565b905095945050505050565b6000815190506142e581613314565b92915050565b600060208284031215614301576143006132de565b5b600061430f848285016142d6565b91505092915050565b7f496e76616c6964206f6e455243373231526563656976656420726573706f6e7360008201527f6500000000000000000000000000000000000000000000000000000000000000602082015250565b60006143746021836133ae565b915061437f82614318565b604082019050919050565b600060208201905081810360008301526143a381614367565b9050919050565b600081905092915050565b60006143c0826133a3565b6143ca81856143aa565b93506143da8185602086016133bf565b80840191505092915050565b60006143f282856143b5565b91506143fe82846143b5565b91508190509392505050565b7f4f776e61626c653a206e6577206f776e657220697320746865207a65726f206160008201527f6464726573730000000000000000000000000000000000000000000000000000602082015250565b60006144666026836133ae565b91506144718261440a565b604082019050919050565b6000602082019050818103600083015261449581614459565b9050919050565b7f4552433732313a207472616e736665722066726f6d20696e636f72726563742060008201527f6f776e6572000000000000000000000000000000000000000000000000000000602082015250565b60006144f86025836133ae565b91506145038261449c565b604082019050919050565b60006020820190508181036000830152614527816144eb565b9050919050565b7f4552433732313a207472616e7366657220746f20746865207a65726f2061646460008201527f7265737300000000000000000000000000000000000000000000000000000000602082015250565b600061458a6024836133ae565b91506145958261452e565b604082019050919050565b600060208201905081810360008301526145b98161457d565b9050919050565b7f4552433732313a206d696e7420746f20746865207a65726f2061646472657373600082015250565b60006145f66020836133ae565b9150614601826145c0565b602082019050919050565b60006020820190508181036000830152614625816145e9565b9050919050565b7f4552433732313a20746f6b656e20616c7265616479206d696e74656400000000600082015250565b6000614662601c836133ae565b915061466d8261462c565b602082019050919050565b6000602082019050818103600083015261469181614655565b9050919050565b7f4f776e61626c653a2063616c6c6572206973206e6f7420746865206f776e6572600082015250565b60006146ce6020836133ae565b91506146d982614698565b602082019050919050565b600060208201905081810360008301526146fd816146c1565b9050919050565b7f4552433732313a20617070726f766520746f2063616c6c657200000000000000600082015250565b600061473a6019836133ae565b915061474582614704565b602082019050919050565b600060208201905081810360008301526147698161472d565b9050919050565b7f4552433732313a207472616e7366657220746f206e6f6e20455243373231526560008201527f63656976657220696d706c656d656e7465720000000000000000000000000000602082015250565b60006147cc6032836133ae565b91506147d782614770565b604082019050919050565b600060208201905081810360008301526147fb816147bf565b9050919050565b7f4e487b7100000000000000000000000000000000000000000000000000000000600052601260045260246000fd5b7f416363657373436f6e74726f6c3a206163636f756e7420000000000000000000600082015250565b60006148676017836143aa565b915061487282614831565b601782019050919050565b7f206973206d697373696e6720726f6c6520000000000000000000000000000000600082015250565b60006148b36011836143aa565b91506148be8261487d565b601182019050919050565b60006148d48261485a565b91506148e082856143b5565b91506148eb826148a6565b91506148f782846143b5565b91508190509392505050565b7f455243373231456e756d657261626c653a20636f6e736563757469766520747260008201527f616e7366657273206e6f7420737570706f727465640000000000000000000000602082015250565b600061495f6035836133ae565b915061496a82614903565b604082019050919050565b6000602082019050818103600083015261498e81614952565b9050919050565b60006149a08261345e565b91506149ab8361345e565b9250817fffffffffffffffffffffffffffffffffffffffffffffffffffffffffffffffff04831182151516156149e4576149e3613daa565b5b828202905092915050565b60006149fa8261345e565b91506000821415614a0e57614a0d613daa565b5b600182039050919050565b7f537472696e67733a20686578206c656e67746820696e73756666696369656e74600082015250565b6000614a4f6020836133ae565b9150614a5a82614a19565b602082019050919050565b60006020820190508181036000830152614a7e81614a42565b9050919050565b6000614a908261345e565b9150614a9b8361345e565b925082821015614aae57614aad613daa565b5b828203905092915050565b7f4e487b7100000000000000000000000000000000000000000000000000000000600052603160045260246000fdfea26469706673582212202a28e43a8421752dcf4109d3d53e6b20b69c28d136fc8851bde3362cd2ac8e4564736f6c634300080a0033",
  "linkReferences": {},
  "deployedLinkReferences": {}
}