{
  "_format": "hh-sol-artifact-1",
  "contractName": "PrimeApeBurner",
  "sourceName": "src/backend/contracts/PrimeApeBurner.sol",
  "abi": [
    {
      "inputs": [],
      "stateMutability": "nonpayable",
      "type": "constructor"
    },
    {
      "anonymous": false,
      "inputs": [
        {
          "indexed": false,
          "internalType": "address",
          "name": "user",
          "type": "address"
        },
        {
          "indexed": false,
          "internalType": "address",
          "name": "collectionAddress",
          "type": "address"
        },
        {
          "indexed": false,
          "internalType": "uint256",
          "name": "tokenId",
          "type": "uint256"
        },
        {
          "indexed": false,
          "internalType": "uint256",
          "name": "points",
          "type": "uint256"
        }
      ],
      "name": "BurnSuccessful",
      "type": "event"
    },
    {
      "anonymous": false,
      "inputs": [
        {
          "indexed": true,
          "internalType": "address",
          "name": "previousOwner",
          "type": "address"
        },
        {
          "indexed": true,
          "internalType": "address",
          "name": "newOwner",
          "type": "address"
        }
      ],
      "name": "OwnershipTransferred",
      "type": "event"
    },
    {
      "anonymous": false,
      "inputs": [
        {
          "indexed": false,
          "internalType": "address",
          "name": "user",
          "type": "address"
        },
        {
          "indexed": false,
          "internalType": "uint256",
          "name": "tokenId",
          "type": "uint256"
        }
      ],
      "name": "RedeemSuccessful",
      "type": "event"
    },
    {
      "inputs": [
        {
          "internalType": "address",
          "name": "",
          "type": "address"
        }
      ],
      "name": "additionalChanceForAlphaBabyPerAddress10",
      "outputs": [
        {
          "internalType": "uint256",
          "name": "",
          "type": "uint256"
        }
      ],
      "stateMutability": "view",
      "type": "function"
    },
    {
      "inputs": [
        {
          "internalType": "address",
          "name": "",
          "type": "address"
        }
      ],
      "name": "additionalChanceForAlphaBabyPerAddress25",
      "outputs": [
        {
          "internalType": "uint256",
          "name": "",
          "type": "uint256"
        }
      ],
      "stateMutability": "view",
      "type": "function"
    },
    {
      "inputs": [],
      "name": "alphaBabyBonusWindowDuration",
      "outputs": [
        {
          "internalType": "uint256",
          "name": "",
          "type": "uint256"
        }
      ],
      "stateMutability": "view",
      "type": "function"
    },
    {
      "inputs": [],
      "name": "alphaBabyBonusWindowStartTimestamp",
      "outputs": [
        {
          "internalType": "uint256",
          "name": "",
          "type": "uint256"
        }
      ],
      "stateMutability": "view",
      "type": "function"
    },
    {
      "inputs": [],
      "name": "babyDragonAddress",
      "outputs": [
        {
          "internalType": "address",
          "name": "",
          "type": "address"
        }
      ],
      "stateMutability": "view",
      "type": "function"
    },
    {
      "inputs": [
        {
          "internalType": "address",
          "name": "_collectionAddress",
          "type": "address"
        },
        {
          "internalType": "uint256",
          "name": "_tokenId",
          "type": "uint256"
        },
        {
          "internalType": "bytes32[]",
          "name": "_proof",
          "type": "bytes32[]"
        }
      ],
      "name": "burn",
      "outputs": [],
      "stateMutability": "nonpayable",
      "type": "function"
    },
    {
      "inputs": [
        {
          "internalType": "address[]",
          "name": "_collectionAddress",
          "type": "address[]"
        },
        {
          "internalType": "uint256[]",
          "name": "_tokenId",
          "type": "uint256[]"
        },
        {
          "internalType": "bytes32[][]",
          "name": "_proof",
          "type": "bytes32[][]"
        }
      ],
      "name": "burnBatch",
      "outputs": [],
      "stateMutability": "nonpayable",
      "type": "function"
    },
    {
      "inputs": [
        {
          "internalType": "address",
          "name": "_collectionAddress",
          "type": "address"
        },
        {
          "internalType": "uint256",
          "name": "_tokenId",
          "type": "uint256"
        }
      ],
      "name": "getPointsForTokenCollection",
      "outputs": [
        {
          "internalType": "uint256",
          "name": "",
          "type": "uint256"
        }
      ],
      "stateMutability": "view",
      "type": "function"
    },
    {
      "inputs": [],
      "name": "infectedApeAddress",
      "outputs": [
        {
          "internalType": "address",
          "name": "",
          "type": "address"
        }
      ],
      "stateMutability": "view",
      "type": "function"
    },
    {
      "inputs": [],
      "name": "isDuringAlphaBabyBonusWindow",
      "outputs": [
        {
          "internalType": "bool",
          "name": "",
          "type": "bool"
        }
      ],
      "stateMutability": "view",
      "type": "function"
    },
    {
      "inputs": [
        {
          "internalType": "bytes32[]",
          "name": "_proof",
          "type": "bytes32[]"
        },
        {
          "internalType": "bytes32",
          "name": "_root",
          "type": "bytes32"
        },
        {
          "internalType": "bytes32",
          "name": "_leaf",
          "type": "bytes32"
        }
      ],
      "name": "isValid",
      "outputs": [
        {
          "internalType": "bool",
          "name": "",
          "type": "bool"
        }
      ],
      "stateMutability": "pure",
      "type": "function"
    },
    {
      "inputs": [],
      "name": "owner",
      "outputs": [
        {
          "internalType": "address",
          "name": "",
          "type": "address"
        }
      ],
      "stateMutability": "view",
      "type": "function"
    },
    {
      "inputs": [
        {
          "internalType": "address",
          "name": "",
          "type": "address"
        }
      ],
      "name": "pointsPerAddress",
      "outputs": [
        {
          "internalType": "uint256",
          "name": "",
          "type": "uint256"
        }
      ],
      "stateMutability": "view",
      "type": "function"
    },
    {
      "inputs": [],
      "name": "pointsToRedeem",
      "outputs": [
        {
          "internalType": "uint256",
          "name": "",
          "type": "uint256"
        }
      ],
      "stateMutability": "view",
      "type": "function"
    },
    {
      "inputs": [],
      "name": "primeApeAddress",
      "outputs": [
        {
          "internalType": "address",
          "name": "",
          "type": "address"
        }
      ],
      "stateMutability": "view",
      "type": "function"
    },
    {
      "inputs": [],
      "name": "primeApeOffset",
      "outputs": [
        {
          "internalType": "uint256",
          "name": "",
          "type": "uint256"
        }
      ],
      "stateMutability": "view",
      "type": "function"
    },
    {
      "inputs": [],
      "name": "primeDragonAddress",
      "outputs": [
        {
          "internalType": "address",
          "name": "",
          "type": "address"
        }
      ],
      "stateMutability": "view",
      "type": "function"
    },
    {
      "inputs": [],
      "name": "primeDragonEpicMerkleRoot",
      "outputs": [
        {
          "internalType": "bytes32",
          "name": "",
          "type": "bytes32"
        }
      ],
      "stateMutability": "view",
      "type": "function"
    },
    {
      "inputs": [],
      "name": "primeDragonNormalMerkleRoot",
      "outputs": [
        {
          "internalType": "bytes32",
          "name": "",
          "type": "bytes32"
        }
      ],
      "stateMutability": "view",
      "type": "function"
    },
    {
      "inputs": [],
      "name": "primeKongAddress",
      "outputs": [
        {
          "internalType": "address",
          "name": "",
          "type": "address"
        }
      ],
      "stateMutability": "view",
      "type": "function"
    },
    {
      "inputs": [],
      "name": "redeem",
      "outputs": [],
      "stateMutability": "nonpayable",
      "type": "function"
    },
    {
      "inputs": [
        {
          "internalType": "uint256",
          "name": "_amount",
          "type": "uint256"
        }
      ],
      "name": "redeemBatch",
      "outputs": [],
      "stateMutability": "nonpayable",
      "type": "function"
    },
    {
      "inputs": [],
      "name": "renounceOwnership",
      "outputs": [],
      "stateMutability": "nonpayable",
      "type": "function"
    },
    {
      "inputs": [
        {
          "internalType": "address",
          "name": "_primeApeAddress",
          "type": "address"
        },
        {
          "internalType": "address",
          "name": "_primeDragonAddress",
          "type": "address"
        },
        {
          "internalType": "address",
          "name": "_primeKongAddress",
          "type": "address"
        },
        {
          "internalType": "address",
          "name": "_infectedApeAddress",
          "type": "address"
        },
        {
          "internalType": "address",
          "name": "_babyDragonAddress",
          "type": "address"
        }
      ],
      "name": "setContracts",
      "outputs": [],
      "stateMutability": "nonpayable",
      "type": "function"
    },
    {
      "inputs": [
        {
          "internalType": "bytes32",
          "name": "_primeDragonEpicMerkleRoot",
          "type": "bytes32"
        },
        {
          "internalType": "bytes32",
          "name": "_primeDragonNormalMerkleRoot",
          "type": "bytes32"
        }
      ],
      "name": "setMerkleRoots",
      "outputs": [],
      "stateMutability": "nonpayable",
      "type": "function"
    },
    {
      "inputs": [],
      "name": "startAlphaBabyBonusWindow",
      "outputs": [],
      "stateMutability": "nonpayable",
      "type": "function"
    },
    {
      "inputs": [
        {
          "internalType": "uint256",
          "name": "_alphaBabyBonusWindowDuration",
          "type": "uint256"
        }
      ],
      "name": "startAlphaBabyBonusWindowDuration",
      "outputs": [],
      "stateMutability": "nonpayable",
      "type": "function"
    },
    {
      "inputs": [
        {
          "internalType": "address",
          "name": "newOwner",
          "type": "address"
        }
      ],
      "name": "transferOwnership",
      "outputs": [],
      "stateMutability": "nonpayable",
      "type": "function"
    }
  ],
  "bytecode": "0x6080604052603c600755611f2b6008556203f480600a557f900493612a071ad64784e9adbe4a945fc145614b5ab937e0805113bcab054483600b557f125d8be70edd7fdde86cd5c566e42f612f3da056b37163721828d171d035ba28600c5534801561006a57600080fd5b506100743361007d565b600180556100cd565b600080546001600160a01b038381166001600160a01b0319831681178455604051919092169283917f8be0079c531659141344cd1fd0a4f28419497f9722a3daafe3b4186f6b6457e09190a35050565b61155a806100dc6000396000f3fe608060405234801561001057600080fd5b50600436106101c45760003560e01c8063b171202d116100f9578063d5a4acee11610097578063ed08e62811610071578063ed08e62814610396578063f2fde38b146103a9578063f53e89b8146103bc578063f63bf8bd146103c457600080fd5b8063d5a4acee1461035a578063d736e5a11461036d578063e20c3a521461037657600080fd5b8063b8e4ccd0116100d3578063b8e4ccd01461032d578063be040fb014610340578063c50c6c7e14610348578063c65f7d9e1461035157600080fd5b8063b171202d14610309578063b2bd56ba14610312578063b36bdc301461031a57600080fd5b80638b45634511610166578063915dea6111610140578063915dea61146102ba5780639a48eb51146102cd578063a3a7c4d8146102e0578063ac0e7f77146102e957600080fd5b80638b456345146102735780638da5cb5b14610286578063903c6db61461029757600080fd5b80634f0a04e6116101a25780634f0a04e6146102215780635ae679591461024f578063715018a614610258578063797f89d91461026057600080fd5b806312e50622146101c95780631ac31b00146101f95780631cd47f8c1461020c575b600080fd5b6003546101dc906001600160a01b031681565b6040516001600160a01b0390911681526020015b60405180910390f35b6002546101dc906001600160a01b031681565b61021f61021a36600461104f565b6103d7565b005b61024161022f36600461107d565b600d6020526000908152604090205481565b6040519081526020016101f0565b61024160085481565b61021f6103e4565b6004546101dc906001600160a01b031681565b61024161028136600461109a565b6103f8565b6000546001600160a01b03166101dc565b6102aa6102a536600461119c565b61048e565b60405190151581526020016101f0565b6005546101dc906001600160a01b031681565b61021f6102db3660046111ea565b6104a3565b610241600b5481565b6102416102f736600461107d565b600f6020526000908152604090205481565b61024160095481565b61021f6104b6565b61021f61032836600461120c565b6104c4565b61021f61033b36600461104f565b610879565b61021f610968565b610241600a5481565b61024160075481565b61021f6103683660046112e5565b610ac6565b610241600c5481565b61024161038436600461107d565b600e6020526000908152604090205481565b6006546101dc906001600160a01b031681565b61021f6103b736600461107d565b610b94565b6102aa610c0d565b61021f6103d23660046113c1565b610c35565b6103df610c9c565b600a55565b6103ec610c9c565b6103f66000610cf6565b565b6002546000906001600160a01b03908116908416036104195750600c610488565b6003546001600160a01b039081169084160361043757506008610488565b6004546001600160a01b039081169084160361045557506006610488565b6005546001600160a01b039081169084160361048457600854821061047c5750600a610488565b506005610488565b5060005b92915050565b600061049b848484610d46565b949350505050565b6104ab610c9c565b600b91909155600c55565b6104be610c9c565b42600955565b6104cc610d5c565b6000546001600160a01b03163314806104e757506000600954115b61052f5760405162461bcd60e51b8152602060048201526014602482015273109d5c9b881b9bdd08185b1b1bddd959081e595d60621b60448201526064015b60405180910390fd5b600061053b84846103f8565b9050600081116105815760405162461bcd60e51b8152602060048201526011602482015270125b9d985b1a590819da5d995b88139195607a1b6044820152606401610526565b6040516331a9108f60e11b81526004810184905233906001600160a01b03861690636352211e90602401602060405180830381865afa1580156105c8573d6000803e3d6000fd5b505050506040513d601f19601f820116820180604052508101906105ec9190611432565b6001600160a01b0316146106425760405162461bcd60e51b815260206004820152601760248201527f596f7520646f206e6f74206f776e2074686973204e46540000000000000000006044820152606401610526565b61064a610c0d565b1561078d576003546001600160a01b038581169116146106d25760405162461bcd60e51b815260206004820152603d60248201527f43616e206f6e6c79206275726e205072696d6520447261676f6e20647572696e60448201527f672074686520616c706861206261627920626f6e75732077696e646f770000006064820152608401610526565b600061070f83600b546106e487610db5565b6040516020016106f4919061144f565b6040516020818303038152906040528051906020012061048e565b9050600061072384600c546106e488610db5565b9050811561075a57336000908152600f6020526040812080546001929061074b908490611494565b90915550603c935061078a9050565b801561078a57336000908152600e60205260408120805460019290610780908490611494565b90915550603c9350505b50505b604051632142170760e11b815233600482015261dead6024820152604481018490526001600160a01b038516906342842e0e90606401600060405180830381600087803b1580156107dd57600080fd5b505af11580156107f1573d6000803e3d6000fd5b5050336000908152600d602052604081208054859450909250610815908490611494565b9091555050604080513381526001600160a01b0386166020820152908101849052606081018290527f1ca6534400a1cb95c66ed05487129ad537b137d1e1489ba14d0b49a5941dbf839060800160405180910390a15061087460018055565b505050565b3332146108c85760405162461bcd60e51b815260206004820152601f60248201527f43616c6c65722063616e6e6f7420626520736d61727420636f6e7472616374006044820152606401610526565b336000908152600d60205260408120546108e490603c906114a7565b90508082111580156108f65750600081115b6109425760405162461bcd60e51b815260206004820152601b60248201527f4e6f7420656e6f75676820706f696e747320746f2072656465656d00000000006044820152606401610526565b60005b818110801561095357508281105b1561087457610960610968565b600101610945565b610970610d5c565b600754336000908152600d602052604090205410156109d15760405162461bcd60e51b815260206004820152601d60248201527f4e6f7420656e6f75676820706f696e747320616363756d756c617465640000006044820152606401610526565b600754336000908152600d6020526040812080549091906109f39084906114c9565b9091555060009050610a0433610e48565b6006546040516308934a5f60e31b8152336004820152602481018390529192506000916001600160a01b039091169063449a52f8906044016020604051808303816000875af1158015610a5b573d6000803e3d6000fd5b505050506040513d601f19601f82011682018060405250810190610a7f91906114dc565b60408051338152602081018390529192507f80cfc930fa1029f5fdb639588b474e55c8051b1a9b635f90fe3af3508cfd8ad1910160405180910390a150506103f660018055565b8251825181148015610ad85750815181145b610b245760405162461bcd60e51b815260206004820152601860248201527f417272617973206c656e677468206d757374206d6174636800000000000000006044820152606401610526565b60005b81811015610b8d57610b85858281518110610b4457610b446114f5565b6020026020010151858381518110610b5e57610b5e6114f5565b6020026020010151858481518110610b7857610b786114f5565b60200260200101516104c4565b600101610b27565b5050505050565b610b9c610c9c565b6001600160a01b038116610c015760405162461bcd60e51b815260206004820152602660248201527f4f776e61626c653a206e6577206f776e657220697320746865207a65726f206160448201526564647265737360d01b6064820152608401610526565b610c0a81610cf6565b50565b6000600954600014158015610c305750600a54600954610c2d9190611494565b42105b905090565b610c3d610c9c565b600280546001600160a01b03199081166001600160a01b03978816179091556003805482169587169590951790945560048054851693861693909317909255600580548416918516919091179055600680549092169216919091179055565b6000546001600160a01b031633146103f65760405162461bcd60e51b815260206004820181905260248201527f4f776e61626c653a2063616c6c6572206973206e6f7420746865206f776e65726044820152606401610526565b600080546001600160a01b038381166001600160a01b0319831681178455604051919092169283917f8be0079c531659141344cd1fd0a4f28419497f9722a3daafe3b4186f6b6457e09190a35050565b600082610d538584610ef8565b14949350505050565b600260015403610dae5760405162461bcd60e51b815260206004820152601f60248201527f5265656e7472616e637947756172643a207265656e7472616e742063616c6c006044820152606401610526565b6002600155565b60606000610dc283610f45565b600101905060008167ffffffffffffffff811115610de257610de26110c6565b6040519080825280601f01601f191660200182016040528015610e0c576020820181803683370190505b5090508181016020015b600019016f181899199a1a9b1b9c1cb0b131b232b360811b600a86061a8153600a8504945084610e1657509392505050565b6001600160a01b0381166000908152600f602052604081205415610e9c576001600160a01b0382166000908152600f60205260408120805460019290610e8f9084906114c9565b9091555060199392505050565b6001600160a01b0382166000908152600e602052604090205415610ef0576001600160a01b0382166000908152600e60205260408120805460019290610ee39084906114c9565b90915550600a9392505050565b506000919050565b600081815b8451811015610f3d57610f2982868381518110610f1c57610f1c6114f5565b602002602001015161101d565b915080610f358161150b565b915050610efd565b509392505050565b60008072184f03e93ff9f4daa797ed6e38ed64bf6a1f0160401b8310610f845772184f03e93ff9f4daa797ed6e38ed64bf6a1f0160401b830492506040015b6d04ee2d6d415b85acef81000000008310610fb0576d04ee2d6d415b85acef8100000000830492506020015b662386f26fc100008310610fce57662386f26fc10000830492506010015b6305f5e1008310610fe6576305f5e100830492506008015b6127108310610ffa57612710830492506004015b6064831061100c576064830492506002015b600a83106104885760010192915050565b6000818310611039576000828152602084905260409020611048565b60008381526020839052604090205b9392505050565b60006020828403121561106157600080fd5b5035919050565b6001600160a01b0381168114610c0a57600080fd5b60006020828403121561108f57600080fd5b813561104881611068565b600080604083850312156110ad57600080fd5b82356110b881611068565b946020939093013593505050565b634e487b7160e01b600052604160045260246000fd5b604051601f8201601f1916810167ffffffffffffffff81118282101715611105576111056110c6565b604052919050565b600067ffffffffffffffff821115611127576111276110c6565b5060051b60200190565b600082601f83011261114257600080fd5b813560206111576111528361110d565b6110dc565b82815260059290921b8401810191818101908684111561117657600080fd5b8286015b84811015611191578035835291830191830161117a565b509695505050505050565b6000806000606084860312156111b157600080fd5b833567ffffffffffffffff8111156111c857600080fd5b6111d486828701611131565b9660208601359650604090950135949350505050565b600080604083850312156111fd57600080fd5b50508035926020909101359150565b60008060006060848603121561122157600080fd5b833561122c81611068565b925060208401359150604084013567ffffffffffffffff81111561124f57600080fd5b61125b86828701611131565b9150509250925092565b600082601f83011261127657600080fd5b813560206112866111528361110d565b82815260059290921b840181019181810190868411156112a557600080fd5b8286015b8481101561119157803567ffffffffffffffff8111156112c95760008081fd5b6112d78986838b0101611131565b8452509183019183016112a9565b6000806000606084860312156112fa57600080fd5b833567ffffffffffffffff8082111561131257600080fd5b818601915086601f83011261132657600080fd5b813560206113366111528361110d565b82815260059290921b8401810191818101908a84111561135557600080fd5b948201945b8386101561137c57853561136d81611068565b8252948201949082019061135a565b9750508701359250508082111561139257600080fd5b61139e87838801611131565b935060408601359150808211156113b457600080fd5b5061125b86828701611265565b600080600080600060a086880312156113d957600080fd5b85356113e481611068565b945060208601356113f481611068565b9350604086013561140481611068565b9250606086013561141481611068565b9150608086013561142481611068565b809150509295509295909350565b60006020828403121561144457600080fd5b815161104881611068565b6000825160005b818110156114705760208186018101518583015201611456565b506000920191825250919050565b634e487b7160e01b600052601160045260246000fd5b808201808211156104885761048861147e565b6000826114c457634e487b7160e01b600052601260045260246000fd5b500490565b818103818111156104885761048861147e565b6000602082840312156114ee57600080fd5b5051919050565b634e487b7160e01b600052603260045260246000fd5b60006001820161151d5761151d61147e565b506001019056fea2646970667358221220f6e2eea3438389a12a616ec9682fd044c0f7b492134fb9b6869f4d687e05345d64736f6c63430008110033",
  "linkReferences": {},
  "deployedLinkReferences": {}
}