{
  "_format": "hh-sol-artifact-1",
  "contractName": "PrimeKongPlanetERC721",
  "sourceName": "src/backend/contracts/PrimeKongPlanetERC721.sol",
  "abi": [
    {
      "inputs": [
        {
          "internalType": "address",
          "name": "_openseaProxyRegistryAddress",
          "type": "address"
        }
      ],
      "stateMutability": "nonpayable",
      "type": "constructor"
    },
    {
      "anonymous": false,
      "inputs": [
        {
          "indexed": true,
          "internalType": "address",
          "name": "owner",
          "type": "address"
        },
        {
          "indexed": true,
          "internalType": "address",
          "name": "approved",
          "type": "address"
        },
        {
          "indexed": true,
          "internalType": "uint256",
          "name": "tokenId",
          "type": "uint256"
        }
      ],
      "name": "Approval",
      "type": "event"
    },
    {
      "anonymous": false,
      "inputs": [
        {
          "indexed": true,
          "internalType": "address",
          "name": "owner",
          "type": "address"
        },
        {
          "indexed": true,
          "internalType": "address",
          "name": "operator",
          "type": "address"
        },
        {
          "indexed": false,
          "internalType": "bool",
          "name": "approved",
          "type": "bool"
        }
      ],
      "name": "ApprovalForAll",
      "type": "event"
    },
    {
      "anonymous": false,
      "inputs": [
        {
          "indexed": true,
          "internalType": "address",
          "name": "previousOwner",
          "type": "address"
        },
        {
          "indexed": true,
          "internalType": "address",
          "name": "newOwner",
          "type": "address"
        }
      ],
      "name": "OwnershipTransferred",
      "type": "event"
    },
    {
      "anonymous": false,
      "inputs": [
        {
          "indexed": true,
          "internalType": "address",
          "name": "sender",
          "type": "address"
        },
        {
          "indexed": true,
          "internalType": "uint256",
          "name": "amount",
          "type": "uint256"
        }
      ],
      "name": "ReceivedEther",
      "type": "event"
    },
    {
      "anonymous": false,
      "inputs": [
        {
          "indexed": true,
          "internalType": "bytes32",
          "name": "role",
          "type": "bytes32"
        },
        {
          "indexed": true,
          "internalType": "bytes32",
          "name": "previousAdminRole",
          "type": "bytes32"
        },
        {
          "indexed": true,
          "internalType": "bytes32",
          "name": "newAdminRole",
          "type": "bytes32"
        }
      ],
      "name": "RoleAdminChanged",
      "type": "event"
    },
    {
      "anonymous": false,
      "inputs": [
        {
          "indexed": true,
          "internalType": "bytes32",
          "name": "role",
          "type": "bytes32"
        },
        {
          "indexed": true,
          "internalType": "address",
          "name": "account",
          "type": "address"
        },
        {
          "indexed": true,
          "internalType": "address",
          "name": "sender",
          "type": "address"
        }
      ],
      "name": "RoleGranted",
      "type": "event"
    },
    {
      "anonymous": false,
      "inputs": [
        {
          "indexed": true,
          "internalType": "bytes32",
          "name": "role",
          "type": "bytes32"
        },
        {
          "indexed": true,
          "internalType": "address",
          "name": "account",
          "type": "address"
        },
        {
          "indexed": true,
          "internalType": "address",
          "name": "sender",
          "type": "address"
        }
      ],
      "name": "RoleRevoked",
      "type": "event"
    },
    {
      "anonymous": false,
      "inputs": [
        {
          "indexed": true,
          "internalType": "address",
          "name": "from",
          "type": "address"
        },
        {
          "indexed": true,
          "internalType": "address",
          "name": "to",
          "type": "address"
        },
        {
          "indexed": true,
          "internalType": "uint256",
          "name": "tokenId",
          "type": "uint256"
        }
      ],
      "name": "Transfer",
      "type": "event"
    },
    {
      "anonymous": false,
      "inputs": [
        {
          "indexed": true,
          "internalType": "string",
          "name": "baseURI",
          "type": "string"
        }
      ],
      "name": "setBaseURIEvent",
      "type": "event"
    },
    {
      "anonymous": false,
      "inputs": [
        {
          "indexed": true,
          "internalType": "string",
          "name": "extension",
          "type": "string"
        }
      ],
      "name": "setExtensionEvent",
      "type": "event"
    },
    {
      "anonymous": false,
      "inputs": [
        {
          "indexed": true,
          "internalType": "uint256",
          "name": "quantity",
          "type": "uint256"
        }
      ],
      "name": "setOwnersExplicitEvent",
      "type": "event"
    },
    {
      "anonymous": false,
      "inputs": [
        {
          "indexed": true,
          "internalType": "string",
          "name": "preRevealBaseURI",
          "type": "string"
        }
      ],
      "name": "setPreRevealBaseURIEvent",
      "type": "event"
    },
    {
      "anonymous": false,
      "inputs": [
        {
          "indexed": true,
          "internalType": "uint256",
          "name": "revealDate",
          "type": "uint256"
        }
      ],
      "name": "setRevealDateEvent",
      "type": "event"
    },
    {
      "inputs": [],
      "name": "BURNER_ROLE",
      "outputs": [
        {
          "internalType": "bytes32",
          "name": "",
          "type": "bytes32"
        }
      ],
      "stateMutability": "view",
      "type": "function"
    },
    {
      "inputs": [],
      "name": "DEFAULT_ADMIN_ROLE",
      "outputs": [
        {
          "internalType": "bytes32",
          "name": "",
          "type": "bytes32"
        }
      ],
      "stateMutability": "view",
      "type": "function"
    },
    {
      "inputs": [],
      "name": "MINTER_ROLE",
      "outputs": [
        {
          "internalType": "bytes32",
          "name": "",
          "type": "bytes32"
        }
      ],
      "stateMutability": "view",
      "type": "function"
    },
    {
      "inputs": [
        {
          "internalType": "address",
          "name": "to",
          "type": "address"
        },
        {
          "internalType": "uint256",
          "name": "tokenId",
          "type": "uint256"
        }
      ],
      "name": "approve",
      "outputs": [],
      "stateMutability": "nonpayable",
      "type": "function"
    },
    {
      "inputs": [
        {
          "internalType": "address",
          "name": "owner",
          "type": "address"
        }
      ],
      "name": "balanceOf",
      "outputs": [
        {
          "internalType": "uint256",
          "name": "",
          "type": "uint256"
        }
      ],
      "stateMutability": "view",
      "type": "function"
    },
    {
      "inputs": [],
      "name": "baseURIString",
      "outputs": [
        {
          "internalType": "string",
          "name": "",
          "type": "string"
        }
      ],
      "stateMutability": "view",
      "type": "function"
    },
    {
      "inputs": [],
      "name": "extension",
      "outputs": [
        {
          "internalType": "string",
          "name": "",
          "type": "string"
        }
      ],
      "stateMutability": "view",
      "type": "function"
    },
    {
      "inputs": [
        {
          "internalType": "uint256",
          "name": "tokenId",
          "type": "uint256"
        }
      ],
      "name": "getApproved",
      "outputs": [
        {
          "internalType": "address",
          "name": "",
          "type": "address"
        }
      ],
      "stateMutability": "view",
      "type": "function"
    },
    {
      "inputs": [
        {
          "internalType": "bytes32",
          "name": "role",
          "type": "bytes32"
        }
      ],
      "name": "getRoleAdmin",
      "outputs": [
        {
          "internalType": "bytes32",
          "name": "",
          "type": "bytes32"
        }
      ],
      "stateMutability": "view",
      "type": "function"
    },
    {
      "inputs": [
        {
          "internalType": "bytes32",
          "name": "role",
          "type": "bytes32"
        },
        {
          "internalType": "address",
          "name": "account",
          "type": "address"
        }
      ],
      "name": "grantRole",
      "outputs": [],
      "stateMutability": "nonpayable",
      "type": "function"
    },
    {
      "inputs": [
        {
          "internalType": "bytes32",
          "name": "role",
          "type": "bytes32"
        },
        {
          "internalType": "address",
          "name": "account",
          "type": "address"
        }
      ],
      "name": "hasRole",
      "outputs": [
        {
          "internalType": "bool",
          "name": "",
          "type": "bool"
        }
      ],
      "stateMutability": "view",
      "type": "function"
    },
    {
      "inputs": [
        {
          "internalType": "address",
          "name": "owner",
          "type": "address"
        },
        {
          "internalType": "address",
          "name": "operator",
          "type": "address"
        }
      ],
      "name": "isApprovedForAll",
      "outputs": [
        {
          "internalType": "bool",
          "name": "",
          "type": "bool"
        }
      ],
      "stateMutability": "view",
      "type": "function"
    },
    {
      "inputs": [],
      "name": "isFrozen",
      "outputs": [
        {
          "internalType": "bool",
          "name": "",
          "type": "bool"
        }
      ],
      "stateMutability": "view",
      "type": "function"
    },
    {
      "inputs": [],
      "name": "maxMintPerTransaction",
      "outputs": [
        {
          "internalType": "uint256",
          "name": "",
          "type": "uint256"
        }
      ],
      "stateMutability": "view",
      "type": "function"
    },
    {
      "inputs": [
        {
          "internalType": "uint256",
          "name": "amount",
          "type": "uint256"
        },
        {
          "internalType": "address",
          "name": "_to",
          "type": "address"
        }
      ],
      "name": "mintTo",
      "outputs": [],
      "stateMutability": "nonpayable",
      "type": "function"
    },
    {
      "inputs": [],
      "name": "name",
      "outputs": [
        {
          "internalType": "string",
          "name": "",
          "type": "string"
        }
      ],
      "stateMutability": "view",
      "type": "function"
    },
    {
      "inputs": [],
      "name": "nextOwnerToExplicitlySet",
      "outputs": [
        {
          "internalType": "uint256",
          "name": "",
          "type": "uint256"
        }
      ],
      "stateMutability": "view",
      "type": "function"
    },
    {
      "inputs": [],
      "name": "openseaProxyRegistryAddress",
      "outputs": [
        {
          "internalType": "address",
          "name": "",
          "type": "address"
        }
      ],
      "stateMutability": "view",
      "type": "function"
    },
    {
      "inputs": [],
      "name": "owner",
      "outputs": [
        {
          "internalType": "address",
          "name": "",
          "type": "address"
        }
      ],
      "stateMutability": "view",
      "type": "function"
    },
    {
      "inputs": [
        {
          "internalType": "uint256",
          "name": "tokenId",
          "type": "uint256"
        }
      ],
      "name": "ownerOf",
      "outputs": [
        {
          "internalType": "address",
          "name": "",
          "type": "address"
        }
      ],
      "stateMutability": "view",
      "type": "function"
    },
    {
      "inputs": [],
      "name": "preRevealBaseURIString",
      "outputs": [
        {
          "internalType": "string",
          "name": "",
          "type": "string"
        }
      ],
      "stateMutability": "view",
      "type": "function"
    },
    {
      "inputs": [],
      "name": "renounceOwnership",
      "outputs": [],
      "stateMutability": "nonpayable",
      "type": "function"
    },
    {
      "inputs": [
        {
          "internalType": "bytes32",
          "name": "role",
          "type": "bytes32"
        },
        {
          "internalType": "address",
          "name": "account",
          "type": "address"
        }
      ],
      "name": "renounceRole",
      "outputs": [],
      "stateMutability": "nonpayable",
      "type": "function"
    },
    {
      "inputs": [],
      "name": "revealDate",
      "outputs": [
        {
          "internalType": "uint256",
          "name": "",
          "type": "uint256"
        }
      ],
      "stateMutability": "view",
      "type": "function"
    },
    {
      "inputs": [
        {
          "internalType": "bytes32",
          "name": "role",
          "type": "bytes32"
        },
        {
          "internalType": "address",
          "name": "account",
          "type": "address"
        }
      ],
      "name": "revokeRole",
      "outputs": [],
      "stateMutability": "nonpayable",
      "type": "function"
    },
    {
      "inputs": [
        {
          "internalType": "address",
          "name": "from",
          "type": "address"
        },
        {
          "internalType": "address",
          "name": "to",
          "type": "address"
        },
        {
          "internalType": "uint256",
          "name": "tokenId",
          "type": "uint256"
        }
      ],
      "name": "safeTransferFrom",
      "outputs": [],
      "stateMutability": "nonpayable",
      "type": "function"
    },
    {
      "inputs": [
        {
          "internalType": "address",
          "name": "from",
          "type": "address"
        },
        {
          "internalType": "address",
          "name": "to",
          "type": "address"
        },
        {
          "internalType": "uint256",
          "name": "tokenId",
          "type": "uint256"
        },
        {
          "internalType": "bytes",
          "name": "_data",
          "type": "bytes"
        }
      ],
      "name": "safeTransferFrom",
      "outputs": [],
      "stateMutability": "nonpayable",
      "type": "function"
    },
    {
      "inputs": [
        {
          "internalType": "address",
          "name": "operator",
          "type": "address"
        },
        {
          "internalType": "bool",
          "name": "approved",
          "type": "bool"
        }
      ],
      "name": "setApprovalForAll",
      "outputs": [],
      "stateMutability": "nonpayable",
      "type": "function"
    },
    {
      "inputs": [
        {
          "internalType": "string",
          "name": "_newBaseURI",
          "type": "string"
        }
      ],
      "name": "setBaseURI",
      "outputs": [],
      "stateMutability": "nonpayable",
      "type": "function"
    },
    {
      "inputs": [
        {
          "internalType": "string",
          "name": "newExtension",
          "type": "string"
        }
      ],
      "name": "setExtension",
      "outputs": [],
      "stateMutability": "nonpayable",
      "type": "function"
    },
    {
      "inputs": [
        {
          "internalType": "uint256",
          "name": "_quantity",
          "type": "uint256"
        }
      ],
      "name": "setOwnersExplicit",
      "outputs": [],
      "stateMutability": "nonpayable",
      "type": "function"
    },
    {
      "inputs": [
        {
          "internalType": "string",
          "name": "_newBaseURI",
          "type": "string"
        }
      ],
      "name": "setPreRevealBaseURI",
      "outputs": [],
      "stateMutability": "nonpayable",
      "type": "function"
    },
    {
      "inputs": [
        {
          "internalType": "uint256",
          "name": "_newRevealDate",
          "type": "uint256"
        }
      ],
      "name": "setRevealDate",
      "outputs": [],
      "stateMutability": "nonpayable",
      "type": "function"
    },
    {
      "inputs": [
        {
          "internalType": "bytes4",
          "name": "interfaceId",
          "type": "bytes4"
        }
      ],
      "name": "supportsInterface",
      "outputs": [
        {
          "internalType": "bool",
          "name": "",
          "type": "bool"
        }
      ],
      "stateMutability": "view",
      "type": "function"
    },
    {
      "inputs": [],
      "name": "symbol",
      "outputs": [
        {
          "internalType": "string",
          "name": "",
          "type": "string"
        }
      ],
      "stateMutability": "view",
      "type": "function"
    },
    {
      "inputs": [
        {
          "internalType": "uint256",
          "name": "index",
          "type": "uint256"
        }
      ],
      "name": "tokenByIndex",
      "outputs": [
        {
          "internalType": "uint256",
          "name": "",
          "type": "uint256"
        }
      ],
      "stateMutability": "view",
      "type": "function"
    },
    {
      "inputs": [
        {
          "internalType": "address",
          "name": "owner",
          "type": "address"
        },
        {
          "internalType": "uint256",
          "name": "index",
          "type": "uint256"
        }
      ],
      "name": "tokenOfOwnerByIndex",
      "outputs": [
        {
          "internalType": "uint256",
          "name": "",
          "type": "uint256"
        }
      ],
      "stateMutability": "view",
      "type": "function"
    },
    {
      "inputs": [
        {
          "internalType": "uint256",
          "name": "tokenId",
          "type": "uint256"
        }
      ],
      "name": "tokenURI",
      "outputs": [
        {
          "internalType": "string",
          "name": "",
          "type": "string"
        }
      ],
      "stateMutability": "view",
      "type": "function"
    },
    {
      "inputs": [],
      "name": "totalSupply",
      "outputs": [
        {
          "internalType": "uint256",
          "name": "",
          "type": "uint256"
        }
      ],
      "stateMutability": "view",
      "type": "function"
    },
    {
      "inputs": [
        {
          "internalType": "address",
          "name": "from",
          "type": "address"
        },
        {
          "internalType": "address",
          "name": "to",
          "type": "address"
        },
        {
          "internalType": "uint256",
          "name": "tokenId",
          "type": "uint256"
        }
      ],
      "name": "transferFrom",
      "outputs": [],
      "stateMutability": "nonpayable",
      "type": "function"
    },
    {
      "inputs": [
        {
          "internalType": "address",
          "name": "newOwner",
          "type": "address"
        }
      ],
      "name": "transferOwnership",
      "outputs": [],
      "stateMutability": "nonpayable",
      "type": "function"
    },
    {
      "stateMutability": "payable",
      "type": "receive"
    }
  ],
  "bytecode": "0x60c06040526001600055600060075560405180606001604052806024815260200162005e9460249139600b90805190602001906200003f929190620005de565b5060405180606001604052806024815260200162005e9460249139600c908051906020019062000071929190620005de565b506040518060400160405280600581526020017f2e6a736f6e000000000000000000000000000000000000000000000000000000815250600d9080519060200190620000bf929190620005de565b506101f460a0908152506000600e60006101000a81548160ff0219169083151502179055506372abef16600f55348015620000f957600080fd5b5060405162005eb838038062005eb883398181016040528101906200011f9190620006f8565b6040518060400160405280601181526020017f5072696d65204b6f6e6720506c616e65740000000000000000000000000000008152506040518060400160405280600381526020017f504b50000000000000000000000000000000000000000000000000000000000081525060a05160008111620001d4576040517f08c379a0000000000000000000000000000000000000000000000000000000008152600401620001cb90620007b1565b60405180910390fd5b8260019080519060200190620001ec929190620005de565b50816002908051906020019062000205929190620005de565b5080608081815250505050506200023162000225620002f260201b60201c565b620003a560201b60201c565b620002637f9f2df0fed2c77648de5860a4cc508cd0818c85b8b8a1ab4ceeef8d981c8956a6336200046b60201b60201c565b620002957f3c11d16cbaffd01df69ce1c404f6340ee057498f5f00246190ea54220576a848336200046b60201b60201c565b620002aa6000801b336200046b60201b60201c565b80600a60006101000a81548173ffffffffffffffffffffffffffffffffffffffff021916908373ffffffffffffffffffffffffffffffffffffffff1602179055505062000838565b60003073ffffffffffffffffffffffffffffffffffffffff163373ffffffffffffffffffffffffffffffffffffffff1614156200039e57600080368080601f016020809104026020016040519081016040528093929190818152602001838380828437600081840152601f19601f820116905080830192505050505050509050600080369050905073ffffffffffffffffffffffffffffffffffffffff818301511692505050620003a2565b3390505b90565b6000600960009054906101000a900473ffffffffffffffffffffffffffffffffffffffff16905081600960006101000a81548173ffffffffffffffffffffffffffffffffffffffff021916908373ffffffffffffffffffffffffffffffffffffffff1602179055508173ffffffffffffffffffffffffffffffffffffffff168173ffffffffffffffffffffffffffffffffffffffff167f8be0079c531659141344cd1fd0a4f28419497f9722a3daafe3b4186f6b6457e060405160405180910390a35050565b6200047d82826200048160201b60201c565b5050565b6200049382826200057360201b60201c565b6200056f5760016008600084815260200190815260200160002060000160008373ffffffffffffffffffffffffffffffffffffffff1673ffffffffffffffffffffffffffffffffffffffff16815260200190815260200160002060006101000a81548160ff02191690831515021790555062000514620002f260201b60201c565b73ffffffffffffffffffffffffffffffffffffffff168173ffffffffffffffffffffffffffffffffffffffff16837f2f8788117e7eff1d82e926ec794901d17c78024a50270940304540a733656f0d60405160405180910390a45b5050565b60006008600084815260200190815260200160002060000160008373ffffffffffffffffffffffffffffffffffffffff1673ffffffffffffffffffffffffffffffffffffffff16815260200190815260200160002060009054906101000a900460ff16905092915050565b828054620005ec9062000802565b90600052602060002090601f0160209004810192826200061057600085556200065c565b82601f106200062b57805160ff19168380011785556200065c565b828001600101855582156200065c579182015b828111156200065b5782518255916020019190600101906200063e565b5b5090506200066b91906200066f565b5090565b5b808211156200068a57600081600090555060010162000670565b5090565b600080fd5b600073ffffffffffffffffffffffffffffffffffffffff82169050919050565b6000620006c08262000693565b9050919050565b620006d281620006b3565b8114620006de57600080fd5b50565b600081519050620006f281620006c7565b92915050565b6000602082840312156200071157620007106200068e565b5b60006200072184828501620006e1565b91505092915050565b600082825260208201905092915050565b7f455243373231413a206d61782062617463682073697a65206d7573742062652060008201527f6e6f6e7a65726f00000000000000000000000000000000000000000000000000602082015250565b6000620007996027836200072a565b9150620007a6826200073b565b604082019050919050565b60006020820190508181036000830152620007cc816200078a565b9050919050565b7f4e487b7100000000000000000000000000000000000000000000000000000000600052602260045260246000fd5b600060028204905060018216806200081b57607f821691505b60208210811415620008325762000831620007d3565b5b50919050565b60805160a0516156286200086c6000396000610a010152600081816129f201528181612a1b015261321501526156286000f3fe60806040526004361061024a5760003560e01c80636352211e11610139578063b5b93a18116100b6578063d53913931161007a578063d5391393146108f1578063d547741f1461091c578063d7224ba014610945578063e985e9c514610970578063f2fde38b146109ad578063f38ade9b146109d657610295565b8063b5b93a181461080c578063b723b34e14610837578063b88d4fde14610860578063c87b56dd14610889578063cf76a153146108c657610295565b80638da5cb5b116100fd5780638da5cb5b1461072557806391d148541461075057806395d89b411461078d578063a217fddf146107b8578063a22cb465146107e357610295565b80636352211e1461064057806370a082311461067d578063715018a6146106ba578063791b3616146106d15780637e2285aa146106fc57610295565b8063282c51f3116101c757806333eeb1471161018b57806333eeb1471461055d57806336568abe1461058857806342842e0e146105b15780634f6ccce7146105da57806355f804b31461061757610295565b8063282c51f3146104785780632d20fb60146104a35780632d5537b0146104cc5780632f2ff15d146104f75780632f745c591461052057610295565b80630c88b7311161020e5780630c88b7311461039357806318160ddd146103bc5780631e08a9e4146103e757806323b872dd14610412578063248a9ca31461043b57610295565b806301f569971461029a57806301ffc9a7146102c557806306fdde0314610302578063081812fc1461032d578063095ea7b31461036a57610295565b3661029557343373ffffffffffffffffffffffffffffffffffffffff167fa419615bc8fda4c87663805ee2a3597a6d71c1d476911d9892f340d965bc7bf160405160405180910390a3005b600080fd5b3480156102a657600080fd5b506102af6109ff565b6040516102bc9190613b72565b60405180910390f35b3480156102d157600080fd5b506102ec60048036038101906102e79190613bf9565b610a23565b6040516102f99190613c41565b60405180910390f35b34801561030e57600080fd5b50610317610bd5565b6040516103249190613cf5565b60405180910390f35b34801561033957600080fd5b50610354600480360381019061034f9190613d43565b610c67565b6040516103619190613db1565b60405180910390f35b34801561037657600080fd5b50610391600480360381019061038c9190613df8565b610cec565b005b34801561039f57600080fd5b506103ba60048036038101906103b59190613d43565b610e05565b005b3480156103c857600080fd5b506103d1610e94565b6040516103de9190613b72565b60405180910390f35b3480156103f357600080fd5b506103fc610eaa565b6040516104099190613b72565b60405180910390f35b34801561041e57600080fd5b5061043960048036038101906104349190613e38565b610eb0565b005b34801561044757600080fd5b50610462600480360381019061045d9190613ec1565b610ec0565b60405161046f9190613efd565b60405180910390f35b34801561048457600080fd5b5061048d610ee0565b60405161049a9190613efd565b60405180910390f35b3480156104af57600080fd5b506104ca60048036038101906104c59190613d43565b610f04565b005b3480156104d857600080fd5b506104e1610f45565b6040516104ee9190613cf5565b60405180910390f35b34801561050357600080fd5b5061051e60048036038101906105199190613f18565b610fd3565b005b34801561052c57600080fd5b5061054760048036038101906105429190613df8565b610ff4565b6040516105549190613b72565b60405180910390f35b34801561056957600080fd5b506105726111f2565b60405161057f9190613c41565b60405180910390f35b34801561059457600080fd5b506105af60048036038101906105aa9190613f18565b611205565b005b3480156105bd57600080fd5b506105d860048036038101906105d39190613e38565b611288565b005b3480156105e657600080fd5b5061060160048036038101906105fc9190613d43565b6112a8565b60405161060e9190613b72565b60405180910390f35b34801561062357600080fd5b5061063e6004803603810190610639919061408d565b6112fb565b005b34801561064c57600080fd5b5061066760048036038101906106629190613d43565b6113af565b6040516106749190613db1565b60405180910390f35b34801561068957600080fd5b506106a4600480360381019061069f91906140d6565b6113c5565b6040516106b19190613b72565b60405180910390f35b3480156106c657600080fd5b506106cf6114ae565b005b3480156106dd57600080fd5b506106e66114c2565b6040516106f39190613db1565b60405180910390f35b34801561070857600080fd5b50610723600480360381019061071e919061408d565b6114e8565b005b34801561073157600080fd5b5061073a61159c565b6040516107479190613db1565b60405180910390f35b34801561075c57600080fd5b5061077760048036038101906107729190613f18565b6115c6565b6040516107849190613c41565b60405180910390f35b34801561079957600080fd5b506107a2611631565b6040516107af9190613cf5565b60405180910390f35b3480156107c457600080fd5b506107cd6116c3565b6040516107da9190613efd565b60405180910390f35b3480156107ef57600080fd5b5061080a6004803603810190610805919061412f565b6116ca565b005b34801561081857600080fd5b5061082161184b565b60405161082e9190613cf5565b60405180910390f35b34801561084357600080fd5b5061085e6004803603810190610859919061416f565b6118d9565b005b34801561086c57600080fd5b5061088760048036038101906108829190614250565b611912565b005b34801561089557600080fd5b506108b060048036038101906108ab9190613d43565b61196e565b6040516108bd9190613cf5565b60405180910390f35b3480156108d257600080fd5b506108db6119e4565b6040516108e89190613cf5565b60405180910390f35b3480156108fd57600080fd5b50610906611a72565b6040516109139190613efd565b60405180910390f35b34801561092857600080fd5b50610943600480360381019061093e9190613f18565b611a96565b005b34801561095157600080fd5b5061095a611ab7565b6040516109679190613b72565b60405180910390f35b34801561097c57600080fd5b50610997600480360381019061099291906142d3565b611abd565b6040516109a49190613c41565b60405180910390f35b3480156109b957600080fd5b506109d460048036038101906109cf91906140d6565b611c10565b005b3480156109e257600080fd5b506109fd60048036038101906109f8919061408d565b611c94565b005b7f000000000000000000000000000000000000000000000000000000000000000081565b60007f80ac58cd000000000000000000000000000000000000000000000000000000007bffffffffffffffffffffffffffffffffffffffffffffffffffffffff1916827bffffffffffffffffffffffffffffffffffffffffffffffffffffffff19161480610aee57507f5b5e139f000000000000000000000000000000000000000000000000000000007bffffffffffffffffffffffffffffffffffffffffffffffffffffffff1916827bffffffffffffffffffffffffffffffffffffffffffffffffffffffff1916145b80610b5657507f780e9d63000000000000000000000000000000000000000000000000000000007bffffffffffffffffffffffffffffffffffffffffffffffffffffffff1916827bffffffffffffffffffffffffffffffffffffffffffffffffffffffff1916145b80610bbe57507f7965db0b000000000000000000000000000000000000000000000000000000007bffffffffffffffffffffffffffffffffffffffffffffffffffffffff1916827bffffffffffffffffffffffffffffffffffffffffffffffffffffffff1916145b80610bce5750610bcd82611d48565b5b9050919050565b606060018054610be490614342565b80601f0160208091040260200160405190810160405280929190818152602001828054610c1090614342565b8015610c5d5780601f10610c3257610100808354040283529160200191610c5d565b820191906000526020600020905b815481529060010190602001808311610c4057829003601f168201915b5050505050905090565b6000610c7282611dc2565b610cb1576040517f08c379a0000000000000000000000000000000000000000000000000000000008152600401610ca8906143e6565b60405180910390fd5b6005600083815260200190815260200160002060009054906101000a900473ffffffffffffffffffffffffffffffffffffffff169050919050565b6000610cf7826113af565b90508073ffffffffffffffffffffffffffffffffffffffff168373ffffffffffffffffffffffffffffffffffffffff161415610d68576040517f08c379a0000000000000000000000000000000000000000000000000000000008152600401610d5f90614478565b60405180910390fd5b8073ffffffffffffffffffffffffffffffffffffffff16610d87611ddb565b73ffffffffffffffffffffffffffffffffffffffff161480610db65750610db581610db0611ddb565b611abd565b5b610df5576040517f08c379a0000000000000000000000000000000000000000000000000000000008152600401610dec9061450a565b60405180910390fd5b610e00838383611e8c565b505050565b610e0d611f3e565b600e60009054906101000a900460ff1615610e5d576040517f08c379a0000000000000000000000000000000000000000000000000000000008152600401610e5490614576565b60405180910390fd5b80600f81905550807f0d3fd7cb9739371b96241abd699251bb8caf2682a929fcdea01c53696b6eafc360405160405180910390a250565b60006001600054610ea591906145c5565b905090565b600f5481565b610ebb838383611fbc565b505050565b600060086000838152602001908152602001600020600101549050919050565b7f3c11d16cbaffd01df69ce1c404f6340ee057498f5f00246190ea54220576a84881565b610f0c611f3e565b610f1581612575565b807fe080018630bfa78e1f14c96bc2a5998edc464eb264e1bfd29a63d0c4709d8b4960405160405180910390a250565b600d8054610f5290614342565b80601f0160208091040260200160405190810160405280929190818152602001828054610f7e90614342565b8015610fcb5780601f10610fa057610100808354040283529160200191610fcb565b820191906000526020600020905b815481529060010190602001808311610fae57829003601f168201915b505050505081565b610fdc82610ec0565b610fe5816127c7565b610fef83836127db565b505050565b6000610fff836113c5565b8210611040576040517f08c379a00000000000000000000000000000000000000000000000000000000081526004016110379061466b565b60405180910390fd5b600061104a610e94565b905060008060005b838110156111b0576000600360008381526020019081526020016000206040518060400160405290816000820160009054906101000a900473ffffffffffffffffffffffffffffffffffffffff1673ffffffffffffffffffffffffffffffffffffffff1673ffffffffffffffffffffffffffffffffffffffff1681526020016000820160149054906101000a900467ffffffffffffffff1667ffffffffffffffff1667ffffffffffffffff16815250509050600073ffffffffffffffffffffffffffffffffffffffff16816000015173ffffffffffffffffffffffffffffffffffffffff161461114457806000015192505b8773ffffffffffffffffffffffffffffffffffffffff168373ffffffffffffffffffffffffffffffffffffffff16141561119c578684141561118d5781955050505050506111ec565b83806111989061468b565b9450505b5080806111a89061468b565b915050611052565b506040517f08c379a00000000000000000000000000000000000000000000000000000000081526004016111e390614746565b60405180910390fd5b92915050565b600e60009054906101000a900460ff1681565b61120d611ddb565b73ffffffffffffffffffffffffffffffffffffffff168173ffffffffffffffffffffffffffffffffffffffff161461127a576040517f08c379a0000000000000000000000000000000000000000000000000000000008152600401611271906147d8565b60405180910390fd5b61128482826128bc565b5050565b6112a383838360405180602001604052806000815250611912565b505050565b60006112b2610e94565b82106112f3576040517f08c379a00000000000000000000000000000000000000000000000000000000081526004016112ea9061486a565b60405180910390fd5b819050919050565b611303611f3e565b600e60009054906101000a900460ff1615611353576040517f08c379a000000000000000000000000000000000000000000000000000000000815260040161134a90614576565b60405180910390fd5b80600b9080519060200190611369929190613a7c565b508060405161137891906148c6565b60405180910390207fc9e8f610c54c2b76116d5166ae3d1bd8f7227fd57dce593bc86525d58991963d60405160405180910390a250565b60006113ba8261299e565b600001519050919050565b60008073ffffffffffffffffffffffffffffffffffffffff168273ffffffffffffffffffffffffffffffffffffffff161415611436576040517f08c379a000000000000000000000000000000000000000000000000000000000815260040161142d9061494f565b60405180910390fd5b600460008373ffffffffffffffffffffffffffffffffffffffff1673ffffffffffffffffffffffffffffffffffffffff16815260200190815260200160002060000160009054906101000a90046fffffffffffffffffffffffffffffffff166fffffffffffffffffffffffffffffffff169050919050565b6114b6611f3e565b6114c06000612ba1565b565b600a60009054906101000a900473ffffffffffffffffffffffffffffffffffffffff1681565b6114f0611f3e565b600e60009054906101000a900460ff1615611540576040517f08c379a000000000000000000000000000000000000000000000000000000000815260040161153790614576565b60405180910390fd5b80600d9080519060200190611556929190613a7c565b508060405161156591906148c6565b60405180910390207fa3d21ab750d11d348e1a30290d5019cdb95779b225891a5ec3e1864afa88622260405160405180910390a250565b6000600960009054906101000a900473ffffffffffffffffffffffffffffffffffffffff16905090565b60006008600084815260200190815260200160002060000160008373ffffffffffffffffffffffffffffffffffffffff1673ffffffffffffffffffffffffffffffffffffffff16815260200190815260200160002060009054906101000a900460ff16905092915050565b60606002805461164090614342565b80601f016020809104026020016040519081016040528092919081815260200182805461166c90614342565b80156116b95780601f1061168e576101008083540402835291602001916116b9565b820191906000526020600020905b81548152906001019060200180831161169c57829003601f168201915b5050505050905090565b6000801b81565b6116d2611ddb565b73ffffffffffffffffffffffffffffffffffffffff168273ffffffffffffffffffffffffffffffffffffffff161415611740576040517f08c379a0000000000000000000000000000000000000000000000000000000008152600401611737906149bb565b60405180910390fd5b806006600061174d611ddb565b73ffffffffffffffffffffffffffffffffffffffff1673ffffffffffffffffffffffffffffffffffffffff16815260200190815260200160002060008473ffffffffffffffffffffffffffffffffffffffff1673ffffffffffffffffffffffffffffffffffffffff16815260200190815260200160002060006101000a81548160ff0219169083151502179055508173ffffffffffffffffffffffffffffffffffffffff166117fa611ddb565b73ffffffffffffffffffffffffffffffffffffffff167f17307eab39ab6107e8899845ad3d59bd9653f200f220920489ca2b5937696c318360405161183f9190613c41565b60405180910390a35050565b600c805461185890614342565b80601f016020809104026020016040519081016040528092919081815260200182805461188490614342565b80156118d15780601f106118a6576101008083540402835291602001916118d1565b820191906000526020600020905b8154815290600101906020018083116118b457829003601f168201915b505050505081565b7f9f2df0fed2c77648de5860a4cc508cd0818c85b8b8a1ab4ceeef8d981c8956a6611903816127c7565b61190d8284612c67565b505050565b61191d848484611fbc565b61192984848484612c85565b611968576040517f08c379a000000000000000000000000000000000000000000000000000000000815260040161195f90614a4d565b60405180910390fd5b50505050565b6060600f5442106119ae57600b61198483612e0d565b600d60405160200161199893929190614b01565b60405160208183030381529060405290506119df565b600c6119b983612e0d565b600d6040516020016119cd93929190614b01565b60405160208183030381529060405290505b919050565b600b80546119f190614342565b80601f0160208091040260200160405190810160405280929190818152602001828054611a1d90614342565b8015611a6a5780601f10611a3f57610100808354040283529160200191611a6a565b820191906000526020600020905b815481529060010190602001808311611a4d57829003601f168201915b505050505081565b7f9f2df0fed2c77648de5860a4cc508cd0818c85b8b8a1ab4ceeef8d981c8956a681565b611a9f82610ec0565b611aa8816127c7565b611ab283836128bc565b505050565b60075481565b600080600a60009054906101000a900473ffffffffffffffffffffffffffffffffffffffff1690508273ffffffffffffffffffffffffffffffffffffffff168173ffffffffffffffffffffffffffffffffffffffff1663c4552791866040518263ffffffff1660e01b8152600401611b359190613db1565b602060405180830381865afa158015611b52573d6000803e3d6000fd5b505050506040513d601f19601f82011682018060405250810190611b769190614b70565b73ffffffffffffffffffffffffffffffffffffffff161415611b9c576001915050611c0a565b8273ffffffffffffffffffffffffffffffffffffffff16600a60009054906101000a900473ffffffffffffffffffffffffffffffffffffffff1673ffffffffffffffffffffffffffffffffffffffff161415611bfc576001915050611c0a565b611c068484612ee5565b9150505b92915050565b611c18611f3e565b600073ffffffffffffffffffffffffffffffffffffffff168173ffffffffffffffffffffffffffffffffffffffff161415611c88576040517f08c379a0000000000000000000000000000000000000000000000000000000008152600401611c7f90614c0f565b60405180910390fd5b611c9181612ba1565b50565b611c9c611f3e565b600e60009054906101000a900460ff1615611cec576040517f08c379a0000000000000000000000000000000000000000000000000000000008152600401611ce390614576565b60405180910390fd5b80600c9080519060200190611d02929190613a7c565b5080604051611d1191906148c6565b60405180910390207f9d120c0f8132a773406990878cd64bf38a460a946edaad524e58bb026e97ee0660405160405180910390a250565b60007f7965db0b000000000000000000000000000000000000000000000000000000007bffffffffffffffffffffffffffffffffffffffffffffffffffffffff1916827bffffffffffffffffffffffffffffffffffffffffffffffffffffffff19161480611dbb5750611dba82612f79565b5b9050919050565b6000805482108015611dd45750600082115b9050919050565b60003073ffffffffffffffffffffffffffffffffffffffff163373ffffffffffffffffffffffffffffffffffffffff161415611e8557600080368080601f016020809104026020016040519081016040528093929190818152602001838380828437600081840152601f19601f820116905080830192505050505050509050600080369050905073ffffffffffffffffffffffffffffffffffffffff818301511692505050611e89565b3390505b90565b826005600084815260200190815260200160002060006101000a81548173ffffffffffffffffffffffffffffffffffffffff021916908373ffffffffffffffffffffffffffffffffffffffff160217905550818373ffffffffffffffffffffffffffffffffffffffff168273ffffffffffffffffffffffffffffffffffffffff167f8c5be1e5ebec7d5bd14f71427d1e84f3dd0314c0f7b2291e5b200ac8c7c3b92560405160405180910390a4505050565b611f46611ddb565b73ffffffffffffffffffffffffffffffffffffffff16611f6461159c565b73ffffffffffffffffffffffffffffffffffffffff1614611fba576040517f08c379a0000000000000000000000000000000000000000000000000000000008152600401611fb190614c7b565b60405180910390fd5b565b6000611fc78261299e565b90506000816000015173ffffffffffffffffffffffffffffffffffffffff16611fee611ddb565b73ffffffffffffffffffffffffffffffffffffffff16148061204a5750612013611ddb565b73ffffffffffffffffffffffffffffffffffffffff1661203284610c67565b73ffffffffffffffffffffffffffffffffffffffff16145b8061206657506120658260000151612060611ddb565b611abd565b5b9050806120a8576040517f08c379a000000000000000000000000000000000000000000000000000000000815260040161209f90614d0d565b60405180910390fd5b8473ffffffffffffffffffffffffffffffffffffffff16826000015173ffffffffffffffffffffffffffffffffffffffff161461211a576040517f08c379a000000000000000000000000000000000000000000000000000000000815260040161211190614d9f565b60405180910390fd5b600073ffffffffffffffffffffffffffffffffffffffff168473ffffffffffffffffffffffffffffffffffffffff16141561218a576040517f08c379a000000000000000000000000000000000000000000000000000000000815260040161218190614e31565b60405180910390fd5b61219785858560016130c3565b6121a76000848460000151611e8c565b6001600460008773ffffffffffffffffffffffffffffffffffffffff1673ffffffffffffffffffffffffffffffffffffffff16815260200190815260200160002060000160008282829054906101000a90046fffffffffffffffffffffffffffffffff166122159190614e6d565b92506101000a8154816fffffffffffffffffffffffffffffffff02191690836fffffffffffffffffffffffffffffffff1602179055506001600460008673ffffffffffffffffffffffffffffffffffffffff1673ffffffffffffffffffffffffffffffffffffffff16815260200190815260200160002060000160008282829054906101000a90046fffffffffffffffffffffffffffffffff166122b99190614ea1565b92506101000a8154816fffffffffffffffffffffffffffffffff02191690836fffffffffffffffffffffffffffffffff16021790555060405180604001604052808573ffffffffffffffffffffffffffffffffffffffff1681526020014267ffffffffffffffff168152506003600085815260200190815260200160002060008201518160000160006101000a81548173ffffffffffffffffffffffffffffffffffffffff021916908373ffffffffffffffffffffffffffffffffffffffff16021790555060208201518160000160146101000a81548167ffffffffffffffff021916908367ffffffffffffffff16021790555090505060006001846123bf9190614ee7565b9050600073ffffffffffffffffffffffffffffffffffffffff166003600083815260200190815260200160002060000160009054906101000a900473ffffffffffffffffffffffffffffffffffffffff1673ffffffffffffffffffffffffffffffffffffffff1614156125055761243581611dc2565b15612504576040518060400160405280846000015173ffffffffffffffffffffffffffffffffffffffff168152602001846020015167ffffffffffffffff168152506003600083815260200190815260200160002060008201518160000160006101000a81548173ffffffffffffffffffffffffffffffffffffffff021916908373ffffffffffffffffffffffffffffffffffffffff16021790555060208201518160000160146101000a81548167ffffffffffffffff021916908367ffffffffffffffff1602179055509050505b5b838573ffffffffffffffffffffffffffffffffffffffff168773ffffffffffffffffffffffffffffffffffffffff167fddf252ad1be2c89b69c2b068fc378daa952ba7f163c4a11628f55a4df523b3ef60405160405180910390a461256d86868660016130c9565b505050505050565b60006007549050600082116125bf576040517f08c379a00000000000000000000000000000000000000000000000000000000081526004016125b690614f89565b60405180910390fd5b6000600183836125cf9190614ee7565b6125d991906145c5565b905060016000546125ea91906145c5565b81111561260357600160005461260091906145c5565b90505b61260c81611dc2565b61264b576040517f08c379a00000000000000000000000000000000000000000000000000000000081526004016126429061501b565b60405180910390fd5b60008290505b8181116127ae57600073ffffffffffffffffffffffffffffffffffffffff166003600083815260200190815260200160002060000160009054906101000a900473ffffffffffffffffffffffffffffffffffffffff1673ffffffffffffffffffffffffffffffffffffffff16141561279b5760006126ce8261299e565b90506040518060400160405280826000015173ffffffffffffffffffffffffffffffffffffffff168152602001826020015167ffffffffffffffff168152506003600084815260200190815260200160002060008201518160000160006101000a81548173ffffffffffffffffffffffffffffffffffffffff021916908373ffffffffffffffffffffffffffffffffffffffff16021790555060208201518160000160146101000a81548167ffffffffffffffff021916908367ffffffffffffffff160217905550905050505b80806127a69061468b565b915050612651565b506001816127bc9190614ee7565b600781905550505050565b6127d8816127d3611ddb565b6130cf565b50565b6127e582826115c6565b6128b85760016008600084815260200190815260200160002060000160008373ffffffffffffffffffffffffffffffffffffffff1673ffffffffffffffffffffffffffffffffffffffff16815260200190815260200160002060006101000a81548160ff02191690831515021790555061285d611ddb565b73ffffffffffffffffffffffffffffffffffffffff168173ffffffffffffffffffffffffffffffffffffffff16837f2f8788117e7eff1d82e926ec794901d17c78024a50270940304540a733656f0d60405160405180910390a45b5050565b6128c682826115c6565b1561299a5760006008600084815260200190815260200160002060000160008373ffffffffffffffffffffffffffffffffffffffff1673ffffffffffffffffffffffffffffffffffffffff16815260200190815260200160002060006101000a81548160ff02191690831515021790555061293f611ddb565b73ffffffffffffffffffffffffffffffffffffffff168173ffffffffffffffffffffffffffffffffffffffff16837ff6391f5c32d9c69d2a47ea670b442974b53935d1edc7fd64eb21e047a839171b60405160405180910390a45b5050565b6129a6613b02565b6129af82611dc2565b6129ee576040517f08c379a00000000000000000000000000000000000000000000000000000000081526004016129e5906150ad565b60405180910390fd5b60007f00000000000000000000000000000000000000000000000000000000000000008310612a525760017f000000000000000000000000000000000000000000000000000000000000000084612a4591906145c5565b612a4f9190614ee7565b90505b60008390505b818110612b60576000600360008381526020019081526020016000206040518060400160405290816000820160009054906101000a900473ffffffffffffffffffffffffffffffffffffffff1673ffffffffffffffffffffffffffffffffffffffff1673ffffffffffffffffffffffffffffffffffffffff1681526020016000820160149054906101000a900467ffffffffffffffff1667ffffffffffffffff1667ffffffffffffffff16815250509050600073ffffffffffffffffffffffffffffffffffffffff16816000015173ffffffffffffffffffffffffffffffffffffffff1614612b4c57809350505050612b9c565b508080612b58906150cd565b915050612a58565b506040517f08c379a0000000000000000000000000000000000000000000000000000000008152600401612b9390615169565b60405180910390fd5b919050565b6000600960009054906101000a900473ffffffffffffffffffffffffffffffffffffffff16905081600960006101000a81548173ffffffffffffffffffffffffffffffffffffffff021916908373ffffffffffffffffffffffffffffffffffffffff1602179055508173ffffffffffffffffffffffffffffffffffffffff168173ffffffffffffffffffffffffffffffffffffffff167f8be0079c531659141344cd1fd0a4f28419497f9722a3daafe3b4186f6b6457e060405160405180910390a35050565b612c81828260405180602001604052806000815250613154565b5050565b6000612ca68473ffffffffffffffffffffffffffffffffffffffff16613633565b15612e00578373ffffffffffffffffffffffffffffffffffffffff1663150b7a02612ccf611ddb565b8786866040518563ffffffff1660e01b8152600401612cf194939291906151de565b6020604051808303816000875af1925050508015612d2d57506040513d601f19601f82011682018060405250810190612d2a919061523f565b60015b612db0573d8060008114612d5d576040519150601f19603f3d011682016040523d82523d6000602084013e612d62565b606091505b50600081511415612da8576040517f08c379a0000000000000000000000000000000000000000000000000000000008152600401612d9f90614a4d565b60405180910390fd5b805181602001fd5b63150b7a0260e01b7bffffffffffffffffffffffffffffffffffffffffffffffffffffffff1916817bffffffffffffffffffffffffffffffffffffffffffffffffffffffff191614915050612e05565b600190505b949350505050565b606060006001612e1c84613656565b01905060008167ffffffffffffffff811115612e3b57612e3a613f62565b5b6040519080825280601f01601f191660200182016040528015612e6d5781602001600182028036833780820191505090505b509050600082602001820190505b600115612eda578080600190039150507f3031323334353637383961626364656600000000000000000000000000000000600a86061a8153600a8581612ec457612ec361526c565b5b0494506000851415612ed557612eda565b612e7b565b819350505050919050565b6000600660008473ffffffffffffffffffffffffffffffffffffffff1673ffffffffffffffffffffffffffffffffffffffff16815260200190815260200160002060008373ffffffffffffffffffffffffffffffffffffffff1673ffffffffffffffffffffffffffffffffffffffff16815260200190815260200160002060009054906101000a900460ff16905092915050565b60007f80ac58cd000000000000000000000000000000000000000000000000000000007bffffffffffffffffffffffffffffffffffffffffffffffffffffffff1916827bffffffffffffffffffffffffffffffffffffffffffffffffffffffff1916148061304457507f5b5e139f000000000000000000000000000000000000000000000000000000007bffffffffffffffffffffffffffffffffffffffffffffffffffffffff1916827bffffffffffffffffffffffffffffffffffffffffffffffffffffffff1916145b806130ac57507f780e9d63000000000000000000000000000000000000000000000000000000007bffffffffffffffffffffffffffffffffffffffffffffffffffffffff1916827bffffffffffffffffffffffffffffffffffffffffffffffffffffffff1916145b806130bc57506130bb826137a9565b5b9050919050565b50505050565b50505050565b6130d982826115c6565b613150576130e681613813565b6130f48360001c6020613840565b604051602001613105929190615333565b6040516020818303038152906040526040517f08c379a00000000000000000000000000000000000000000000000000000000081526004016131479190613cf5565b60405180910390fd5b5050565b600080549050600073ffffffffffffffffffffffffffffffffffffffff168473ffffffffffffffffffffffffffffffffffffffff1614156131ca576040517f08c379a00000000000000000000000000000000000000000000000000000000081526004016131c1906153df565b60405180910390fd5b6131d381611dc2565b15613213576040517f08c379a000000000000000000000000000000000000000000000000000000000815260040161320a9061544b565b60405180910390fd5b7f0000000000000000000000000000000000000000000000000000000000000000831115613276576040517f08c379a000000000000000000000000000000000000000000000000000000000815260040161326d906154dd565b60405180910390fd5b61328360008583866130c3565b6000600460008673ffffffffffffffffffffffffffffffffffffffff1673ffffffffffffffffffffffffffffffffffffffff1681526020019081526020016000206040518060400160405290816000820160009054906101000a90046fffffffffffffffffffffffffffffffff166fffffffffffffffffffffffffffffffff166fffffffffffffffffffffffffffffffff1681526020016000820160109054906101000a90046fffffffffffffffffffffffffffffffff166fffffffffffffffffffffffffffffffff166fffffffffffffffffffffffffffffffff1681525050905060405180604001604052808583600001516133809190614ea1565b6fffffffffffffffffffffffffffffffff1681526020018583602001516133a79190614ea1565b6fffffffffffffffffffffffffffffffff16815250600460008773ffffffffffffffffffffffffffffffffffffffff1673ffffffffffffffffffffffffffffffffffffffff16815260200190815260200160002060008201518160000160006101000a8154816fffffffffffffffffffffffffffffffff02191690836fffffffffffffffffffffffffffffffff16021790555060208201518160000160106101000a8154816fffffffffffffffffffffffffffffffff02191690836fffffffffffffffffffffffffffffffff16021790555090505060405180604001604052808673ffffffffffffffffffffffffffffffffffffffff1681526020014267ffffffffffffffff168152506003600084815260200190815260200160002060008201518160000160006101000a81548173ffffffffffffffffffffffffffffffffffffffff021916908373ffffffffffffffffffffffffffffffffffffffff16021790555060208201518160000160146101000a81548167ffffffffffffffff021916908367ffffffffffffffff160217905550905050600082905060005b8581101561361657818773ffffffffffffffffffffffffffffffffffffffff16600073ffffffffffffffffffffffffffffffffffffffff167fddf252ad1be2c89b69c2b068fc378daa952ba7f163c4a11628f55a4df523b3ef60405160405180910390a46135b66000888488612c85565b6135f5576040517f08c379a00000000000000000000000000000000000000000000000000000000081526004016135ec90614a4d565b60405180910390fd5b81806136009061468b565b925050808061360e9061468b565b915050613545565b508060008190555061362b60008785886130c9565b505050505050565b6000808273ffffffffffffffffffffffffffffffffffffffff163b119050919050565b600080600090507a184f03e93ff9f4daa797ed6e38ed64bf6a1f01000000000000000083106136b4577a184f03e93ff9f4daa797ed6e38ed64bf6a1f01000000000000000083816136aa576136a961526c565b5b0492506040810190505b6d04ee2d6d415b85acef810000000083106136f1576d04ee2d6d415b85acef810000000083816136e7576136e661526c565b5b0492506020810190505b662386f26fc10000831061372057662386f26fc1000083816137165761371561526c565b5b0492506010810190505b6305f5e1008310613749576305f5e100838161373f5761373e61526c565b5b0492506008810190505b612710831061376e5761271083816137645761376361526c565b5b0492506004810190505b6064831061379157606483816137875761378661526c565b5b0492506002810190505b600a83106137a0576001810190505b80915050919050565b60007f01ffc9a7000000000000000000000000000000000000000000000000000000007bffffffffffffffffffffffffffffffffffffffffffffffffffffffff1916827bffffffffffffffffffffffffffffffffffffffffffffffffffffffff1916149050919050565b60606138398273ffffffffffffffffffffffffffffffffffffffff16601460ff16613840565b9050919050565b60606000600283600261385391906154fd565b61385d9190614ee7565b67ffffffffffffffff81111561387657613875613f62565b5b6040519080825280601f01601f1916602001820160405280156138a85781602001600182028036833780820191505090505b5090507f3000000000000000000000000000000000000000000000000000000000000000816000815181106138e0576138df615557565b5b60200101907effffffffffffffffffffffffffffffffffffffffffffffffffffffffffffff1916908160001a9053507f78000000000000000000000000000000000000000000000000000000000000008160018151811061394457613943615557565b5b60200101907effffffffffffffffffffffffffffffffffffffffffffffffffffffffffffff1916908160001a9053506000600184600261398491906154fd565b61398e9190614ee7565b90505b6001811115613a2e577f3031323334353637383961626364656600000000000000000000000000000000600f8616601081106139d0576139cf615557565b5b1a60f81b8282815181106139e7576139e6615557565b5b60200101907effffffffffffffffffffffffffffffffffffffffffffffffffffffffffffff1916908160001a905350600485901c945080613a27906150cd565b9050613991565b5060008414613a72576040517f08c379a0000000000000000000000000000000000000000000000000000000008152600401613a69906155d2565b60405180910390fd5b8091505092915050565b828054613a8890614342565b90600052602060002090601f016020900481019282613aaa5760008555613af1565b82601f10613ac357805160ff1916838001178555613af1565b82800160010185558215613af1579182015b82811115613af0578251825591602001919060010190613ad5565b5b509050613afe9190613b3c565b5090565b6040518060400160405280600073ffffffffffffffffffffffffffffffffffffffff168152602001600067ffffffffffffffff1681525090565b5b80821115613b55576000816000905550600101613b3d565b5090565b6000819050919050565b613b6c81613b59565b82525050565b6000602082019050613b876000830184613b63565b92915050565b6000604051905090565b600080fd5b600080fd5b60007fffffffff0000000000000000000000000000000000000000000000000000000082169050919050565b613bd681613ba1565b8114613be157600080fd5b50565b600081359050613bf381613bcd565b92915050565b600060208284031215613c0f57613c0e613b97565b5b6000613c1d84828501613be4565b91505092915050565b60008115159050919050565b613c3b81613c26565b82525050565b6000602082019050613c566000830184613c32565b92915050565b600081519050919050565b600082825260208201905092915050565b60005b83811015613c96578082015181840152602081019050613c7b565b83811115613ca5576000848401525b50505050565b6000601f19601f8301169050919050565b6000613cc782613c5c565b613cd18185613c67565b9350613ce1818560208601613c78565b613cea81613cab565b840191505092915050565b60006020820190508181036000830152613d0f8184613cbc565b905092915050565b613d2081613b59565b8114613d2b57600080fd5b50565b600081359050613d3d81613d17565b92915050565b600060208284031215613d5957613d58613b97565b5b6000613d6784828501613d2e565b91505092915050565b600073ffffffffffffffffffffffffffffffffffffffff82169050919050565b6000613d9b82613d70565b9050919050565b613dab81613d90565b82525050565b6000602082019050613dc66000830184613da2565b92915050565b613dd581613d90565b8114613de057600080fd5b50565b600081359050613df281613dcc565b92915050565b60008060408385031215613e0f57613e0e613b97565b5b6000613e1d85828601613de3565b9250506020613e2e85828601613d2e565b9150509250929050565b600080600060608486031215613e5157613e50613b97565b5b6000613e5f86828701613de3565b9350506020613e7086828701613de3565b9250506040613e8186828701613d2e565b9150509250925092565b6000819050919050565b613e9e81613e8b565b8114613ea957600080fd5b50565b600081359050613ebb81613e95565b92915050565b600060208284031215613ed757613ed6613b97565b5b6000613ee584828501613eac565b91505092915050565b613ef781613e8b565b82525050565b6000602082019050613f126000830184613eee565b92915050565b60008060408385031215613f2f57613f2e613b97565b5b6000613f3d85828601613eac565b9250506020613f4e85828601613de3565b9150509250929050565b600080fd5b600080fd5b7f4e487b7100000000000000000000000000000000000000000000000000000000600052604160045260246000fd5b613f9a82613cab565b810181811067ffffffffffffffff82111715613fb957613fb8613f62565b5b80604052505050565b6000613fcc613b8d565b9050613fd88282613f91565b919050565b600067ffffffffffffffff821115613ff857613ff7613f62565b5b61400182613cab565b9050602081019050919050565b82818337600083830152505050565b600061403061402b84613fdd565b613fc2565b90508281526020810184848401111561404c5761404b613f5d565b5b61405784828561400e565b509392505050565b600082601f83011261407457614073613f58565b5b813561408484826020860161401d565b91505092915050565b6000602082840312156140a3576140a2613b97565b5b600082013567ffffffffffffffff8111156140c1576140c0613b9c565b5b6140cd8482850161405f565b91505092915050565b6000602082840312156140ec576140eb613b97565b5b60006140fa84828501613de3565b91505092915050565b61410c81613c26565b811461411757600080fd5b50565b60008135905061412981614103565b92915050565b6000806040838503121561414657614145613b97565b5b600061415485828601613de3565b92505060206141658582860161411a565b9150509250929050565b6000806040838503121561418657614185613b97565b5b600061419485828601613d2e565b92505060206141a585828601613de3565b9150509250929050565b600067ffffffffffffffff8211156141ca576141c9613f62565b5b6141d382613cab565b9050602081019050919050565b60006141f36141ee846141af565b613fc2565b90508281526020810184848401111561420f5761420e613f5d565b5b61421a84828561400e565b509392505050565b600082601f83011261423757614236613f58565b5b81356142478482602086016141e0565b91505092915050565b6000806000806080858703121561426a57614269613b97565b5b600061427887828801613de3565b945050602061428987828801613de3565b935050604061429a87828801613d2e565b925050606085013567ffffffffffffffff8111156142bb576142ba613b9c565b5b6142c787828801614222565b91505092959194509250565b600080604083850312156142ea576142e9613b97565b5b60006142f885828601613de3565b925050602061430985828601613de3565b9150509250929050565b7f4e487b7100000000000000000000000000000000000000000000000000000000600052602260045260246000fd5b6000600282049050600182168061435a57607f821691505b6020821081141561436e5761436d614313565b5b50919050565b7f455243373231413a20617070726f76656420717565727920666f72206e6f6e6560008201527f78697374656e7420746f6b656e00000000000000000000000000000000000000602082015250565b60006143d0602d83613c67565b91506143db82614374565b604082019050919050565b600060208201905081810360008301526143ff816143c3565b9050919050565b7f455243373231413a20617070726f76616c20746f2063757272656e74206f776e60008201527f6572000000000000000000000000000000000000000000000000000000000000602082015250565b6000614462602283613c67565b915061446d82614406565b604082019050919050565b6000602082019050818103600083015261449181614455565b9050919050565b7f455243373231413a20617070726f76652063616c6c6572206973206e6f74206f60008201527f776e6572206e6f7220617070726f76656420666f7220616c6c00000000000000602082015250565b60006144f4603983613c67565b91506144ff82614498565b604082019050919050565b60006020820190508181036000830152614523816144e7565b9050919050565b7f434f4e54524143542046524f5a454e0000000000000000000000000000000000600082015250565b6000614560600f83613c67565b915061456b8261452a565b602082019050919050565b6000602082019050818103600083015261458f81614553565b9050919050565b7f4e487b7100000000000000000000000000000000000000000000000000000000600052601160045260246000fd5b60006145d082613b59565b91506145db83613b59565b9250828210156145ee576145ed614596565b5b828203905092915050565b7f455243373231413a206f776e657220696e646578206f7574206f6620626f756e60008201527f6473000000000000000000000000000000000000000000000000000000000000602082015250565b6000614655602283613c67565b9150614660826145f9565b604082019050919050565b6000602082019050818103600083015261468481614648565b9050919050565b600061469682613b59565b91507fffffffffffffffffffffffffffffffffffffffffffffffffffffffffffffffff8214156146c9576146c8614596565b5b600182019050919050565b7f455243373231413a20756e61626c6520746f2067657420746f6b656e206f662060008201527f6f776e657220627920696e646578000000000000000000000000000000000000602082015250565b6000614730602e83613c67565b915061473b826146d4565b604082019050919050565b6000602082019050818103600083015261475f81614723565b9050919050565b7f416363657373436f6e74726f6c3a2063616e206f6e6c792072656e6f756e636560008201527f20726f6c657320666f722073656c660000000000000000000000000000000000602082015250565b60006147c2602f83613c67565b91506147cd82614766565b604082019050919050565b600060208201905081810360008301526147f1816147b5565b9050919050565b7f455243373231413a20676c6f62616c20696e646578206f7574206f6620626f7560008201527f6e64730000000000000000000000000000000000000000000000000000000000602082015250565b6000614854602383613c67565b915061485f826147f8565b604082019050919050565b6000602082019050818103600083015261488381614847565b9050919050565b600081905092915050565b60006148a082613c5c565b6148aa818561488a565b93506148ba818560208601613c78565b80840191505092915050565b60006148d28284614895565b915081905092915050565b7f455243373231413a2062616c616e636520717565727920666f7220746865207a60008201527f65726f2061646472657373000000000000000000000000000000000000000000602082015250565b6000614939602b83613c67565b9150614944826148dd565b604082019050919050565b600060208201905081810360008301526149688161492c565b9050919050565b7f455243373231413a20617070726f766520746f2063616c6c6572000000000000600082015250565b60006149a5601a83613c67565b91506149b08261496f565b602082019050919050565b600060208201905081810360008301526149d481614998565b9050919050565b7f455243373231413a207472616e7366657220746f206e6f6e204552433732315260008201527f6563656976657220696d706c656d656e74657200000000000000000000000000602082015250565b6000614a37603383613c67565b9150614a42826149db565b604082019050919050565b60006020820190508181036000830152614a6681614a2a565b9050919050565b60008190508160005260206000209050919050565b60008154614a8f81614342565b614a99818661488a565b94506001821660008114614ab45760018114614ac557614af8565b60ff19831686528186019350614af8565b614ace85614a6d565b60005b83811015614af057815481890152600182019150602081019050614ad1565b838801955050505b50505092915050565b6000614b0d8286614a82565b9150614b198285614895565b9150614b258284614a82565b9150819050949350505050565b6000614b3d82613d90565b9050919050565b614b4d81614b32565b8114614b5857600080fd5b50565b600081519050614b6a81614b44565b92915050565b600060208284031215614b8657614b85613b97565b5b6000614b9484828501614b5b565b91505092915050565b7f4f776e61626c653a206e6577206f776e657220697320746865207a65726f206160008201527f6464726573730000000000000000000000000000000000000000000000000000602082015250565b6000614bf9602683613c67565b9150614c0482614b9d565b604082019050919050565b60006020820190508181036000830152614c2881614bec565b9050919050565b7f4f776e61626c653a2063616c6c6572206973206e6f7420746865206f776e6572600082015250565b6000614c65602083613c67565b9150614c7082614c2f565b602082019050919050565b60006020820190508181036000830152614c9481614c58565b9050919050565b7f455243373231413a207472616e736665722063616c6c6572206973206e6f742060008201527f6f776e6572206e6f7220617070726f7665640000000000000000000000000000602082015250565b6000614cf7603283613c67565b9150614d0282614c9b565b604082019050919050565b60006020820190508181036000830152614d2681614cea565b9050919050565b7f455243373231413a207472616e736665722066726f6d20696e636f727265637460008201527f206f776e65720000000000000000000000000000000000000000000000000000602082015250565b6000614d89602683613c67565b9150614d9482614d2d565b604082019050919050565b60006020820190508181036000830152614db881614d7c565b9050919050565b7f455243373231413a207472616e7366657220746f20746865207a65726f20616460008201527f6472657373000000000000000000000000000000000000000000000000000000602082015250565b6000614e1b602583613c67565b9150614e2682614dbf565b604082019050919050565b60006020820190508181036000830152614e4a81614e0e565b9050919050565b60006fffffffffffffffffffffffffffffffff82169050919050565b6000614e7882614e51565b9150614e8383614e51565b925082821015614e9657614e95614596565b5b828203905092915050565b6000614eac82614e51565b9150614eb783614e51565b9250826fffffffffffffffffffffffffffffffff03821115614edc57614edb614596565b5b828201905092915050565b6000614ef282613b59565b9150614efd83613b59565b9250827fffffffffffffffffffffffffffffffffffffffffffffffffffffffffffffffff03821115614f3257614f31614596565b5b828201905092915050565b7f7175616e74697479206d757374206265206e6f6e7a65726f0000000000000000600082015250565b6000614f73601883613c67565b9150614f7e82614f3d565b602082019050919050565b60006020820190508181036000830152614fa281614f66565b9050919050565b7f6e6f7420656e6f756768206d696e7465642079657420666f722074686973206360008201527f6c65616e75700000000000000000000000000000000000000000000000000000602082015250565b6000615005602683613c67565b915061501082614fa9565b604082019050919050565b6000602082019050818103600083015261503481614ff8565b9050919050565b7f455243373231413a206f776e657220717565727920666f72206e6f6e6578697360008201527f74656e7420746f6b656e00000000000000000000000000000000000000000000602082015250565b6000615097602a83613c67565b91506150a28261503b565b604082019050919050565b600060208201905081810360008301526150c68161508a565b9050919050565b60006150d882613b59565b915060008214156150ec576150eb614596565b5b600182039050919050565b7f455243373231413a20756e61626c6520746f2064657465726d696e652074686560008201527f206f776e6572206f6620746f6b656e0000000000000000000000000000000000602082015250565b6000615153602f83613c67565b915061515e826150f7565b604082019050919050565b6000602082019050818103600083015261518281615146565b9050919050565b600081519050919050565b600082825260208201905092915050565b60006151b082615189565b6151ba8185615194565b93506151ca818560208601613c78565b6151d381613cab565b840191505092915050565b60006080820190506151f36000830187613da2565b6152006020830186613da2565b61520d6040830185613b63565b818103606083015261521f81846151a5565b905095945050505050565b60008151905061523981613bcd565b92915050565b60006020828403121561525557615254613b97565b5b60006152638482850161522a565b91505092915050565b7f4e487b7100000000000000000000000000000000000000000000000000000000600052601260045260246000fd5b7f416363657373436f6e74726f6c3a206163636f756e7420000000000000000000600082015250565b60006152d160178361488a565b91506152dc8261529b565b601782019050919050565b7f206973206d697373696e6720726f6c6520000000000000000000000000000000600082015250565b600061531d60118361488a565b9150615328826152e7565b601182019050919050565b600061533e826152c4565b915061534a8285614895565b915061535582615310565b91506153618284614895565b91508190509392505050565b7f455243373231413a206d696e7420746f20746865207a65726f2061646472657360008201527f7300000000000000000000000000000000000000000000000000000000000000602082015250565b60006153c9602183613c67565b91506153d48261536d565b604082019050919050565b600060208201905081810360008301526153f8816153bc565b9050919050565b7f455243373231413a20746f6b656e20616c7265616479206d696e746564000000600082015250565b6000615435601d83613c67565b9150615440826153ff565b602082019050919050565b6000602082019050818103600083015261546481615428565b9050919050565b7f455243373231413a207175616e7469747920746f206d696e7420746f6f20686960008201527f6768000000000000000000000000000000000000000000000000000000000000602082015250565b60006154c7602283613c67565b91506154d28261546b565b604082019050919050565b600060208201905081810360008301526154f6816154ba565b9050919050565b600061550882613b59565b915061551383613b59565b9250817fffffffffffffffffffffffffffffffffffffffffffffffffffffffffffffffff048311821515161561554c5761554b614596565b5b828202905092915050565b7f4e487b7100000000000000000000000000000000000000000000000000000000600052603260045260246000fd5b7f537472696e67733a20686578206c656e67746820696e73756666696369656e74600082015250565b60006155bc602083613c67565b91506155c782615586565b602082019050919050565b600060208201905081810360008301526155eb816155af565b905091905056fea26469706673582212202432adf1ec7cf508f49bcb191a6db4c95e2c9701dc0d1164284f1a830e46488c64736f6c634300080b003368747470733a2f2f7072696d656b6f6e67706c616e65742e696f2f6d657461646174612f",
  "linkReferences": {},
  "deployedLinkReferences": {}
}